:1010000000400020014B00008D4200008F42000094
:101010004D4B00004D4B00004D4B00000000000008
:101020000000000000000000000000004D4B000028
:101030004D4B0000000000004D4B0000550B002000
:101040004D4B00004D4B00004D4B00004D4B000040
:10105000A10B00204D4B00004D4B00004D4B0000FC
:101060004D4B00004D4B00004D4B00004D4B000020
:101070004D4B0000350C00204D4B00004D4B000047
:101080004D4B00005D0C00204D4B00004D4B00000F
:101090004D4B0000210C00204D4B00004D4B00003B
:1010A0004D4B0000250B00204D4B00004D4B000028
:1010B0004D4B00004D4B00004D4B00004D4B0000D0
:1010C0004D4B00004D4B00004D4B00004D4B0000C0
:1010D0004D4B00004D4B00004D4B00004D4B0000B0
:1010E0004D4B00004D4B00004D4B00004D4B0000A0
:1010F0004D4B00004D4B00004D4B00004D4B000090
:101100004D4B00004D4B0000590B00207D0C002082
:101110004D4B00004D4B00004D4B00004D4B00006F
:101120004D4B00004D4B00004D4B00004D4B00005F
:101130004D4B00004D4B00004D4B00004D4B00004F
:101140004D4B00004D4B00004D4B00004D4B00003F
:101150004D4B00004D4B0000BFF34F8F0549064B30
:10116000CA6802F4E0621343CB60BFF34F8F00BF45
:10117000FDE700BF00ED00E00400FA058A1A036AEB
:10118000816830B5044602600069656801FB0200B1
:101190009842A8BF18465B429842B8BF1846A36958
:1011A000E1682061D31A4B43C4E90532616A05FB4B
:1011B000023318448842A8BF084649428842B8BF53
:1011C0000846E06130BD00002DE9F341924B934C9D
:1011D0001968C022204602F010FEE37D2A2B00F29F
:1011E000C4801A1F052A40F2C080032B9DBFDB007C
:1011F000DBB203F10A020A3B94BFE275DBB2884A14
:101200001370237EA3F10802D2B2882A00F2AF80C5
:10121000642213FB02F30622B3FBF2F2814BB3FB11
:10122000F2F3814A1380814A814F136102F58052A3
:10123000804E136102F580527F4D1361A379DFF870
:1012400048825A1E312A627E98BF03EB8303A2F1C3
:10125000320194BF5B000023642994BFD2181A4660
:101260003B8003F5C8733380A37EA8F8002003EB0E
:101270008303DB0014332B80E37E023B1E2B88BFED
:101280000E234FF0020088BFE37602F0EBF963789B
:10129000002B00F02481A07F0B2888BF052002F0DE
:1012A000E1F994F82030654A03F277135B0013806C
:1012B00094F82130624A03F26B335B00138094F898
:1012C0002230604A03F25E5313805F4B94F8232070
:1012D0001A7094F825305D4AFA331380002384F89D
:1012E000273094F8283094F82A20053B142B84BF2B
:1012F000052384F8283094F82930013B092B84BF5A
:101300000A2384F82930531E082B34D90A2384F881
:101310002A3094F82B30463B462B84BFFF2384F8B9
:101320002B3094F82C30013B622B9EBF484B01229E
:101330001A70627A474B52005A60A27A9A60E27A37
:101340005200DA6094F82D30013B092B84BF05234D
:1013500084F82D3094F82E30092B56D8042B3BD826
:10136000DFE803F05335473A4B00102347E73A4A8A
:1013700040F2CF7356E7394B1B68C2EB4211C2EB08
:1013800081026A3B03EB4203DBB2C82B34498ABFBC
:10139000C8221A4613460A70B8F8002031491A4488
:1013A000A8F800203A881A443A800A881A440A8029
:1013B00032881A4432801D4A5363936302F5805287
:1013C0005363936302F5805253639363A1E7264A04
:1013D00001231370254A13706379254E2548264949
:1013E000264A092B52D80927377003700B701370E7
:1013F0005CE0234B01221A70EEE7224A01231370AE
:101400001A4A00211170184AE5E7174A00231370A1
:101410001B4A1370154BEDE7200300200C1500202C
:10142000FC14002070330C00F202002000C00440C5
:10143000F8020020FA0200201A0300201203002004
:10144000100300200E0300200C0300200A030020DC
:10145000EC1400204C030020F4020020E0020020E5
:1014600018030020EA02002011140020801600203A
:10147000071500201F0300201E0300201D0300206D
:101480001014002081160020000300200027377070
:101490000A26B3FBF6F30678B34238BF0370087828
:1014A000834238BF0B7011788B42A0D32B88194828
:1014B000B3F5967F3EBF184A00211170E27E2021CD
:1014C000B1FBF2F16422B3FBF2F2B2FBF1F2028063
:1014D0000C22B3FBF2F3114AB3FBF1F313804FF488
:1014E000FA73009340F6B8324FF47A7328884FF4B9
:1014F000967101F0F9FD0A4BA27C1880094B2AB1C4
:101500004FF47A721A6002B0BDE8F0814FF4FA62CB
:10151000F8E700BFEE02002004030020EC020020E8
:101520000603002008150020024B03481A68C0215A
:1015300002F02ABC200300200C15002070B50D49D4
:101540000D4C0E4B0A780E4D1E88206835F812306F
:1015500025F812603044C01A531CDBB2322B28BF6E
:10156000002320600B703223B0FBF3F0054B80B2F8
:10157000188070BD9814002094140020A614002038
:10158000301400209A14002008B502F0FFFA0C4B2A
:1015900093F900302BB130B90A4A13780133137034
:1015A00008BD0028F8D1084A13780133DBB2137064
:1015B000064A12789A42F3D2024B00221A70EFE7E1
:1015C000E40200200A1400201C1400200700002060
:1015D00010B5214B214C93F900202378012A2AD100
:1015E00001335BB2062BC9BF1D4B23701A70134623
:1015F000C8BF2270002B03F00103B8BF5B42194A39
:10160000137072B6184B93F900301BB994F90000AF
:1016100002F089FD62B602F01DFB144A002313702C
:10162000134A1370134A94F900301168124A013BAF
:1016300022F8131010BD013B5BB2002BDBBF062369
:10164000074A23702370D8BF01216FEA0303D8BF74
:10165000117003F00103D2E70A000020040000200B
:10166000C8140020E4020020A01400200A14002066
:101670000B14002000000020BC14002010B5094C01
:1016800023785BB9FFF7A4FF074B42F2107241F2D7
:1016900088301A6003F05CF801232370BDE8104025
:1016A00002F0C2BA2E140020000000202DE9F74FEE
:1016B000734CDFF80492A37CB9F80000DFF8FC81DA
:1016C000002B00F0AE826F4D95F90070002F71D0A5
:1016D00094F82620B9F80030002A40F01082B3F5C3
:1016E000836F2DD36849637C91F900209A421BD106
:1016F000664A1088664A1268904203D2654A128888
:10170000C72A04D998F90020002A00F08482C3F186
:1017100001030B70604B00251D60604B01221A70A5
:1017200002F05AFA5E4B1D70B9F800306FF4006198
:101730005A000A445B4991F90010521A5A490A802A
:10174000A3F13002B2F57A7F2BD24F4A617C92F935
:101750000000C1F10103984219D14C4B18884C4B41
:101760001B68984203D24B4B1B88C72B04D998F9AE
:101770000030002B00F05282474B117000251D6095
:10178000464B0120187002F027FA454B1D70B9F83E
:10179000003044495A0091F90010313A521A424936
:1017A0000A802F2B00F2AC803F4A002313803C4A72
:1017B0001370A5E03D4E94F826303178490001F5CC
:1017C0007A71002B00F0138188422DDDDFF8B8C05C
:1017D000627C9CF900309342354A21D1DFF8C8E0A1
:1017E000AEF800704FF0010E82F800E0DFF8C4E0C0
:1017F0009EF900E0BEF1000F16D0C3F101038CF892
:10180000003017702B4B00221A7040F2FF730093C8
:101810004FF4FA622F2301F067FC234B188003E09A
:1018200092F90030002BEDD03278B9F80000520068
:10183000C2F57A72904247DADFF84CC094F811E0B2
:101840009CF90010CEF101039942194B38D1164989
:1018500000270F8001211970164991F9001099B3E2
:101860008CF800E01F70134B002119702F23009398
:1018700040F2FF7301F038FC0B4B188024E000BFEE
:101880000C150020111400200A000020060300207F
:1018900000000020041400200C140020E7020020A7
:1018A000DA140020FD0200209C1400200C0300200C
:1018B000A0140020F8140020141400202514002087
:1018C00093F90030002BCED03378B9F800205B00BC
:1018D000C3F57A718A420EDB03F57A739A420ADC09
:1018E000B04B00221A80B04B93F9001019B11A7056
:1018F000AE4B01221A7095F90030002B7FF4E8AE50
:10190000AB4DAC4B2A7893F900309A4240F38C816E
:10191000A37D002B00F0888102F0FCFB02F05CF953
:10192000A54B00221A8066232B7098F90030002BFB
:1019300040F01F82A14B93F90030002B00F0198278
:10194000E37C9D4F984EDFF8ACA29D4D2E22502196
:1019500013FB01233A889342C0F2D781DFF898B293
:101960009BF90030002B40F00B82227D9AF800306A
:10197000002A40F081822A8053B9924A01211170D5
:10198000914A1360237F002B00F0118202F0FCFBD0
:1019900094F82630002B00F0E78196F90030002BF8
:1019A00040F00D8239882E2900F2C282874B2A88A6
:1019B0001B889A4288BF2B80854B93F9003033B146
:1019C000844B2A88B3F900309A42C8BF2B80824BDF
:1019D0001B68002B40F3CD812F2940F2CA8142F2CF
:1019E000107293FBF2F32A8813442B80C1E18842E2
:1019F00030DD7A4A637C92F9001099421AD1784915
:101A0000088878490968884203D277490988C72934
:101A100003D998F90010002967D0C3F101031370AE
:101A2000694B00271F60674B01221A7002F0D4F83F
:101A30006E4B1F70317840F2FF73009349002F23E3
:101A4000B9F800004FF4FA6201F57A7101F04CFB2D
:101A5000544B18803378B9F800205B00C3F57A73D3
:101A60009A422EDA5D4B627C93F90000C2F10101CB
:101A7000884217D15A4908885A490968884203D2CE
:101A800059490988C72902D998F9001091B34E49DC
:101A90001A7000270F604B490120087002F09CF873
:101AA000524B1F7032782F230093520040F2FF7385
:101AB000B9F80000C2F57A72002101F015FB394B2C
:101AC00018803378B9F800205B00C3F57A718A4238
:101AD000FFF611AF03F57A739A423FF70CAF314A24
:101AE00000231380414A137005E74FF47A73A9F875
:101AF00000309FE74FF47A73A9F80030D2E7B3F5CE
:101B0000836F294A28D3354E607C96F900108142B4
:101B10001CD1244D0020288001251570234D95F9F6
:101B20000050002D3FF4ECAEC1F101013170107096
:101B30001E4A00215B006FF40060117003442C4AC0
:101B400092F900209B1A174A1380D9E692F90020D7
:101B5000002A7FF4D5AEEBE7A3F13001B1F57A7F2F
:101B60004CD21E48667C90F90050C6F101018D42AE
:101B700012D10C4D00212980012515700B4D95F9CE
:101B80000050002D3FF4BCAE06701170074A0021D2
:101B90005B001170313BD2E792F90020002A7FF4FC
:101BA000AFAEF3E79C140020A0140020F81400202E
:101BB0002F140020FE020020161400201A1400200A
:101BC000CA140020E70200200C140020F0020020BC
:101BD000EC14002008030020E81400200A00002074
:101BE000060300200000002004140020DA14002066
:101BF000FD0200202E140020C91400208C4900236F
:101C00000B8092F9001000293FF47AAE1370894BD3
:101C100001221A7074E6A9F8002085E5A9F80030C1
:101C2000B5E5834B18806BE6E67C76B3804D28885B
:101C30001D2816D8804B00221A8094F82830288856
:101C400003EB8303B0EB830F4FEA8301FFF66DAE26
:101C500040F2FF72A023009201F046FA764B188002
:101C600063E61E28E9D094F8283003EB8303B0EB39
:101C7000830F4FEA8302E0DAA02300931E212F2373
:101C800001F032FA6C4B1880D7E76C4B6A4D93F930
:101C90000030002B36D06A4B6A4F1B78FBB16A4B81
:101CA000DFF88CA11B680093684BBAF800001B6832
:101CB00040F2FF722F2101F017FAE27E644B93FB92
:101CC000F0F3520893FBF2F3624A1380BAF8003043
:101CD0002E2B04D8604B2E801E603E6025E63B68AC
:101CE00042F2107293FBF2F39BB2B3F5006F2B80BC
:101CF00003D340F2FF732B8017E62F2B3FF615AE70
:101D00003023F8E74A4B1B88F5E79AF8003073B99F
:101D100002F000FA514B93F900300BB9FFF7AEFC1B
:101D200001238AF800304E4B1A884E4B1A804E4BD6
:101D3000E17C38881B884FF4FA620092E1B12833C5
:101D400040F2FF72892101F0CFF994F8263080B279
:101D5000288003B93370E37C2E22502113FB01232A
:101D60003A889342BFF6FAAD96F90030002B3FF463
:101D700019AE03B0BDE8F08F40F2FF722F21E2E709
:101D8000013B042B06D8DFE803F003090C0F030026
:101D900001F07CFD00238BF80030E6E501F0B6FD94
:101DA000F8E701F0F3FDF5E701F0D8FCF2E796F96A
:101DB0000030002B7FF4ECAD02F0ACF9E8E5DFF881
:101DC000B4A0DFF8AC809AF9003073B1B9F80030F4
:101DD000A3F13002B2F57A7F1ED3B3F5836F12D32D
:101DE0005B006FF40062134418E0B9F800104FF480
:101DF0007A7001F097F99AF9003000F57A70A8F836
:101E00000000002BE2D1B8F8002040F2CE739A42D5
:101E10000BD902F0B9F9A7E75B00313B134A92F9FD
:101E200000209B1AA8F80030EDE702F02BF89BE7A2
:101E30009C140020F814002016140020F414002034
:101E4000CC150020F0140020A00300209C030020EB
:101E500000879303F614002074030020E70200209B
:101E600000030020CC140020F8020020FD02002016
:101E70000415002011140020FBB9384A94F81C9076
:101E800001211170364A1360364A1370B9F1000F00
:101E900047D0E37C8BB989450FD194F82930324A79
:101EA00003EB830303EB8303DB009BB2138040F25D
:101EB000CE72934230D902F067F92C4B2C4993F93A
:101EC0000030013BC3EB03122A4B1B8803EB820358
:101ED0009AB21BB2B3F5B47FA2BFA2F5B4739AB2A3
:101EE0001BB20B8002F177031BB2B3F5B47F22491A
:101EF0001ADA0B8002F1EF031BB2B3F5B47F01DBFA
:101F0000793A13B21D4A1380E37C012B08BF88F88D
:101F1000003000232B8027E701F0B4FF86F8009003
:101F2000CBE702F0F7F8C8E7A2F1F1030B80E7E78F
:101F3000627F1E2313410A4A126893427FF636AD30
:101F40000F4A2B8812889A4284BF2A8013460D4A72
:101F500012889A4238BF2A8028E500BFE702002095
:101F60000C1400201C140020041500200400002084
:101F70002A14002014030020281400202614002016
:101F800000030020FA02002010B50A4C2378012B30
:101F900007D100F003FE00232370BDE81040FFF7D7
:101FA00085BB022BF9D1044B188800F0C3FF002336
:101FB000237010BDFD140020B01400202DE9F84F4F
:101FC0003F49404A91F9001013883F4D3F4C00298A
:101FD0005DD101331BB2B3F5B47FA8BF00231380DA
:101FE0002B8801331BB2B3F5B47FA8BF00232B802D
:101FF000238801331BB2B3F5B47F5EDA2380DFF8A8
:10200000D4B0B2F90030DFF8D0A03BF91300DFF80C
:10201000CC90BAF800302E4F1844B9F8003058432D
:1020200097F82D304FF4FA680A2690FBF8F05843E1
:1020300090FBF6F080B202F0FFF9B5F900303BF901
:102040001300BAF800301844B9F80030584397F834
:102050002D3090FBF8F0584390FBF6F080B202F080
:10206000F7F9B4F900303BF91300BAF8003018441E
:10207000B9F80030584397F82D3090FBF8F05843EA
:1020800090FBF6F0BDE8F84F80B202F0EDB9013BED
:1020900040F267111BB233EA230328BF0B461380BB
:1020A0002B88013B1BB233EA230328BF0B462B804E
:1020B0002388013B1BB2002BA0DA21809FE700BFE1
:1020C0000A0000202A1400202814002026140020D2
:1020D0000C1500200E00002008000020F202002055
:1020E00070B502F02BFB244D244C2880002002F018
:1020F0002FFB22682B88224E224D02EB42021A440B
:10210000214B1B7891084B4321602049C3F38F1367
:102110000B80C3EBD203338002F010FB3388834281
:1021200002D92B68042BF7D8FFF752FA184A00237C
:102130001370184A1370184A2B68117801332B60FA
:1021400059B9517F92F8262011430FD0132B03D990
:102150002368B3F5FA6F02D970BD022BFCD90F4B7F
:1021600000221A70BDE8704001F05EBD0C4B226881
:102170001B689A42F0D2F2E706140020000000200B
:10218000021400200C140020FC1400202C14002049
:102190000A1400201C1400200C150020E702002067
:1021A000081500202DE9F04FA349A44BA44A87B09D
:1021B0000B44136002F072FCA249102202A801F045
:1021C0001CFE9DF90C30382B9F4B40F0ED802822EF
:1021D0001A601A689D4D9E492A7093B29D4E9E4A80
:1021E0009E4C0B803380138002F052F802F040FCCA
:1021F00002F046F9FEF7E8FFE378022B05D12379D8
:10220000022B02D16378022B06D80223E3702371DC
:1022100003236370FFF788F9914A2B785363936324
:1022200002F580528F4D5363936302F580525363DE
:102230009363637C8C4A013B18BF012313708B4B63
:102240001B882B80237D03B9E37494F82630BBB13F
:10225000874B88494FF47A721A8000230122E37475
:1022600063752375A3753388A2740A707A4A323372
:1022700033801388323313807F4A138832331380BC
:102280007E4A0023138002F04DF97D4B4FF0FF3260
:10229000DA6001F015FA02F06FFD7A4B1B7813B18A
:1022A000794B01221A7001F0EBFDDFF80892774AB2
:1022B000774E518813880B4491880B44D1880B4486
:1022C000118952890B4413445B100233C9F8003062
:1022D0003368042B6FD8A37C002B14BF07230C2377
:1022E0006C4A13706C4A1370654B4FF0FF32DA6022
:1022F000637D012B0AD15D4B68481B880093006801
:102300005B08C822602100F0EFFE2880637D644FE7
:10231000022B09D13B68A3F16502942A4DD803EB47
:10232000830203EB42032B805E4B1B8842F2107248
:10233000934240F2C380DFF880A19AF90080B8F19F
:10234000000F45D001F0E6FE574B00241C80574B90
:102350008AF800401C70494B1C80414B9A6964F319
:102360001F429A61DA6964F31F42DA6103F5805310
:102370009A6964F31F429A61DA6964F31F42DA6171
:1023800003F580539A6964F31F429A61DA6964F332
:102390001F42DA6102F03EF84FF480722146444851
:1023A00002F0CEFCFEF7D8FE9DF90B20312A7FF417
:1023B00010AF50220CE7062392E7013B622B02D8B4
:1023C00040F24C43AFE7F82BAED940F6BE23AAE764
:1023D00049F64042934271D901F09CFE324B8AF893
:1023E0000080A3F80080314B83F80080234BA3F8D2
:1023F00000801B4B9A6968F31F429A61DA6968F39F
:102400001F42DA6103F580539A6968F31F429A61AB
:10241000DA6968F31F42DA6103F580539A6968F359
:102420001F429A61DA6968F31F42DA6101F0F2FF34
:102430004FF480724146B2E70000000800F000004F
:1024400020030020E0EF0000E0020020180300203D
:1024500008000020F8020020F60200200C150020E1
:1024600000C00440F40200200A000020F202002014
:10247000EA020020040300200003002018140020BA
:1024800000300440CC150020F4140020BC140020BF
:102490000C14002006000020050000200000002091
:1024A000B81400200014002016140020121400207C
:1024B000500E0020B01400201A140020784A118811
:1024C00044F6206399420DD9764B7749B3F9003031
:1024D0004FF4B4701B0493FBF0F3086803440B60E3
:1024E000002313803268714BB2F57A7F1B8805D9BF
:1024F0006F4900200870C72B07D909E0002B40F076
:10250000BC806B49642A0B7002D9694900200870AD
:10251000E17C21B19F2B9EBF654900200870654971
:1025200091F90010002900F0AC80B3F5C87F02D209
:102530005F4B00211970DFF8C8A1D9F80010032300
:1025400091FBF3F19AF9003039607BB30A2A2DD957
:10255000DFF8B081D8F8000000F0E4FD3B68B0EB94
:10256000530F1ED9B3F5FA6F1BD2534900223260C4
:102570000A7801320A70A27C1AB9504A12882F2AAE
:1025800004D84F4A1268B2F57A7F02D94D4A002129
:1025900011704D4A012111704C4A1288CA404C49B1
:1025A0000A8000228AF80020C8F80030DFF858813D
:1025B00098F90020002A6BD0464B3A4A1B880093BA
:1025C0004549394B45485B8812880988007801F0F5
:1025D0001DFA0A2001F0EAFD002388F80030DFF838
:1025E0002C8198F80030012B40F0C18001F028FACE
:1025F0004FF0804200205368DFF8DCB043F0004326
:10260000536001F049FA354B1870354B1A8840F683
:10261000E44A40F6FF710AFB02F2B2FBF1F23149E3
:1026200009884A436421B2FBF1F2ABF80020FEF7BF
:1026300085FF2D4A0AFB00F310602922B3FBF2F359
:102640000F22A3F2DC5393FBF2F3164A1BB223EAE8
:10265000E373138094F82420244B012A58D1244A90
:10266000244892F900200088BBF8001042439142B0
:1026700055DA1A8801321A8056E0642A7FF648AF8C
:1026800039E7952B98BF64211B4B88BF0A2151E77E
:102690001A4B93F900100029A1D01A709FE700BFD0
:1026A000D8140020CE140020D41400209C14002044
:1026B0002F140020E2140020E31400201614002040
:1026C000000000202E140020E7020020000300205C
:1026D000CC14002020140020DC140020AC140020B6
:1026E000A814002002030020D0140020E0140020D1
:1026F000DB1400200A030020FE0200200615002043
:10270000C8140020B4140020A1140020A21400203A
:10271000022A09D1217ABBF800209142A9D8B04AF7
:1027200092F90020002AA6D01A88AE4BAE4893F941
:10273000001042F2107300FB01339A4214DDA84BE3
:1027400001221A70A94B4FF0000BA3F800B001F062
:10275000E1FC01F041FAA64B83F800B0A54BA3F8C9
:1027600000B0A54B83F800B0002388F80030A34ADE
:102770009C4B4FF0000A82F800A093F90020002A39
:1027800040F09080DFF868A2D9F800209AF80000A5
:102790009B4B93FBF2F310FB03F09A4B80B2188033
:1027A0000A23B0FBF3F0984B1880984B93F9003054
:1027B000002B63D0964B974A1B8800939649974B02
:1027C00012881B88098800F08FFC80B2DFF88C82A9
:1027D000934B94F82B10A8F80000187881420BD284
:1027E0008B4B1B8801220092D34001F10A020A3967
:1027F00000F07AFCA8F800003368DFF84482DFF8C4
:1028000060B2632B3DD8D8F80030B3F5FA7F38D9E1
:102810000C238BF8003094F82F305BB117238148DC
:10282000009300880D234FF4FA62642100F05CFCF1
:102830007D4B187001F082FF4AF6C87398427FF60C
:1028400036AD9AF80070012F7FF431AD774A1378D6
:102850000133137001F0C0F9754B1F70634B1B8877
:102860002F2B9FBF00238AF8003041F28833C8F82D
:10287000003000233360FFF733FC18E54FF4FA60B3
:10288000A4E70C230093386803234FF4FA72642101
:1028900000F02AFCD8F800308BF80000312BBAD8B1
:1028A0000223B6E7DFF844B1624ABBF800103029D2
:1028B00040F2DC80504890F90000002800F0D680FB
:1028C00031395729DFF89C814BD892F9001041B378
:1028D000594801786AF3C301017001F07DF9574945
:1028E00088696AF31F408861C8696AF31F40C8613C
:1028F00001F5805188696AF31F408861C8696AF3ED
:102900001F40C86101F5805188696AF31F408861E2
:10291000C8696AF31F40C86101F03FFC454A82F86C
:1029200000A0FFF74BFBE37E40F22A32B2FBF3F24A
:102930000092302141F65832BBF80000B2FBF3F3AD
:10294000782200F0D1FBA8F8000080B200F0F0FB84
:10295000B8F800204FF41673B3FBF2F3294A138042
:10296000A5E401211170FFF729FBBBF80020DFF877
:10297000F8B0C82A84BF5023A8F80030B8F8000087
:1029800088BFABF800A000F0D3FBBBF90080B8F122
:10299000000F7FF48CAC134B154A83F800800123A1
:1029A0001370234A1370264B42F228301860254BCF
:1029B0003860186001F0CCFE14233360224B83F89A
:1029C0000080224B1A78224B1A70637F1BB1214B77
:1029D0001A88214B1A80FEF7FBFD01F063FD66E4C7
:1029E000F91400202514002054D9FFFF16140020EC
:1029F0002E140020181400201A1400202414002083
:102A0000C027090020140020221400200403002005
:102A1000E8020020EC020020EE020020EA02002082
:102A2000AC14002004140020FA1400202F140020FD
:102A3000E7020020FB1400200080044000C0044096
:102A400000000020B4140020A0140020E6020020A2
:102A500004000020F6020020CC140020F002002028
:102A6000E50200200C0000202A140020267F01230C
:102A70009E4213703DD194F82930424A4249434F57
:102A800003EB830303EB8303DB009BB213802A88F1
:102A9000534393FBF1F313449BB2632B3B8005D864
:102AA00001F072FB3A4B00221A8000E401F0EAF9CF
:102AB000384A3B88916963F31F419161D16963F39F
:102AC0001F41D16102F58052916963F31F41916109
:102AD000D16963F31F41D16102F58052916963F3BB
:102AE0001F419161D16963F31F412B4BD1611E706E
:102AF000D8E7022E2CD1304601F015FB2A88237B23
:102B000053434FF4FA62B3FBF2F3224A03EB83031D
:102B10005B00916928339BB263F31F419161D169D6
:102B200063F31F41D16102F58052916963F31F4144
:102B30009161D16963F31F41D16102F580529169BE
:102B400063F31F419161D16963F31F41D161A9E72B
:102B5000104B9A6992B29A61DA6992B2DA6103F51E
:102B600080539A6992B29A61DA6992B2DA6103F596
:102B700080539A6992B29A61DA6992B2DA6101F08D
:102B8000C9FA8FE70415002030F8FFFF1E1400205B
:102B90002014002000C00440A0140020954A2DE914
:102BA000F84F1168D36F944E5B1A94499BB20B8017
:102BB000934909885D099942358080F0AC8091493C
:102BC0000988994240F2A7808F4B904800211980D4
:102BD0000446536852F8087BDB1B9BB29D4201F10F
:102BE00001012CBF00230123102940F8043BF0D140
:102BF000226923686169DFF85C825340226A5A4087
:102C000063684B40616A4B409B00E16943EAC20341
:102C1000E2684A40E16A4A401343A169A2684A4017
:102C2000A16A4A4043EA4203DFB2D4E90C3295007C
:102C300045EAC305E36B1D43A36B45EA4305744BAB
:102C400093F90030EDB21BBB98F90030E3B901F005
:102C50000FF9E8B16F4A13780133DBB2642B1370BC
:102C600016D9012388F8003033886B486B49722BE2
:102C70008CBF4FF480728022694B8BBF0280028030
:102C80000820072008809A60C5F10F05EDB203E027
:102C900098F90030002BF7D1BD4240F02B81D4E9E8
:102CA00000A3D4E9028ED4F82890574F5B0243EA80
:102CB0008A23D4E904C643EA090343EA0823D4E992
:102CC000065043EACE134FF0000B43EA8C13D4E9CD
:102CD0000812A7F800B043EA4613DFF87CB1E46AB3
:102CE000BBF8007043EA051343EAC00343EA8103DB
:102CF0004C490137012CABF8007043EA420308BF8E
:102D0000494F0A7808BF3C70CAB1012A05D1474A29
:102D1000138002230B70BDE8F88F022A03D1444AC6
:102D200013700323F6E7032AF5D1252BF3D1404A8C
:102D30003E4B10781B883F4AD0540023EAE72F2BE4
:102D40003D4C09DD3D4890F9000058B13C492270E6
:102D50000B803C4B1A70DEE7581E2E2820D83848CE
:102D6000237002802378002BD5D0374A1278002AAE
:102D7000D1D1274890F900000028CCD0334D2878D5
:102D8000984230481CBF2B700270052B9CBF062256
:102D9000027002780132D2B2052A11D80270BAE765
:102DA000002BDFD12A4A92F90020012A04BF234ACE
:102DB0001370234A00231380224A23701370D1E733
:102DC0000022013B0270232B4ED8DFE803F0474A74
:102DD0005356595C5E62686B4D6E76824D4D4D4D1B
:102DE0004D868C4D4D4D4D4D4D4D4D4D4D4D4D4D9B
:102DF0004D9000BF500E0020D2150020DA150020A3
:102E0000CC160020A8030020001400208C160020FF
:102E10001A14002070160020A6030020A40300202E
:102E200000200540D0150020A1140020CE15002060
:102E3000CD1500200C1500201B140020801600204A
:102E400014140020721600202E1400207116002089
:102E5000811600209F140020D8150020294B012244
:102E600001E0284B02221A70274B22781A700023A7
:102E7000237050E7234B0322F5E7224B0422F2E7AD
:102E8000204B0522EFE7214BE9E7214B5A74214BF8
:102E9000E5E71F4B01225A741E4B0022E3E71C4B4F
:102EA0009A74E1E71A4B0122FAE7FEF73DFB184B53
:102EB000144A5B7C01331370D6E7174A0123137061
:102EC000164A1370164B93F90030012BCCD1154ADA
:102ED000F1E7114B1A70144BC1E70D4B0D4A5B7CA7
:102EE000C3F10103E7E70A4B5A7C0A4BBBE7012316
:102EF0000B70B9E70D4A1388013313800C4B002285
:102F000028E700BFC91400209E14002006150020E9
:102F10000C1500200A000020D41500208316002084
:102F2000811600208016002082160020D615002071
:102F3000D0150020F0B55C4C5C49002323601E4690
:102F400041F823600133252BFAD1594B1B7823B16B
:102F5000584A9579002D5DD096710023564A92F912
:102F600000501DB1002313704FF46063534A92F96F
:102F70000050002D7CD00023137040F6FF63504AB0
:102F800013604C4B01229A714D4A1068C0F30B1428
:102F900083B2C0F3072060404340DB43106803F076
:102FA0000F0343EA00131360156814681068126871
:102FB000444B2D1302F00F02C4F303245D579A56BD
:102FC0001C57C0F3031042EAC5321B5642EA842262
:102FD00042EA43123C4B1A603C4B1E783C4B701C3F
:102FE0001B8841F820303B4B1F8813244FF0010C05
:102FF00051F820500CFA04F31340E340FD40013037
:103000006B40BB40013C41F82030F1D2002341F835
:103010002630F0BD9788568813880137BFB2013635
:103020000133B6B29BB2272F9780568013800AD9FE
:10303000294B9580B3F90030322693FBF6F3DBB2CF
:1030400043F4C0638AE7C72E09D9244B55801B88F7
:103050001926B3FBF6F3DBB243F480637EE7C72B9C
:103060007FF67BAF1E4B15801B7843F4007375E72A
:10307000002B84D11B4B1A784FF6FF73002A08BF30
:1030800018460F2340FA03F2012A07D1083B2360B8
:10309000184140EA43200A4B186075E7013B082BB2
:1030A000F0D10023F4E700BF7C160020DC150020DF
:1030B000D4150020841600208316002082160020DC
:1030C00074160020804D000078160020B8040020FF
:1030D000A6030020A4030020CE140020DC1400204E
:1030E000AC1400202E140020F0B5059D04461846AF
:1030F00001E01D463246944210DAA1420FDA8542C1
:103100000DD08F182B18B1EB670F4FEA67064FEA07
:10311000630305D0B442ECDD711CE8E72846F0BD3E
:103120001846FCE7401A0028B8BF4042704700002C
:1031300064235843074B58601A7842F001021A7012
:10314000596821B91A7861F300021A70704700BFFC
:10315000F6E700BF00A0044010B5044604B910BD56
:103160004FF47A70FFF7E4FF013CF7E7484008228C
:1031700043B2002BBDBF5B0083F00703D8B2400011
:1031800002F1FF33A8BFC0B213F0FF02F0D17047C5
:1031900038B5044645180020AC4200D138BD014680
:1031A00014F8010BFFF7E2FFF6E70000674B2DE98B
:1031B000F74FD3E900206424801A6FF44873B0FB02
:1031C000F4F41FFA84F808EB030292B240F276514D
:1031D0008A425F4F4FF0000200F2AE805D4DDFF893
:1031E0009C912A8099F80020002A79D0DFF890A1DC
:1031F0009AF80020EAB140F2E1439845564E63D96F
:1032000033784B2B32D9554A138819339BB213802C
:10321000A3F2EE23524A03EBD3735B10002482F82F
:10322000203089F80040FEF77FF9347000F06EFB23
:103230001CE04C4ADFF84CB1117809B9ABF800003A
:10324000494EBBF80000013111703188FFF76AFF69
:103250003228444A3D4B19D9002389F8003033887D
:10326000ABF800309AF80030002BC4D100232B803B
:103270003E483F493A6803880968D41A8C425EDDAB
:103280000B449BB2038003B0BDE8F08FD3E900315B
:10329000CB1A31881278C1EBC1010B44C3F3CF03C1
:1032A000322A3380DBD9193B9BB23380A3F2D66339
:1032B0002B4A03EBD3735B1082F8213001238AF889
:1032C000003000F0E3FACAE73378244A0133337060
:1032D0001388C3EBC30313FA84F3DB1013808FE767
:1032E0001F4BA0B29C7CBCB1224B198841450AD32C
:1032F0004FF47A73009313460A4618490988FFF77A
:10330000F3FE3860B2E74FF4FA63174A009312886D
:1033100040F2E9330131F2E740F2FF73124A0F49FC
:103320000093128809882F23FFF7DEFE3028CCBFD8
:10333000034623463B6099E70F4B1A8098E79C1A97
:10334000A14201DA5B1A9CE793B29BE7500E002082
:10335000E816002000140020DE16002012030020D2
:103360000C150020E3160020100300201414002088
:10337000B00300200E03002018140020E4160020E3
:10338000E2160020E0160020134B1B68A3F15A023E
:10339000B2F59B7F11D2114B1A6841F26F739A42BA
:1033A0000AD80F4A012313700E4A0E2111700E4ADB
:1033B000202111700D4A137070470A3B462BFBD831
:1033C000064B1B68B3F57A7FF6D2054A01231370CA
:1033D0000721044AEAE700BFAC030020D81600200A
:1033E00011140020B8040020AA03002012140020A9
:1033F000084B1B686FF4FA621344074A934207D8DC
:10340000064B04221A70064A01231370054A1370F2
:10341000704700BFAC0300207E2C0300AA030020ED
:1034200010140020121400201E481F490268F8B52D
:103430001E4F002439602346A446012550F8046F2E
:10344000964207D0B21A8A423CBF11464FF0010C97
:103450001344012401351F2D3246EFD1002C08BF43
:103460000023BCF1000F00D03960114A11485B09FC
:10347000136090F90030012B01D1FFF785FF0E4951
:1034800091F90030012B01D1FFF7B2FF03780A78E0
:10349000134305D1FFF778FFBDE8F840FFF7A8BF59
:1034A000F8BD00BF500E002080841E00AC03002039
:1034B000D81600201114002010140020F8B5544D27
:1034C00095F900308BB1534B93F900306BB1524BEF
:1034D000524C93F9003023B101F04EFC02232370CB
:1034E000F8BD01F045FC0123F9E74D4B93F900309D
:1034F0002BB9FFF799FFBDE8F84001F03DBC012B67
:10350000EED1444B93F9003073B1434B93F9003043
:1035100033B1444B1888FFF70DFDFFF73FFBEAE797
:10352000BDE8F84001F024BC3F4C94F90030012B79
:1035300003D1FFF733FB01F01FFC3C4B93F9003044
:10354000012B08D100F094FC394B002835D0032220
:103550001A7001F011FC95F90030002BC0D194F9DC
:103560000030FBB1334B1A78032A1BD83249098843
:10357000052917D931490132D2B21A70CB6F0968C7
:103580005B1A2F490868042A10FA83F30B6009D1EB
:10359000C3F38F12C3F38F03D0182A499B1A2A4A08
:1035A00008801380294F388860B9294B1B784BB9A4
:1035B000214A13880133138092E702221A70FFF721
:1035C000F5FDC6E7234BDD79002D89D11A4B1D800F
:1035D00040F2DC53984283D91F4E204C3188FFF7CC
:1035E000A1FD322803D925703B88338078E7237802
:1035F0000133DBB2322B2370F6D9194B1D78002D25
:10360000F2D100F0C3F9124B01221A70EBE700BFB0
:103610001A1400209F14002028170020FD140020F9
:1036200012140020B01400201114002010140020E7
:10363000AA030020D416002018140020500E0020E9
:10364000D0160020A8030020CC1600209C140020D7
:10365000E41600200C150020DC160020E5160020E2
:10366000E21600200B28034B28BF0B2040001870E7
:10367000704700BFEC1600200F4A104B91691B7871
:1036800063F31F419161D16963F31F41D16102F579
:103690008052916963F31F419161D16963F31F41C6
:1036A000D16102F58052916963F31F419161D16943
:1036B00063F31F41D161704700C00440EC16002045
:1036C0002DE9F04172B6DFF890801E4F1E4E1F4C60
:1036D00040F2CF73C8F8103003203B613361FFF72D
:1036E000CBFF00F020FD372000F0D4FD4FF0FF3578
:1036F000C820FFF731FDE560052000F014FD28200B
:1037000000F0C8FDC820FFF727FDE560062000F0A7
:103710000AFD192000F0BEFDC820FFF71DFDE56081
:1037200000F0F8FC002000F0B5FD094B00221A80E3
:10373000084B1B88C8F810303B61336162B6BDE8A6
:10374000F08100BF00D0044000E00440003004409D
:1037500000140020F202002000C004402DE9F041D6
:10376000DFF888801C4F1D4E40F2CF73C8F8103030
:103770003B61336172B61A4C4FF0FF35E5603C2077
:1037800000F088FD0120FFF777FF00F0CCFC4B2014
:10379000FFF7E2FCE560502000F07CFD4B20FFF7D6
:1037A000DBFCE5605A2000F075FD4B20E560FFF77B
:1037B000D3FCE56000F0AEFC002000F06BFD094B8F
:1037C00000221A80084B1B88C8F810303B61336117
:1037D00062B6BDE8F08100BF00D0044000E00440C4
:1037E0000030044000140020F202002000C0044019
:1037F0002DE9F84372B61F4CDFF88890DFF8888017
:103800001D4F40F2CF734FF0FF35C9F810305020F4
:10381000C8F810303B61E56000F03CFD0320FFF785
:103820002BFF00F080FC154B002664201E80FFF764
:1038300093FCE560462000F02DFD6420FFF78CFC32
:10384000E560282000F026FD6420FFF785FCE56098
:1038500000F060FC304600F01DFD084B1E80084B58
:103860001B88C9F81030C8F810303B6162B6BDE85B
:10387000F88300BF0030044000E004400014002042
:10388000F202002000C0044000D004402DE9F041C5
:10389000DFF87480174F184E184C40F2CF73C8F8F9
:1038A000103032203B61336100F0F4FC0220FFF75E
:1038B000E3FE4FF0FF3500F036FC9620FFF74CFC9E
:1038C000E5601E20E56000F0E5FC9620FFF744FC73
:1038D000E56000F01FFC002000F0DCFC084B00223B
:1038E0001A80084B1B88C8F810303B613361BDE873
:1038F000F08100BF00D0044000E0044000300440EC
:1039000000140020F202002000C004402DE9F04124
:10391000DFF87480174F184E184C40F2CF73C8F878
:10392000103028203B61336100F0B4FC0220FFF727
:10393000A3FE4FF0FF3500F0F6FB9620FFF70CFCDE
:10394000E5605020E56000F0A5FC9620FFF704FC40
:10395000E56000F0DFFB002000F09CFC084B00223B
:103960001A80084B1B88C8F810303B613361BDE8F2
:10397000F08100BF00D0044000E00440003004406B
:1039800000140020F202002000C004401B4A40F254
:10399000CF7370B5136102F58052136102F5805246
:1039A000136172B6FFF768FE154D77244FF0FF36AE
:1039B000EE601420B4FBF0F000F0B5FB60100A30AC
:1039C00080B200F067FC023C0A20FFF7C5FB631CD5
:1039D000EE60EDD100F09EFB002000F05BFC094B97
:1039E00000221A80084B054A1B88136102F5805299
:1039F000136102F58052136162B670BD00C00440CD
:103A00000030044000140020F202002038B50B4CB6
:103A1000BDF810502070A170080A110A6070E170A2
:103A20002271A3711A0A09212B0A20466271E371DF
:103A30002572FFF7ADFB607238BD00BFF0160020A5
:103A4000064B07499A880A800649188808805988D1
:103A5000054B1980054B1A80704700BF22170020C4
:103A6000AA140020A8140020A6140020A4140020EA
:103A70000849820900F03F0051F82230013251F824
:103A800022209A1A504348BF3F30A3EBA01000B247
:103A9000704700BFB4030020014B1888FFF7E8BF50
:103AA000A414002010B5374BD3F8A020012161F3F6
:103AB0000922C3F8A020D3F8A02061F31D62C3F847
:103AC000A020D3F8A02042F48032C3F8A020D3F87D
:103AD000A0200A43C3F8A020D3F8A02042F010028F
:103AE000C3F8A0204FF08043072093F800240A4336
:103AF00083F800241A7E60F303021A76D86D02223E
:103B000062F31740D865B3F8500062F30100A3F8E0
:103B10005000B3F85000062464F34B20A3F8500083
:103B2000B3F8500020F48070A3F85000B3F84000C0
:103B300020F00300A3F84000B3F8400061F3051043
:103B4000A3F84000B3F8401062F30921A3F8401035
:103B50009A6E322161F317029A661A7842F00102D6
:103B60001A70D3F800249207FBD51A8C42F0010298
:103B70001A84054B4FF480225A60C02283F8322306
:103B800010BD00BF0010044000E100E0104B93F9AD
:103B900000201B78062B19D80120904010F0480F08
:103BA0000FD110F0240F07D110F012000FD0094BE5
:103BB0001868C0F380107047064B1868C0F30010F7
:103BC0007047044B1868C0F34010704700207047DE
:103BD0000400002000100140124BB3F8642042F0B2
:103BE0001002A3F86420B3F8642042F02002A3F886
:103BF0006420B3F8642042F04002A3F86420B3F8D4
:103C0000802042F01002A3F88020B3F8802042F018
:103C10002002A3F88020B3F8802042F04002A3F8ED
:103C20008020704700100140094BB3F8602042F03B
:103C30001002A3F86020B3F8602042F02002A3F83D
:103C40006020B3F8602042F04002A3F86020704783
:103C500000100140494B93F90020494B012A01D043
:103C6000042A35D1B3F8642042F01002A3F864208E
:103C7000B3F8642042F02002A3F86420B3F8602077
:103C800042F04002A3F860201A8B42F010021A831F
:103C90001A8B42F020021A839A8A42F040029A82DA
:103CA000384A92F90020002A55D0B3F8742042F027
:103CB0001002A3F87420B3F8742042F02002A3F895
:103CC0007420B3F8742042F04002A3F874207047C7
:103CD000022A01D0052A1ED1B3F8602042F010025A
:103CE000A3F86020B3F8642042F02002A3F8642017
:103CF000B3F8642042F04002A3F864209A8A42F0AC
:103D000010029A821A8B42F020021A831A8B42F018
:103D100040021A83C4E7032A1AD1B3F8642042F0A0
:103D20001002A3F86420B3F8602042F02002A3F848
:103D30006020B3F8642042F04002A3F864201A8B9C
:103D400042F010021A839A8A42F020029A82DDE73A
:103D5000062AE2D0A4E7B3F8702042F01002A3F8DC
:103D60007020B3F8702042F02002A3F87020B3F85E
:103D7000702042F04002A3F8702070470400002039
:103D800000100140E40200202DE9F7430C460546EF
:103D900000211046904600F007FFB4F5806FA8BFE1
:103DA0004FF48064082CB8BF0824264600274FF043
:103DB000FF39042E3246294628BF04226846CDE941
:103DC000009900F0C5FF042E07D9321F042A28BF2E
:103DD0000422291D01A800F0BBFF08EB0700002208
:103DE0006946083700F0CAFEA742A6F1080605F1A9
:103DF0000805DED303B0BDE8F083F7B50024CDE9B4
:103E000000440F4616460546A64201D803B0F0BD51
:103E10000022E019694600F09BFE009B2B70621C9B
:103E2000964284BF1A0A6A70A21C964284BF1A0C7A
:103E3000AA70E21C964284BF1B0EEB70231D9E42AB
:103E400084BF019B2B71631D9E4282BF019B1B0A95
:103E50006B71A31D9E4284BFBDF80630AB71E31D9C
:103E60009E4284BF9DF80730EB7108340835CBE7DC
:103E7000024B1868C0F34010704700BF00000140BB
:103E800070470000124B1A8F42F480521A879A89A9
:103E900042F480529A811A8F42F480621A879A897A
:103EA00042F480629A811A8F42F480721A879A894A
:103EB00042F480729A819A8E42F400529A869A8EC7
:103EC00042F400629A869A8E42F400729A86704793
:103ED00000000140114B1A7D114BAAB91A8F42F410
:103EE00000621A879A8942F400629A819A8D42F49C
:103EF00000629A850A4B9A8E42F480629A861A8EE4
:103F000042F480621A8670479A8E42F400629A8662
:103F10001A8E42F400621A86ECE700BF0C150020EE
:103F2000000001400C4B1A8F42F400621A879A89F4
:103F300042F400629A819A8D42F400629A851A8F47
:103F400042F480621A879A8942F480629A819A8D3B
:103F500042F480629A857047000001400C4B1A8F32
:103F600042F400621A871A8942F400621A819A8D1B
:103F700042F400629A851A8F42F480621A879A8905
:103F800042F480629A819A8D42F480629A857047E9
:103F900000000140114B1A7D114BAAB91A8F42F44F
:103FA00000521A879A8942F400529A819A8D42F4FB
:103FB00000529A850A4B9A8E42F480529A861A8E43
:103FC00042F480521A8670479A8E42F400529A86C2
:103FD0001A8E42F400521A86ECE700BF0C1500203E
:103FE000000001400C4B1A8F42F400521A879A8944
:103FF00042F400529A819A8D42F400529A851A8FA7
:1040000042F480521A879A8942F480529A819A8D9A
:1040100042F480529A857047000001400C4B1A8F81
:1040200042F400521A871A8942F400521A819A8D7A
:1040300042F400529A851A8F42F480521A879A8964
:1040400042F480529A819A8D42F480529A85704748
:1040500000000140114B1A7D114BAAB91A8F42F48E
:1040600000721A879A8942F400729A819A8D42F4FA
:1040700000729A850A4B9A8E42F480729A861A8E42
:1040800042F480721A8670479A8E42F400729A86C1
:104090001A8E42F400721A86ECE700BF0C1500205D
:1040A000000001400C4B1A8F42F400721A879A8963
:1040B00042F400729A819A8D42F400729A851A8FA6
:1040C00042F480721A879A8942F480729A819A8D9A
:1040D00042F480729A857047000001400C4B1A8FA1
:1040E00042F400721A871A8942F400721A819A8D7A
:1040F00042F400729A851A8F42F480721A879A8964
:1041000042F480729A819A8D42F480729A85704747
:104110000000014008B5FFF765FFFFF703FFBDE8AA
:104120000840FFF7BFBF013808B505282BD8DFE8E6
:1041300000F0030B13181D25FFF72CFFFFF70EFFF0
:10414000BDE80840FFF7AEBFFFF74CFFFFF706FFE3
:10415000BDE80840FFF77EBFFFF760FFFFF7E2FE14
:10416000F6E7FFF75BFFFFF7B5FEE9E7FFF73AFF7A
:10417000FFF7B0FEBDE80840FFF7B0BFFFF70AFF4A
:10418000FFF7D0FEF6E708BD08B5FFF747FFFFF7DA
:10419000E5FEBDE80840FFF7A1BF08B5FFF7FAFE4E
:1041A000FFF798FEBDE80840FFF754BF084B4FF4F7
:1041B000806210B55A63074C074A0023D9B288427F
:1041C00000D810BD12F8011B21600133F6E700BFD3
:1041D0000010014000500440F016002038B5254B77
:1041E0002548D3F8002142F00202C3F80021D3F899
:1041F000042142F00202C3F80421204A4FF48061F6
:104200005161116A012464F315511162196E1C4A3F
:104210000A4042F480721A661A6E22431A661A6EB7
:1042200042F010021A6600F081FD134B9C72154C8F
:1042300019464FF4E13520465D6000F04BFD94F8DF
:104240002C3043F0100384F82C30238F43F40063A8
:1042500023872946204600F00DFD238E43F00103FD
:104260002386094B4FF000721A60C02283F819238D
:1042700038BD00BF001004402C1700200010014082
:10428000FFFCFEC00050044000E100E07047FEE784
:104290007047000030B5E0B95B495C4A0B68012407
:1042A00064F38C230B60136864F38C231360584B06
:1042B0001D6864F38C251D600C6860F3C9140C60E4
:1042C000116860F3C91111601A6860F3C9121A60AD
:1042D0000AE0322800F088800FD8192855D004D879
:1042E0000A282CD014283DD030BD1E2860D02828A4
:1042F000FAD1454902200B6837E046287CD016D811
:10430000372875D03C28EFD13F49404A0B6803203D
:1043100060F38C230B60136860F38C2313603C4BB9
:104320001C6860F38C241C600C680420C5E75028CE
:1043300066D05A28D8D1344903200B683BE0324A72
:104340001168052363F3C911116002F580521168E9
:1043500063F3C911116002F58052116863F3C9114A
:104360001160C1E728490B68012060F38C23274ABC
:104370000B60136860F38C231360254B1C6860F39B
:104380008C241C600C68052097E71F490B680120EE
:1043900060F38C231D4A0B60136860F38C23136059
:1043A0001B4B1C6860F38C241C600C68062084E79F
:1043B00015490B680120154A60F38C230B601368C4
:1043C00060F38C231360124B1C6860F38C241C6018
:1043D000086840F460700860116841F46071116011
:1043E0001A6842F4607272E7074902200B68CFE74F
:1043F000054902200B68DEE7034903200B68B4E798
:10440000014903200B68C3E700C0044000D004400A
:1044100000E00440074B1A8D22F480721A850022B6
:104420001A609A8D42F008029A851A8D42F48072C1
:104430001A85704700200540044B9A6960F31F42BB
:104440009A61DA6960F31F42DA61704700C0044084
:10445000044B9A6960F31F429A61DA6960F31F4264
:10446000DA61704700D00440044B9A6960F31F4240
:104470009A61DA6960F31F42DA61704700E0044034
:10448000074B1A7822F008021A701A7842F00102DB
:104490001A701A7842F001021A70FFF703BB00BFCE
:1044A00000800440704700001D4B93F8002142F04B
:1044B000020283F8002193F8042142F0020283F8FB
:1044C0000421A3F540339A8A42F010029A829A8A14
:1044D00042F020029A829A8A42F040029A82196A35
:1044E000012262F309211962196A62F38B211962B0
:1044F000196A62F30D311962B3F8682042F01002B4
:10450000A3F86820B3F8682042F02002A3F86820DE
:10451000B3F8682042F04002A3F86820704700BF5B
:10452000001004400A4B5A6B42F001025A635A6B66
:1045300042F010025A6303F50053064A1A601A7AD1
:1045400042F001021A721A7A42F002021A7270479D
:1045500000100440400D030070B5664A6649138A96
:1045600043F4E0631382A2F540320120536943F41F
:104570007C535361614BB3F8E02042F01002A3F882
:10458000E020B3F8F02042F01002A3F8F020B3F8D6
:10459000E02042F02002A3F8E020B3F8F02042F03F
:1045A0002002A3F8F020B3F8E02042F04002A3F884
:1045B000E020B3F8F02042F04002A3F8F02003F529
:1045C000304340F2CF751A6860F38C221A601A6883
:1045D00022F460721A600A6860F38C220A600A682A
:1045E00022F460720A60464A146860F38C241460F6
:1045F000146824F4607414605C6D44F400645C65B9
:104600005C6D60F30A245C651C6860F305141C6033
:104610001D611E8C022464F383061E841E8C60F3CD
:1046200005161E849E8C60F383069E849E8C64F324
:1046300009269E840D610E8C64F383060E840E8C15
:1046400060F305160E848E8C60F383068E848E8C48
:1046500064F309268E841561158C64F38305158433
:10466000158C60F305151584958C60F3830595848E
:10467000908C64F30920908428205863986393F801
:10468000305045F0030583F8305093F8305064F310
:10469000830583F830504863886391F8305045F0C3
:1046A000030581F8305091F8305064F3830581F8A8
:1046B00030505063906392F8300040F0030082F86D
:1046C000300092F8300064F3830082F8300093F8F1
:1046D000300020F0300083F8300091F8303023F0C3
:1046E000300381F8303092F8303023F0300382F814
:1046F000303070BD0000044000D004400010044081
:1047000000E004400C4BB3F8E02042F00202A3F8B2
:10471000E020B3F8F02042F00202A3F8F02003F505
:1047200000434FF0FF325A6000229A601A7842F03C
:1047300001021A70704700BF00100440034B586814
:104740003223C043B0FBF3F080B2704700900440C6
:1047500032235843014BC0435860704700900440D7
:1047600032235843054B58601A7B42F001021A73FA
:104770001A7842F008021A70704700BF00800440A7
:104780004FF0E02341F286325A61054AE0210020D1
:1047900082F8231098610720186182F8231070476F
:1047A00000ED00E00F4BB3F8E02042F00102A3F867
:1047B000E020B3F8F02042F00102A3F8F02003F566
:1047C000E0434FF0FF3200215A6099601A7842F0BE
:1047D00008021A70044B4FF400121A6083F8151384
:1047E000704700BF0010044000E100E0084BB3F840
:1047F000E02042F00402A3F8E020B3F8F02042F0F9
:104800000402A3F8F02003F5104300229A607047D9
:10481000001004400F4B93F8002142F0020283F88D
:10482000002193F8042142F0020283F8042193F856
:10483000002142F0010283F8002193F8042142F0A4
:10484000010283F80421044B10221A60402283F8ED
:10485000042370470010044000E100E030B5764AC0
:104860007649B2F8E03043F48063A2F8E030B2F861
:10487000F03043F48063A2F8F03092F8003143F056
:10488000010382F8003192F8043143F0010382F809
:1048900004316B4BC3F89C10198F41F0200119872C
:1048A000B3F8A41041F02001A3F8A410998A41F0B4
:1048B00020019982D96921F44061D961B3F884104B
:1048C00041F02001A3F88410B3F8681041F02001F2
:1048D000A3F86810B3F8781041F02001A3F878101D
:1048E000B2F8E030574943F00803A2F8E030B2F8DC
:1048F000F03043F00803A2F8F030534B4FF0FF3292
:104900005A609A60514A524B9360888D40F400700F
:104910008885888D40F4806088854FF48070886039
:104920000020C860118D41F480711185118D41F412
:104930008051118547490C784749153401EB8401B2
:10494000C3F8C010D3F8C840022161F31964C3F85A
:10495000C840D3F8C84061F39B64C3F8C8403F4CDB
:10496000C3F8C440D3F8C84061F31D74C3F8C8400D
:10497000D3F8C84044F04044C3F8C840D3F8C84016
:1049800060F39134C3F8C840D3F8C840152565F3E7
:104990000D14C3F8C840D3F8C840012565F30204DC
:1049A000C3F8C8402E4CC3F88040D3F8884061F368
:1049B0001964C3F88840D3F8884044F04064C3F8D1
:1049C0008840284CC3F88440D3F8884061F31D74B4
:1049D000C3F88840D3F8884061F39F74C3F88840D7
:1049E000D3F8881060F39131C3F88810D3F8881099
:1049F0001F2464F30D11C3F88810D3F8881065F3F1
:104A00000201C3F88810184B4FF40021596060214F
:104A100083F83313154B196A29431962196A21F473
:104A200080311962138D60F308231385138D60F3B1
:104A30000C33138530BD00BF00100440EEDBEAAD3F
:104A4000000001400020054000B004400040044048
:104A500000180020B8040020DC1500200C200540C0
:104A600004B00440CC0F002000E100E0000004404E
:104A700008B5FFF7F3FEFFF7CDFEFFF76DFDFFF77B
:104A800041FEFFF711FDFFF78DFEFFF779FEFFF7FF
:104A9000ADFEBDE80840FFF7A1BB000010B5154B07
:104AA0005A6902F00302012A1FD020D9032A08BF45
:104AB000D9689A689C6898689B6806BFC1F305210D
:104AC00001310121C2F3052213F4801FC0F301401C
:104AD000094B04F03F0408BF0023824063434A436C
:104AE000B3FBF2F3054A136010BD0023FAE7024B53
:104AF000F8E700BF0010044000127A00001A0020FE
:104B00000E4C0F4DAC4209DA21686268A368043B81
:104B1000A2BFC858D050FAE70C34F3E7094B0A4C4F
:104B2000A34208DA19685A680020043AA4BF8850E2
:104B3000FBE70833F4E7FDF735FB0000904D00007C
:104B40009C4D00009C4D0000A44D0000FEE700BFFE
:104B5000084B186008481043586200BF00BF00BFF0
:104B600000BF00BF9A6AD207FCD45A680A609B68EB
:104B70004B607047000003400100DEC0084B186026
:104B8000086858604968996006491143596200BF36
:104B900000BF00BF00BF00BF9A6AD207FCD47047B5
:104BA000000003400200DEC0064A074B0A431860BB
:104BB0005A6200BF00BF00BF00BF00BF9A6AD207A1
:104BC000FCD470470400DEC00000034010B50A4A60
:104BD0000A48936894689168926812F4801F04F000
:104BE0003F04C1F3014108BF0020C3F30523604324
:104BF0008B40B0FBF3F010BD0010044000127A00AF
:104C000010B5054BDC68FFF7E1FFC4F30524013460
:104C1000B0FBF4F010BD00BF00100440022805D026
:104C2000032805D0012805D1FFF7D0BFFFF7E8BF63
:104C3000014870470020704700127A000C4A00F1CA
:104C4000180310B552F8230052F82310C90342BFCD
:104C500052F82340C4F305640134C0F301204CBF73
:104C600064000124FFF7DAFFB0FBF4F010BD00BFD1
:104C70000010044038B505461448281A18BF012012
:104C80000C46FFF7DBFF07EE900AB8EE677A07EEF7
:104C9000904AF8EE677AF3EE006A67EEA67A23018F
:104CA000C7EE276AB0FBF3F36B6207EE903AF8EEBB
:104CB000E77A36EEE77ADFED066AF6EE007AE7EE9F
:104CC000267AFCEEE77AC5ED0A7A38BD005004403A
:104CD0000000804238B504460D464968FFF7CAFF18
:104CE00094F82C30AA7862F3461384F82C3094F8A8
:104CF0002C302A7862F3C30384F82C30E36A6A7894
:104D000023F086031343E36294F82C302A7A62F38B
:104D1000041384F82C30AA7A238E62F308232386A6
:104D20006A7A238E62F34923238638BD0322002347
:104D300082704FF416520380426003818372704781
:104D400002440346934200D1704703F8011BF9E780
:104D50000A44914200F1FF3300D1704710B511F8B9
:104D6000014B03F8014F9142F9D110BD0000000042
:104D70005FF800F0150B00205FF800F07D0A0020BE
:104D8000191B12131D1516171A090A0B1E0D0E0FEB
:0C4D9000A44D000000000020500E0000A8
:084D9C000014002004060000D1
:104DA400D430000001060604280001006400B400A9
:104DB400B700BA00BD00C100C400C700CA00CD00DE
:104DC400D000D300D600D900DC00E000E300E60008
:104DD400E900EC00EF00F200F500F700FA00FD0036
:104DE40000010301060109010B010E011101130168
:104DF400160119011B011E012001230125012801AF
:104E04002A012C012F0131013301350138013A0106
:104E14003C013E0140014201440146014701490170
:104E24004B014D014E0150015101530154015601F2
:104E3400570158015A015B015C015D015E015F018C
:104E4400600161016201630163016401650165013F
:104E5400660166016701670167016801680168010D
:104E640068016801680168016801680167016701F8
:104E740067016601660165016501640163016301FF
:104E84006201610160015F015E015D015C015B0122
:104E94005A0158015701560154015301510150015F
:104EA4004E014D014B0149014701460144014201B4
:104EB40040013E013C013A01380135013301310121
:104EC4002F012C012A0128012501230120011E01A3
:104ED4001B0119011601130111010E010B01090136
:104EE400060103010001FD00FA00F700F500F200DD
:104EF400EF00EC00E900E600E300E000DC00D9008C
:104F0400D600D300D000CD00CA00C700C400C10041
:104F1400BD00BA00B700B400B100AE00AB00A700FA
:104F2400A400A1009E009B009800950092008F00B1
:104F34008C008800850082007F007C007900760068
:104F4400730071006E006B006800650062005F0012
:104F54005D005A005700550052004F004D004A00B2
:104F640048004500430040003E003C003900370043
:104F74003500330030002E002C002A0028002600C3
:104F84002400220021001F001D001B001A0018002D
:104F94001700150014001200110010000E000D007F
:104FA4000C000B000A0009000800070006000500B9
:104FB40005000400030003000200020001000100D8
:104FC40001000000000000000000000000000000DC
:104FD40000000000010001000100020002000300C3
:104FE400030004000500050006000700080009008E
:104FF4000A000B000C000D000E001000110012003E
:1050040014001500170018001A001B001D001F00D3
:10501400210022002400260028002A002C002E0053
:10502400300033003500370039003C003E004000BA
:105034004300450048004A004D004F00520055000F
:1050440057005A005D005F006200650068006B0055
:105054006E0071007300760079007C007F0082008E
:10506400850088008C008F009200950098009B00BA
:105074009E00A100A400A700AB00AE00B100000098
:105084002800000001050501D00790014600140026
:10509400D007CF07CF0728002800C80002010A0064
:1050A40078009F000100DC05D0074A016400DC059C
:1050B4006C074C04B40064192800D0071E100602C3
:1050C40000F00000000000000100000000000000EB
:1050D400320000000000000000000000000000009A
:1050E400000000001027000050C300000000000072
:1050F4009001000000000000E80300000000000030
:10510400000000000000000000000000204E00002D
:10511400A0860100000000000A000000000000005A
:105124006400000000000000000000000000000017
:10513400000000001027000050C30000E803000036
:10514400102700000800000150C32000204E00007A
:10515400FA0000004E030000C50000009B000000A0
:1051640085000000770000006C000000640000006F
:105174005D00000057000000520000004D000000D8
:105184004900000045000000420000003F0000000C
:105194003C0000003900000036000000340000002C
:1051A400320000002F0000002D0000002B00000042
:1051B4002900000027000000250000002300000053
:1051C40022000000200000001E0000001C0000005F
:1051D4001B0000001900000017000000160000006A
:1051E4001400000013000000110000000F00000074
:1051F4000E0000000C0000000B000000090000007D
:105204000700000006000000040000000200000087
:1052140000000000FFFFFFFFFDFFFFFFFBFFFFFF9C
:10522400F9FFFFFFF7FFFFFFF5FFFFFFF2FFFFFFAF
:10523400F0FFFFFFEDFFFFFFEAFFFFFFE7FFFFFFC8
:10524400E4FFFFFFDFFFFFFFDAFFFFFFD4FFFFFFF5
:10525400C9FFFFFF9BFFFFFF07000000194A08B5C5
:10526400137823F00803137000F09AFC164B174AC6
:10527400174812881B881344026802EB5302154B2B
:1052840093F82F3051080160CBB9134B1B784B4373
:105294009B0912499BB20B80C3EB9203104A138003
:1052A400104B93F900300BB900F09AFC0E4A1368C6
:1052B40042F20F718B429CBF0133136008BD0B4B4C
:1052C400E4E700BF00800440081400200614002016
:1052D400000000200C150020FC1400202C140020D9
:1052E40002140020E70200200C140020FA1400200D
:1052F40070B5114D114E00242B78A34214DC72B604
:105304000F4C00F069FC0F4B22881A8000F040FC1F
:105314002080002000F048FC0B4B1888013080B23C
:1053240000F046FC62B670BD00F04EFC96F9003009
:105334009842F8D00134DFE7E5020020E4020020BF
:105344000614002008140020021400202DE9F84F50
:10535400754B764A764D1B882B801388DFF85C8268
:10536400744F754EDFF85892744C01331380744AAD
:10537400138801331380B8F8003099F80020013302
:10538400A8F800303B8801333B80337813435AB28A
:10539400002B37D16B4890F90030002B32D06A4B88
:1053A4006A491B88002B40F0BB800A88013292B204
:1053B40044F6206C62450A8024D9654A12881E2A64
:1053C40040F2AB800122327094F82420012A40F08C
:1053D400A180604A4FF4B9711288B2FBF1F29A4687
:1053E40089F800204FF0FF3B99F90020524500F363
:1053F4008680594B594A1B78127813435AB20BB919
:1054040084F82620E07F90B1554B56491B780A88D2
:10541400013B0132034492B203EB8303B2EB830FEB
:105424000A8004DD504B01221A7000230B804F4B7D
:1054340093F90030002B40F049814D4B93F9003033
:10544400C3B14C4B1B78ABB100F0C6FB00F0B4FB0E
:10545400494A137873B94949494B91F900101B78AB
:1054640000295FD047490978994203D20123137078
:1054740000F092FB3B88142B40F2C780424B012280
:105484001A7000233B80414B93F900300BB3394B26
:105494001B78F3B194F82C203D48C8235A433D4B64
:1054A400B3F9001000F08CFB3B4A3C4942F2107304
:1054B40090FBF3F0138809881B1A1BB28B421380EC
:1054C400BCBF0BB21380B3F5FA6FC4BF4FF4FA63D9
:1054D4001380637F002B79D0264B1B78002B75D06B
:1054E4002F4B30481A88304B196800F069FB2F4B5A
:1054F4001A6810442E4A904264DD1A6066E000F097
:105504003FFB642000F070FB2A4B0AF1010AC3F848
:105514000CB069E700F034FB6BE703700B8071E7B4
:105524000A806FE724499EE7CA140020D81400209B
:1055340004140020FE1400201A1400200C1500206E
:1055440002150020121400209C140020E4140020F2
:1055540018140020DC140020101400201114002062
:105564001C030020DE140020A114002025140020B8
:10557400E70200202E1400200B140020E402002077
:105584000A14002006000020A2140020EC140020BD
:105594004C030020CE14002008030020F802002051
:1055A400160300202403002000000020E81400203B
:1055B40060E31600003004400500002000150020C0
:1055C400DB140020002840F3878018605C4B93F9BB
:1055D4000030D3B15B4B1B78BBB15B4B5B481A8883
:1055E4005B4B196800F0ECFA5A4A5B4913680344B0
:1055F40023EAE3738B42D4BF13601160574B1B68DB
:10560400632B9EBF514A00231361554BB8F8002009
:105614001B78544F9A42398868D90023A8F800307F
:105624004E4B1B68952B01D9952957D84E4B1A78A8
:105634004E4BD2B21A702B88581A9042C4BF5318DA
:105644009BB2A1EB0300C8BF2B80824202DA8A1A04
:1056540093B22B8096F90020454E002A49D039494F
:105664000978002945D0434909882F2941D940F2B6
:10567400B2718B42328828BF0B4653434FF4FA6110
:10568400B3FBF1F301333C493C4C3D489BB20B80E6
:10569400298839803B49226102610A61A26963F366
:1056A4001F42A261E26963F31F42E261826963F30C
:1056B4001F428261C26963F31F42C2618A6963F354
:1056C4001F428A61CA6963F31F42CA612E4A138862
:1056D40001331380BDE8F88F00220EE72B4B1B68C3
:1056E400B3F5FA7F8CBF2A4B2A4BA0E729800B46DF
:1056F400B0E7294991F9001041B1284B32881B8841
:105704002749534393FBF1F31344BCE7207F02285A
:105714000ED16AB100F030FA3288237B4FF4FA617B
:105724005343B3FBF1F303EB83035B002833AAE792
:1057340032884FF4FA615343B3FBF1F3A3E700BF9C
:10574400F41400202E140020F6140020740300200A
:10575400B0140020F0140020F05838010C1400207C
:1057640007150020CC1400201F030020FC02002099
:10577400F4020020161400201E14002000C004406F
:1057840000D0044000E0044000140020B8140020BD
:105794001E0300201D030020A01400200415002077
:1057A40030F8FFFF10B5184C238F43F020032387F4
:1057B40000F03AF9154B16491A7C22F001021A74CA
:1057C4000A7F22F004020A771A7822F001021A7082
:1057D4004FF0FF325A609A600E4A918D21F0100109
:1057E400918500211160B4F884200B4942F0200215
:1057F400A4F884200A7942F001020A711A7842F06E
:1058040001021A7010BD00BF0000014000B0044046
:10581400000004400020054000400440024B0022E8
:105824001A70FFF7BFBF00BF2817002008B500F0AB
:105834003BF91A4B1A7822F001021A70184A12889E
:10584400510859609A601A7C42F001021A74154A90
:1058540000211160D160918D41F001019185918DFC
:1058640041F01001918510490A7F42F004020A7741
:105874000E4A918E41F020019186B2F8881041F0D1
:105884002001A2F888100A490A7942F001020A713B
:105894001A7842F001021A7008BD00BF00B004403B
:1058A400A603002000200540000004400000014041
:1058B40000400440024B01221A70FFF7B7BF00BF3B
:1058C400281700200A4BDA6B12050FD5B3F84420D1
:1058D40042F40062A3F84420A3F5503301211A6A6C
:1058E40061F315521A624FF480629A63704700BFE5
:1058F40000500440FFF72ABD4FF08043012282B0DC
:105904009A620E4A0020D96E890601D102B070470E
:105914000190019909290CD9196FC1F30B01118068
:10592400196FC1F30B015180196FC1F30B01918001
:10593400E9E700BF019901310191EAE7221700204C
:105944001D4B93F900201B78062B33D80123934079
:1059540013F0480F21D113F0240F11D113F0120FBB
:1059640028D0164BD3F88020500623D54FF0FF32B1
:10597400C3F880201B6E13F0400F1BD0FFF7B8BC98
:105984000E4BD3F88020D10614D54FF0FF32C3F864
:1059940080201B6E13F0100FEFE7084BD3F8802024
:1059A400920607D54FF0FF32C3F880201B6E13F028
:1059B400200FE2E7704700BF040000200010014000
:1059C400034A137B43F001031373FFF747BC00BF83
:1059D4000080044008B5074B4FF0FF325A6000F0D6
:1059E400B9F800F0D1F8044B4FF40022C3F80421B5
:1059F40008BD00BF00B0044000E100E008B5054B5D
:105A040000225A6100F0C0F8034B4FF40022C3F89F
:105A1400042108BD0020054000E100E04FF0804370
:105A240002229A6200F0D4B81A4B4FF4003210B537
:105A3400C3F88020BFF34F8FBFF36F8F4FF4005232
:105A44001A600021144A83F80D13138D61F30C338B
:105A54001385124BD3F8880061F391301049C3F8D1
:105A640088000978D3F88800013961F30D10C3F870
:105A74008800D3F88800012464F30200C3F8880086
:105A8400084800EB8101C3F88410138D43F480733C
:105A9400138510BD00E100E0004004400018002020
:105AA400AA030020500F00201A4B4FF40052C3F8F1
:105AB4008020BFF34F8FBFF36F8F4FF400321A6013
:105AC4000021154A83F81113138D61F308231385FC
:105AD400124BD3F8C80061F39130C3F8C800D3F86F
:105AE400C810152060F30D11C3F8C810D3F8C810FE
:105AF400012060F30201C3F8C81009490878094974
:105B0400153001EB8001C3F8C010138D43F48053AA
:105B14001385704700E100E00040044000180020B5
:105B2400B8040020DC150020074B08491B78084AFC
:105B3400013B01EB8301C2F88410D2F8881063F3AF
:105B44000D11C2F888107047AA030020500F0020DE
:105B54000018002006480749202350F8042B013B75
:105B6400D24313F0FF0341F8042BF6D1704700BF72
:105B7400500F0020500E00205FF800F02741000075
:105B84005FF800F0F13700005FF800F0BD3400006A
:105B94005FF800F03D4700005FF800F0E1200000EE
:105BA4005FF800F0D11500005FF800F051470000E5
:105BB4005FF800F0614700005FF800F0891500000D
:105BC4005FF800F07D1100005FF800F08D3B0000ED
:105BD4005FF800F0891F00005FF800F0D93B000077
:105BE4005FF800F0293C00005FF800F05931000034
:105BF40000000000000000000000000000000000A1
:105C04000000000000000000000000000000000090
:105C14000000000000000000000000000000000080
:105C24000000000000000000000000000000000070
:105C34000000000000000000000000000000000060
:105C44000000000000000000000000000000000050
:105C54000000000000000000000000000000000040
:105C64000000000000000000000000000000000030
:105C74000000000000000000000000000000000020
:105C84000000000000000000000000000000000010
:105C94000000000000000000000000000000000000
:105CA40000000000000000000000000000000000F0
:105CB40000000000000000000000000000000000E0
:105CC40000000000000000000000000000000000D0
:105CD40000000000000000000000000000000000C0
:105CE40000000000000000000000000000000000B0
:105CF40000000000000000000000000000000000A0
:105D0400000000000000000000000000000000008F
:105D1400000000000000000000000000000000007F
:105D2400000000000000000000000000000000006F
:105D3400000000000000000000000000000000005F
:105D4400000000000000000000000000000000004F
:105D5400000000000000000000000000000000003F
:105D6400000000000000000000000000000000002F
:105D7400000000000000000000000000000000001F
:105D8400000000000000000000000000000000000F
:105D940000000000000000000000000000000000FF
:105DA40000000000000000000000000000000000EF
:105DB40000000000000000000000000000000000DF
:105DC40000000000000000000000000000000000CF
:105DD40000000000000000000000000000000000BF
:105DE40000000000000000000000000000000000AF
:0400000300004B01AD
:00000001FF
