:101000006F4050191300000013000000130000008F
:101010001300000013000000130000001300000084
:101020001300000013000000130000001300000074
:08103000130000007300100022
:101038000010000000000000FE4F000000500000FB
:10104800000000002C590000000000000000000013
:101058002E59000030590000000000000000000078
:10106800B0510000000000006A52000000000000BB
:1010780036590000385900003A5900003C59000020
:101088003E590000405900004259000044590000F0
:1010980046590000C05100000052000002500000F4
:1010A8004E590000505900005259000026500000C7
:1010B80056590000A85000005A5900005C59000019
:1010C8005E59000060590000625900006459000030
:1010D80066590000685900006A5900006C59000000
:1010E8006E59000040520000725900007459000007
:1010F80076590000785900007A5900007C590000A0
:101108007E590000805900004451000084590000B5
:1011180086590000885900008A5900008C5900003F
:101128008E590000905900009259000000000000FC
:081138000000000000000000AF
:10114000397101436EC619A0397141536AC866CA24
:1011500062CC5ECE19A0397101535AD056D252D406
:101160004ED64AD826DA22DC06DE3301614082827E
:1011700041114AC026C222C406C68282B24D410134
:10118000024D924C224CB24B4101024B924A224AF0
:10119000B2494101024992442244B2404101828055
:1011A0003D432A876373C3029377F700BDEFADE534
:1011B000937606FF3D8ABA960CC34CC30CC74CC746
:1011C0004107E36BD7FE11E28280B306C3408A0673
:1011D0009702000096966780A6002307B700A30633
:1011E000B7002306B700A305B7002305B700A30483
:1011F000B7002304B700A303B7002303B700A3027B
:10120000B7002302B700A301B7002301B700A30072
:10121000B7002300B700828093F5F50F9396850001
:10122000D58D93960501D58D61B7939627009702CA
:10123000000096968682E78086FA9680C1171D8FF9
:101240003E96E374C3F8A5B71845918D1C493387C2
:10125000E5020CC13E971C5118C963D3E7001CC9B5
:101260001849B307F0406353F7001CC91C4D5041A7
:101270005845B387F5400CCDB385C5021049B387F7
:10128000E702B295BE955CC95C514CCD63D3B70003
:101290005CCD584DB307F0406353F7005CCD484D2B
:1012A0008280EFF25FEB83A50182138501BB1306F9
:1012B000000CEF30205A938701BB83C717000D47FE
:1012C000138401BBFD1793F7F70F636BF700834798
:1012D00024001307D00FFD1793F7F70F637CF70077
:1012E0003145EF30000EB707EFBE37E700E09387D8
:1012F00007083CC703471400894763E3E7049307E3
:1013000000FAA302F40085472303F400A94723044D
:10131000F40093074006A304F400A305F400930728
:101320002003A307F4009547A3030400230504004A
:1013300023060400A3060400230704002308F40086
:10134000834674021306D00F1387F6FF1377F70F47
:1013500093874181637FE6387D57A303E4023D47CD
:101360002380E7000347E400854763F4E700230791
:1013700004008347F4001307900FFD1793F7F70F4E
:101380006376F70093072003A307F4008347040163
:101390001307900FFD1793F7F70F6375F700954745
:1013A0002308F4000347D400A54763F4E700A3062D
:1013B00004000347E4002384E18A034714018547BE
:1013C00063F4E700A308040003472401854763F49E
:1013D000E7002309040003473401854763F4E7006D
:1013E000A309040003474401854763F4E700230A87
:1013F000040003476401854763F4E700230B0400FE
:101400000347F402854763F4E700A3070402034798
:1014100044019306800C2384E1B20347F400B7072C
:1014200000203307D70223A8E74683470401B38788
:10143000D70223A2F180834774011307A0026369D6
:10144000F7001387C7FF1377F70F954663E5E600AC
:10145000C1462380D1BA0D47636AF7008E0793F720
:10146000F70F2380F1BAA907A30BF4008347740197
:1014700013070002D91793F7F70F6364F70023806F
:10148000F1BA8347840193068008138787FF137797
:10149000F70F63E3E62613074006B387E702194711
:1014A00033C7E702B7370C0093870737B3C7E702A4
:1014B000C207C1832394F180373701402316F7C256
:1014C000834664001306100381471387F6FF1377E2
:1014D000F70F6365E600A947B387F6020346940158
:1014E000239DF1821307E6FC1377F70F930540065F
:1014F0009389A183BE8663E4E500B386C700938722
:1015000007192398F1848347A40113078002B38746
:10151000E702239CD1827947138A8183138901854D
:10152000D107239EF1828347B4019384C183F917C5
:1015300093F7F70F6375F700B947A30DF40009455A
:10154000EF20503D83471400638207260345E401E2
:10155000AD4763F3A7001545EF20D03B8347040256
:101560009387771786072394F18483471402938720
:10157000B73686072393F184834724029387E75580
:101580002395F184034734022382E1848347540284
:101590009387A70F2396F182834784025147ED1763
:1015A00093F7F70F6375F70095472304F402834719
:1015B00094022547FD1793F7F70F6375F700A947C6
:1015C000A304F4028347A4022147FD1793F7F70F02
:1015D0006375F700A9472305F4028347A402254752
:1015E0006363F7065957B387E70203A78181930620
:1015F000800CBA97938767F993F7F70F1387C18128
:1016000063E5F6102300F7008347070003570A003D
:101610003E972310EA0003D709003E972390E90084
:101620001387A18583560700BE962310D700035762
:1016300009003E972310E90037370140835647C41D
:10164000D58F2312F7C48347B4021307600493872E
:10165000A7FB93F7F70F6375F700FD57A305F40297
:101660008347C40213073006FD1793F7F70F63652E
:10167000F70005472384E18E03479400B707002055
:10168000938707000607D8C30347A40098C70347FA
:10169000B4000607D8C78347D4022547FD1793F740
:1016A000F70F6375F7009547A306F4028347E4023A
:1016B00025476365F70805476383E706B1CB89468D
:1016C0006384D70691466384D70683475400254533
:1016D0001386418393863183138721836366F506DE
:1016E0002380A1B22300F6002380F6002300F70038
:1016F00049A02380D700BDB11307F07C239EE1846D
:10170000B73701402396E7C265BB930780FCDDBD78
:10171000A384018A2386018C2388E18E7DB7A3846C
:10172000F18A2388F18E55B72386E18C79BFA3888F
:10173000E18E2388018EA384E18A41BFA384018ABC
:101740002386018C0547C9BF238001B2A945B3D7C1
:10175000B7028345060063F4B7002300F60003C612
:10176000060063F4C7002380F60083460700E3EF1A
:10177000D7F683D704001307B0126364F7002388F9
:10178000018203C7B1BC93060002B3C6E602130789
:10179000400633D7E7023347D7022397E182314728
:1017A000B3D7E702B3C7D7022395F18203D504006C
:1017B00005661307401F9306803E130686BB9305FC
:1017C000C012EF204032034724012390A18411C7A7
:1017D0001307803E23A6E1B24DBA1307007DDDBF9B
:1017E000EFF21F9903A601829305000C138501BB3C
:1017F000EF20907B45B29386818C03C70600138649
:10180000418E93151700138881B383D781880842CE
:10181000C29503D805003E952390F5003305054198
:101820009307170008C293F7F70F13071003636DB0
:10183000F7002380F600930720033355F502420595
:101840004181239AA18C828023800600EDB7EFF2BC
:101850003F92EF2050678387318481CB01E983C7B2
:1018600061B285072383F1B235B275F91387818997
:1018700083470700850793F7F70F2300F70003C797
:10188000C180E373F7FE238301B2F9BFEFF25F8EED
:1018900083867182054683C721851387318413842B
:1018A0002185639BC6068507E207E18719466340E9
:1018B000F6062300F400830704008946B3E7D70245
:1018C0002300F700896793870780739007808387D9
:1018D000518C89E703050400EF3000538967938733
:1018E000878873900780EF209062238301B223865C
:1018F000018E83A6018183070400FD17139717004B
:1019000093874192BA972390D7006FF0BF88230046
:10191000D400A382D18A45B7FD17E207E187635A55
:10192000F0002300F4008347040093C7F7FF858B82
:1019300041BF99472300F400A382C18AEDB7EFF2BB
:101940003F83370700408357C740C207C183F99BD5
:10195000C207C1832316F740153F83D7C1BA83D589
:1019600021BA938601819042AE978587B29785838D
:101970009CC21387018183C7F1BD1443A9E383C7C8
:1019800001BAB387D702184305839983C207C1837D
:101990002398F188B307F7402395F18E8387E1837D
:1019A00099E3EF20D05483A701C709671307F770A5
:1019B0006365F700850723A8F1C66FF0AFFD83C705
:1019C00001B3C1B7EFF2CFFA014483C76182634E1E
:1019D000F40409649307048073900780EF20B04FEC
:1019E00083D621BA130484882396D1BAB71700404E
:1019F00083D647822391D1BA23920782B70700404A
:101A00002392074203D7A18E0507420741832396FD
:101A1000E7422398074003D7C74013671700239670
:101A2000E740731004806FF0EFF6EF20D049838712
:101A30003184E30AF5FE050449BFEFF26FF3138426
:101A4000A18C834704008DE39135896793870771E3
:101A500023A8F1800567B717004013078738239242
:101A6000E78285472300F400EF2070486FF08FF283
:101A7000EFF28FED938701BB83C72701938401BBEE
:101A80001384018C938AC18D638907568387918A59
:101A90009389918A6389071083C76402639C074412
:101AA00083570400130770416375F70683867182BC
:101AB00003C7140193877182639FE60283A60181A5
:101AC00003D601846378D60003D6C18A9306700CCE
:101AD00063F6C60083860A00638B0650854633870B
:101AE000E6402380E70023A801C6238FD182EF20A0
:101AF000903E238D018803570400A167938787BE1A
:101B0000BA97038721848607998F9387F7022397D3
:101B1000F1888357040013077041636BF7068357FE
:101B200004001307F0026375F70683C614010386E9
:101B300071820547158F93877182631DE60203A7A3
:101B4000018103D601846378E60003D6C18A1307B6
:101B5000700C6376C70003870A00630D074823A84B
:101B600001C605462380D700238FC182EF20B036FF
:101B7000238D018803570400A167938707FDBA9757
:101B8000038721848607998F9387F7022397F1882B
:101B9000835704001307F0026363F7122397018849
:101BA000238D018829AA83C5418483C764021389D0
:101BB000418486059385853E63850720835704000D
:101BC00063DBF5041387718283C6140103060700E3
:101BD0009387518C631ED6020385918C23970188CD
:101BE00085462380D70005C9918E2300D700238026
:101BF0000700035504001307F07F9306F002130655
:101C0000007DA384018CEF10106E2397A18821A082
:101C100083870700F9DF0346090003570400931781
:101C200016001306803E1D8E635BC70483C6140135
:101C3000138771820308070085453385D540938754
:101C4000518C631BA8022380B7008385918C239756
:101C5000018895C52300D7002380070003550400A1
:101C60001307F0029306F07F8145A384018CEF10E7
:101C700090672397A18821A083870700E5D3834736
:101C80000900835604001307803E86071D8F63C436
:101C9000E602035704009387873E63CEE70023974D
:101CA00001889387518C0387070011C723800700A1
:101CB0000547A384E18C83870900E39F07DC138930
:101CC0009189034709008387D18063DDE73283C7A9
:101CD000640163890732EF30E011EF20D01F2398B1
:101CE000018A930760062300F90083870A00639C3A
:101CF000074883C72189E207E1876386074883C7CE
:101D0000340113070005B387E70203D7018B9389DA
:101D1000518C138A018B138BA18C1389E18A9387D1
:101D2000E70263C9E73E8387418C938B418C6393C1
:101D3000074603C7440183470B00631F0752231064
:101D4000090081EF0547238FE18223A801C683C7DD
:101D5000C401638C0746EF30801183C7640263803F
:101D60000742838709006399074603570A009307D0
:101D7000E00263ECE75C83D7E1818356090063F4FA
:101D8000D7002310F9008387818E89CB8397E18563
:101D90008356090063D4D7002310F90083A7818DEF
:101DA0006353F03E9306F00263FFE63C09671307B6
:101DB0000771B3C7E70203570900BA972310F90068
:101DC000D9A68357040063D8F5068386718203C7BA
:101DD000140193877182639FE60283A6018103D673
:101DE00001846378D60003D6C18A9306700C63F62B
:101DF000C60083860A006385060E85463387E64063
:101E00002380E70023A801C6238FD182EF20B00CE6
:101E1000238D018883450900035504001307F07FD3
:101E200086059306F0021306007D9385853EEF102C
:101E3000904B2397A188834709008356040013978A
:101E400017009307803E998F63D7F60683C6140167
:101E5000038671820547158F93877182631CE602A2
:101E600003A7018103D601846378E60003D6C18A03
:101E70001307700C6375C70003870A003DC723A8CA
:101E800001C605462380D700238FC182EF20B0040E
:101E9000238D018883470900035504001306803E03
:101EA00086071D8E1307F0029306F07F8145EF1021
:101EB00090432397A18883470900835604001307A2
:101EC000803E86071D8FE3C8E6DE03570400938734
:101ED000873EE3C2E7DE23970188238D0188E1BBBB
:101EE0009307803E2310F40035B79307803E2310FC
:101EF000F4004DB78357040013077041637DF70466
:101F00001387718283C61401030607009387518CDF
:101F10006310D6048385918C23970188854623809E
:101F2000D70095C9918E2300D7002380070003575F
:101F30000400A384018CA167938787BEBA970387A7
:101F400021848607998F9387F7022397F18821A030
:101F500083870700E9DF8357040013077041636438
:101F6000F706835704001307F002637EF70483C665
:101F7000140113877182030507000546B305D64097
:101F80009387518C631EB5022380C7000386918C12
:101F9000239701880DCA2300D70023800700035729
:101FA0000400A384018CA167938707FDBA97038778
:101FB00021848607998F9387F7022397F18821A0C0
:101FC00083870700E9DF835704001307F002E36803
:101FD000F7CE239701889387518C03870700E3008E
:101FE00007CE238007000547A384E18CC9B92310DD
:101FF000040011B623100400B5BE03570400239754
:10200000E18875B983C73401B5C303D5E188754745
:102010001389E1886368A7022398018A83C5840233
:10202000D14703550900B385F502E340B5CC13074A
:10203000F07F9306000A1306F07FEF10D02A239852
:10204000A18A65B1F947E30BF5FC03C68402D147C9
:102050003306F602E354C5FC1307000A9306F002A8
:10206000F945EF1050282398A18A4DBF8387918EA0
:102070001389018BC9CF83C7818A9389418BA9CFEB
:10208000B707002003A70747138AE18883A641808A
:1020900003550A001306F07F9305F002EF10B024F9
:1020A000B78793039387077033C5A70283C7B4012B
:1020B00003570A0085833345F502239FA18C9307BC
:1020C000E00263EBE700B70700202310090023AC10
:1020D000072E23A0090011B983A709000967130778
:1020E0000771B3C7E7021307F07FC207C18323104C
:1020F000F9006377F7009307F07F2310F900F5B636
:102100001307F002E363F7BE93070003FDB783D71D
:10211000E188E5B783470B0099EFEF20B04D838747
:10212000E18399E3EFF07F9185472300FB0003D71C
:102130008183239DE18A83D6A18383C7340103551C
:102140000A001307007DB1C3938686021306F07F51
:1021500093059008EF10301983C764022310A9007B
:1021600099E32380090083C7340113070005B3876F
:10217000E70203570A009387E702E3D6E7BA8387AB
:102180000900E38407BE6FE0BFFF1306F07F9305ED
:10219000F002C9B7FD1793F7F70F1147636BF7000C
:1021A0001D678A071307C7EBBA979C438287EF2006
:1021B000A00B23800B00B5BEEF20A011DDBFEF20E8
:1021C0000018C5BFEF109077EDB783870900E3963D
:1021D00007B8EF20304251B6138B918A83070B006A
:1021E000938A618C85CF8357040013077041637D08
:1021F000F7048357040013077041637EF702035707
:102200000400A167938787BEBA9703872184860756
:10221000998F9387F7022390FA0031A88355040021
:102220001305803EEF10D00F83070B001305853E8A
:102230002390AA00CDFB03D70A009307E07C63FA42
:10224000E702EF20D04225BF835704001307F002B6
:10225000E371F7FA03570400A167938707FDBA9764
:10226000038721848607998F9387F7022390FA00CA
:1022700049B7EF20C07F21B79DEF0547238FE1824B
:1022800003C4C40123A801C6238C018859CC83C789
:10229000340195E385476310F40283C79402130762
:1022A000800CB387E7022393F18C1307E07C6379FA
:1022B000F706EF20D03B838721851307C003130661
:1022C0007016FD17B387E70203D74182BA97C2079A
:1022D000C18393960701C186634CD6042399D1B07C
:1022E00083D721B1130670161387770742074187FA
:1022F0006345E6042397E1BA1387F70E4207418747
:1023000013067016634EE6022395E1BA83C73401C3
:1023100005476394E7002380FA002310090085B580
:10232000EF20E0742380890079B7EF20B02C61B7EB
:10233000938787E92399F1B065B71387F7F05DBFFD
:10234000938777F82395F1BAD1B783C6D401F947BB
:10235000B3D7D74083A601C7E3FFF6A083D7818315
:102360008356090063F4F6002310F90083D7018532
:1023700083560900E3F1D7A02310F900EDBAEFE28C
:102380003FDF9387C18983C7070005471384C1894D
:102390006316F700EF10E00F2300040083470400EA
:1023A00009476318F70283A7C1B1416563C9A70054
:1023B0007D15EF10E053230004006FE0BFDD93872D
:1023C000470663E4A7009307F5FF139507014181D2
:1023D000CDB7EFF0EFE9D5B7EFE21FD78386718273
:1023E00083D721B1638406108507C207C18793068E
:1023F000701663CBF6022399F1B083D7E1BA930646
:1024000070168507C207C18763C3F6022397F1BA26
:1024100083D7A1BA930670168507C207C18763CB1D
:10242000F6002395F1BA09A8239901B0F9B72397CB
:1024300001BAF9BF239501BA839721B1370400206F
:10244000130484028607938A8182A297039507006A
:1024500083D70A00138A81803E9583570A00930B25
:10246000007D3305F502938901BB83C7D902294B4F
:10247000334575033305F502334565034205418154
:10248000EF30C0258397E1BA8607A297039507002E
:1024900083D70A003E9583570A003305F50283C7A8
:1024A000D902334575033305F5023345650342050B
:1024B0004181EF3040238397A1BA86073E940315EC
:1024C000040083D70A003E9583570A003305F502BE
:1024D00083C7D902334575033305F50233456503D8
:1024E00042054181EF30C0206FE09FC9FD17C20750
:1024F000C18763C707022399F1B083D7E1BAFD17FB
:10250000C207C18763C107022397F1BA83D7A1BA73
:10251000FD17C207C187E3D607F09307701611B7FE
:1025200093077016C9BF93077016F9BFEFE25FC437
:10253000B716004083D746820D46139707014183A3
:102540002391E1BA23920682938601819C421384EF
:102550000181B387C70203A601C79145BA97898352
:102560009CC2984283C701BAB387E7029983139745
:10257000070141832398E1889C42B7160040858378
:10258000998FC207C1832395F18E03D74682637466
:10259000F700E3ECC5FEEFF06FAF238301B2238CAD
:1025A000018883A701C783C601BB850723A8F1C69D
:1025B00091CA09476376F700238F0182EF20201329
:1025C0006FE05FBD138701BB8346D70103476702F6
:1025D000558F11CB4D47E375F7FE18409307007DEB
:1025E000E3E0E7FED1BF184083A7C1B2E1B7EFE255
:1025F000BFB583D7E18A1387018E2396F18A83576B
:10260000070085072310F7009387C18B03D70700C6
:1026100005072390E70083D7E1B01387218C850756
:102620002397F1B0835707009384C18A938A018E60
:1026300085072310F7009387218983C7070003C705
:10264000B189138A218C138B2189D98F138401BB03
:10265000C9E39386218B83C70600E207E187B5CBE8
:1026600083D7E1886394072E83D761B0156613067C
:1026700006E28507C207C1832393F1B0637BF604AA
:1026800003D6E18EF94763F1C72C0347440285471F
:102690002300FB0085476316F72A83D7C1B01307D1
:1026A00020179389B189B3D7E7022D6C814BB73CD2
:1026B0000040130CACAA2380F9008387090063C88B
:1026C000FB2683C7C18C03C7918AD98F99E3230363
:1026D00004020346F40115C683C7618503D721B2FE
:1026E000FD17B2975146B387C702050742074183DA
:1026F0002391E1B263D7E7000547A385E18C2391DD
:1027000001B28387C18D639B07208387E18393890F
:10271000A18C9DCB83C7090085CBEF10D07BEFF058
:102720000F9303C7C18E9387C18E19EF83863184BF
:1027300003C761B2638F062083C6618363F6E60038
:1027400005472380E700DD3303570A00D14763F8CC
:10275000E7100547A385E1888387818E23100A004F
:10276000ADC383C70900B1CF0346C4029307800CF1
:10277000370500203306F6028395C188130505004E
:10278000EFE09FAC0967130707713345E5029386B5
:10279000E18503D706009387E1853305A74042050D
:1027A00003D7A18341852390A6006354E5002390BD
:1027B000E700839607001307007D6354D70023903A
:1027C000E7008347D4018DCB83C7090095C783A554
:1027D000018103D6E1843705002013050532EFE0BF
:1027E000BFA69387818D98433A9537E71600130764
:1027F00007366353A71698C38387918EADC383C7EB
:102800000900B1CF83DBE18D03A5C1B103A64186E9
:102810009357F541C20793550501DD8D8146420569
:10282000EF402030370A0020AA855E8613058A2FE4
:10283000EFE09FA19387418B98433A953767380122
:102840001307078F6351A71298C303A701C7930704
:10285000300663E6E700130A8A2F23280A0003C71D
:1028600001B283D6E1B083D7A18B938BA18B637424
:10287000D70403A601C7239701B093065009138715
:10288000118363F4C60063E7F60E83C64183230019
:10289000D70083D60400034707009D8E6356D700F8
:1028A000B386E7002390D40083D60400B386D740D4
:1028B0006355D700998F2390F40083470B0083D68C
:1028C0000400E207E18703C709001389C185638417
:1028D000070E6305071603D7018B9307F00263FD0C
:1028E000E70C83C711BA93F7F70FCDC3A38001BAE2
:1028F000034744012384E1B283D70400035709004E
:102900002390FB00B73701402396E7C203D701B1FC
:10291000239AE7C2239CE7C2239EE7C29387E18CF8
:1029200003D7070005072390E7006FE07F85EF10CE
:10293000500A13054006EF10E021850B23A08C01FF
:10294000ADBBEF101009B5BB23800600239301B087
:1029500049B383C65183DDB36354A00088C369BD06
:1029600023A0070051BD6344050088C3F9BD23A01F
:102970000700E1BD03A641899306401F63F5C60029
:1029800083C6318329B783C6218311B71307207B00
:10299000B6876374D7009307207B03570900C207EB
:1029A000C183B387E7021307007DB3C7E70285073A
:1029B0002398F1B091B759C303D7018B9307E00275
:1029C00063EEE7068347D40005466397C700238478
:1029D00001B2A380F1BA01A80947639FE7002384ED
:1029E000C1B2A380C1BA835709001307007DB38722
:1029F000D702B3C7E7026DBF1387D7FF1377F70F6F
:102A00009945E3E2E5FE83C511BA93F5F50F99E91F
:102A1000F917A388F1B29567938707E22390FA002C
:102A2000854745BF83C711B3E5FF83C711BAE319D3
:102A3000F6FE23A801C623800900DDB78387518CE9
:102A400089CF0357090083D7618C93060083B3872E
:102A5000E702B3C7D702BA97A1BF0347C4018947AA
:102A6000E313F7F883470B00E207E187ADDF094581
:102A7000EF208039035709008347C400B387E7027A
:102A80001307007DB3C7E7022947B387E70293879F
:102A9000870239BFEFE2CFEABD67370700081307A7
:102AA000070093870700BA97011123A0F182EF2056
:102AB000B05EBD654146938505FE0808EF1090594C
:102AC0008306410113078003938781816396E67033
:102AD0001307800298C3984393170701C183239477
:102AE000F182239DF1822396F184238EE180EF20F1
:102AF0000078EF20D03BEF205042EFE08FFA938731
:102B000001BB03C7370089471389A183138AC18496
:102B1000138401BB631BF700834744000D47639692
:102B2000E7000347140063EDE7008947A301F400C1
:102B30008D472302F4009147A300F400EFE05FCA41
:102B400083471401FD17B337F000A383F18203D745
:102B50008180938781803EC4239EE18403474401A2
:102B60009384C18519E3A309040083476402A1CBC0
:102B70001307803E239DE18485472388F182230942
:102B8000F40083570900A3090400A30A04009387F3
:102B900027032310F90083570A00A3060400230A21
:102BA0000400938727032310FA009387818303D7B8
:102BB0000700230B0400130727032390E700239744
:102BC000018EEF20007BAD679387A7AA37370040BF
:102BD0001CC3EF10705983C7818A938AE18E91C715
:102BE0000547A384E18EA3090400EF1090661389C2
:102BF00041926E8B0357290083570900BA970357F8
:102C00004900BA9703576900BA9703578900BA97E2
:102C10000357A900BA979107858723AEF1B093892E
:102C2000818B83C70900E207E18789C7EFF02FF5A1
:102C30002380090003A601C7914613876183938708
:102C4000518363E7C65A034624016301065A238071
:102C5000D700AD672300D7009387A7AA3737004076
:102C60001CC30347540185476311F70203A5018183
:102C7000A2471306800C9305000603D7070093565E
:102C80001700EF0050662390A400034754018947C2
:102C9000631BF7049387418994431307900F636D77
:102CA000D7009443130740066378D7009843A9469A
:102CB0003307D7022390E400944313073006636878
:102CC000D700984309C71307803E2390E40094433C
:102CD0001307900F6364D7009C4391E78567938740
:102CE000479C2390F40083D6E18C89679387077112
:102CF000938BE18C63FDD70A9387218983C70700F3
:102D000093892189E207E187A9C7EF20A00E2380DC
:102D100009002398018A2389018A23900A00B73782
:102D20000140239A07C2239C07C2239E07C2EF20BB
:102D3000F01D938741A01387071023A00700910778
:102D4000E31DF7FEB707EFBE37E700E093870708FC
:102D50003CC703D70B00A967938707C463F9E7044F
:102D6000EF204009238009002398018A2389018AE2
:102D700023900A00B7370140239A07C2239C07C259
:102D8000239E07C2EF209018938741A01387071056
:102D900023A007009107E31DF7FE2945EF106062AD
:102DA000B707EFBE37E700E0938707083CC71387F4
:102DB000018E835607009567938707E263F6D70273
:102DC0008397C18813068016C207B3C7C7029386CC
:102DD000018A904223100700B2979CC283C711B3A7
:102DE00081C7FD17A388F1B203A701C79306803EF0
:102DF00083D7E18863E3E60099E3A38C0188930617
:102E0000400663F8E6001307700C6364F700A38CB8
:102E100001880347340119C71307F0096364F700F9
:102E2000A38C01880387418A6306073C1307F018C7
:102E30006364F700A38C018883C7618F93F7F70F52
:102E40009DCB83C7218903C7418CE207E187D98FD6
:102E500003C7A18CD98FE207E18791EF2D45EF10D1
:102E60004056AD67373700409387A7AA1CC31305A8
:102E7000C05DEF00304E034774029307F00F631AF2
:102E8000F70283C7A18C95E783D7018B9DE383A7C6
:102E9000018D0567930647CEB387D7021107B3C7E5
:102EA000E70293F7F70FA303F402238AF180EFE020
:102EB0003F9383A7C1B10D4793894189B3C7E70207
:102EC000138741891CC30387518A938C518A3DCF54
:102ED00003A701C7A94763FBE70683A5090003A56C
:102EE00041BAEF00F04383A70900858363FAA70482
:102EF00003A709009307F07C63E4E7049387618AE2
:102F000003C7070023A801C605072380E7008347FE
:102F1000240199E703D7018B9307F00263E8E700E8
:102F200003A701819307803E63F4E7002385018CAA
:102F30000547238FE18283D781838583239DF18A8F
:102F400083A7090023800C0023A2F1BA938BB18CD4
:102F500083C70B00E207E187638B072A83A7C1B110
:102F600003D7C1B93307F702938747063357F702F0
:102F700083D6218A03D6C18883D5C1B0038541B2E7
:102F800042074183EF10604A2945EF10D07023803B
:102F90000B0003C7B1888547938BB188938CC18D93
:102FA000631CF70EEF10C06F03D5E1B9EF10A070EE
:102FB0002392A1B283D741B18566138646CEB387EB
:102FC000C702FD16B3C7D70283D6A180B387D70245
:102FD00093064006B3C7D7022396F1B083C6F1919A
:102FE0009387018D93F6F60F91E6EFE0DF809387EC
:102FF000018D88C39C438566938646CEB387D702EE
:10300000930690021306C0F9B3C7D70283C6418165
:10301000B386C602B697BD46B3C7D7029386C188AA
:10302000C207C18763CC071E2390F6008346440283
:1030300005469387E18B639DC61E83D6C1B0038787
:10304000B18903D6C1823307C70263DCE61C03D70C
:10305000070005072390E70083D6070083870C004D
:10306000797713074795B387E70209671307077155
:10307000BA9763D1D70205472385E1882398018A4F
:10308000EF105057EF1020652385018C23900A0024
:103090002389018823800B00A38E018C83870C0079
:1030A0006396071C83A7C1B1372509001305057C6A
:1030B0003345F50283C7A18C938CA18C938BE1815E
:1030C0003305F50242054181239EA1B8A947335536
:1030D000F502239AA1B2838701836385071603D77C
:1030E000818583D6A18503D6A18283D5E182EF00B5
:1030F000901F2390AB008345B4029307F00F6381C8
:10310000F502039541B263DDA50083D68185138660
:10311000A50005478582D915EF00F01C2390AB0070
:1031200083A601C713073006938B018193876182C1
:10313000636FD71083A60B001307401F6379D71066
:1031400031472380E70083A60B0013071003636554
:10315000D70009472380E7008347F40289CF03D5CE
:10316000C18A5D47B5461306007D93054006EF0012
:1031700090172388A1B2B717004003D74782AD67E5
:10318000938787FCE3F8E7A683C90C00A38001BA04
:103190008547E391F9A6034744012384E1B293876D
:1031A000918903C7070005072380E700EF10A052AD
:1031B000238F318303D7018B9307F00263E9E70084
:1031C00085679387873823800C0023A0FB0023A802
:1031D00001C6EFF0AFB539BC830631011307100308
:1031E000E39BE68E130700056FF0DF8E994685B4EA
:1031F0008D46B1BC930650091387D18063E7F60072
:10320000930740062300F70005B9A947E5BF0387E8
:1032100061B1E30007D8238B01B0A5BB2390060062
:1032200031B50387A188E31907E2239007002DB584
:103230000946E393C6E283D6C1B0130620030347D1
:10324000840011B59307007D2390FB006DB503A5A5
:10325000090031478D461306401F93054006EF00D5
:103260009008938761822380A700F1BD1386018BAC
:10327000835706001387018B3AC693060003138712
:10328000718A63F5F61483C62189E206E186638FAD
:1032900006129387F7FC8546C2072380DB00C183B3
:1032A00093057005938B418563ECF5088307070050
:1032B00085CFB706004083D7C640C207C183F99BBC
:1032C000C207C1832396F640EF10E040B7370140B4
:1032D000239A07C2239C07C2239E07C2EF10703AAD
:1032E0001387718A23000700EFF00F8F8346B40124
:1032F0008967938787B51307A0323347D702130630
:10330000800793050003B3C6D702B24703D5070071
:10331000EF00607D2390AB0042054181EF0050013A
:1033200083D70B00130780253347F702239EE1B8AC
:1033300013078016B387E70223AEF1B06FF09F8BBF
:103340002300D700EFF04F891386018B83560600C8
:103350001307800C6378D70013070005239901B089
:103360002390EB0003D50B00EF00807C839721B105
:10337000E392078885472385F18C238FF182896743
:103380009387873223A8F18023A0F90083A6090040
:1033900023800C0023A2D1BA371700402312F782F2
:1033A000D14723A8F1C6A382018C03C7E1802389FA
:1033B000E1848347D40189C703570A00239DE18A2A
:1033C000EFE0CFCCEF2060336FF0DF828547834B97
:1033D000C4012300F7002385018C85476390FB0619
:1033E000834794021307800C93060083B387E70298
:1033F0002393F18C03D70400B387E702B3C7D70246
:10340000BA97C207C1832398F1B0130730066368E7
:10341000F700EF10D025239E01B86FF0AFFDEF103D
:10342000006503D701B1B7370140239AE7C2239C57
:10343000E7C2239EE7C2A382718DF1BF8947639FD4
:10344000FB020945EF10501C03D704008347C4005A
:10345000B387E7021307007DB3C7E7022947B387A5
:10346000E7023737014093878702C207C183231AD7
:10347000F7C2231CF7C2231EF7C271BFB737014042
:10348000239A07C2239C07C2239E07C2EF109016FF
:1034900059B7EFD2FFCA938741A003A741A0FC5FB1
:1034A0000111998FC207C183239CF1C603D72191D3
:1034B00013D657002390C190637EF72203D7C186AD
:1034C00063FAE722938D41A093860193138A0190BA
:1034D0002397018C138741A093850D0813890193CD
:1034E0005C43084321079106898FC207C183B33724
:1034F000F60023AEF6FEE395E5FE832709010324DB
:10350000090003274901832909033D8C8327090208
:103510008E093D8C832749000E04B98F0327490289
:10352000B98F8A075D8C0327C9018327C900B98F2A
:103530000327C902B98F5D8C03278901832789007E
:10354000B98F03278902B98F86075D8C83274903CA
:103550001374F40F8A07B3E9F9008327C903B3E9A9
:10356000F900832789038607B3E9F90083C7218916
:1035700093F9F90FE207E187B1EB83C7A18AE2076C
:10358000E187A9E7EF10204C31C1138721908347D1
:103590000700850793F7F70F2300F700130740068E
:1035A0006376F70203560A0085472385F18A93065E
:1035B0009003138781869387018663F0C614930670
:1035C00000082310D7001D472390E70083C7A18A76
:1035D000E207E18791C7BD47B389374193F9F90FF6
:1035E0006392893083D6A1C82397018C03240900F4
:1035F00085062395D1C883C6818A0327490083287D
:1036000089000328C90083270901032D4901832C60
:103610008901032CC901832B090283294902032351
:103620008902BDCA03A641A083A68D071385C18F59
:10363000918E9385818F8C411386818FE9E50C41B2
:1036400014C281ED8565938E05E1138E052C63E42C
:10365000DE00138E05962320C5010C4210418146E1
:1036600013950501C1811ACE3ECC42CA46C83AC65E
:10367000EF30204BC976938676661566AA961306B8
:10368000D6CC3247C2485248E24772436366D608F6
:1036900023A2A186239A018E8326C902054663943C
:1036A000C600A385D18C2A042607418F33676700A3
:1036B000A208336717011E089A07336707015D8F59
:1036C00093175D00D98F920CB3E797010E0C03C7D7
:1036D000A1C7B3E787018A0BB3E777018609B3E790
:1036E000370149CF85466311D706239BF1C6894729
:1036F000238DF1C605616FD07FA8930600042310C7
:10370000D7001947D1B5032E06000C42B386C64137
:103710008D86AE9614C291B71386618F83460600DC
:1037200093F6F60FB5FA9385418F83D6050085068B
:10373000C206C1822390D5009305301FE3FED5F465
:1037400085462300D60089BF89466316D7002380AB
:10375000F1C88D4771BF8D46E31ED7F8130750029D
:10376000E39AE7F883D761C7138701BBBA9703C70A
:1037700001C82380E700238D01C6ADBF1307F00207
:10378000635EF7000387018F05C7C207C1832390DB
:10379000F18CA38001B22389018EA9BF1387F7FFA3
:1037A0009306E00263EFE6042390018CA380F1B25C
:1037B00083C711B2A1D303C7A18C0DFF03C7218911
:1037C00062076187E30807F29386319003C606001B
:1037D0001387218F6306F6002380F600230007007D
:1037E000954663E5F60099462300D7008346070017
:1037F0001546850693F6F60F6364D6022300D700BC
:10380000D5BDDDF70387118F85476314F700238843
:10381000018E2390018CA38001B22389018E49BFC0
:10382000FD172300070093F7F70F13073002636CAF
:10383000F7001D678A07130707EDBA979C43828735
:1038400005472382E18C03C711B2A38001B2A38C88
:10385000E18A4DB50947F5B70D47E5B71147D5B72B
:103860001547C5B70547238BE1B0F1BFA38001BC65
:103870000547A383E182C1BF0547A380E1BCA383C1
:103880000182D1B7238101BC7DBF05472381E1BC03
:103890005DBFEFD0FFF483C711BC85072382F18C95
:1038A0005DB78547A38BF18E238AF1C68387118F7D
:1038B0000547E39AE7F82388F18E71B7A38B018E51
:1038C0000547A380E1C841B703C711BC8547998F5D
:1038D000A383F1828DBF03C711BC61BF8547238DD0
:1038E000F1C695B783D781C885072394F1C861B520
:1038F00023A2019081471388419093860197130674
:103900005002139727003697232007008507E39A74
:10391000C7FE83C7718F639207108147038641C733
:1039200011C68567238A01C6938707E0038611C8FD
:10393000630C06168567A38001C89387F7EF23AE53
:10394000F1C605472387E19083A7C1C7854E7D5304
:10395000C207C18313D6870013D74700318FB98FB1
:1039600003A7C1C793C7F7FFBD8B1207D98F23AE3B
:10397000F1C683A7C1C703A6C1C703A5C1C783A555
:10398000C1C71D67130707F6B1872186BA97BD899E
:103990003D8ABA953A96838707008385050003061A
:1039A0000600BE07CD8F2A06D18F135645403D8AAB
:1039B0003297030707001607D98F23A2F1C883C5E2
:1039C000B18703D681861387150093172700B69712
:1039D00090C383D801864D461318270003AE41C813
:1039E000369803280800B397CE00B3F7C701B3D7C2
:1039F000C700335818010507B3C70701131827007C
:103A0000B397170136982320F8007D16E31666FC5D
:103A10008A05AE9623A00600828013878190834793
:103A2000670081C723030700CDBD835547000356B8
:103A3000270083570700850505068507C20542064E
:103A4000C207C1814182C1832312B7002311C7007D
:103A50002310F7009308700263FFB8008397C188B2
:103A60001306200323120700B3C7C70293F7F70F0B
:103A700093E7076065B59305700C63FEC50083D7B7
:103A8000C1B0654623110700B3D7C70293F7F70FFC
:103A900093E7074061B5E3F2F5E883D741B223101D
:103AA000070093E707209DBDE39B07E883C7A18C30
:103AB00099E341657D15BD4705462147B355F5405E
:103AC000639FC500E1172320F80003270800931720
:103AD00097003355E5405D8D23AEA1C6B5B5FD1702
:103AE000E39EE7FCDDB76358C50263D7A502630513
:103AF000D702B307B6003308D7008587135818409C
:103B0000638EB70063D6A70093851700C286E1BF16
:103B100042873E86C9BFBA8636858280C286EDBF9F
:103B2000B307B54063D40700B387A5403E858280C4
:103B3000B717004003D747824205B71600400583F8
:103B4000418183D746828583998FC207C183E3EA87
:103B5000A7FE8280EFD2CFE12A84FD547D14631446
:103B600094006FD02FE31305803EEFF07FFCFDB78C
:103B70002D8DA1471317850193151500618713F546
:103B8000F50F6356070013C575001375F50FFD1784
:103B900093F7F70FE5F38280EFD28FDD2A84B30429
:103BA000B5000145631494006FD0CFDEAA850345AC
:103BB00004000504EFF0DFFBF5B7EFD2EFD8138771
:103BC00041A0032A470003A741A093066057330A88
:103BD000EA40420A135A0A011307FACD4207418309
:103BE00063EBE6183E8B938C41A083C7019123972A
:103BF000018C938401916383071283C761911389B8
:103C00006191A1C79307104E1389C19163F8470FC3
:103C1000034709009307B00463F8E70683D781845C
:103C200023800400E507C207C1832394F184094778
:103C3000938727D1B3C7E7022388F1BCEFD05FBADF
:103C400023000900EF00E06881A083C75191938BA6
:103C50005191138C819199E323104C0183D5618498
:103C600003550C0085072380FB00EFF07FEB9306E4
:103C7000200363F0A6042380040083D7618423100B
:103C8000FC0083470900BDFF2397018C83A601C96F
:103C900003D6018C83A701873386C64063D0C70E45
:103CA00083D6018CB697C207C1832390F18C6FD065
:103CB0002FCD03A741A083A74C001D46998F03D7A2
:103CC00061843307C702BA978D83C20703C70B000D
:103CD000C1832393F184E3F2E6FA9D17C207C183FF
:103CE0002393F18409479387A792B3C7E702A38878
:103CF000F1BC85472300F900852B41B783470900B4
:103D00009D4685072300F90083D78184B387D702B6
:103D10003E9A135A3A4023944185DDBD83C721BCA6
:103D20008DCB83D5A18463EE45012E8683D5818416
:103D30001307803E81465285EFF0FFDA23A8A1C821
:103D4000A1B71307007D9306903E03D661848505D5
:103D5000DDB703D6618483D581841307F07F930692
:103D6000F0025285EFF03FD893070003E3C8A7FCA9
:103D700023A801C811BF2397018E09BF03D6018C68
:103D8000158E63D7C70083D6018CB387F64021BF59
:103D9000C206C1822390D18C19BF83A741870947EE
:103DA0009386F7FF6369D70203A741C99307B0035E
:103DB00063E2E702238E0186238C01C88547A38432
:103DC000F18AB946A38DD186930600022385D18658
:103DD0002389F18A8280F1171147E36DF7FE03A76B
:103DE00041C993073006E3E7E7FE8547238EF18656
:103DF000238CF1C8A384F18A9D46E9B703A74187C4
:103E000095679387E713130777F363EEE700094796
:103E10002385E1861307F005238EE18685472386F7
:103E2000F18C2389F18A8280EFD28FB495679387D2
:103E300007E283A641A0138741A023AAF18623AA03
:103E400001C8130E870781480145014393854187C7
:103E500003284700630AD800B306D84063F4F6008D
:103E6000B6870543369585481107C286E312EEFEF4
:103E7000630303009CC16384080023AAA1C883A72D
:103E800041C90547958323AAF1C88386918ABE84D8
:103E90006394E600EFF07FF003C7C18C85463E8453
:103EA000620761876314D700EFF05FF58387918A1B
:103EB00091EB83C7C18CE207E18789E7EFF0FFED63
:103EC000EFF0DFF36FD00FADEFD28FAA83C7218958
:103ED000E207E18795C783C7A18AE207E1878DC31F
:103EE00083C70192E207E18781CBEF00F027894782
:103EF000238EF1886FD00FAAEF00302F8547CDBFFA
:103F000083C7218BE207E18791E7EFF0FFF1EF0034
:103F1000B025CDB783C7218B0547E207E187E39B37
:103F2000E7FC03C7A18A620761870DCB83C70192B3
:103F3000E207E1878DC303A5C1B1C167130545063B
:103F40006364F5001385F7FF42054181EFF05F9A46
:103F5000EFF02FD46DBFEF00502969BF8386918A9F
:103F6000BA846396F600EFF0CFD2EF00F01F83C75C
:103F7000C18C0547E207E187639CE700EF00B02CA6
:103F80009387A18641C90D472380E700EF00D01D2C
:103F900083C72189E207E187B1FF8387918AB1CF87
:103FA00003C791C98D4663EAE60403D6E18E9546C0
:103FB00063F5C60405071377F70FA38CE1C8938751
:103FC00041A0FC5F83A641A0958F03A6C1C8C2078C
:103FD000C183B29723A6F1C891466310D70213D7C5
:103FE000670089834207C2074183C1833306F70014
:103FF000998F2396C1862399F19003D5E1883E8954
:1040000005E183C7019189EF83D7E18E8507239767
:10401000F18ECDB509472380E700EFF01FBABDB799
:1040200083C771BBE39807EC2397018E9307C05DAC
:10403000E3F2A7EC83D5A1919384A191EFF05FAE59
:1040400013072003138441916379A7002300040020
:1040500083D7E1882390F40071BD8347040085076E
:1040600093F7F70F2300F400E374F7FE83C7619121
:10407000E5F3F12405472388E190C9BFEFD2AF8D66
:10408000AD642A847D59B73900409384A4AA7D1475
:10409000631424016FD06F8F23A099001305803E15
:1040A000EFF01FA9EDB7EFD20F8BA9473375F502DB
:1040B0009D67938707F7AD641144B73A0040938436
:1040C000A4AA37390140FD59AA9703CA070023A0C3
:1040D0009A0003C7A1C9B3578A40858B231AE9C246
:1040E000231CE9C2231EE9C21305400B99E3130503
:1040F000C003EFF0BFF8231A09C2231C09C2231E14
:1041000009C21305C0037D14EFF05FF7E31134FD1E
:104110006FD0AF872D47AA876373A700AD47860787
:10412000238DF1C8828003C7A1C9B7370140239A04
:10413000E7C2239CE7C2239EE7C28280EFD2AF8111
:1041400037340140130404C09307F07C89692316B7
:10415000F4029387098073900780AD64373900407B
:104160009384A4AA9307C003232099002314F40284
:10417000EFF07FFB0545EF0030491305B004EFF089
:104180007F9D93070005232099002314F402130553
:10419000B004EFF03F9C9307A0052320990023145F
:1041A000F4021305B00423209900EFF0BF9A2320F6
:1041B0009900EF003044231404022397018C83D725
:1041C0008180938989882316F402739009806FC0D7
:1041D000DFFBEFC25FF809699307098073900780DE
:1041E000373401409307F07CAD642316F4C2B7392D
:1041F00000409384A4AA9307000523A099002314E8
:10420000F4C2EFF05FF20D45EF00104013054006D9
:104210002397018CEFF01F949307600423A099006B
:104220002314F4C213054006EFF0DF9293078002D7
:1042300023A099002314F4C213054006EFF09F91C8
:1042400023A09900EF00103B231404C283D7818080
:104250002397018C130404C02316F40213098988E0
:10426000731009806FC07FF2EFC29FF037340140B6
:104270009307F07C2316F4C2930720032314F4C29F
:10428000EFF07FEA0945EF003038AD643739004080
:104290009384A4AA13056009EFF0DF8B2320990013
:1042A000F947232099002314F4C213056009EFF0A5
:1042B0007F8A23209900EF00F033231404C2239750
:1042C000018C83D78180130404C02316F4026FC0CD
:1042D0007FECEFC2FFE9373401409307F07C2316EF
:1042E000F4C2930780022314F4C2EFF0DFE3094520
:1042F000EF009031AD64373900409384A4AA1305D0
:104300006009EFF03F8523209900930700052320E3
:1043100099002314F4C213056009EFF0BF83232032
:104320009900EF00302D231404C22397018C83D70A
:104330008180130404C02316F4026FC0BFE5EFC2EE
:104340009FE1B73701401307F07C2396E7C28967E6
:104350009387078073900780AD64EFF0DFDC130470
:104360007007B73900409384A4AA514BB73A014073
:104370007D5A3345640323A0990013890AC0EF00D6
:10438000B02893571440A907C207C1832394FAC2E7
:104390002945EFF02FFC791423A09900E31B44FD7D
:1043A000EF00502523940AC22397018C83D7818084
:1043B0002396FAC2896793878788739007806FC0B6
:1043C000DFDCEFC25FD98964AA8993870480739088
:1043D0000780373401409307F07C2316F4C20D4563
:1043E000EF009022930720032314F4C2EFF0BFD311
:1043F000294933D52903130404C093848488EFF03A
:104400009FCA1305400BEFF07FC733F52903EFF088
:104410009FC9EF00301E2314040283D78180231626
:10442000F402739004806FC05FD6EFC27FD4138410
:10443000C1C9238EA1C82301B40013D585009355AB
:104440008600A300A400A301B4002302C400230338
:10445000D40013D68600A545935687001385C1C99D
:10446000A302C400A303D4002304E400EFF0CFF2BE
:10447000A304A4006FC01FD2138701CD8356270069
:1044800083D701CD239AD1B003C6D1919386D19120
:104490001DC62399F1B21387E191A38FC190834781
:1044A0000700850793F7F70F2300F70001CE23805D
:1044B0000600B7170140056723AAE780828023948E
:1044C000F188D1BF4D46E376F6FE85472380F6009E
:1044D00023000700B7170140056723A8E780828003
:1044E000EFC27FC71D711306C00281454818EFC097
:1044F0003FCB1306000281454808EFC07FCA8545BF
:10450000054502C402C602C8EF103042370530002C
:10451000854513050540EF10701F372401409307B0
:10452000C4443EDA938701CD3EDC93070008BEC445
:1045300093070010B7040240BEC693070040056908
:10454000138584008949BEC84C1893070002BECA6F
:1045500002DECEC082C2CACC82CEEF1060720546A7
:1045600013858400A945EF10607613858400854586
:10457000EF108074B7E700E0130700FCA38DE7405D
:104580003707000823A0E710854513050020EF102A
:10459000D0390145EF10102AB714014093072004C9
:1045A000138504802C002314F10002C8EF1090063C
:1045B000C1472C0013850480054A3EC823142101FD
:1045C00052C6EF1030051305044023AA2481EF10D2
:1045D0000045B7070E004C08130504403ED002CA40
:1045E00052CC02CE02D223043103EF10404785465D
:1045F0000546854513050440EF10C0518546094620
:10460000994513050440EF10E0508545130504401B
:10461000EF10604B854513050440EF10C0498145FC
:1046200013050440EF10805A13050440EF10C04AF0
:10463000930404402685EF10C04A6DFD1305044025
:1046400037240140EF10604A930404402685EF10A0
:10465000604A6DFD854513050440EF102057256124
:104660006FC0BFB2935665009397260037070020AE
:104670008506130787348A06BA97369790431C43FA
:104680001375F503B307F640B387A70213050004BB
:10469000B3C7A702B307F64013950701418582808F
:1046A000EFC21FAD37250140854513050540EF10CA
:1046B000E0446FC03FAEEFC2BFAB03D521B3EFF014
:1046C0007FFA6FC03FADB717014003A5878083C74E
:1046D00081877D8D8280B707014003A707409386BD
:1046E00007401D9B23A0E740E147DCCA82803707D3
:1046F0000140E146232AD74003C6A187832607400D
:104700008547B397C700D58F2320F7408280038762
:10471000218585469387A1876305D7009146631D50
:10472000D700B7460240054623A2C6808D462380A7
:10473000D7002146239CC18689466305D70095464C
:10474000631ED700B74602401306000723A2C680A7
:1047500091462380D7004146239CC1868D46630540
:10476000D7009946631ED7003747024093060003DF
:104770002322D78011472380E700C146239CD1869E
:1047800083C7070005473317F70083863184B707CF
:1047900001409387074089C623A40700D8C78280B9
:1047A00023A6070098C78280EFC2FF9A6D71AA8482
:1047B000AE8932898145130600100808EFC05F9E5C
:1047C000B7270240C047058875FCB7066745938642
:1047D00036123797EFCDD4C31307B79AD8C3D4D3C3
:1047E000D8D39377F90F81E74A85EF1080599377F3
:1047F00009F03EC613070010B247A29783D6070000
:104800001C08A2972390D7000904E317E4FE894708
:10481000B3C9F9022685814663CB360132450C08BF
:10482000EF100059EF10005551616FC01F96B2474D
:10483000180A03460500B307F9408583B697860733
:10484000BA9703471500850609052207518F239063
:10485000E7F0D9B7814763C3C70082803387F5008B
:10486000834607003307F50085072300D700E5B727
:10487000EFC21F90B7170140054423A8878003A704
:10488000078085450545419B23A0E78003A7078056
:104890001367370023A0E78003A70780136787000B
:1048A00023A0E780EF10100E81450545EF10900D15
:1048B0003707004093070006231CF7008D4723109D
:1048C000F7022314070283D7818685453705004008
:1048D000FD17C207C1832316F70223808192EF10D0
:1048E000D0526FC03F8BEFC2BF8885450545EF10A2
:1048F000700981450545EF10F00837070040231087
:104900000702B7170140054623A8C78083A6078082
:10491000C19A23A0D78083A6078093E6460023A0F0
:10492000D78083C7C18CE207E1879DC7231CC700DE
:104930000387C187B707004085452394E7027D5769
:104940002396E7022398070037050040EF10F04B4D
:10495000238001926FC01F848D47231CF7009307AB
:1049600000042314F700E9B7EFC29F8083C7C18C0E
:104970000547E207E187639DE7003707004083575B
:104980000702C207C183F19B93E717002310F702C8
:10499000EFF07FF537070240938741A07CD3B7073C
:1049A00000401386470330D303C6A18685669386ED
:1049B000B69870CF34CF2392070283D6C70093E610
:1049C00006202396D70083D6070293E6160023908D
:1049D000D70283D6070093E616002390D7003C4FFA
:1049E00093E747003CCF6FC0EFFAEFC26FF8EFF0EC
:1049F0003FE88567370702409387A7993CCF9387A5
:104A000001977CD3B70700401386470330D303C612
:104A1000B1875D0670CF83D6C70093E60620239644
:104A2000D70083D6070293E616002390D70283D6D9
:104A3000070093E616002390D7003C4F93E717003A
:104A40003CCF6FC02FF5B717014003A587800589BC
:104A50008280B717014003A70780419B23A0E7800E
:104A600003A707801367470023A0E78082803717DA
:104A70000140832647807D761306F60FF18E2322B0
:104A8000D7808326478093E606302322D78093067B
:104A90000040232AD7808326478093F6F6F023220E
:104AA000D7808326478093E606032322D780930688
:104AB0000020232AD78083264780C19A2322D780CB
:104AC0008326478093E636002322D7809306001082
:104AD000232AD780832707C0B70600B093F7F7F0E3
:104AE0002320F7C0832707C093E7070B2320F7C0D5
:104AF000832707C0C19B2320F7C0832707C093E704
:104B0000B7002320F7C083270780920791832320D3
:104B1000F78083270780D58F2320F780828083C783
:104B200081B293F7F70FA9E3B717014003A707C0B6
:104B3000938607C0419B23A0E7C003A707C0136764
:104B4000370023A0E7C08547DCCAB717014003A799
:104B500047801377F7F023A2E78003A74780136706
:104B6000070B23A2E7808280B717014003A707C085
:104B7000419B23A0E7C003A707C01367B70023A08A
:104B8000E7C0E1B7B717014003A707C0419B23A0C7
:104B9000E7C003A707C01367370023A0E7C0054796
:104BA00023AAE7C003A747801377F7F023A2E78083
:104BB00003A747801367070323A2E780130700209A
:104BC00023AAE7808280B717014003A707C0419B53
:104BD00023A0E7C003A707C01367370023A0E7C0DF
:104BE000054723A8E7C003A747801377F7F023A260
:104BF000E78003A747801367070323A2E780130713
:104C0000002023AAE780828083C781B293F7F70F41
:104C1000B9E3B717014003A7078037060030938632
:104C200007801207118323A0E78003A70780518F15
:104C300023A0E78093070008DCCAB717014003A749
:104C40004780419B23A2E78003A747801367B700F3
:104C500023A2E78082803717014083270780B706A9
:104C600000B0920791832320F78083270780D58F98
:104C70002320F780D9B737170140832607803706EE
:104C8000003093070780920691822320D7808326E5
:104C90000780D18E2320D78013070008D8CBD843B4
:104CA000419BD8C3D84313673700D8C313070010FC
:104CB000D8CB828037170140832607803706003023
:104CC00093070780920691822320D780832607804E
:104CD000D18E2320D7801307000898CBD843419B5F
:104CE000D8C3D84313673700D8C313070010D8CBF5
:104CF000828083C781B293F7F70FB1E7B7170140FE
:104D000003A707C0938607C01377F7F023A0E7C077
:104D100003A707C01367070323A0E7C08947DCCABE
:104D2000B717014003A74780FD769386F60F758F6E
:104D300023A2E78003A747808566938606B0558F38
:104D400023A2E7808280B717014003A707C013772B
:104D5000F7F023A0E7C003A707C01367070B23A042
:104D6000E7C07DBFB717014003A707C0FD76938654
:104D7000F60F1377F7F023A0E7C003A707C0136768
:104D8000070323A0E7C0094723AAE7C003A747807A
:104D9000758F23A2E78003A747801367073023A2FC
:104DA000E7801307004023AAE7808280B7170140FD
:104DB00003A707C0FD769386F60F1377F7F023A0BD
:104DC000E7C003A707C01367070323A0E7C009478D
:104DD00023A8E7C003A74780758F23A2E78003A716
:104DE00047801367073023A2E7801307004023AAF8
:104DF000E7808280EFC2CFB7EFF0FFE7EFF09FD8F8
:104E0000EFF05FF66FC00FB97D15954763E0A70619
:104E1000EFC20FB69D679387C7F70A053E951C4101
:104E20008287EFF07FDEEFF01FDAEFF0BFF339A0FB
:104E3000EFF07FE4EFF03FD9EFF0BFEB6FC08FB53D
:104E4000EFF05FE7EFF01FD4C5BFEFF0BFE6EFF084
:104E50001FCDE1BFEFF03FE2EFF07FCCEFF01FF5A9
:104E6000F1BFEFF07FDAEFF0FFD1CDBF8280EFC26C
:104E70002FB0EFF03FE4EFF01FD5EFF03FF36FC03E
:104E80006FB1EFC2EFAEEFF03FD8EFF05FC9EFF0D8
:104E90005FE66FC02FB0EFC2AFAD41119147AA845A
:104EA0002312F100371501408D473EC44C00E14705
:104EB000130505803EC623130100EF00B07537458A
:104EC0000040130505408357C500370402400546DE
:104ED000C207C183CD9B93E787002316F5002322E9
:104EE00094089387C1C92326F40893050008EF109E
:104EF000D03C1304040885452285EF00F05B410196
:104F00006FC04FA9EFC22FA55D711306C002814586
:104F1000481002CA02CC02CE02D0EFC06FA885456D
:104F200037050200EF10402285451145EF10E01FC4
:104F300091472314F100371501408D473EC62C00E0
:104F400093078004130505803EC823150100EF0078
:104F5000706CF16737440040938707203ECA4C08C5
:104F6000B7070800130504403ECE02CC231001020F
:104F7000EF101022130504408545EF10F02E930525
:104F8000000413050440EF10B034B7E400E0815989
:104F900037090240238B3443B707400023A2F410A3
:104FA00013050908EF0010449387C1C93ED4C147D7
:104FB0003ED6930710034C10130444403ED813050B
:104FC0000908930700083EDC22D202DA02DE82C022
:104FD00082C282C482C6EF00B04A3705000EEF00DD
:104FE000F0500546A94513050908EF00304E8947E2
:104FF000A380344323A2F41061616FC00F9901A014
:1050000001A00945EF00104F11C51945EF00104EE2
:10501000EFF08FC62145EF00F04D01C52145EF00AF
:10502000F04C73002030B70702409C43411122C668
:105030001397D7006351070283C7C18CE207E1874A
:1050400091C7B70700400D472390E702B70702401A
:1050500037070400D8C3370402401C401397E70009
:10506000635D07003C4CF99B3CCCEFE0FFE5B707E4
:1050700002005CC00547238CE18AB70702409843D1
:105080009316C70063DE0600B84F37050800799B0A
:10509000B8CFEF00B045EFE03FE30547238CE18A4E
:1050A000324441017300203041113705000222C60D
:1050B000EF00504431C137440040014693050008D9
:1050C00013050440EF10701F37050240814513059A
:1050D0000508EF00703E37050002EF0030419305F0
:1050E000000413050440EF10B01E054693056062EE
:1050F00013050440EF10101937050008EF00903F2A
:1051000015CD3744004001469305000813050440BF
:10511000EF10B01A8357C440370502401305050845
:10512000C207C183CD9BC207C1832316F4408145CA
:10513000EF00903837050008EF00503B3244410142
:1051400073002030011122CE374400409305606285
:1051500013050440EF10B01821C91305044093054E
:105160000004EF10F016130504408357C5009305A3
:1051700060620146C207C183DD9BC207C18323165B
:10518000F500EF10301091472312F1003715014060
:105190008D473EC44C0093078004130505802313FC
:1051A00001003EC6EF0010477244056173002030D5
:1051B000B7F700E023A20700EFD06FC373002030E1
:1051C000B717004003D7478283A74189858363FBD4
:1051D000E700B7070140214723AAE740EFC08FFE51
:1051E00073002030EFF02FCE83873184E31AF5FE71
:1051F000B7070140214723AAE74093870740CDB76F
:10520000B717004003D7478283A74189858363FB93
:10521000E700B7070140414723AAE740EFC08FFAF4
:1052200073002030EFF02FCA83873184E31AF5FE34
:10523000B7070140414723AAE74093870740CDB70E
:10524000411122C637040040854513050440EF1084
:10525000807101C9EFC0AFEE854513050440EF1022
:10526000407232444101730020307300203082804C
:10527000EFB21FF0011137140140930400024C00FB
:10528000130504802312910023130100231401004D
:1052900023150100231601002317010002C802CACA
:1052A00002CC02CEEF001037F577938707C04C0091
:1052B000130504C02312F10002C6EF00B035E14728
:1052C00011494C00130504802312F1004AC6EF0077
:1052D00070344C0013050480231221014AC6EF00EC
:1052E00070330547B747024023A2E7808D4501454B
:1052F000EF00D04FA147414908083EC84ACC02CA36
:1053000002CEEF00F01F2145EF00302637E400E029
:10531000E547A308F404B75700009387071C93E7F9
:1053200017007CD0A30C9440B70700022320F41090
:1053300091450145EF00904B08084AC84ACC02CA83
:1053400002CEEF00F01B4145EF003022E947230970
:10535000F404B75700009387072093E717003CD465
:10536000230D9440B70700042320F41005616FB0AB
:105370007FE2EFB2FFDF1567B737004013075755DD
:1053800098C30D47D8C30567130707FA98C7EF00FE
:10539000B048EF0050496FB0FFDFEFB27FDD056529
:1053A000397185451305158002C402C62318010012
:1053B00002D802DA02DC02DE02D002D202D42316C4
:1053C000010202CA02CC02CEEF00305637051600A9
:1053D00085451305050437340140EF00303393074A
:1053E000F07C2C00130504C03EC602C4EF00906B95
:1053F000130504C08545EF106022130504C0A145C4
:10540000EF10A023930700060C18130504C03ED824
:1054100002DA02DC02DEEF00F070130504C0814501
:10542000EF102027130504C0A145EF1020220C180F
:10543000130504C023190102231A0102EF0010779B
:10544000130504C08145EF10E025130504C0A145F4
:10545000EF1060210C18130504C023190102231A50
:105460000102EF00F07F130504C08145EF102025F5
:10547000130504C0A145EF1020200C18130504C02B
:1054800023190102231A0102EF10A008130504C01A
:105490008145EF10E023B70728003ED20C10B70774
:1054A0000020130504C03ED43714014002D0231657
:1054B0000102EF10200E61498D4489474C08130505
:1054C00004C0231AF1004ACE26CCEF00B014854761
:1054D0004C08130504C0231AF1004ACE26CCEF0075
:1054E0007013930700084C0813050480231AF10079
:1054F0004ACE26CCEF001012930700404C0813054B
:105500000480231AF1004ACE26CCEF00B010930796
:1055100000204C0813050480231AF1004ACE26CC43
:10552000EF00500F930700104C0813050480231A56
:10553000F1004ACE26CCEF00F00D21616FB09FC57F
:10554000EFB21FC385451145EF001040B71700406B
:105550007D572396E7825D472394E7826FB09FC310
:10556000B7F700E023A0070023A20700814694C7F5
:105570000147D8C783A501881567130707E233D60B
:10558000E50281463D4790CBD4CB98C3B7E700E016
:1055900001572386E740056723A0E7108280EFB21A
:1055A0003FBD85450945EF00303AB70700405D47EC
:1055B0002394E7420567130707FA2396E742B7E704
:1055C00000E0A3860742096723A2E7106FB09FBCE3
:1055D000EFB21FBA85450545EF00503337E700E0CD
:1055E000930700FCA30FF740B70700802320F710B4
:1055F000FD472308F704B75700009387670293E736
:1056000017003CD36FB01FB9EFB29FB68545354543
:10561000EF00B0316FB01FB8EFB29FB5797185451B
:10562000054502D202D402D602C602C8231A0100DE
:1056300002CC02CE23100102EF0010318545114546
:10564000EF00B02E85472312F10237150140914734
:105650003ED64C108D47130505803ED4EF00807B6D
:10566000C167FD176C00370500403EC802C6EF0059
:105670007043854537050040EF00507A8145370576
:105680000040EF10800B85472C08370500403ECEC8
:1056900002CC23100102EF104014054693050020B0
:1056A00037050040EF00D07645616FB0BFAEEFB276
:1056B0003FACDD22EFF05FF5EFF09FF1EFF0FFCDB3
:1056C000EFF01FE8EFF0DFE9EFF09FBAEFF03FED0A
:1056D000EFF09FF4EFF01F836FB0DFABB7370140FF
:1056E000239AA7C28280B7370140239CA7C2828039
:1056F000B7370140239EA7C28280B737014003D746
:1057000047C113671700239AE7C08280B70700409C
:1057100023960702239207028280EFB27FA53734D7
:105720000140130504C005468145EF00107C1305B8
:1057300004C005469145EF00507B130504C00546A3
:10574000A145EF00907A130504C011468145EF0092
:10575000507C130504C011469145EF00907B114623
:10576000130504C0A145EF00D07A130504C0854598
:10577000EF003065130504C08545EF005066130542
:1057800004C08545EF0070683704004013050440ED
:105790008545EF001063130504408545EF00F06672
:1057A0008357C4408545C207C183F99BC207C183A3
:1057B0002316F4403714004013050480EF00706096
:1057C000130504808545EF005064EFE07FD1054666
:1057D000814537050040EF00507185453705004091
:1057E000EF00305E6FB01F9BB71702409843B706BB
:1057F000FFF01367170098C3D843758FD8C3984339
:10580000B706F7FEFD16758F98C39843B706FCFFE1
:10581000FD16758F98C3D843B70601FFFD16758F27
:10582000D8C337079F0098C7B746024003A7068032
:105830001367070123A0E680D8438D669386068010
:10584000D8C3D843558FD8C3D843B706C1FFFD1678
:1058500013670750D8C3D843758FD8C3D843B7064A
:105860002800558FD8C39843B7060001558F98C3B9
:10587000984393166700E3DD06FED843B71602404F
:10588000719BD8C3D84313672700D8C32147DC4294
:10589000B18BE39EE7FE8280B7160240DC421146E0
:1058A000B18B138701886385C70021466389C702CE
:1058B000B7177A00938707201CC3B7170240DC4351
:1058C000918393F6F700B70700209387C744B697F4
:1058D00083C607001C43B3D7D7001CC38280DC42B9
:1058E000D4424166C983BD8BF18E890745466393D7
:1058F000C700C94781EEB746024083A60680C18A29
:1059000089CEB7167A009386062021A8B7160240E2
:10591000D4421396E600E35606FEB7163D00938682
:105920000690B387D70249BF01A001A001A001A042
:1059300001A001A001A001A001A001A001A001A05F
:1059400001A001A001A001A001A001A001A001A04F
:1059500001A001A001A001A001A001A001A001A03F
:1059600001A001A001A001A001A001A001A001A02F
:1059700001A001A001A001A001A001A001A001A01F
:1059800001A001A001A001A001A001A001A001A00F
:1059900001A001A097B1FF1F9381C12D17F1FF1F37
:1059A00013014166171500001305056F97A5FF1F2A
:1059B000938545651386818863FAC50083220500B7
:1059C00023A0550011059105E3EAC5FE13858188E2
:1059D000938581CD6377B500232005001105E36D24
:1059E000B5FEFD42739002BC8D4273904280B72297
:1059F00000009382828873A0023097B2FFFF9382E7
:105A0000E26393E2320073905230EFF0FFDD97D201
:105A1000FFFF938262087390123473002030EFB25C
:105A20002FF5B727014093870740631CF500854594
:105A3000130500200D2F8145130500202D276FB081
:105A40006FF5B737014093870780E31AF5FE854568
:105A500013050040092F814513050040C5B75C417F
:105A60003707F1E01307F7EF944D7D8F9C41D58FF9
:105A7000D44DD58FD441A206D58FD98F5CC11C459A
:105A800037F7F1FF1307D77FD4457D8F9C49D58F1A
:105A900094458606D58FD98F1CC55C55370710FFF6
:105AA0007D177D8F83C74501FD1793F7F70FD20749
:105AB000D98F5CD582801C4589C593E717001CC52A
:105AC0008280F99BEDBF1C4589C593E707101CC573
:105AD000828093F7F7EFE5BF1C4593E787001CC56D
:105AE000828008450D81058982801C4593E7470027
:105AF0001CC5828008450981058982801C4591C5A5
:105B000037075000D98F1CC582803707B0FF7D173B
:105B1000F98FD5BFA54763F7B7048D47138765FF96
:105B20003307F7020328C5009D47B397E70093C7E3
:105B3000F7FFB3F70701B396E600DD8E54C599472A
:105B400063E3C70495477D163306F6025859FD47AF
:105B5000B397C70093C7F7FFF98F3396C5005D8EE3
:105B600050D982800D473387E502032805019D4700
:105B7000B397E70093C7F7FFB3F70701B396E600C3
:105B8000DD8E14C96DBFB14763E2C7029547651644
:105B90003306F6021859FD47B397C70093C7F7FFBE
:105BA000F98F3396C5005D8E10D9828095474D16CA
:105BB0003306F6025855FD47B397C70093C7F7FF62
:105BC000F98FB395C500DD8D4CD582805C4191C5C0
:105BD00037070004D98F5CC18280370700FC7D172E
:105BE000F98FD5BF1C4141677917F98F1CC123205C
:105BF00005002322050023240500B70702402326C1
:105C00000500138787006316E500D8431367F70084
:105C100001A81387C7016317E500D8431367070F6F
:105C2000D8C3B1A8138707036318E500D843856676
:105C3000938606F0558FEDB7138747046315E5008B
:105C4000D843BD66C5BF138787056316E500D843F3
:105C5000B7060F00C5B71387C7066316E500D8431C
:105C6000B706F000C1BF138707086316E500D843E5
:105C7000B706000FC1B713874709E308E5F882802C
:105C80001C4161773D0794517D8F9C45D58F944988
:105C9000D58FD449D58F944DD58FD44DD58FD45130
:105CA000D58F9455D58FD98F1CC1DC455CC19C41E3
:105CB0001CC5DC415CC582801C4189C593E7170087
:105CC0001CC1828041677917F98FDDBF1C4101C675
:105CD000DD8D0CC1828093C5F5FFFD8DDDBFB7075B
:105CE00002409C437D8D3335A0008280B70702407F
:105CF000C8C38280EFB2CFC7EFF07FFE6FB08FC90D
:105D00005841032805004C453706014093070640DB
:105D10003E979346F8FFB1C583250640F58D2320B5
:105D2000B640D043F18ED4C31443B3E6060114C386
:105D3000184190479346F7FF758E90C7D047F18E74
:105D4000D4C7144541466399C6009447D98E94C779
:105D5000D447558FD8C78280B6979443558F98C340
:105D600082801C43F58F1CC38280B707014023AAA1
:105D7000A7408280372702401C4B93E707081CCBC3
:105D80008280B7270240984BB7060200137505F0D2
:105D9000558F98CBC8CB984B1367070498CBD8473F
:105DA000058B75FF984B8176FD16758F98CB828099
:105DB000372702401C4BC166137505F0D58F1CCBED
:105DC0005C47858BF5FF372702405C47898BF5FFE1
:105DD0003727024013060010B386F50003A806001B
:105DE000B306F50023A006015447898AF5FE910702
:105DF000E394C7FE1C4BB7062000D58F1CCBB727FA
:105E00000240D847058B75FF984BC176FD16758FFC
:105E100098CB82809C4513F7070113F8F70001C760
:105E2000D8413368E80037270240145B3707000F7A
:105E3000758F45EF8546A380D192371701406317D0
:105E4000E50003D7050035832390E50083D50500E1
:105E500013F7F50F39C318418146854E3D4F930F17
:105E6000800293028004214E3396DE00B3F8C50011
:105E7000631116039398260033131F011343F3FF96
:105E80003377E300B318180133E7E8006397F707A7
:105E900050C98506E39AC6FD18C11307F00F637554
:105EA000B70454412146854E3D4F930F8002930223
:105EB0008004414EB398CE0033F715016392E80297
:105EC0001317260001173313EF001343F3FFB376C4
:105ED000D3003317E800D98E6395F703232A150101
:105EE0000506E319C6FD54C1828037170140E31F40
:105EF000E5F403C7119239DBA9B7E39C57F810C941
:105F000049BFE39F57FC23281501D9BFB7070140BC
:105F100063570504DC4F135705019376F7001316FA
:105F200005013707300041823378E500635A0506E2
:105F30006317E804138706018D46B396E60093C6FF
:105F4000F6FFF58F89C91357550112073317E6007D
:105F5000D98F63550506370701405CCF828037270C
:105F60000240145BDC433707000F758F4DF713D7E2
:105F70001700F976CE07758FCD83D98F69BF1317B8
:105F8000B500635607000D47B316D7004DBF135732
:105F9000550112073317E6001347F7FFF98F5DB776
:105FA0006312E8023708014083264800370700F1F2
:105FB0007D17F98F758F2322E800D1F5370701404F
:105FC0005CC382801317B500635C07000D4733176D
:105FD000D7001347F7FF7D8FB707000FD98FF1BFA9
:105FE0001357550112073317E600E5B713F7C50F2E
:105FF00093F73500B7050140BA9594458A073D47A8
:106000003317F7001347F7FF758F98C59845331579
:10601000F500598D88C58280AD673737004093877A
:10602000A7AA1CC38280B567373700409387C7CCC7
:106030001CC38280B7160240DC4251777D17F98F6E
:106040005D8DC8C28280371702405C439146B18B98
:106050006385D700A1466386D706B7177A00938772
:1060600007201CC1371602405C4237070020130787
:10607000C7459183BD8BBA9783C607001C41B3D730
:10608000D7005CC15442A1829D8ABA9683C606009D
:10609000B3D6D70014C55442AD829D8A36970347C4
:1060A0000700B3D7E7005CC55842398393763700C1
:1060B00013874188369703470700B3D7E7021CC907
:1060C00082805C435843C166C983BD8B758F890745
:1060D000C5466393D700C94701EF374702400327FE
:1060E0000780418B09CF37177A001307072021A8B3
:1060F0003717024058439316E700E3D606FE3717DA
:106100003D0013070790B387E702A1BF99C5371772
:1061100002405C4B5D8D48CB8280B7170240D84B64
:106120001345F5FF798DC8CB828099C5371702409A
:106130001C4F5D8D08CF8280B7170240984F1345E2
:10614000F5FF798D88CF828099C5371702405C4F63
:106150005D8D48CF8280B7170240D84F1345F5FFB9
:10616000798DC8CF828099C5371702405C475D8D15
:1061700048C78280B7170240D8471345F5FF798D8D
:10618000C8C7828099C5371702401C4B5D8D08CB6C
:106190008280B7170240984B1345F5FF798D88CB65
:1061A0008280835705029206558EC207C183F99BF0
:1061B000C207C1832310F5028357850103570502E7
:1061C000B7360140C207C18393F7C7F0D18F4207AA
:1061D000C207938606C04183C1836304D502B70614
:1061E00000406300D50293860640630CD500B716C5
:1061F0000040138606806306C500938606C0631BB5
:10620000D500759BD98D93E51500231CF50023104F
:10621000B5028280559BFDB783570502B206220660
:10622000C207C183BD9BC207C1832310F5028358F7
:1062300085018567035705029387F7CFD18EB3F7A2
:106240001701D58F13984500B73601404207420821
:10625000C207938606C0418313580801C1836304B3
:10626000D502B70600406300D50293860640630C52
:10627000D500B7160040138606806306C5009386D6
:1062800006C0631DD5001377F7FD3367E800136779
:106290000701231CF5002310E50282801377F7F530
:1062A0004D8FF5B78357050037370140130707C0F7
:1062B000C207C1836304E502370700406300E502BB
:1062C00013070740630CE50037170040930607806B
:1062D0006306D500130707C06317E50003D7250041
:1062E00093F7F7F8D98F03D7650093F7F7CFC20775
:1062F000C183D98F2310F50083D745002316F502FB
:1063000083D705002314F502B7370140938707C0F0
:106310006316F50083C785002318F5028547231A05
:10632000F50082808357050203D6050003D82500B7
:10633000C207C183F99BC207C1832310F5028357AB
:1063400005028356450003578501C207C1834207F2
:1063500041831377C7F8518F03D68500F59BC2069A
:1063600033660601D18F37360140130606C0C1825D
:106370006313C50203D6A500DD9B03D8E500D18FCA
:1063800003D64500ED9B93F6F6CFD18F03D6C5001B
:1063900033660601D18E2312D500231CE50003D7F6
:1063A0006500231AE5022310F50282808357050257
:1063B00065771307F7CFC207C183BD9BC207C183AF
:1063C0002310F502835705028356450003D8850044
:1063D000C2071396060183568501C18393F7F7FD23
:1063E000758F83D605004182A206558F83D625007E
:1063F00042074183B3E606019206D58FB7360140C6
:10640000C207938606C0C1836311D50483D6A50055
:1064100093F7F7F703D8C5009206D58F83D64500CA
:10642000C207C183920693F7F7FBD58FFD7693865B
:10643000F63FF18E03D6E500C207C183336606013D
:106440000A06D18E1396060141822312C500231C31
:10645000E50003D76500231CE5022310F5028280C6
:106460008357050203D88500C207C18393F7F7EF6E
:10647000C207C1832310F5028357050283564500E6
:106480000357C501C20713960601420783D60500CC
:1064900041831377C7F8558F83D62500C18393F7BF
:1064A000F7DFB3E60601A206D58FB7360140C20773
:1064B000938606C04182C1836312D504FD7693861C
:1064C000F67FF58F83D6A50003D8C500A206D58F29
:1064D00083D64500C207C183A20693F7F7BFD58FC5
:1064E000F576FD16F18E03D6E500C207C18333664B
:1064F00006011206D18E1396060141822312C500B1
:10650000231EE50003D76500231EE5022310F502D4
:10651000828003570502FD77FD17F98F2310F502DE
:1065200003580502835645008357C501657703D696
:1065300005001307F7CF7D8FF9772206FD17518FDE
:10654000B3F7070103D6250003D88500C20642072A
:10655000336606013206D18F37360140C207130673
:1065600006C0C1824183C183631BC50071767D165D
:10657000F18E03D6C5001A06D18EC206C18223123F
:10658000D500231EE50003D765002310E504231082
:10659000F502828003D7250083D70500D98F03D762
:1065A0004500D98F03D76500D98F03D78500D98FD0
:1065B00003D7A500D98F03D7C500D98F2312F504BF
:1065C00082808357050091C593E717002310F500DB
:1065D0008280C207C183F99BC207C183C5BF8357AD
:1065E000450491C52167D98F2312F5048280C6071F
:1065F000C583DDBF8357C50009C6DD8D2316B500F1
:10660000828093C5F5FFFD8DD5BF231AB50082802A
:10661000EFA21FB6EFF01FFE6FA0DFB78357050094
:1066200091C593E707082310F5008280C207C18354
:1066300093F7F7F7C207C183FDB783578501C207F8
:10664000C183DD9BDD8D231CB5008280035785014E
:10665000FD779387F77FF98FA205CD8FC207C1839E
:10666000231CF50082808357C501C207C183DD9BCF
:10667000DD8D231EB50082800357C501FD7793870A
:10668000F77FF98FA205CD8FC207C183231EF500C6
:10669000828083578501C207C183ED9BDD8D231C5A
:1066A000B500828083578501A205C207C18393F795
:1066B000F7BFCD8FC207C183231CF50082808357AB
:1066C000C501C207C183ED9BDD8D231EB50082800D
:1066D0008357C501A205C207C18393F7F7BFCD8FCA
:1066E000C207C183231EF500828003570502854738
:1066F000B397B70093C7F7FFF98F2310F5028357BD
:106700000502B315B600DD8DC205C1812310B502A7
:106710008280035705029147B397B70093C7F7FFED
:10672000F98F2310F50283570502B315B600DD8DEE
:10673000C205C1812310B502828083574500C2077C
:10674000C18393F7F7F8C207C1832312F50083577B
:106750004500DD8D2312B500828083578501C20775
:10676000C183CD9BC207C183231CF50083578501DC
:10677000DD8D231CB500828003578501FD7793874B
:10678000F73FF98F231CF50083578501A205DD8DA6
:10679000C205C181231CB50082808357C501C20791
:1067A000C183CD9BC207C183231EF5008357C5015A
:1067B000DD8D231EB50082800357C501FD779387C9
:1067C000F73FF98F231EF5008357C501A205DD8D24
:1067D000C205C181231EB5008280EFA27F9903D735
:1067E00005002A84AE8483D7250003D6450083D6CE
:1067F000850019EBBE85EFF0DF9A83D56400228512
:10680000EFF0BFF56FA01F999145631BB700BE85E0
:10681000EFF09FA083D564002285EFF0FFF5DDB790
:10682000214583D56400631EA7080357040292061E
:1068300013988700420741831377F7EF420741839C
:106840002310E4020355C401035704024208420521
:1068500041811375C5F0518D558DB7360140420702
:106860004205938606C041831358080141816304A1
:10687000D402B70600406300D40293860640630C3E
:10688000D400B7160040138606806306C4009386C2
:1068900006C06310D4021377F7DF3367E80093670D
:1068A0000710231EA4002310F4022285EFF0FFEE50
:1068B00091BFFD769386F65F758FD98F93E70710AA
:1068C000CDB7035504027D777D17698F2310E4024D
:1068D0000355C40105671307F7CF698F03580402F6
:1068E000131586001396C600498E9398C700518FE2
:1068F000B73601404208C2084207938606C01358C3
:10690000080193D8080141836304D402B70600400C
:106910006300D40293860640630CD400B71600408F
:10692000138606806306C400938606C06313D402F0
:10693000F977FD173378F80033E808018567B36706
:10694000F800231EE4002310F4022285EFF0DFE6B6
:1069500055BDA1669386F6DF3378D800B3E707010B
:106960008566D58FF9BF835705010355C500ED8FA7
:106970004205418189C76D8D3335A0008280014574
:10698000828093C5F5FFC205C1812318B5008280BE
:10699000EFA20FFE83560501F577FD17F58F83D61D
:1069A000650003D7C5007971D58F2318F50083568C
:1069B000C500FD779387379FF58F83D645002A84DE
:1069C0002EC6D58F83D68500D58F83D6A500D58FCB
:1069D0002316F50083574501C207C18393F7F7CF0C
:1069E000D98F231AF5006808EFF0EFE5B7470140AB
:1069F00093870780B245631DF404A2578356C400F1
:106A00006547B387E702C206C186984163D406048E
:106A100006070356C4004206B3D7E7021307400631
:106A20004186B3D6E702B3F7E70292066356060241
:106A30008E0793872703B3D7E70213F77700B3676F
:106A4000D700C207C1832314F40045616FA08FF4FF
:106A500092576DB70A0775BF920793872703B3D77D
:106A6000E702BD8BD58FF1BF81C98357C500096788
:106A7000D98F2316F50082800357C500F977FD17DB
:106A8000F98FC5BF13F7F50F85471583B395B70089
:106A90006319F7009307C500984301CED98D8CC3C5
:106AA0008280894693074501E318D7FE93070501C5
:106AB000E5B793C5F5FFF98DDDB78357450109C6E5
:106AC000DD8D231AB500828093C5F5FFFD8DD5BFFE
:106AD00093C5F5FFC205C1812310B500828013F76D
