:101000006F40805E1300000013000000130000001A
:101010001300000013000000130000001300000084
:101020001300000013000000130000001300000074
:08103000130000007300100022
:101038000010000000000000524C0000544C00005A
:1010480000000000805500000000000000000000C3
:1010580082550000845500000000000000000000D8
:10106800044E000000000000BE4E0000000000001A
:101078008A5500008C5500008E55000090550000E0
:1010880092550000945500009655000098550000B0
:101098009A550000144E0000544E0000564C0000B3
:1010A800A2550000A4550000A65500007A4C000087
:1010B800AA550000FC4C0000AE550000B0550000D9
:1010C800B2550000B4550000B6550000B8550000F0
:1010D800BA550000BC550000BE550000C0550000C0
:1010E800C2550000944E0000C6550000C8550000C7
:1010F800CA550000CC550000CE550000D055000060
:10110800D2550000D4550000984D0000D855000075
:10111800DA550000DC550000DE550000E0550000FF
:10112800E2550000E4550000E6550000000000000C
:081138000000000000000000AF
:10114000397101436EC619A0397141536AC866CA24
:1011500062CC5ECE19A0397101535AD056D252D406
:101160004ED64AD826DA22DC06DE3301614082827E
:1011700041114AC026C222C406C68282B24D410134
:10118000024D924C224CB24B4101024B924A224AF0
:10119000B2494101024992442244B2404101828055
:1011A0003D432A876373C3029377F700BDEFADE534
:1011B000937606FF3D8ABA960CC34CC30CC74CC746
:1011C0004107E36BD7FE11E28280B306C3408A0673
:1011D0009702000096966780A6002307B700A30633
:1011E000B7002306B700A305B7002305B700A30483
:1011F000B7002304B700A303B7002303B700A3027B
:10120000B7002302B700A301B7002301B700A30072
:10121000B7002300B700828093F5F50F9396850001
:10122000D58D93960501D58D61B7939627009702CA
:10123000000096968682E78086FA9680C1171D8FF9
:101240003E96E374C3F8A5B71845918D1C493387C2
:10125000E5020CC13E971C5118C963D3E7001CC9B5
:101260001849B307F0406353F7001CC91C4D5041A7
:101270005845B387F5400CCDB385C5021049B387F7
:10128000E702B295BE955CC95C514CCD63D3B70003
:101290005CCD584DB307F0406353F7005CCD484D2B
:1012A0008280EFF25FEB83A5C181138581B91306BC
:1012B000000CEF30801F938781B903C7170089475F
:1012C000138481B963EAE734930700FAA302F400B8
:1012D00085472303F400A9472304F400930740063D
:1012E000A304F400A305F40093072003A307F4006C
:1012F0009547A30304002305040023060400A30666
:101300000400230704002308F400834704011307A3
:10131000900FFD1793F7F70F6375F70095472308B4
:10132000F4000347D400A54763F4E700A3060400D4
:101330000347E4009306800C2380E18A0347F4000E
:10134000B70700203307D70223A8E74683470401E5
:10135000B387D70223A2F180834774011307A00249
:101360006369F7001387C7FF1377F70F954663E5A7
:10137000E600C1462384D1B80D47636AF7008E07A3
:1013800093F7F70F2384F1B8A907A30BF400834761
:10139000740113070002D91793F7F70F6364F7007E
:1013A0002384F1B88347840193068008138787FF5D
:1013B0001377F70F63E7E62813074006B387E702C2
:1013C000194733C7E702B7370C0093870737B3C70E
:1013D000E702C207C1832394F18037370140231607
:1013E000F7C2834664001306100381471387F6FF94
:1013F0001377F70F6365E600A947B387F602034644
:101400009401239BF1821307E6FC1377F70F9305F2
:10141000400693896183BE8663E4E500B386C70016
:10142000938707192396F1848347A4011307800249
:10143000B387E702239AD1827947138A41831389BC
:10144000C184D107239CF1828347B40193848183B3
:10145000F91793F7F70F6375F700B947A30DF40079
:101460000945EF203014834714006386072803459D
:10147000E401AD4763F3A7001545EF20B0128347A1
:101480000402A30304029387771786072392F1844B
:10149000834714029387B73686072391F1848347E5
:1014A00024029387E7552393F18403473402238072
:1014B000E184834754029387A70F2394F1828347E3
:1014C00084025147ED1793F7F70F6375F7009547BF
:1014D0002304F402834794022547FD1793F7F70F7F
:1014E0006375F700A947A304F4028347A4022147C8
:1014F000FD1793F7F70F6375F700A9472305F4026B
:101500008347A40225476363F7065957B387E70269
:1015100003A741819306800CBA97938767F993F7E5
:10152000F70F1387818163E7F6122300F7008347E3
:10153000070003570A003E972310EA0003D709006B
:101540003E972390E9001387618583560700BE9676
:101550002310D700035709003E972310E9003737BF
:101560000140835647C4D58F2312F7C48347B40282
:10157000130760049387A7FB93F7F70F6375F700D2
:10158000FD57A305F4028347C40213073006FD1775
:1015900093F7F70F6365F70005472380E18E034754
:1015A0009400B7070020938707000607D8C30347B6
:1015B000A40098C70347B4000607D8C78347D402DE
:1015C0002547FD1793F7F70F6375F7009547A306B7
:1015D000F4028347E40225476367F70A05476385FA
:1015E000E708A5CF89466386D70891466386D70862
:1015F000834754002545138601839386F182138720
:10160000E1826368F5082384A1B02300F6002380FB
:10161000F6002300F7005DA00347E400854763F46C
:10162000E700230704008347F4001307900FFD171A
:1016300093F7F70FE37BF7CC93072003A307F4009E
:10164000E9B11307F07C239CE184B737014023966E
:10165000E7C241BB930780FCC9BDA380018A2382F6
:10166000018C2384E18E69B7A380F18A2384F18EF3
:1016700041B72382E18CADBFA384E18E2384018E28
:10168000A380E18AB5B7A380018A2382018C054734
:10169000C9BF238401B0A945B3D7B702834506006B
:1016A00063F4B7002300F60003C6060063F4C70026
:1016B0002380F60083460700E3EDD7F483D70400C8
:1016C0001307B0126364F700238601820347B40155
:1016D00093060002B3C6E6021307400633D7E702BB
:1016E0003347D7022395E1823147B3D7E702B3C727
:1016F000D7022393F18203D5040005661307401F28
:101700009306803E130686BB9305C012EF2040115E
:1017100003472401239EA18211C71307803E23AAF9
:10172000E1B0A5B41307007DDDBFEFF27FA403A6EF
:10173000C1819305000C138581B9EF20504C99BCF1
:101740009386018C03C706001386C18D931517007D
:10175000138801B283D701880842C29503D80500D7
:101760003E952390F500330505419307170008C205
:1017700093F7F70F13071003636DF7002380F6004C
:10178000930720033355F502420541812396A18C2E
:10179000828023800600EDB7EFF29F9DEF20103886
:1017A0008387F18381CB01E983C7E1B08507238774
:1017B000F1B0CDB275F9138701898347070085071A
:1017C00093F7F70F2300F70003C7C180E373F7FE19
:1017D000238701B0F9BFEFF2BF99838631820546B6
:1017E00083C7E1841387F1831384E184639AC60677
:1017F0008507E207E1871946634FF6042300F400EA
:10180000830704008946B3E7D7022300F7008967FE
:1018100093870780739007808387D18B89E70305BF
:101820000400EF30A023896793878788739007802F
:10183000EF205033238701B02382018E83A60181DC
:1018400083070400FD17139717009387C190BA9779
:101850002390D70081B22300D400A38ED1884DB746
:10186000FD17E207E187635AF0002300F400834785
:10187000040093C7F7FF858B49BF99472300F40005
:10188000A38EC188EDB7EFF2BF8E370700408357B4
:10189000C740C207C183F99BC207C1832316F74023
:1018A0001D3F83D741B983D5A1B89386018190426A
:1018B000AE978587B29785839CC21387018183C7C2
:1018C00071BC1443A9E383C781B8B387D702184317
:1018D00005839983C207C1832394F188B307F74036
:1018E0002391F18E8387A18399E3EF20B02583A70D
:1018F00081C509671307F7706365F700850723AC97
:10190000F1C46FF03F8983C781B1C1B7EFF25F8641
:10191000014483C72182634EF40409649307048061
:1019200073900780EF20902083D6A1B81304848899
:10193000239AD1B8B717004083D647822395D1B8F0
:1019400023920782B70700402392074203D7218ED4
:101950000507420741832396E7422398074003D7B0
:10196000C740136717002396E740731004806FF099
:101970007F82EF20B01A8387F183E30AF5FE050426
:1019800049BFEFF2EFFE1384218C834704008DE3FF
:10199000993589679387077123A8F1800567B71781
:1019A0000040130787382392E78285472300F4001D
:1019B000EF2050196FF00FFEEFF20FF9938781B906
:1019C00083C72701938481B91384818B938A418DC6
:1019D000638907568387118A9389118A638907105F
:1019E00083C76402639C0744835704001307704154
:1019F0006375F7068386318203C7140193873182AA
:101A0000639FE60283A6018103D6C1836378D60073
:101A100003D6418A9306700C63F6C60083860A00DB
:101A2000638B065085463387E6402380E70023AC6E
:101A300001C4238DD182EF20700F238901880357C1
:101A40000400A167938787BEBA970387E18386075F
:101A5000998F9387F7022393F18883570400130724
:101A60007041636BF706835704001307F002637538
:101A7000F70683C61401038631820547158F9387C5
:101A80003182631DE60203A7018103D6C183637817
:101A9000E60003D6418A1307700C6376C7000387FC
:101AA0000A00630D074823AC01C405462380D70014
:101AB000238DC182EF2090072389018803570400FA
:101AC000A167938707FDBA970387E1838607998FFC
:101AD0009387F7022393F188835704001307F002DA
:101AE0006363F712239301882389018829AA83C598
:101AF000018483C764021389018486059385853E2A
:101B0000638507208357040063DBF5041387318264
:101B100083C61401030607009387D18B631ED60288
:101B20000385118C2393018885462380D70005C93E
:101B3000918E2300D700238007000355040013076C
:101B4000F07F9306F0021306007DA380018CEF1056
:101B5000304D2393A18821A083870700F9DF034636
:101B6000090003570400931716001306803E1D8ECC
:101B7000635BC70483C6140113873182030807001F
:101B800085453385D5409387D18B631BA80223807D
:101B9000B7008385118C2393018895C52300D70056
:101BA00023800700035504001307F0029306F07F1B
:101BB0008145A380018CEF10B0462393A18821A01A
:101BC00083870700E5D38347090083560400130782
:101BD000803E86071D8F63C4E60203570400938787
:101BE000873E63CEE700239301889387D18B0387D9
:101BF000070011C7238007000547A380E18C838776
:101C00000900E39F07DC13891189034709008387D3
:101C1000D18063DDE73283C7640163890732EF2037
:101C2000B062EF20A0702394018A9307600623001E
:101C3000F90083870A00639C074883C7A188E207ED
:101C4000E1876386074883C7340113070005B3871C
:101C5000E70203D7818A9389D18B138A818A138BF8
:101C6000218C1389618A9387E70263C9E73E8387E2
:101C7000C18B938BC18B6393074603C74401834792
:101C80000B00631F07522310090081EF0547238DC6
:101C9000E18223AC01C483C7C401638C0746EF20F3
:101CA000506283C764026380074283870900639997
:101CB000074603570A009307E00263ECE75C83D70B
:101CC000A1818356090063F4D7002310F9008387AC
:101CD000018E89CB8397A1858356090063D4D700F1
:101CE0002310F90083A7018D6353F03E9306F002A1
:101CF00063FFE63C096713070771B3C7E7020357A1
:101D00000900BA972310F900D9A68357040063D8B5
:101D1000F5068386318203C7140193873182639F5E
:101D2000E60283A6018103D6C1836378D60003D679
:101D3000418A9306700C63F6C60083860A006385A9
:101D4000060E85463387E6402380E70023AC01C4B6
:101D5000238DD182EF20805D23890188834509008E
:101D6000035504001307F07F86059306F00213065F
:101D7000007D9385853EEF10B02A2393A188834789
:101D8000090083560400139717009307803E998F2C
:101D900063D7F60683C61401038631820547158F83
:101DA00093873182631CE60203A7018103D6C183B6
:101DB0006378E60003D6418A1307700C6375C70089
:101DC00003870A003DC723AC01C405462380D70022
:101DD000238DC182EF208055238901888347090024
:101DE000035504001306803E86071D8E1307F0027C
:101DF0009306F07F8145EF10B0222393A18883479B
:101E00000900835604001307803E86071D8FE3C830
:101E1000E6DE035704009387873EE3C2E7DE2393A1
:101E2000018823890188E1BB9307803E2310F400D9
:101E300035B79307803E2310F4004DB78357040055
:101E400013077041637DF7041387318283C6140141
:101E5000030607009387D18B6310D6048385118C0A
:101E60002393018885462380D70095C9918E23004E
:101E7000D7002380070003570400A380018CA167CB
:101E8000938787BEBA970387E1838607998F9387E5
:101E9000F7022393F18821A083870700E9DF8357A6
:101EA0000400130770416364F706835704001307A7
:101EB000F002637EF70483C61401138731820305A1
:101EC00007000546B305D6409387D18B631EB50244
:101ED0002380C7000386118C239301880DCA230039
:101EE000D7002380070003570400A380018CA1675B
:101EF000938707FDBA970387E1838607998F9387B6
:101F0000F7022393F18821A083870700E9DF835735
:101F100004001307F002E368F7CE23930188938748
:101F2000D18B03870700E30007CE23800700054716
:101F3000A380E18CC9B92310040011B6231004005A
:101F4000B5BE035704002393E18875B983C73401F4
:101F5000B5C303D561887547138961886368A70293
:101F60002394018A83C58402D14703550900B385B0
:101F7000F502E340B5CC1307F07F9306000A130681
:101F8000F07FEF10F0092394A18A65B1F947E30BC4
:101F9000F5FC03C68402D1473306F602E354C5FCC0
:101FA0001307000A9306F002F945EF107007239417
:101FB000A18A4DBF8387118E1389818AC9CF83C7B8
:101FC000018A9389C18AA9CFB707002003A70747D1
:101FD000138A618883A6418003550A001306F07FA7
:101FE0009305F002EF10D003B78793039387077030
:101FF00033C5A70283C7B40103570A00858333455D
:10200000F502239BA18C9307E00263EBE700B7077F
:1020100000202310090023AC072E23A0090011B9CA
:1020200083A70900096713070771B3C7E7021307FE
:10203000F07FC207C1832310F9006377F70093078D
:10204000F07F2310F900F5B61307F002E363F7BE43
:1020500093070003FDB783D76188E5B783470B007B
:1020600099EFEF20701E8387A18399E3EFF07F91B2
:1020700085472300FB0003D741832399E18A83D658
:10208000618383C7340103550A001307007DB1C380
:10209000938686021306F07F93059008EF10407830
:1020A00083C764022310A90099E32380090083C732
:1020B000340113070005B387E70203570A0093872B
:1020C000E702E3D6E7BA83870900E38407BE6FF02F
:1020D0002F8B1306F07F9305F002C9B7FD1793F716
:1020E000F70F1147636BF70019678A0713078779A2
:1020F000BA979C438287EF10B06923800B00B5BE6E
:10210000EF10B06FDDBFEF101076C5BFEF10905528
:10211000EDB783870900E39607B8EF20F01251B6B8
:10212000138B118A83070B00938AE18B85CF83572A
:10213000040013077041637DF704835704001307FD
:102140007041637EF70203570400A167938787BE3F
:10215000BA970387E1838607998F9387F7022390C5
:10216000FA0031A8835504001305803EEF10E06E9D
:1021700083070B001305853E2390AA00CDFB03D7F0
:102180000A009307E07C63FAE702EF20901325BF73
:10219000835704001307F002E371F7FA03570400B2
:1021A000A167938707FDBA970387E1838607998F15
:1021B0009387F7022390FA0049B7EF20805021B7A8
:1021C0009DEF0547238DE18203C4C40123AC01C404
:1021D0002388018859CC83C7340195E38547631070
:1021E000F40283C794021307800CB387E702239F8E
:1021F000F18A1307E07C6379F706EF20900C838760
:10220000E1841307C00313067016FD17B387E702B6
:1022100003D70182BA97C207C18393960701C1868B
:10222000634CD604239DD1AE83D7A1AF130670169D
:1022300013877707420741876345E604239BE1B88C
:102240001387F70E4207418713067016634EE602A6
:102250002399E1B883C7340105476394E7002380DD
:10226000FA002310090085B5EF20A04523808900DE
:1022700079B7EF20607D61B7938787E9239DF1AE41
:1022800065B71387F7F05DBF938777F82399F1B8A7
:10229000D1B783C6D401F947B3D7D74083A681C548
:1022A000E3FFF6A083D741838356090063F4F60069
:1022B0002310F90083D7C18483560900E3F1D7A026
:1022C0002310F900EDBAEFE2BFEA9387418983C793
:1022D00007000547138441896316F700EF10E001FA
:1022E000230004008347040009476312F70283A711
:1022F00041B0416563C9A7007D15EF10A0342300EC
:1023000004006FE03FE9139507014181FDB7EFF04D
:10231000AFEAC5BFEFE25FE38386318283D7A1AF27
:10232000639406108507C207C1879306701663CBB6
:10233000F602239DF1AE83D761B993067016850727
:10234000C207C18763C3F602239BF1B883D721B9C3
:10235000930670168507C207C18763CBF6002399E1
:10236000F1B809A8239D01AEF9B7239B01B8F9BFC5
:10237000239901B88397A1AF370400201304840286
:102380008607938A4182A2970395070083D70A00A4
:10239000138A81803E9583570A00930B007D330595
:1023A000F502938981B983C7D902294B3345750357
:1023B0003305F5023345650342054181EF2050772F
:1023C000839761B98607A2970395070083D70A0010
:1023D0003E9583570A003305F50283C7D90233457A
:1023E00075033305F5023345650342054181EF204E
:1023F000D074839721B986073E940315040083D7D0
:102400000A003E9583570A003305F50283C7D902B7
:10241000334575033305F5023345650342054181B4
:10242000EF2050726FE0DFD5FD17C207C18763C789
:102430000702239DF1AE83D761B9FD17C207C1879B
:1024400063C10702239BF1B883D721B9FD17C207E7
:10245000C187E3D607F09307701611B7930770167C
:10246000C9BF93077016F9BFEFE29FD0B7160040BF
:1024700083D746820D461397070141832395E1B820
:1024800023920682938601819C4213840181B38743
:10249000C70203A681C59145BA9789839CC2984219
:1024A00083C781B8B387E7029983139707014183F4
:1024B0002394E1889C42B71600408583998FC20718
:1024C000C1832391F18E03D746826374F700E3EC56
:1024D000C5FEEFF04FB0238701B02388018883A7A2
:1024E00081C583C681B9850723ACF1C491CA094768
:1024F0006376F700238D0182EF10D0646FE09FC9EF
:10250000138781B98346D70103476702558F11CBE3
:102510004D47E375F7FE18409307007DE3E0E7FEC3
:10252000D1BF184083A741B1E1B7EFE2FFC183D724
:10253000618A1387818D2392F18A8357070085076B
:102540002310F7009387418B03D7070005072390DB
:10255000E70083D761AF1387A18B8507239BF1AE7B
:10256000835707009384418A938A818D85072310BE
:10257000F7009387A18883C7070003C73189138AAF
:10258000A18B138BA188D98F138481B9C9E393865A
:10259000A18A83C70600E207E187B5CB83D76188AC
:1025A0006396072C83D7E1AE1566130606E285070E
:1025B000C207C1832397F1AE637BF60403D6618E15
:1025C000F94763F3C72A0347440285472300FB000A
:1025D00085476318F72883D741AF130720179389DE
:1025E0003189B3D7E7022D6C814BB73C0040130C07
:1025F000ACAA2380F9008387090063CAFB2483C740
:10260000418C03C7118AD98F99E32303040203463F
:10261000F40115C683C7218503D7A1B0FD17B29772
:102620005146B387C7020507420741832395E1B0AE
:1026300063D7E7000547A381E18C239501B0838729
:10264000418D639D071E8387A1839389218C9DCB38
:1026500083C7090085CBEF10704DEFF0EF9303C7F0
:10266000418E9387418E19EF8386F18303C7E1B0D2
:102670006381062083C6218363F6E6000547238035
:10268000E700DD3303570A00D14763FAE70E054739
:10269000A381E1888387018E23100A00ADC383C71D
:1026A0000900B1CF0346C4029307800C3705002010
:1026B0003306F6028395418813050500EFE0DFB885
:1026C0000967130707713345E5029386A18503D790
:1026D00006009387A1853305A740420503D7618390
:1026E00041852390A6006354E5002390E70083967C
:1026F00007001307007D6354D7002390E70083474A
:10270000D4018DCB83C7090095C783A5018103D66A
:10271000A1843705002013050532EFE0FFB293874F
:10272000018D98433A9537E716001307073663552E
:10273000A71498C38387118EB9C383C70900A1C3A7
:1027400003D6618D83A541B0370A002013058A2F77
:10275000EFE09FAF9387C18A98433A953767380176
:102760001307078F6351A71298C303A781C5930767
:10277000300663E6E700130A8A2F23280A0003C7FE
:1027800081B083D661AF83D7218B938B218B637408
:10279000D70403A681C5239B01AE93065009138776
:1027A000D18263F4C60063E7F60E83C6018323007B
:1027B000D70083D60400034707009D8E6356D700D9
:1027C000B386E7002390D40083D60400B386D740B5
:1027D0006355D700998F2390F40083470B0083D66D
:1027E0000400E207E18703C7090013898185638438
:1027F000070E6305071603D7818A9307F00263FD6E
:10280000E70C83C791B893F7F70FCDC3A38401B842
:10281000034744012388E1B083D70400035709002C
:102820002390FB00B73701402396E7C203D781AF5F
:10283000239AE7C2239CE7C2239EE7C29387618C59
:1028400003D7070005072390E7006FE07F93EF10A1
:10285000C06A13054006EF108003850B23A08C018E
:1028600059BBEF10806961BB23800600239701AE3E
:1028700079BB83C6118309B56354A00088C35DBDCD
:1028800023A0070045BD6344050088C3F9BD23A00C
:102890000700E1BD03A6C1889306401F63F5C6008B
:1028A00083C6F18229B783C6E18211B71307207B63
:1028B000B6876374D7009307207B03570900C207CC
:1028C000C183B387E7021307007DB3C7E70285071B
:1028D000239CF1AE91B759C303D7818A9307E002D5
:1028E00063EEE7068347D40005466397C700238855
:1028F00001B0A384F1B801A80947639FE7002388CA
:10290000C1B0A384C1B8835709001307007DB38702
:10291000D702B3C7E7026DBF1387D7FF1377F70F4F
:102920009945E3E2E5FE83C591B893F5F50F99E982
:10293000F917A38CF1B09567938707E22390FA000B
:10294000854745BF83C791B1E5FF83C791B8E319B8
:10295000F6FE23AC01C423800900DDB78387D18B49
:1029600089CF0357090083D7E18B93060083B38790
:10297000E702B3C7D702BA97A1BF0347C40189478B
:10298000E313F7F883470B00E207E187ADDF094562
:10299000EF20C00C035709008347C400B387E70248
:1029A0001307007DB3C7E7022947B387E702938780
:1029B000870239BFEFE2CFF8BD673707000813077A
:1029C000070093870700BA97011123AEF180EF202B
:1029D000F031BD654146938505FE0808EF10F02CE7
:1029E000830641011307800393874181639AE6645C
:1029F0001307800298C3984393170701C18323925A
:102A0000F182239BF1822394F184238CE180EF20D7
:102A1000404BEF20100FEF209015EFE09F88938739
:102A200081B903C73700894713896183138A818479
:102A3000138481B9631BF700834744000D476396F5
:102A4000E7000347140063EDE7008947A301F400A2
:102A50008D472302F4009147A300F400EFE0FFCC80
:102A600083471401FD17B337F000A381F18203D728
:102A70008180938781803EC4239CE1840347440185
:102A80009384818519E3A309040083476402A1CBE1
:102A90001307803E239BE18485472386F182230927
:102AA000F40083570900A3090400A30A04009387D4
:102AB00027032310F90083570A00A3060400230A02
:102AC0000400938727032310FA009387418303D7D9
:102AD0000700230B0400130727032390E700239329
:102AE000018EEF20404EAD679387A7AA373700408D
:102AF0001CC3EF10A02DEF10702C83C7018A938A9E
:102B0000618E91C70547A380E18EA3090400EF10F1
:102B100090391389C190EE8B035729008357090020
:102B2000BA9703574900BA9703576900BA970357F2
:102B30008900BA970357A900BA979107858723A2FE
:102B4000F1B09389018B83C70900E207E18789C748
:102B5000EFF06FF72380090003A681C59146138724
:102B600021839387118363E9C64E034624016303DF
:102B7000064E2380D700AD672300D7009387A7AA0E
:102B8000373700401CC30347540185476311F702E0
:102B900003A50181A2471306800C9305000603D705
:102BA000070093561700EF00B0472390A400034797
:102BB00054018947631BF7049387C1889443130723
:102BC000900F636DD7009443130740066378D700D6
:102BD0009843A9463307D7022390E4009443130790
:102BE00030066368D700984309C71307803E2390D7
:102BF000E40094431307900F6364D7009C4391E76C
:102C000085679387479C2390F40083D6618C8967FE
:102C100093870771138B618C63FAD70A9387A18816
:102C200083C707009389A188E207E187A9C7EF104E
:102C3000B061238009002394018A2385018A2390AF
:102C40000A00B7370140239A07C2239C07C2239E7C
:102C500007C2EF20E0709387C19E1387071023A05F
:102C600007009107E31DF7FEB707EFBE37E700E067
:102C7000938707083CC703570B00A967938707C4CE
:102C800063F6E704EF10505C238009002394018A67
:102C90002385018A23900A00B7370140239A07C28F
:102CA000239C07C2239E07C2EF20806B9387C19E9F
:102CB0001387071023A007009107E31DF7FEB7074E
:102CC000EFBE37E700E0938707083CC71387818D85
:102CD000835607009567938707E263F6D7028397C9
:102CE000418813068016C207B3C7C702938681893D
:102CF000904223100700B2979CC283C791B181C74D
:102D0000FD17A38CF1B083A681C51307803E83D73E
:102D100061886363D70099E3A3880188130740069D
:102D20006378D7001307700C6364F700A3880188E9
:102D30000347340119C71307F0096364F700A38838
:102D400001880387C189630B07301307F018636498
:102D5000F700A388018883A741B00D479389C188F4
:102D6000B3C7E7021387C1881CC30387D189138CBB
:102D7000D1892DCFA94763FBD70683A5090003A5F9
:102D8000C1B8EF00902D83A70900858363FAA704DB
:102D900003A709009307F07C63E4E7049387E189C4
:102DA00003C7070023AC01C405072380E70083475E
:102DB000240199E703D7818A9307F00263E8E700CB
:102DC00003A701819307803E63F4E7002381018C10
:102DD0000547238DE18283D7418385832399F18A37
:102DE00083A7090023000C0023A6F1B8138B318CB4
:102DF00083470B00E207E187638F072603D741B8BB
:102E000083D6A18903D6418883D541AF0385C1B05C
:102E1000EF10A02D2945EF10504D23000B0003C7E4
:102E200031888547138B3188138C418D631EF70CD5
:102E3000EF10604C03D561B8EF10404D2396A1B060
:102E400003D7C1AF0566930746CE3307F7027D1659
:102E50003347C70203D6A1803307C70213064006D3
:102E60003347C702239AE1AEEFE09F8D85679387D2
:102E700047CEB307F50223A4A18C13059002138754
:102E80004188B3C7A7023D45938747A2B3C7A702AE
:102E9000C207C18763C8071E2310F7000347440217
:102EA00005469387618B6319C71E83D641AF03879D
:102EB000318903D681823307C70263D8E61C03D762
:102EC000070005072390E70083D6070083070C005F
:102ED000797713074795B387E702096713070771E7
:102EE000BA9763D1D70205472381E1882394018AE9
:102EF000EF109035EF1080432381018C23900A005E
:102F00002385018823000B00A38A018C83070C0012
:102F10006392071C83A741B0372509001305057C80
:102F20003345F50283C7218C138C218C138BA1812F
:102F30003305F502420541812392A1B8A9473355D3
:102F4000F502239EA1B08387C1826381071603D750
:102F5000418583D6618503D6618283D5A182EF0046
:102F6000300C2310AB000395C1B08345B40263DD80
:102F7000A50083D641851386A50005478582D9150E
:102F8000EF00100A2310AB0083A681C5130730069B
:102F9000138B018193872182636FD71083260B00E7
:102FA0001307401F6379D71031472380E70083263A
:102FB0000B00130710036365D70009472380E70060
:102FC0008347F40289CF03D5418A5D47B54613068E
:102FD000007D93054006EF00B004238CA1B0B71725
:102FE000004003D74782AD67938787FCE3F6E7B2DB
:102FF00083490C00A38401B88547E39FF9B00347D8
:1030000044012388E1B09387118903C707000507AE
:103010002380E700EF108031238D318303D7818A2D
:103020009307F00263E9E7008567938787382300F9
:103030000C002320FB0023AC01C4EFF0EFC2E9BC7D
:103040008306310113071003E397E69A130700057F
:103050006FF05F9A994631BE8D4621BE1306500926
:103060001387D1806367F600930740062300F700BB
:10307000DDB1A947E5BF0387E1AFE30207DA238F9C
:1030800001AE71BB2310070011BD03872188E31D2A
:1030900007E2239007000DBD0946E317C7E283D678
:1030A00041AF034784001306200331B59307007D29
:1030B0002310FB004DBD03A5090031478D461306C3
:1030C000401F93054006EF00A0759387218223805F
:1030D000A700F1BD1386818A835706001387818A72
:1030E0003AC6930600031387F18963F5F61483C685
:1030F000A188E206E186638F06129387F7FC854676
:10310000C2072300DB00C18393057005138B018583
:1031100063ECF5088307070085CFB706004083D727
:10312000C640C207C183F99BC207C1832396F640FC
:10313000EF10C01FB7370140239A07C2239C07C274
:10314000239E07C2EF1030191387F189230007006F
:10315000EFF04F9C8346B4018967938787B51307C7
:10316000A0323347D7021306800793050003B3C686
:10317000D702B24703D50700EF00806A2310AB00E7
:1031800042054181EF00606E83570B0013078025D5
:103190003347F7022392E1B813078016B387E7029B
:1031A00023A2F1B06FF05F972300D700EFF08F9666
:1031B0001386818A835606001307800C6378D70034
:1031C00013070005239D01AE2310EB0003550B00F0
:1031D000EF00A0698397A1AFE3900794854723810F
:1031E000F18C238DF18289679387873223A8F18040
:1031F00023A0F90083A6090023000C0023A6D1B860
:10320000371700402312F782D14723ACF1C4A38EB5
:10321000018A03C7E1802387E1848347D40189C7FA
:1032200003570A002399E18AEFE0EFDAEF2020123A
:103230006FF09F8E8547034BC4012300F700238165
:10324000018C85476310FB06834794021307800CAB
:1032500093060083B387E702239FF18A03D7040014
:10326000B387E702B3C7D702BA97C207C183239CCB
:10327000F1AE130730066368F700EF109004239255
:1032800001B86FF07F89EF10C04303D781AFB73724
:103290000140239AE7C2239CE7C2239EE7C2A38E84
:1032A000618BF1BF8947631FFB020945EF10007B6B
:1032B00003D704008347C400B387E7021307007DE8
:1032C000B3C7E7022947B387E7023737014093873F
:1032D0008702C207C183231AF7C2231CF7C2231E29
:1032E000F7C271BFB7370140239A07C2239C07C2B8
:1032F000239E07C2EF10407559B7EFD2DFE5138761
:10330000C19E83A6C19E785F158F4207418323909B
:10331000E1C683D6E18F135657002396C18E63FB17
:10332000E61883D621866377D7189387C19E938644
:1033300081919389C18E2393018C9385070813840F
:103340008191D8438843A1079106098F42074183A1
:103350003337E60023AEE6FEE395F5FE1C48044055
:10336000584803290403BD8C1C500E09BD8C5C40D9
:103370008E04B98F5850B98F8A07DD8C584C5C4445
:10338000B98F5854B98FDD8C184C1C44B98F185420
:10339000B98F8607DD8C5C5893F4F40F8A07336984
:1033A000F9005C5C3369F9001C5C86073369F9003D
:1033B00083C7A1881379F90FE207E187B1EB83C7CF
:1033C000218AE207E187A9E7EF10202D31C1138799
:1033D000E18E83470700850793F7F70F2300F70077
:1033E000130740066376F70203D609008547238159
:1033F000F18A930690031387E1859387C18563FD66
:10340000C60A930600082310D7001D472390E70043
:1034100083C7218AE207E18791C7BD4733892741E6
:103420001379F90F631A992003DF21C72393018CC5
:103430001440050F2399E1C7032FC402854F58405C
:10344000832E8400032EC400032304015C488328D8
:1034500084010328C40108504C5083228402631461
:10346000FF01A381E18DAA062607558F3367570018
:1034700093968E00558F93167E00558F931663009A
:10348000558F9607D98F13974800D98F1317380097
:10349000D98F13172500D98F13971500D98F03C71C
:1034A00021C639CB8546631FD700239FF1C48947C6
:1034B0002381F1C66FD07FCD930600042310D7007F
:1034C0001947A9B789466316D7002384F1C68D47EB
:1034D000C5B78D46E310D7FE13075002E39CE7FC07
:1034E00083D7E1C5138781B9BA9703C781C6238003
:1034F000E700238101C67DBF1307F002635EF7007A
:103500000387818E05C7C207C183239CF18AA384E8
:1035100001B02385018E79BF1387F7FF9306E00280
:1035200063EEE604239C018AA384F1B083C791B0C3
:10353000D1D303C7218C3DFF03C7A18862076187F0
:1035400035DB9386F18E83C506001387A18E6386D3
:10355000F5002380F60023000700954663E5F6009A
:1035600099462300D700834607009545850693F6C4
:10357000F60F63E4D5022300D7002DBFC5FB0387F8
:10358000918E85476314F7002384018E239C018A62
:10359000A38401B02385018E51BFFD1723000700CE
:1035A00093F7F70F13073002636CF70019678A0768
:1035B0001307C77ABA979C4382870547238EE18A0F
:1035C00003C791B0A38401B0A388E18AE5B5094798
:1035D000F5B70D47E5B71147D5B71547C5B7054747
:1035E000238FE1AEF1BFA38401BA0547A381E18235
:1035F000C1BF0547A384E1BAA3810182D1B7238566
:1036000001BA7DBF05472385E1BA5DBFEFE0EF91C9
:1036100083C791BA8507238EF18A5DB703C791BA34
:103620008547998FA381F18261BF03C791BA7DBF9E
:1036300085472381F1C669B783D701C785072398DA
:10364000F1C645BD83C7B18E23A8018E9385018F36
:103650006394071081478386C1C591C68567238E11
:1036600001C4938707E0838691C6638E061685673B
:10367000A38401C69387F7EF23A2F1C60547238DE4
:10368000E18E83A741C6854E7D53C207C18393D681
:10369000870013D74700358FB98F03A741C693C75B
:1036A000F7FFBD8B1207D98F23A2F1C683A741C6AE
:1036B00083A641C683A541C603A641C61D6713075D
:1036C000C783B187A186BA973D8ABD8A3A96BA96D2
:1036D000838707000306060083860600BE07D18F96
:1036E000AA06D58F93D64540BD8A369703070700B3
:1036F0001607D98F23A6F1C683C8F18683D7E18543
:103700009386180013868195139526002A961CC26D
:1037100003D8C1854D46138781951395260003AEC6
:10372000C1C63A950841B397CE00B3F7C701B3D7E6
:10373000C700335505018506A98F13952600B39759
:1037400007013A951CC17D16E31966FC9397280082
:103750003E972320070082801387418F83476700AD
:1037600081C723030700FDB5035647008356270092
:10377000835707000506850685074206C206C2076D
:103780004182C182C1832312C7002311D7002310B5
:10379000F70013087002637FC8008397418893067F
:1037A000200323120700B3C7D70293F7F70F93E75D
:1037B000076055B51306700C637ED60083D741AF02
:1037C000E54623110700B3D7D70293F7F70F93E726
:1037D000074051B5E370F6E883D7C1B02310070066
:1037E00093E707208DBDE39907E883C7218C99E310
:1037F00041657D15BD47854621473356F540631D1C
:10380000D600E1179CC19841931797003355E540C6
:103810005D8D23A2A1C6B5B5FD17E390E7FEE5B720
:103820006358C50263D7A5026305D702B307B60084
:103830003308D700858713581840638EB70063D6C6
:10384000A70093851700C286E1BF42873E86C9BFA5
:10385000BA8636858280C286EDBFB307B54063D491
:103860000700B387A5403E858280B717004003D785
:1038700047824205B71600400583418183D74682BF
:103880008583998FC207C183E3EAA7FE8280EFD2C6
:103890003F8E2A84FD547D14631494006FD09F8F53
:1038A0001305803EEFF07FFCFDB72D8DA147131768
:1038B000850193151500618713F5F50F6356070011
:1038C00013C575001375F50FFD1793F7F70FE5F3A3
:1038D0008280EFD2FF892A84B304B50001456314C6
:1038E00094006FD03F8BAA85034504000504EFF0D8
:1038F000DFFBF5B7EFD25F851387C19E032A470030
:1039000003A7C19E93066057330AEA40420A135A3E
:103910000A011307FACD4207418363EBE6183E8B99
:10392000938CC19E83C7C18F2393018C9384C18FD5
:103930006383071283C7219013892190A1C793073E
:10394000104E1389819063F8470F034709009307CE
:10395000B00463F8E70683D7418423800400E507B9
:10396000C207C1832392F1840947938727D1B3C744
:10397000E702238CF1BAEFD05FDB23000900EF00F0
:10398000C06781A083C71190938B1190138C4190D5
:1039900099E323104C0183D5218403550C0085073E
:1039A0002380FB00EFF07FEB9306200363F0A60477
:1039B0002380040083D721842310FC00834709005F
:1039C000BDFF2393018C83A681C703D6818B83A778
:1039D00041863386C64063D0C70E83D6818BB697A7
:1039E000C207C183239CF18A6FD08FF903A7C19EC0
:1039F00083A74C001D46998F03D721843307C70244
:103A0000BA978D83C20703C70B00C1832391F1844A
:103A1000E3F2E6FA9D17C207C1832391F1840947B7
:103A20009387A792B3C7E702A38CF1BA8547230017
:103A3000F900B92B41B7834709009D46850723004C
:103A4000F90083D74184B387D7023E9A135A3A408C
:103A500023924185DDBD83C7A1BA8DCB83D5618417
:103A600063EE45012E8683D541841307803E81464F
:103A70005285EFF0FFDA23ACA1C6A1B71307007D92
:103A80009306903E03D621848505DDB703D62184B5
:103A900083D541841307F07F9306F0025285EFF03F
:103AA0003FD893070003E3C8A7FC23AC01C611BFAE
:103AB0002393018E09BF03D6818B158E63D7C70070
:103AC00083D6818BB387F64021BFC206C182239C77
:103AD000D18A19BF83A7818609479386F7FF636957
:103AE000D70203A7C1C79307B00363E2E7022388A5
:103AF0000186238001C88547A380F18AB946A38740
:103B0000D186930600022380D1862385F18A8280A4
:103B1000F1171147E36DF7FE03A7C1C793073006FE
:103B2000E3E7E7FE85472388F1862380F1C8A38079
:103B3000F18A9D46E9B703A7818695679387E713C6
:103B4000130777F363EEE70009472380E186130745
:103B5000F0052388E18685472382F18C2385F18A4D
:103B60008280EFD2EFE09567938707E283A6C19E3C
:103B70001387C19E23A4F18623AE01C6130E8707C7
:103B80008148014501439385818603284700630AE4
:103B9000D800B306D84063F4F600B68705433695DF
:103BA00085481107C286E312EEFE630303009CC141
:103BB0006384080023AEA1C683A7C1C705479583C8
:103BC00023AEF1C68386118ABE846394E600EFF0CB
:103BD0007FF003C7418C85463E846207618763148A
:103BE000D700EFF05FF58387118A91EB83C7418C93
:103BF000E207E18789E7EFF0FFEDEFF0DFF36FD049
:103C00006FD9EFD2EFD683C7A188E207E18795C7C6
:103C100083C7218AE207E1878DC383C79190E207BA
:103C2000E18781CBEF0090198947238AF1886FD013
:103C30006FD6EF00D0208547CDBF83C7A18AE207AA
:103C4000E18791E7EFF0FFF1EF005017CDB783C7A1
:103C5000A18A0547E207E187E39BE7FC03C7218AC6
:103C60006207618705C383C79190E207E18781CB33
:103C700003D541B0EFF01F9DEFF02FE8F1B7EF0053
:103C8000101C75B78386118ABA846396F600EFF02C
:103C9000CFE6EF00B01283C7418C0547E207E1870A
:103CA000639CE700EF00701F9387018641C90D47B1
:103CB0002380E700EF00901083C7A188E207E18727
:103CC000BDF78387118AB1CF03C711C88D4663EA58
:103CD000E60403D6618E954663F5C604050713779F
:103CE000F70FA380E1C89387C19EFC5F83A6C19EA6
:103CF000958F03A641C7C207C183B29723AAF1C615
:103D000091466310D70213D7670089834207C20721
:103D10004183C1833306F700998F2391C186239F86
:103D2000F18E03D561883E8905E183C7C18F89EF94
:103D300083D7618E85072393F18ED5BD09472380F4
:103D4000E700EFF03FBBBDB783C7F1B9E39107EEE2
:103D50002393018E9307C05DE3FBA7EC83D56190AD
:103D600093846190EFF07FAF1307200313840190D9
:103D70006379A7002300040083D761882390F400AF
:103D80007DB583470400850793F7F70F2300F40000
:103D9000E374F7FE83C72190E5F3F1240547238EF2
:103DA000E18EC9BF2D47AA876373A700AD47860779
:103DB0002381F1C8828003C721C8B7370140239A05
:103DC000E7C2239CE7C2239EE7C28280EFD2AFB84E
:103DD000096993070980739007803734014093077E
:103DE000F07C2316F4C2EFF01FFD0D45EF001047E5
:103DF000930770032314F4C21305800CAD64EFF035
:103E00001FA9B73900409384A4AA23A0990015459F
:103E1000EF00D044930780022314F4C21305800CF2
:103E2000EFF0FFA6194523A09900EF003043E547C6
:103E30002314F4C21305800CEFF07FA523A0990092
:103E4000EF009040231404C22393018C83D7818018
:103E5000130404C0130989882316F402731009801F
:103E60006FD0AFB2EFD22FAF37340140130404C08C
:103E70009307F07C89692316F40293870980739075
:103E80000780AD64373900409384A4AA9307C00328
:103E9000232099002314F402EFF0FFF10545EF0011
:103EA000F03B1305B004EFF09F9E9307000523201D
:103EB00099002314F4021305B004EFF05F9D9307FB
:103EC000A005232099002314F4021305B004232035
:103ED0009900EFF0DF9B23209900EF00F0362314C8
:103EE00004022393018C83D78180938989882316C8
:103EF000F402739009806FD04FA9EFD2CFA5096962
:103F00009307098073900780373401409307F07C52
:103F1000AD642316F4C2B73900409384A4AA930772
:103F2000000523A099002314F4C2EFF0DFE80D454B
:103F3000EF00D032130540062393018CEFF03F953C
:103F40009307600423A099002314F4C213054006CC
:103F5000EFF0FF939307800223A099002314F4C28B
:103F600013054006EFF0BF9223A09900EF00D02D7B
:103F7000231404C283D781802393018C130404C0CB
:103F80002316F40213098988731009806FD0EF9FFC
:103F9000EFD20F9E373401409307F07C2316F4C212
:103FA000930720032314F4C2EFF0FFE00945EF006C
:103FB000F02AAD64373900409384A4AA1305600940
:103FC000EFF0FF8C23209900F94723209900231458
:103FD000F4C213056009EFF09F8B23209900EF00D6
:103FE000B026231404C22393018C83D78180130449
:103FF00004C02316F4026FD0EF99EFD26F973734D5
:1040000001409307F07C2316F4C293078002231427
:10401000F4C2EFF05FDA0945EF005024AD643739A0
:1040200000409384A4AA13056009EFF05F86232063
:10403000990093070005232099002314F4C2130567
:104040006009EFF0DF8423209900EF00F01F2314B4
:1040500004C22393018C83D78180130404C02316E8
:10406000F4026FD02F93EFD20F8FB73701401307B1
:10407000F07C2396E7C28967938707807390078057
:10408000AD64EFF05FD313047007B7390040938439
:10409000A4AA514BB73A01407D5A3345640323A08B
:1040A000990013890AC0EF00701B93571440A907A9
:1040B000C207C1832394FAC22945EFF04FFD79145A
:1040C00023A09900E31B44FDEF00101823940AC2BB
:1040D0002393018C83D781802396FAC289679387C3
:1040E0008788739007806FD04F8AEFD26F881384D0
:1040F00041C82382A1C82301B40013D5850093557C
:104100008600A300A400A301B4002302C40023037B
:10411000D40013D68600A54593568700138541C861
:10412000A302C400A303D4002304E400EFF06FFA59
:10413000A304A4006FD00F86138781CB03564700DA
:104140002393C1B883562700239ED1AE03D781CBDA
:10415000239DE1B08280EFD2AF811D711306400232
:1041600081456818EFD0CF831306000281454808C7
:10417000EFD00F83372401409307C4443EDA93877E
:1041800081CB3EDC93070008BEC493070010BEC677
:1041900093070040B7040240BEC89307000213858E
:1041A00084000D49BECA4C188567BECC02C402C645
:1041B00002C8CAC0EF100074054613858400A945E3
:1041C000EF100078138584008545EF102076B7E75F
:1041D00000E0130700FCA38DE7403707000823A089
:1041E000E710854513050020EF10703B0145EF10E7
:1041F000B02B37150140930720042C0013050580D0
:104200002314F10002C8EF10300813050440EF102A
:10421000404685473ECC4C08B7070E0013050440C6
:104220003ED002CA02CE02D223042103EF1060481E
:1042300085460546854513050440EF10E052854646
:104240000946994513050440EF10005285460D4676
:10425000C14513050440EF10205185451305044066
:10426000EF10A04B854513050440EF10004A81452F
:1042700013050440EF10C05C13050440EF10004B21
:10428000930404402685EF10004B6DFD1305044098
:1042900037240140EF10A04A930404402685EF1014
:1042A000A04A6DFD854513050440EF106059054592
:1042B000EF10005725616FC0FFED9356650093978F
:1042C0002600370700208506130787348A06BA9729
:1042D000369790431C431375F503B307F640B38735
:1042E000A70213050004B3C7A702B307F64013954E
:1042F000070141858280EFC2BFE737250140854530
:1043000013050540EF10C0446FC0DFE8EFC25FE661
:1043100003D5A1B1EFF07FFA6FC0DFE7B717014017
:1043200003A5878083C7C1867D8D8280B707014042
:1043300003A70740938607401D9B23A0E740E14762
:10434000DCCA828037070140E146232AD74003C6F2
:10435000E186832607408547B397C700D58F232082
:10436000F74082800387E18485469387E186630571
:10437000D7009146631DD700B7460240054623A2E9
:10438000C6808D462380D70021462396C186894664
:104390006305D7009546631ED700B7460240130653
:1043A000000723A2C68091462380D700414623966A
:1043B000C1868D466305D7009946631ED7003747EF
:1043C0000240930600032322D78011472380E70091
:1043D000C1462396D18683C7070005473317F700E8
:1043E0008386F183B70701409387074089C623A4DA
:1043F0000700D8C7828023A6070098C78280EFC233
:104400009FD56D71AA84AE8932898145130600104B
:104410000808EFC0FFD8B7270240C047058875FCE1
:10442000B7066745938636123797EFCDD4C3130787
:10443000B79AD8C3D4D3D8D39377F90F81E74A85F5
:10444000EF10605B937709F03EC613070010B24788
:10445000A29783D607001C08A2972390D7000904CF
:10446000E317E4FE8947B3C9F9022685814663CB89
:10447000360132450C08EF10E05AEF10E05651615A
:104480006FC0BFD0B247180A03460500B307F94012
:104490008583B6978607BA970347150085060905F1
:1044A0002207518F2390E7F0D9B7814763C3C70034
:1044B00082803387F500834607003307F5008507C0
:1044C0002300D700E5B7EFC2BFCAB71701400544C4
:1044D00023A8878003A7078085450545419B23A026
:1044E000E78003A707801367370023A0E78003A7AF
:1044F00007801367870023A0E780EF10F00F814546
:104500000545EF10700FB707004013070006239C06
:10451000E7000D472390E702038701C8854537056B
:1045200000402394E7021307F0032396E702A384D5
:104530008190EF10D0546FC0FFC5EFC27FC3854597
:104540000545EF10700B81450545EF10F00A370760
:10455000004023100702B7170140054623A8C78073
:1045600083A60780C19A23A0D78083A6078093E6FD
:10457000460023A0D78083C7418CE207E1879DC70F
:10458000231CC70003870187B70700408545239494
:10459000E7027D572396E70223980700370500407E
:1045A000EF10F04DA38401906FC0DFBE8D47231C38
:1045B000F700930700042314F700E9B7EFC25FBBCD
:1045C00083C7418C0547E207E187639DE700370712
:1045D000004083570702C207C183F19B93E717008E
:1045E0002310F702EFF07FF5370702409387C19E53
:1045F0007CD3B70700401386470330D303C6018638
:1046000085669386B69870CF34CF2392070283D6FF
:10461000C70093E606202396D70083D6070293E6C9
:1046200016002390D70283D6070093E61600239046
:10463000D7003C4F93E747003CCF6FC0BFB5EFC2F8
:104640003FB3EFF05FE88567370702409387A7998C
:104650003CCF938781957CD3B707004013864703EF
:1046600030D303C6F1865D0670CF83D6C70093E6CC
:1046700006202396D70083D6070293E616002390E0
:10468000D70283D6070093E616002390D7003C4F4D
:1046900093E717003CCF6FC0FFAFB717014003A5EA
:1046A000878005898280B717014003A70780419B57
:1046B00023A0E78003A707801367470023A0E780B4
:1046C000828037170140832647807D761306F60FD8
:1046D000F18E2322D7808326478093E6063023225B
:1046E000D78093060040232AD7808326478093F6FD
:1046F000F6F02322D7808326478093E60603232201
:10470000D78093060020232AD78083264780C19A2A
:104710002322D7808326478093E636002322D78042
:1047200093060010232AD780832707C0B70600B05E
:1047300093F7F7F02320F7C0832707C093E7070B11
:104740002320F7C0832707C0C19B2320F7C08327FE
:1047500007C093E7B7002320F7C08327078092079D
:1047600091832320F78083270780D58F2320F7802C
:10477000828083C701B193F7F70FA9E3B717014010
:1047800003A707C0938607C0419B23A0E7C003A7E8
:1047900007C01367370023A0E7C08547DCCAB717F7
:1047A000014003A747801377F7F023A2E78003A710
:1047B00047801367070B23A2E7808280B717014069
:1047C00003A707C0419B23A0E7C003A707C0136747
:1047D000B70023A0E7C0E1B7B717014003A707C0A0
:1047E000419B23A0E7C003A707C01367370023A09E
:1047F000E7C0054723AAE7C003A747801377F7F070
:1048000023A2E78003A747801367070323A2E7805B
:104810001307002023AAE7808280B717014003A76F
:1048200007C0419B23A0E7C003A707C01367370059
:1048300023A0E7C0054723A8E7C003A74780137755
:10484000F7F023A2E78003A747801367070323A29B
:10485000E7801307002023AAE780828083C701B185
:1048600093F7F70FB9E3B717014003A7078037069F
:104870000030938607801207118323A0E78003A7E7
:104880000780518F23A0E78093070008DCCAB71781
:10489000014003A74780419B23A2E78003A74780ED
:1048A0001367B70023A2E780828037170140832770
:1048B0000780B70600B0920791832320F7808327F3
:1048C0000780D58F2320F780D9B73717014083267B
:1048D00007803706003093070780920691822320D5
:1048E000D78083260780D18E2320D7801307000826
:1048F000D8CBD843419BD8C3D84313673700D8C31C
:1049000013070010D8CB8280371701408326078019
:104910003706003093070780920691822320D780C4
:1049200083260780D18E2320D7801307000898CBD9
:10493000D843419BD8C3D84313673700D8C3130764
:104940000010D8CB828083C701B193F7F70FB1E78E
:10495000B717014003A707C0938607C01377F7F086
:1049600023A0E7C003A707C01367070323A0E7C07E
:104970008947DCCAB717014003A74780FD769386B5
:10498000F60F758F23A2E78003A74780856693867D
:1049900006B0558F23A2E7808280B717014003A796
:1049A00007C01377F7F023A0E7C003A707C013677A
:1049B000070B23A0E7C07DBFB717014003A707C0BF
:1049C000FD769386F60F1377F7F023A0E7C003A7D1
:1049D00007C01367070323A0E7C0094723AAE7C05E
:1049E00003A74780758F23A2E78003A7478013673B
:1049F000073023A2E7801307004023AAE7808280C4
:104A0000B717014003A707C0FD769386F60F13770B
:104A1000F7F023A0E7C003A707C01367070323A08D
:104A2000E7C0094723A8E7C003A74780758F23A2E3
:104A3000E78003A747801367073023A2E7801307A7
:104A4000004023AAE7808280EFC28FF2EFF0FFE7F9
:104A5000EFF09FD8EFF05FF66FC0CFF37D1595476D
:104A600063E0A706EFC2CFF09D679387C7840A056E
:104A70003E951C418287EFF07FDEEFF01FDAEFF00A
:104A8000BFF339A0EFF07FE4EFF03FD9EFF0BFEBD9
:104A90006FC04FF0EFF05FE7EFF01FD4C5BFEFF04E
:104AA000BFE6EFF01FCDE1BFEFF03FE2EFF07FCCCC
:104AB000EFF01FF5F1BFEFF07FDAEFF0FFD1CDBFE0
:104AC0008280EFC2EFEAEFF03FE4EFF01FD5EFF0A6
:104AD0003FF36FC02FECEFC2AFE9EFF03FD8EFF03C
:104AE0005FC9EFF05FE66FC0EFEAEFC26FE8411118
:104AF0009147AA842312F100371501408D473EC427
:104B00004C00E147130505803EC623130100EF006A
:104B1000B07737450040130505408357C50037047B
:104B200002400546C207C183CD9B93E78700231649
:104B3000F50023229408938741C82326F40893059F
:104B40000008EF10D03E1304040885452285EF00CD
:104B5000F05D41016FC00FE4EFC2EFDF5D7113063E
:104B6000C0028145481002CA02CC02CE02D0EFC07A
:104B70002FE3854537050200EF1040248545114598
:104B8000EF10E02191472314F100371501408D47C4
:104B90003EC62C0093078004130505803EC82315EC
:104BA0000100EF00706EF1673744004093870720E3
:104BB0003ECA4C08B7070800130504403ECE02CC9D
:104BC00023100102EF101024130504408545EF1057
:104BD000F0309305000413050440EF10B036B7E43D
:104BE00000E0815937090240238B3443B707400066
:104BF00023A2F41013050908EF001046938741C85B
:104C00003ED4C1473ED6930710034C1013044440D2
:104C10003ED813050908930700083EDC22D202DAC9
:104C200002DE82C082C282C482C6EF00B04C370569
:104C3000000EEF00F0520546A94513050908EF00E4
:104C400030508947A380344323A2F41061616FC0C0
:104C5000CFD301A001A00945EF00105111C519459E
:104C6000EF001050EFF04FCD2145EF00F04F01C5A0
:104C70002145EF00F04E73002030B70702409C43FF
:104C8000411122C61397D7006351070283C7418C95
:104C9000E207E18791C7B70700400D472390E7027D
:104CA000B707024037070400D8C3370402401C404E
:104CB0001397E700635D07003C4CF99B3CCCEFE0A9
:104CC0005FF4B70702005CC005472388E18AB70795
:104CD000024098439316C70063DE0600B84F3705BD
:104CE0000800799BB8CFEF00B047EFE09FF1054790
:104CF0002388E18A32444101730020304111370595
:104D0000000222C6EF00504631C137440040014640
:104D10009305000813050440EF1070213705024089
:104D2000814513050508EF00704037050002EF00CC
:104D300030439305000413050440EF10B0200546EE
:104D40009305606213050440EF10101B370500083F
:104D5000EF00904115CD374400400146930500080F
:104D600013050440EF10B01C8357C44037050240C0
:104D700013050508C207C183CD9BC207C183231653
:104D8000F4408145EF00903A37050008EF00503DB0
:104D90003244410173002030011122CE37440040DB
:104DA0009305606213050440EF10B01A21C9130582
:104DB000044093050004EF10F018130504408357D6
:104DC000C500930560620146C207C183DD9BC2072F
:104DD000C1832316F500EF10301291472312F10022
:104DE000371501408D473EC44C00930780041305DE
:104DF0000580231301003EC6EF001049724405618F
:104E000073002030B7F700E023A20700EFD0EFF1E6
:104E100073002030B717004003D7478283A7C188AB
:104E2000858363FBE700B7070140214723AAE740DA
:104E3000EFC0DFAD73002030EFF04FCE8387F183FA
:104E4000E31AF5FEB7070140214723AAE7409387FD
:104E50000740CDB7B717004003D7478283A7C18863
:104E6000858363FBE700B7070140414723AAE7407A
:104E7000EFC0DFA973002030EFF04FCA8387F183C2
:104E8000E31AF5FEB7070140414723AAE74093879D
:104E90000740CDB7411122C63704004085451305B0
:104EA0000440EF10807301C9EFC0FF9D85451305D5
:104EB0000440EF104074324441017300203073000D
:104EC00020308280EFC2CFAA011137140140930431
:104ED00000024C00130504802312910023130100EB
:104EE00023140100231501002316010023170100DC
:104EF00002C802CA02CC02CEEF001039F5779387C0
:104F000007C04C00130504C02312F10002C6EF00D5
:104F1000B037E14711494C00130504802312F1001A
:104F20004AC6EF0070364C0013050480231221019D
:104F30004AC6EF0070350547B747024023A2E78015
:104F40008D450145EF00D051A147414908083EC8B1
:104F50004ACC02CA02CEEF00F0212145EF003028F2
:104F600037E400E0E547A308F404B757000093874F
:104F700047E193E717007CD0A30C9440B7070002E9
:104F80002320F41091450145EF00904D08084AC8D0
:104F90004ACC02CA02CEEF00F01D4145EF0030249A
:104FA000E9472309F404B7570000938747E593E7DF
:104FB00017003CD4230D9440B70700042320F410BD
:104FC00005616FC02F9DEFC2AF9A1567B7370040DC
:104FD0001307575598C30D47D8C30567130707FA3A
:104FE00098C7EF00B04AEF00504B6FC0AF9AEFC2C6
:104FF0002F980565397185451305158002C402C6D1
:105000002318010002D802DA02DC02DE02D002D24A
:1050100002D42316010202CA02CC02CEEF0030589D
:105020003705160085451305050437340140EF00A8
:1050300030359307F07C2C00130504C03EC602C433
:10504000EF00906D130504C08545EF106024130533
:1050500004C0A145EF10A025930700060C18130506
:1050600004C03ED802DA02DC02DEEF00F072130563
:1050700004C08145EF102029130504C0A145EF109D
:1050800020240C18130504C023190102231A01025D
:10509000EF001079130504C08145EF10E0271305D8
:1050A00004C0A145EF1060230C18130504C0231998
:1050B0000102231A0102EF10E001130504C081452B
:1050C000EF102027130504C0A145EF1020220C1873
:1050D000130504C023190102231A0102EF10A00ACC
:1050E000130504C08145EF10E025B70728003ED224
:1050F0000C10B7070020130504C03ED4371401403C
:1051000002D023160102EF10201061498D44894717
:105110004C08130504C0231AF1004ACE26CCEF0038
:10512000B01685474C08130504C0231AF1004ACE77
:1051300026CCEF007015930700084C081305048077
:10514000231AF1004ACE26CCEF001014930700403A
:105150004C0813050480231AF1004ACE26CCEF0038
:10516000B012930700204C0813050480231AF100A5
:105170004ACE26CCEF005011930700104C081305BF
:105180000480231AF1004ACE26CCEF00F00F2161F3
:105190006FC04F80EFB2DFFD85451145EF00104233
:1051A000B71700407D572396E7825D472394E78237
:1051B0006FB05FFEB7F700E023A0070023A207004F
:1051C000814694C70147D8C783A541871567130750
:1051D00007E233D6E50281463D4790CBD4CB98C356
:1051E000B7E700E001572386E740056723A0E710F3
:1051F0008280EFB2FFF785450945EF00303CB707E5
:1052000000405D472394E7420567130707FA23969A
:10521000E742B7E700E0A3860742096723A2E71049
:105220006FB05FF7EFB2DFF485450545EF0050350D
:1052300037E700E0930700FCA30FF740B7070080B3
:105240002320F710FD472308F704B7570000938782
:10525000A7C793E717003CD36FB0DFF3EFB25FF15E
:1052600085453545EF00B0336FB0DFF2EFB25FF048
:1052700079718545054502D202D402D602C602C81C
:10528000231A010002CC02CE23100102EF001033DA
:1052900085451145EF00B03085472312F1023715DF
:1052A000014091473ED64C108D47130505803ED4F2
:1052B000EF00807DC167FD176C00370500403EC8D8
:1052C00002C6EF007045854537050040EF00507C71
:1052D000814537050040EF10800D85472C083705C4
:1052E00000403ECE02CC23100102EF1040160546CE
:1052F0009305002037050040EF00D07845616FB07E
:105300007FE9EFB2FFE6DD22EFF05FF5EFF09FF10E
:10531000EFF0FFCDEFF01FE8EFF0DFE9EFF09FBA1D
:10532000EFF03FEDEFF09FF4EFF01F836FB09FE6DB
:10533000B7370140239AA7C28280B7370140239C28
:10534000A7C28280B7370140239EA7C28280B737A9
:10535000014003D747C113671700239AE7C0828033
:10536000B707004023960702239207028280EFB21C
:105370003FE037340140130504C005468145EF0086
:10538000107E130504C005469145EF00507D1305BE
:1053900004C00546A145EF00907C130504C01146EA
:1053A0008145EF00507E130504C011469145EF0082
:1053B000907D1146130504C0A145EF00D07C130574
:1053C00004C08545EF003067130504C08545EF0034
:1053D0005068130504C08545EF00706A370400402B
:1053E000130504408545EF0010651305044085450D
:1053F000EF00F0688357C4408545C207C183F99B1D
:10540000C207C1832316F4403714004013050480FB
:10541000EF007062130504808545EF005066EFE0F1
:105420009FD30546814537050040EF005073854501
:1054300037050040EF0030606FB0DFD5B71702408E
:105440009843B706FFF01367170098C3D843758FCA
:10545000D8C39843B706F7FEFD16758F98C39843D7
:10546000B706FCFFFD16758F98C3D843B70601FF3A
:10547000FD16758FD8C337079F0098C7B7460240FF
:1054800003A706801367070123A0E680D8438D6633
:1054900093860680D8C3D843558FD8C3D843B70660
:1054A000C1FFFD1613670750D8C3D843758FD8C303
:1054B000D843B7062800558FD8C39843B7060001D4
:1054C000558F98C3984393166700E3DD06FED843D3
:1054D000B7160240719BD8C3D84313672700D8C3BF
:1054E0002147DC42B18BE39EE7FE8280B716024083
:1054F000DC421146B18B138741876385C700214683
:105500006389C702B7177A00938707201CC3B717B0
:105510000240DC43918393F6F700B707002093879E
:10552000C744B69783C607001C43B3D7D7001CC334
:105530008280DC42D4424166C983BD8BF18E8907EB
:1055400045466393C700C94781EEB746024083A62C
:105550000680C18A89CEB7167A009386062021A8D4
:10556000B7160240D4421396E600E35606FEB7167D
:105570003D0093860690B387D70249BF01A001A0E2
:1055800001A001A001A001A001A001A001A001A013
:1055900001A001A001A001A001A001A001A001A003
:1055A00001A001A001A001A001A001A001A001A0F3
:1055B00001A001A001A001A001A001A001A001A0E3
:1055C00001A001A001A001A001A001A001A001A0D3
:1055D00001A001A001A001A001A001A001A001A0C3
:1055E00001A001A001A001A097B1FF1F93818168D4
:1055F00017010020130101A1171500001305C5268E
:1056000097B5FF1F938505A01386018863FAC5002F
:105610008322050023A0550011059105E3EAC5FE8C
:1056200013850188938501CC6377B500232005009D
:105630001105E36DB5FEFD42739002BC8D4273907F
:105640004280B72200009382828873A0023097C202
:10565000FFFF9382A29E93E2320073905230EFF0EC
:10566000FFDD97D2FFFF93822235739012347300CF
:105670002030EFB2FFAFB727014093870740631C8C
:10568000F500854513050020892F8145130500206D
:10569000A9276FB03FB0B737014093870780E31A5F
:1056A000F5FE8545130500400D2F8145130500408B
:1056B000C5B75C413707F1E01307F7EF944D7D8FD5
:1056C0009C41D58FD44DD58FD441A206D58FD98F8B
:1056D0005CC11C4537F7F1FF1307D77FD4457D8F99
:1056E0009C49D58F94458606D58FD98F1CC55C55AE
:1056F000370710FF7D177D8F83C74501FD1793F78F
:10570000F70FD207D98F5CD582801C4589C593E7F6
:1057100017001CC58280F99BEDBF1C4589C593E726
:1057200007101CC5828093F7F7EFE5BF1C4593E790
:1057300087001CC5828008450D81058982801C4533
:1057400093E747001CC5828008450981058982804E
:105750001C4591C537075000D98F1CC5828037077B
:10576000B0FF7D17F98FD5BFA54763F7B7048D4705
:10577000138765FF3307F7020328C5009D47B397DA
:10578000E70093C7F7FFB3F70701B396E600DD8E96
:1057900054C5994763E3C70495477D163306F6025F
:1057A0005859FD47B397C70093C7F7FFF98F339652
:1057B000C5005D8E50D982800D473387E5020328EE
:1057C00005019D47B397E70093C7F7FFB3F70701BC
:1057D000B396E600DD8E14C96DBFB14763E2C70220
:1057E000954765163306F6021859FD47B397C7006B
:1057F00093C7F7FFF98F3396C5005D8E10D982806D
:1058000095474D163306F6025855FD47B397C70026
:1058100093C7F7FFF98FB395C500DD8D4CD5828016
:10582000B727014093870740984711C5B706800006
:10583000558F98C78280B70680FFFD16758FD5BF3C
:105840005C4191C537070004D98F5CC1828037075E
:1058500000FC7D17F98FD5BF1C4141677917F98F7F
:105860001CC1232005002322050023240500B707BF
:10587000024023260500138787006316E500D843FE
:105880001367F70001A81387C7016317E500D84322
:105890001367070FD8C3B1A8138707036318E50080
:1058A000D8438566938606F0558FEDB71387470476
:1058B0006315E500D843BD66C5BF1387870563162A
:1058C000E500D843B7060F00C5B71387C7066316B0
:1058D000E500D843B706F000C1BF13870708631679
:1058E000E500D843B706000FC1B713874709E3089F
:1058F000E5F882801C4161773D0794517D8F9C457E
:10590000D58F9449D58FD449D58F944DD58FD44D0B
:10591000D58FD451D58F9455D58FD98F1CC1DC45E7
:105920005CC19C411CC5DC415CC582801C4189C5B1
:1059300093E717001CC1828041677917F98FDDBF9B
:105940001C4101C6DD8D0CC1828093C5F5FFFD8D24
:10595000DDBFB70702409C437D8D3335A0008280B8
:10596000B7070240C8C38280EFB29F80EFF07FFE8E
:105970006FB05F825841032805004C45370601404F
:10598000930706403E979346F8FFB1C5832506402E
:10599000F58D2320B640D043F18ED4C31443B3E633
:1059A000060114C3184190479346F7FF758E90C7C0
:1059B000D047F18ED4C7144541466399C600944739
:1059C000D98E94C7D447558FD8C78280B697944351
:1059D000558F98C382801C43F58F1CC38280B70704
:1059E000014023AAA7408280372702401C4B93E73F
:1059F00007081CCB8280B7270240984BB7060200ED
:105A0000137505F0558F98CBC8CB984B13670704D7
:105A100098CBD847058B75FF984B8176FD16758F0F
:105A200098CB8280372702401C4BC166137505F066
:105A3000D58F1CCB5C47858BF5FF372702405C4731
:105A4000898BF5FF3727024013060010B386F50057
:105A500003A80600B306F50023A006015447898A6F
:105A6000F5FE9107E394C7FE1C4BB7062000D58FC7
:105A70001CCBB7270240D847058B75FF984BC176E2
:105A8000FD16758F98CB82809C4513F7070113F89C
:105A9000F70001C7D8413368E80037270240145B9C
:105AA0003707000F758F45EF85462385D19037174F
:105AB00001406317E50003D7050035832390E50017
:105AC00083D5050013F7F50F39C318418146854E7C
:105AD0003D4F930F800293028004214E3396DE00E7
:105AE000B3F8C500631116039398260033131F0102
:105AF0001343F3FF3377E300B318180133E7E800EB
:105B00006397F70750C98506E39AC6FD18C11307C6
:105B1000F00F6375B70454412146854E3D4F930FF6
:105B2000800293028004414EB398CE0033F71501F2
:105B30006392E8021317260001173313EF00134393
:105B4000F3FFB376D3003317E800D98E6395F703DC
:105B5000232A15010506E319C6FD54C182803717B3
:105B60000140E31FE5F403C7A19039DBA9B7E39C2B
:105B700057F810C949BFE39F57FC23281501D9BF27
:105B8000B707014063570504DC4F135705019376AF
:105B9000F700131605013707300041823378E5001E
:105BA000635A05066317E804138706018D46B3960A
:105BB000E60093C6F6FFF58F89C913575501120702
:105BC0003317E600D98F63550506370701405CCFD0
:105BD000828037270240145BDC433707000F758F44
:105BE0004DF713D71700F976CE07758FCD83D98F70
:105BF00069BF1317B500635607000D47B316D700EA
:105C00004DBF1357550112073317E6001347F7FF2F
:105C1000F98F5DB76312E802370801408326480018
:105C2000370700F17D17F98F758F2322E800D1F532
:105C3000370701405CC382801317B500635C07001F
:105C40000D473317D7001347F7FF7D8FB707000FB6
:105C5000D98FF1BF1357550112073317E600E5B787
:105C600013F7C50F93F73500B7050140BA95944572
:105C70008A073D473317F7001347F7FF758F98C51D
:105C800098453315F500598D88C58280AD67373743
:105C900000409387A7AA1CC38280B56737370040AE
:105CA0009387C7CC1CC38280B7160240DC42517771
:105CB0007D17F98F5D8DC8C28280371702405C4323
:105CC0009146B18B6385D700A1466386D706B71787
:105CD0007A00938707201CC1371602405C423707C1
:105CE00000201307C7459183BD8BBA9783C6070071
:105CF0001C41B3D7D7005CC15442A1829D8ABA9699
:105D000083C60600B3D6D70014C55442AD829D8A1F
:105D1000369703470700B3D7E7005CC5584239837D
:105D20009376370013878187369703470700B3D7E9
:105D3000E7021CC982805C435843C166C983BD8B9E
:105D4000758F8907C5466393D700C94701EF374769
:105D5000024003270780418B09CF37177A001307CA
:105D6000072021A83717024058439316E700E3D6CF
:105D700006FE37173D0013070790B387E702A1BF60
:105D800099C5371702405C4B5D8D48CB8280B717B1
:105D90000240D84B1345F5FF798DC8CB828099C559
:105DA000371702401C4F5D8D08CF8280B717024025
:105DB000984F1345F5FF798D88CF828099C53717A5
:105DC00002405C4F5D8D48CF8280B7170240D84FAC
:105DD0001345F5FF798DC8CF828099C537170240EA
:105DE0005C475D8D48C78280B7170240D84713458E
:105DF000F5FF798DC8C7828099C5371702401C4BC3
:105E00005D8D08CB8280B7170240984B1345F5FF94
:105E1000798D88CB8280835705029206558EC20702
:105E2000C183F99BC207C1832310F5028357850103
:105E300003570502B7360140C207C18393F7C7F085
:105E4000D18F4207C207938606C04183C183630492
:105E5000D502B70600406300D50293860640630C66
:105E6000D500B7160040138606806306C5009386EA
:105E700006C0631BD500759BD98D93E51500231CC7
:105E8000F5002310B5028280559BFDB783570502AC
:105E9000B2062206C207C183BD9BC207C18323107D
:105EA000F502835885018567035705029387F7CF6D
:105EB000D18EB3F71701D58F13984500B73601403F
:105EC00042074208C207938606C04183135808015F
:105ED000C1836304D502B70600406300D5029386F0
:105EE0000640630CD500B716004013860680630693
:105EF000C500938606C0631DD5001377F7FD336791
:105F0000E80013670701231CF5002310E5028280D7
:105F10001377F7F54D8FF5B78357050037370140F5
:105F2000130707C0C207C1836304E50237070040B7
:105F30006300E50213070740630CE50037170040D4
:105F4000930607806306D500130707C06317E500B3
:105F500003D7250093F7F7F8D98F03D7650093F798
:105F6000F7CFC207C183D98F2310F50083D745002F
:105F70002316F50283D705002314F502B737014035
:105F8000938707C06316F50083C785002318F502C1
:105F90008547231AF50082808357050203D6050042
:105FA00003D82500C207C183F99BC207C183231010
:105FB000F502835705028356450003578501C20742
:105FC000C183420741831377C7F8518F03D68500F9
:105FD000F59BC20633660601D18F373601401306A2
:105FE00006C0C1826313C50203D6A500DD9B03D89A
:105FF000E500D18F03D64500ED9B93F6F6CFD18F08
:1060000003D6C50033660601D18E2312D500231CAA
:10601000E50003D76500231AE5022310F50282800C
:106020008357050265771307F7CFC207C183BD9B6E
:10603000C207C1832310F50283570502835645002A
:1060400003D88500C2071396060183568501C183D4
:1060500093F7F7FD758F83D605004182A206558F11
:1060600083D6250042074183B3E606019206D58F09
:10607000B7360140C207938606C0C1836311D504B9
:1060800083D6A50093F7F7F703D8C5009206D58FFE
:1060900083D64500C207C183920693F7F7FBD58FDD
:1060A000FD769386F63FF18E03D6E500C207C183E5
:1060B000336606010A06D18E139606014182231229
:1060C000C500231CE50003D76500231CE50223104F
:1060D000F50282808357050203D88500C207C18379
:1060E00093F7F7EFC207C1832310F5028357050228
:1060F000835645000357C501C207139606014207A0
:1061000083D6050041831377C7F8558F83D62500C2
:10611000C18393F7F7DFB3E60601A206D58FB73642
:106120000140C207938606C04182C1836312D50431
:10613000FD769386F67FF58F83D6A50003D8C5003C
:10614000A206D58F83D64500C207C183A20693F766
:10615000F7BFD58FF576FD16F18E03D6E500C207A1
:10616000C183336606011206D18E13960601418261
:106170002312C500231EE50003D76500231EE50298
:106180002310F502828003570502FD77FD17F98F72
:106190002310F50203580502835645008357C501B5
:1061A000657703D605001307F7CF7D8FF9772206B1
:1061B000FD17518FB3F7070103D6250003D88500DB
:1061C000C2064207336606013206D18F37360140D8
:1061D000C207130606C0C1824183C183631BC50089
:1061E00071767D16F18E03D6C5001A06D18EC206D1
:1061F000C1822312D500231EE50003D765002310BA
:10620000E5042310F502828003D7250083D705001B
:10621000D98F03D74500D98F03D76500D98F03D70E
:106220008500D98F03D7A500D98F03D7C500D98F93
:106230002312F50482808357050091C593E7170068
:106240002310F5008280C207C183F99BC207C18376
:10625000C5BF8357450491C52167D98F2312F50423
:106260008280C607C583DDBF8357C50009C6DD8DA3
:106270002316B500828093C5F5FFFD8DD5BF231A87
:10628000B5008280EFA2DFEEEFF01FFE6FA09FF05F
:106290008357050091C593E707082310F500828016
:1062A000C207C18393F7F7F7C207C183FDB78357CE
:1062B0008501C207C183DD9BDD8D231CB500828073
:1062C00003578501FD779387F77FF98FA205CD8F5F
:1062D000C207C183231CF50082808357C501C20712
:1062E000C183DD9BDD8D231EB50082800357C50170
:1062F000FD779387F77FF98FA205CD8FC207C18302
:10630000231EF500828083578501C207C183ED9B60
:10631000DD8D231CB500828083578501A205C2074D
:10632000C18393F7F7BFCD8FC207C183231CF5004C
:1063300082808357C501C207C183ED9BDD8D231E7B
:10634000B50082808357C501A205C207C18393F7B8
:10635000F7BFCD8FC207C183231EF500828003578C
:1063600005028547B397B70093C7F7FFF98F23104E
:10637000F50283570502B315B600DD8DC205C18154
:106380002310B5028280035705029147B397B700E7
:1063900093C7F7FFF98F2310F50283570502B31552
:1063A000B600DD8DC205C1812310B50282808357FE
:1063B0004500C207C18393F7F7F8C207C1832312D0
:1063C000F50083574500DD8D2312B5008280835789
:1063D0008501C207C183CD9BC207C183231CF50081
:1063E00083578501DD8D231CB5008280035785010D
:1063F000FD779387F73FF98F231CF50083578501BD
:10640000A205DD8DC205C181231CB50082808357A2
:10641000C501C207C183CD9BC207C183231EF500FE
:106420008357C501DD8D231EB50082800357C5014A
:10643000FD779387F73FF98F231EF5008357C5013A
:10644000A205DD8DC205C181231EB5008280EFA2A9
:106450003FD203D705002A84AE8483D7250003D614
:10646000450083D6850019EBBE85EFF0DF9A83D512
:1064700064002285EFF0BFF56FA0DFD19145631B6B
:10648000B700BE85EFF09FA083D564002285EFF0B2
:10649000FFF5DDB7214583D56400631EA7080357C8
:1064A0000402920613988700420741831377F7EF9F
:1064B000420741832310E4020355C4010357040239
:1064C0004208420541811375C5F0518D558DB7368F
:1064D000014042074205938606C0418313580801D4
:1064E00041816304D402B70600406300D40293865E
:1064F0000640630CD400B71600401386068063067E
:10650000C400938606C06310D4021377F7DF3367A5
:10651000E80093670710231EA4002310F4022285CD
:10652000EFF0FFEE91BFFD769386F65F758FD98F02
:1065300093E70710CDB7035504027D777D17698F68
:106540002310E4020355C40105671307F7CF698FD1
:1065500003580402131586001396C600498E9398BB
:10656000C700518FB73601404208C20842079386E0
:1065700006C01358080193D8080141836304D4026C
:10658000B70600406300D40293860640630CD40033
:10659000B7160040138606806306C400938606C0C3
:1065A0006313D402F977FD173378F80033E8080154
:1065B0008567B367F800231EE4002310F4022285E8
:1065C000EFF0DFE655BDA1669386F6DF3378D8009D
:1065D000B3E707018566D58FF9BF835705010355DA
:1065E000C500ED8F4205418189C76D8D3335A0000F
:1065F00082800145828093C5F5FFC205C1812318C1
:10660000B5008280EFA2DFB683560501F577FD174E
:10661000F58F83D6650003D7C5007971D58F231810
:10662000F5008356C500FD779387379FF58F83D696
:1066300045002A842EC6D58F83D68500D58F83D674
:10664000A500D58F2316F50083574501C207C183E6
:1066500093F7F7CFD98F231AF5006808EFF0EFE52D
:10666000B747014093870780B245631DF404A257E2
:106670008356C4006547B387E702C206C1869841C6
:1066800063D4060406070356C4004206B3D7E702E4
:10669000130740064186B3D6E702B3F7E702920636
:1066A000635606028E0793872703B3D7E70213F7D3
:1066B0007700B367D700C207C1832314F400456194
:1066C0006FA05FAD92576DB70A0775BF92079387AA
:1066D0002703B3D7E702BD8BD58FF1BF81C983579D
:1066E000C5000967D98F2316F50082800357C500BE
:1066F000F977FD17F98FC5BF13F7F50F8547158398
:10670000B395B7006319F7009307C500984301CE0E
:10671000D98D8CC38280894693074501E318D7FE43
:1067200093070501E5B793C5F5FFF98DDDB78357ED
:10673000450109C6DD8D231AB500828093C5F5FF9A
:10674000FD8DD5BF93C5F5FFC205C1812310B500EE
:10675000828013F7F50F85461583B397B600631350
:10676000D7020357C500F98F0357050001454207BB
:10677000418381CB0545A181B315B5006D8F3335BC
:10678000E000828089466315D70003570501E1BF09
:1067900003574501C9BF0000F6200000002100009A
:1067A000062100000C210000F6200000BA35000090
:1067B000CE350000D2350000D6350000DA350000B5
:1067C000DE350000E6350000F2350000FE35000041
:1067D00004360000C03500000C360000C035000053
:1067E000C0350000C0350000C0350000C0350000D5
:1067F000C0350000C03500001C3600002A360000FD
:10680000C0350000C0350000C0350000C0350000B4
:10681000C0350000C0350000C0350000C0350000A4
:10682000C0350000C0350000C0350000C035000094
:10683000C0350000C035000030360000191B1213AF
:106840001D1516171A090A0B1E0D0E0F764A0000A9
:10685000844A0000944A00009E4A0000A84A0000B2
:04686000B64A000034
:10686400000000009001000000000000E8030000A8
:106874000000000000000000000000000000000014
:10688400204E0000A0860100B400B700BA00BD008D
:10689400C100C400C700CA00CD00D000D300D60098
:1068A400D900DC00E000E300E600E900EC00EF00C2
:1068B400F200F500F700FA00FD00000103010601F3
:1068C40009010B010E0111011301160119011B012C
:1068D4001E0120012301250128012A012C012F0179
:1068E40031013301350138013A013C013E014001D7
:1068F400420144014601470149014B014D014E014A
:1069040050015101530154015601570158015A01D4
:106914005B015C015D015E015F0160016101620177
:106924006301630164016501650166016601670134
:10693400670167016801680168016801680168010D
:106944006801680168016701670167016601660102
:106954006501650164016301630162016101600114
:106964005F015E015D015C015B015A015801570141
:10697400560154015301510150014E014D014B0187
:106984004901470146014401420140013E013C01E5
:106994003A0138013501330131012F012C012A015B
:1069A40028012501230120011E011B0119011601E3
:1069B400130111010E010B0109010601030100017C
:1069C400FD00FA00F700F500F200EF00EC00E9002A
:1069D400E600E300E000DC00D900D600D300D000DC
:1069E400CD00CA00C700C400C100BD00BA00B70092
:1069F400B400B100AE00AB00A700A400A1009E004B
:106A04009B009800950092008F008C008800850000
:106A140082007F007C0079007600730071006E00B4
:106A24006B006800650062005F005D005A0057005B
:106A3400550052004F004D004A00480045004300F5
:106A440040003E003C003900370035003300300080
:106A54002E002C002A0028002600240022002100F9
:106A64001F001D001B001A00180017001500140059
:106A74001200110010000E000D000C000B000A00A3
:106A840009000800070006000500050004000300D3
:106A940003000200020001000100010000000000E8
:106AA40000000000000000000000000000000100E1
:106AB40001000100020002000300030004000500BD
:106AC400050006000700080009000A000B000C007E
