:1010000000400020A14C00002D4400002F440000AF
:10101000ED4C0000ED4C0000ED4C00000000000025
:10102000000000000000000000000000ED4C000087
:10103000ED4C000000000000ED4C0000F50B00201E
:10104000ED4C0000ED4C0000ED4C0000ED4C0000BC
:10105000410C0020ED4C0000ED4C0000ED4C000078
:10106000ED4C0000ED4C0000ED4C0000ED4C00009C
:10107000ED4C0000D50C0020ED4C0000ED4C0000C4
:10108000ED4C0000FD0C0020ED4C0000ED4C00008C
:10109000ED4C0000C10C0020ED4C0000ED4C0000B8
:1010A000ED4C0000C50B0020ED4C0000ED4C0000A5
:1010B000ED4C0000ED4C0000ED4C0000ED4C00004C
:1010C000ED4C0000ED4C0000ED4C0000ED4C00003C
:1010D000ED4C0000ED4C0000ED4C0000ED4C00002C
:1010E000ED4C0000ED4C0000ED4C0000ED4C00001C
:1010F000ED4C0000ED4C0000ED4C0000ED4C00000C
:10110000ED4C0000ED4C0000F90B00201D0D0020FF
:10111000ED4C0000ED4C0000ED4C0000ED4C0000EB
:10112000ED4C0000ED4C0000ED4C0000ED4C0000DB
:10113000ED4C0000ED4C0000ED4C0000ED4C0000CB
:10114000ED4C0000ED4C0000ED4C0000ED4C0000BB
:10115000ED4C0000ED4C0000BFF34F8F0549064BEE
:10116000CA6802F4E0621343CB60BFF34F8F00BF45
:10117000FDE700BF00ED00E00400FA058A1A036AEB
:10118000816830B5044602600069656801FB0200B1
:101190009842A8BF18465B429842B8BF1846A36958
:1011A000E1682061D31A4B43C4E90532616A05FB4B
:1011B000023318448842A8BF084649428842B8BF53
:1011C0000846E06130BD00002DE9F341AE4BAF4C65
:1011D0001968C022204602F0E0FE6378022B00F27C
:1011E000FD80A02363710123A37100230A22E37110
:1011F000A37223736373A37332232272E373642293
:1012000005236272E2722374E27BA07B531EDBB281
:10121000F92B237C03F1FF3188BF3222C9B288BF8A
:10122000E273F929617B84BF05232374092984BFF4
:101230000021617396490870C821964812FB01F29B
:101240000260954A13FB01F31360E37D2A2B00F241
:10125000CB801A1F052A40F2C780032B9DBFDB00FD
:10126000DBB203F10A020A3B94BFE275DBB28B4AA0
:101270001370237EA3F10802D2B2882A00F2B6804E
:10128000642213FB02F30622B3FBF2F2844BB3FB9E
:10129000F2F3844A1380844A844F136102F580522A
:1012A000834E136102F58052824D1361A379DFF8FA
:1012B00054825A1E312A627E98BF03EB8303A2F147
:1012C000320194BF5B000023642994BFD2181A46F0
:1012D0003B8003F5C8733380A37EA8F8002003EB9E
:1012E0008303DB0014332B80E37E023B1E2B88BF7D
:1012F0000E234FF0020088BFE37602F083FA637892
:10130000002B00F03181A07F0B2888BF052002F060
:1013100079FA94F82030684A03F277135B0013805F
:1013200094F82130654A03F26B335B00138094F824
:101330002230634A03F25E531380624B94F82320F9
:101340001A7094F82530604AFA331380002384F829
:10135000273094F8283094F82A20053B142B84BFBA
:10136000052384F8283094F82930013B092B84BFE9
:101370000A2384F82930531E082B3BD90A2384F80A
:101380002A3094F82B30463B462B84BFFF2384F849
:101390002B3094F82C30013B632B9EBF4B4B01222A
:1013A0001A70627A4A4B52005A60A27A9A60E27AC4
:1013B0005200DA6094F82D30013B092B84BF0523DD
:1013C00084F82D3094F82E30092B00F29D80042BE8
:1013D00041D8DFE803F0993B4D405100A37B012B3E
:1013E00084BF0023A3730FE7102340E7394A40F27C
:1013F000CF734FE7384B1B68C2EB4211C2EB81023F
:101400006A3B03EB4203DBB2C82B34498ABFC822D4
:101410001A4613460A70B8F8002031491A44A8F851
:1014200000203A881A443A800A881A440A8032888E
:101430001A4432801C4A5363936302F5805253630B
:10144000936302F58052536393639AE7254A01231D
:101450001370254A13706379244E25482549264A7E
:10146000092B58D80927377003700B70137062E08E
:10147000224B01221A70EEE7214A012313701A4A07
:1014800000211170174AE5E7200300201015002005
:10149000D0150020A00300209C030020FE14002093
:1014A00070330C00F202002000C00440F80200205B
:1014B000FA0200201A03002012030020100300206B
:1014C0000E0300200C0300200A030020EC1400206F
:1014D0004C030020F4020020E0020020180300204A
:1014E000EA020020111400208416002009150020B3
:1014F0001F0300201E0300201D03002010140020E5
:101500008516002000030020244A00231370244A7B
:101510001370244BADE7002737700A26B3FBF6F3B0
:101520000678B34238BF03700878834238BF0B7027
:1015300011788B429AD32B881B48B3F5967F3EBF18
:101540001A4A00211170E27E2021B1FBF2F16422DF
:10155000B3FBF2F2B2FBF1F202800C22B3FBF2F326
:10156000134AB3FBF1F313804FF4FA73009340F680
:10157000B8324FF47A7328884FF4967101F088FEE0
:101580000C4BA27C18800C4B2AB14FF47A721A6073
:1015900002B0BDE8F0814FF4FA62F8E711140020C0
:1015A0001014002084160020EE0200200403002006
:1015B000EC020020060300200C150020024B03481B
:1015C0001A68C02102F0B0BC2003002010150020D2
:1015D00070B50D490D4C0E4B0A780E4D1E882068D3
:1015E00035F8123025F812603044C01A531CDBB2B3
:1015F000322B28BF002320600B703223B0FBF3F0A6
:10160000054B80B2188070BD9814002094140020FF
:10161000A6140020301400209A14002008B502F00F
:1016200085FB0C4B93F900302BB130B90A4A137883
:101630000133137008BD0028F8D1084A137801332C
:10164000DBB21370064A12789A42F3D2024B0022A0
:101650001A70EFE7E40200200A1400201C14002096
:101660000700002010B5214B214C93F9002023786E
:10167000012A2AD101335BB2062BC9BF1D4B23704F
:101680001A701346C8BF2270002B03F00103B8BFC5
:101690005B42194A137072B6184B93F900301BB9AC
:1016A00094F9000002F00FFE62B602F0A3FB144AA8
:1016B00000231370134A1370134B144A196894F9DA
:1016C0000030013B22F8131010BD013B5BB2002B30
:1016D000DBBF0623074A23702370D8BF01216FEABE
:1016E0000303D8BF117003F00103D2E70A00002002
:1016F00004000020C8140020E4020020A0140020F0
:101700000A1400200B14002000000020BC1400204C
:1017100010B5094C23785BB9FFF7A4FF074B42F2E1
:10172000107241F288301A6003F0E2F8012323704E
:10173000BDE8104002F048BB2E140020000000203D
:101740002DE9F74F784D794CAB7C794F002B00F0A9
:10175000D982DFF8108298F90000002877D095F838
:101760002630002B40F02D8223889BB2B3F5836F87
:101770002DD370496B7C91F900209A421BD16E4A9F
:101780006E4812680088904203D26D4A1288C72AB8
:1017900004D997F90020002A00F0B082C3F10103B8
:1017A0000B70684B00261E60674B01221A7002F016
:1017B000E3FA664B1E702388654A9BB292F90020BB
:1017C0005B006FF400610B449B1A624A138023880C
:1017D0009BB2B3F5836F2FD223889BB22F2B2BD9CB
:1017E000544A697C92F90000C1F10103984219D171
:1017F000514B52481B680088984203D2504B1B88BB
:10180000C72B04D997F90030002B00F079824D4B9B
:10181000117000261E604C4B0120187002F0ACFACB
:101820004A4B1E7023884A4A9BB292F900205B0003
:10183000313B9B1A474A138023889BB22F2B00F21F
:10184000B580444A00231380404A1370AEE0424EF4
:1018500095F826303178490001F57A71002B00F0B7
:101860001F8123889BB28B422FDDDFF8C8C06A7CC2
:101870009CF900309342394A23D1DFF8D8E0AEF822
:1018800000004FF0010E82F800E0DFF8D4E09EF98E
:1018900000E0BEF1000F18D0C3F101038CF8003056
:1018A00010702F4B208800221A7040F2FF730093B3
:1018B0004FF4FA622F2380B201F0EAFC254B188026
:1018C00003E092F90030002BEBD0327823885200ED
:1018D0009BB2C2F57A7293424ADADFF858C095F8A3
:1018E00011E09CF90010CEF1010399421B4B3BD152
:1018F00018480021018001201870194890F9000053
:10190000002835D08CF800E01970154B2088002194
:1019100019702F23009380B240F2FF7301F0B8FCDE
:101920000C4B188024E000BF101500201414002078
:10193000251400200A0000200000002006030020DB
:10194000041400200C140020E7020020DA14002008
:10195000FD0200209C1400200C030020A014002095
:10196000F81400201114002093F90030002BCCD083
:10197000337822885B0092B2C3F57A718A4210DB19
:10198000228803F57A7392B29A420ADCA24B0022B3
:101990001A80A24B93F9001019B11A70A04B0122C2
:1019A0001A7098F90030002B7FF4D9AE9D4E9E4BF3
:1019B000327893F900309A4240F3A881AB7D002B36
:1019C00000F0A48102F076FC02F0D6F9974B0022D9
:1019D0001A806623337097F90030002B40F046825E
:1019E000934B1B78002B00F04182EB7CDFF83C929C
:1019F000DFF82882DFF870A28E4E2E22502113FBD2
:101A00000123B9F800209342C0F2F981DFF85CB2FB
:101A10009BF90030002B40F030822A7D9AF800308C
:101A2000002A40F0B482328053B9834A01211170F8
:101A3000824A13602B7F002B00F0368202F074FC88
:101A400095F82630002B00F00C8298F90030002B1E
:101A500040F03282B9F800102E2900F2F182784B62
:101A600032881B889A4288BF3380764B93F90030C6
:101A700033B1754B3288B3F900309A42C8BF338016
:101A8000724B1B68002B40F3F1812F2940F2EE814D
:101A900042F2107293FBF2F3328813443380E5E193
:101AA00023889BB28B4233DD694A6B7C92F900102C
:101AB00099421DD16749684809680088884203D265
:101AC00066490988C72903D997F90010002970D001
:101AD000C3F101031370594B4FF00009C3F8009094
:101AE000554B01221A7002F047F95D4B83F80090C4
:101AF0003178208840F2FF73490000934FF4FA6276
:101B00002F2301F57A7180B201F0C2FB424B18809D
:101B1000337822885B0092B2C3F57A739A4232DA44
:101B20004B4B6A7C93F90000C2F1010188421BD142
:101B30004849494809680088884203D247490988CA
:101B4000C72903D997F90010002936D03B491A70EC
:101B50004FF00009C1F8009037490120087002F0E9
:101B60000BF93F4B83F80090327820882F235200E6
:101B70000093C2F57A7240F2FF73002180B201F047
:101B800087FB254B1880337822885B0092B2C3F51F
:101B90007A718A42FFF605AF228803F57A7392B212
:101BA0009A423FF7FEAE1C4A002313802C4A137062
:101BB000F7E64FF47A7323809AE74FF47A73238021
:101BC000D2E723889BB2B3F5836F55D320486A7C54
:101BD00090F900309342114A4AD10F4E00213180D2
:101BE000012616700E4E96F90060002E44D0C3F107
:101BF0000103037011700A4B00221A702388194ADE
:101C00009BB292F900205B006FF4006003449B1AC2
:101C1000014A138030E000BF9C140020A014002073
:101C2000F81400202F140020FE02002016140020BB
:101C30001A140020CA140020E70200200C1400200F
:101C4000F0020020EC14002008030020E81400201B
:101C50000A000020000000200603002004140020D9
:101C6000DA140020FD0200202E140020C9140020E8
:101C700092F90030002BBED023889BB2B3F5836F5E
:101C800029D223889BB22F2B25D9A449687C91F9AE
:101C90000020C0F101039A42A14B18D1A14E0022AD
:101CA000328001261E70A04E96F900609EB1087029
:101CB0001A709D4B00221A7023889C4A9BB292F99D
:101CC00000205B00313B9B1A964A138003E093F996
:101CD0000030002BEDD023889BB22F2B3FF666AE51
:101CE000904B00221A808E4B93F9001000293FF48C
:101CF0005DAE1A708C4B01221A7057E622805AE5AD
:101D000023808FE5874B22881A804FE695F8138051
:101D1000B8F1000F2ED0834E30881D2816D8844B82
:101D200000221A8095F82830308803EB8303B0EB4B
:101D3000830F4FEA8301FFF64EAE40F2FF72A023FD
:101D4000009201F0A5FA7A4B188044E61E28E9D0EB
:101D500095F8283003EB8303B0EB830F4FEA83023F
:101D6000E0DAA02300931E212F2301F091FA704B9B
:101D70001880D7E76F4B6E4E93F90030002B3BD0A5
:101D80006D4BDFF8E0911B7813B36C4BDFF894A137
:101D90001B6800936A4BBAF800001B6840F2FF72A0
:101DA0002F2101F075FAEA7E664B93FBF0F352089F
:101DB00093FBF2F3644A1380BAF800302E2B07D855
:101DC000624BA6F80080C3F80080C9F8008002E6E4
:101DD000D9F8003042F2107293FBF2F39BB2B3F5E4
:101DE000006F338003D340F2FF733380F3E52F2B72
:101DF0003FF6F1AD3023F8E74A4B1B88F5E79AF838
:101E0000003073B902F056FA514B93F900300BB918
:101E1000FFF77EFC01238AF800304E4B1A884E4BA8
:101E20001A804E4BE97CB9F800001B884FF4FA6227
:101E30000092F1B1283340F2FF72892101F028FAB3
:101E400095F8263080B230800BB988F80030EB7CF2
:101E50002E22502113FB0123B9F800209342BFF634
:101E6000D5AD98F90030002B3FF4F4AD03B0BDE8D8
:101E7000F08F40F2FF722F21E0E7013B042B06D8E0
:101E8000DFE803F003090C0F030001F0CFFD00238E
:101E90008BF80030C1E501F009FEF8E701F046FEDD
:101EA000F5E701F02BFDF2E798F90030002B7FF405
:101EB000C7AD02F0FFF9C3E5DFF8ACA0284F9AF9EF
:101EC0000030ABB123889BB2B3F5836F4ED3238828
:101ED0009BB2B3F5836F18D323889BB26FF4006273
:101EE0005B001344114A92F900209B1A3B800CE0DE
:101EF00021884FF47A7089B201F0E8F99AF900303C
:101F000000F57A703880002BDCD13A8840F2CE732D
:101F10009A4239D902F008FAA3E700BF0A0000206C
:101F2000A01400209C140020F8140020FD020020C2
:101F300016140020F4140020D0150020A003002067
:101F40009C03002000879303F614002074030020F4
:101F5000E702002000030020CC140020F80200203B
:101F600006150020F01400201114002023889BB2D5
:101F70002F2BACD923883D4A9BB292F900205B00FD
:101F8000313B9B1A3B80A2E702F04CF869E7EBB9C2
:101F9000374A2C7F01211170364A1360364A13707C
:101FA000002C46D0EB7C8BB98C420FD195F82930B0
:101FB000324A03EB830303EB8303DB009BB2138002
:101FC00040F2CE7293422FD902F0AEF92C4B2D493C
:101FD00093F90030013BC3EB03122B4B1B8803EB3F
:101FE00082039AB21BB2B3F5B47FA2BFA2F5B47359
:101FF0009AB21BB20B8002F177031BB2B3F5B47F28
:10200000224919DA0B8002F1EF031BB2B3F5B47F5A
:1020100001DB793A13B21E4A1380EB7C012B08BF17
:102020003B70002333801CE701F0FCFF88F8004080
:10203000CCE702F03FF9C9E7A2F1F1030B80E8E732
:102040006A7F1E2313410B4A126893427FF607AD45
:10205000104A338812889A4284BF328013460E4A4F
:1020600012889A4238BF3280F9E400BFFD02002096
:10207000E70200200C1400201C140020061500208C
:10208000040000202A14002014030020281400203B
:102090002614002000030020FA02002010B50E4C88
:1020A0002378012B03D100F04DFE00232370237809
:1020B000022B0CD1094B1868B0F5803FACBF4FF62E
:1020C000FF7080B201F008F80023237010BDBDE856
:1020D0001040FFF735BB00BFFF140020B0140020F4
:1020E0002DE9F84F3F49404A91F9001013883F4DC0
:1020F0003F4C00295DD101331BB2B3F5B47FA8BFBB
:10210000002313802B8801331BB2B3F5B47FA8BF23
:1021100000232B80238801331BB2B3F5B47F5EDA32
:102120002380DFF8D4B0B2F90030DFF8D0A03BF95B
:102130001300DFF8CC90BAF800302E4F1844B9F8ED
:102140000030584397F82D304FF4FA680A2690FB78
:10215000F8F0584390FBF6F080B202F03DFAB5F982
:1021600000303BF91300BAF800301844B9F80030D9
:10217000584397F82D3090FBF8F0584390FBF6F059
:1021800080B202F035FAB4F900303BF91300BAF826
:1021900000301844B9F80030584397F82D3090FBC0
:1021A000F8F0584390FBF6F0BDE8F84F80B202F02B
:1021B0002BBA013B40F267111BB233EA230328BF5D
:1021C0000B4613802B88013B1BB233EA230328BF45
:1021D0000B462B802388013B1BB2002BA0DA218009
:1021E0009FE700BF0A0000202A14002028140020C6
:1021F00026140020101500200E00002008000020EA
:10220000F202002070B502F069FB254D254C2880B4
:10221000002002F06DFB22682B88234E234D02EB39
:10222000420213449B082360214B22681B785343CE
:10223000204AC3F38F1313802268C3EB5203338009
:1022400002F04CFB3388834202D92B68042BF7D869
:10225000FFF708FA184A00231370184A1370184A37
:102260002B68117801332B6059B9517F92F82620E1
:1022700011430FD0132B03D92368B3F5FA6F02D99A
:1022800070BD022BFCD90F4B00221A70BDE87040C4
:1022900001F09ABD0C4B22681B689A42F0D2F2E71B
:1022A0000614002000000020021400200C1400205E
:1022B000FE1400202C1400200A1400201C140020FE
:1022C00010150020E70200200C1500202DE9F04F2A
:1022D0008F49904B904A87B00B44136002F0AEFCDC
:1022E0008E49102202A801F058FE9DF90C30382BBF
:1022F0008B4B40F0048128221A601A68894E8A4963
:10230000327093B2894D8A4A8A4C0B802B8013809D
:1023100002F08EF802F07CFC02F082F9FEF754FF26
:10232000E378022B05D12379032B02D16378032BA9
:1023300007D80223E3700323237104236370FFF79C
:102340003DF97D4A33785363936302F580527B4EA7
:102350005363936302F5805253639363637C784ABB
:10236000013B18BF01231370764B1B883380237DFC
:1023700003B9E37494F82630C3B1734B73494FF437
:102380007A721A8000230122E374637563732375E4
:10239000A3752B88A2740A70654A32332B80138888
:1023A000323313806A4A138832331380694B002515
:1023B0001D8002F087F9684B4FF0FF32DA6001F0C0
:1023C0004FFA02F0A9FD654B1B781BB1644BE57415
:1023D00001221A7001F024FEDFF8B0A1614A624FB9
:1023E000518813880B4491880B44D1880B44118980
:1023F00052890B4413445B100233CAF800303B6827
:10240000042B00F28380A37C002B14BF07230C2332
:10241000564A1370564A13704F4B4FF0FF32DA6032
:10242000637D012B0AD1534B1868464B1B880093E0
:10243000C8225B08602100F02BFF3080637D4E4D89
:10244000022B1BD12B68F92B08D82B68642B81BF7A
:102450002B6803EB830203EB420333802B68632B6F
:1024600004D82B6813B140F24C4333802B68F92B0E
:1024700001D82B6813B940F6BE2333803F4B1B882D
:1024800042F21072934240F2B980DFF804B19BF837
:1024900000204FFA82F9002A7CD001F00BFF384B64
:1024A00000241C80374B8BF800401C70294B1C808B
:1024B000214B9A6964F31F429A61DA6964F31F42FF
:1024C000DA6103F580539A6964F31F429A61DA690D
:1024D00064F31F42DA6103F580539A6964F31F4283
:1024E0009A61DA6964F31F42DA6102F063F84FF42B
:1024F00080722146244802F0F3FCFEF72DFE9DF980
:102500000B20312A7FF4F9AE5022F5E606237FE74F
:102510000000000800F0000020030020E0EF0000B1
:10252000E00200201803002008000020F80200202C
:10253000F60200201015002000C00440F402002024
:102540000A000020F2020020EA020020040300201A
:10255000000300201814002000300440D015002093
:10256000F4140020BC1400200C14002006000020ED
:102570000500002000000020B814002000140020F6
:102580001614002012140020F00E0020B0140020B9
:102590001A14002049F6404293422FD901F08AFED6
:1025A000954B8BF80090A3F80090944B83F8009023
:1025B000934BA3F80090934B9A6969F31F429A6179
:1025C000DA6969F31F42DA6103F580539A6969F3A6
:1025D0001F429A61DA6969F31F42DA6103F5805399
:1025E0009A6969F31F429A61DA6969F31F42DA61F5
:1025F00001F0E0FF4FF4807249467BE7824A118880
:1026000044F62063994212D9804B8149B3F90030D6
:102610004FF4B4701B0493FBF0F3086803440B60A1
:10262000002313807B4A13780BB1013B13703A6887
:10263000794BB2F57A7F1B8805D97849002008705C
:10264000C72B07D909E0002B40F0C3807349642AE7
:102650000B7002D9714900200870E17C21B19F2BD9
:102660009EBF6E49002008706D4991F90010002945
:1026700000F0B380B3F5C87F02D2684B0021197017
:10268000DFF8E491DAF80030032193FBF1F32B60DB
:1026900099F90030002B32D00A2A30D9DFF8CCB1BA
:1026A0002968DBF8000000F011FE2B68B0EB530F37
:1026B0001FD92B68B3F5FA6F1BD25A4A00233B602F
:1026C000137801331370A37C1BB94B4B1B882F2B42
:1026D00004D8554B1B68B3F57A7F02D9534B0022BF
:1026E0001A70534B01221A70524B1B88D340524A26
:1026F0001380002389F800302B68CBF80030DFF816
:10270000709199F800305AB2002B6DD04B4B3F4A74
:102710001B8800934A493E4B4A485B8812880988C7
:1027200090F9000001F042FA0A2001F00FFE0023A8
:1027300089F80030DFF83C9199F80030012B40F027
:10274000C38001F04DFA4FF0804200205368DFF85B
:10275000F0B043F00043536001F06EFA394B18803B
:10276000394B1A8840F6E44840F6FF7108FB02F244
:10277000B2FBF1F2354909884A436421B2FBF1F218
:10278000ABF80020FEF724FF314A08FB00F310608D
:102790002922B3FBF2F30F22A3F2DC5393FBF2F3F3
:1027A0001A4A1BB223EAE373138094F82420294BBE
:1027B000012A40F02981284A284892F900200088FF
:1027C000BBF800104243914256DA1A8801321A804F
:1027D00057E0642A7FF641AF32E7952B98BF64211A
:1027E0001F4B88BF0A214AE71E4B93F900100029AE
:1027F000A0D01A709EE700BF16140020121400200B
:102800001814002000C00440D8140020CE1400206A
:10281000D4140020FA1400209C1400202F1400204F
:10282000E2140020E3140020000000202E140020F9
:10283000E702002000030020CC1400202014002018
:10284000DC140020AC140020A81400200203002097
:10285000D0140020E0140020DB1400200A03002024
:10286000FE02002008150020C8140020B414002027
:10287000A1140020A2140020BB4A92F90020002AD3
:10288000A5D01A88B94BBA4993F9000042F21073E7
:1028900001FB00339A4214DDB34B01221A70B54B91
:1028A0004FF0000BA3F800B001F004FD01F064FA52
:1028B000B14B83F800B0B14BA3F800B0B04B83F834
:1028C00000B0002389F80030AE4AA84B4FF0000852
:1028D00082F8008093F90020002A40F0A480DFF8FD
:1028E00098B2DAF800209BF80000A74B93FBF2F3B4
:1028F00010FB03F0A54B80B218800A23B0FBF3F065
:10290000A34B1880A34B93F90030002B00F0868076
:10291000A14BA24A1B880093A149A24B12881B8895
:10292000098800F0B5FC80B2DFF8C4929E4B94F8A1
:102930002B10A9F80000B3F9000088420BDD964B7C
:102940001B8801220092D34001F10A020A3900F0EB
:102950009FFCA9F800003B68DFF87892632B04D84D
:10296000D9F80030B3F5FA7F5BD80C2328680093C0
:102970004FF4FA720323642100F08AFCC0B2D9F844
:1029800000208A4B312A98BF0222187098BF1A7013
:1029900094F82F305BB117238548009300880D23EE
:1029A0004FF4FA62642100F073FC824B187001F05E
:1029B00095FF4AF6C87398427FF610AD9BF80080E9
:1029C0007D4B0025B8F1010F1D707FF407AD7B4BE7
:1029D000217D19707A490B7801330B7001F0CCF925
:1029E000784B83F80080634B1B882F2B9CBF41F2F0
:1029F0008833C9F800304FF0000398BF8BF80050BF
:102A00003B60FFF7FFFBE9E4022A7FF43AAF227A4A
:102A1000BBF80010322012FB00F2D4E64FF4FA604B
:102A200082E70C20ABE7DFF84CB1674ABBF8001037
:102A3000302940F2E38052480078002800F0DE8020
:102A400031390120572989F80000DFF8A8914BD8C7
:102A500092F9001041B35D48017868F3C301017039
:102A600001F08AF95A49886968F31F408861C8698A
:102A700068F31F40C86101F58051886968F31F4001
:102A80008861C86968F31F40C86101F58051886991
:102A900068F31F408861C86968F31F40C86101F08E
:102AA0004CFC494A82F80080FFF71AFBE37E40F2B3
:102AB0002A32B2FBF3F20092302141F65832BBF8D1
:102AC0000000B2FBF3F3782200F0E2FBA9F800006B
:102AD00080B200F001FCB9F800204FF41673B3FB8C
:102AE000F2F32A4A138079E41070FFF7F9FABBF881
:102AF0000020DFF804B1C82A84BF5023A9F80030B1
:102B0000B9F8000088BFABF8008000F0E5FBBBF926
:102B10000090B9F1000F7FF461AC144B164A83F8B2
:102B2000009001231370274A13702A4B42F2283079
:102B30001860294B28602A681A6001F0D9FE142316
:102B40003B60264B83F80090254B1A78254B1A7072
:102B5000637F1BB1244B1A88244B1A80FEF782FD39
:102B600001F070FD3AE400BFF914002025140020A4
:102B700054D9FFFF161400202E1400201814002032
:102B80001A14002024140020C0270900201400205B
:102B90002214002004030020E8020020EC020020A0
:102BA000EE020020EA020020AC140020E502002022
:102BB00004140020FC140020FB140020ED1400205D
:102BC0002F140020E7020020FD14002000800440A4
:102BD00000C0044000000020B4140020A014002015
:102BE000E602002004000020F6020020CC140020A1
:102BF000F00200200C0000202A1400200123257F71
:102C00001370494A0023012D13703ED194F82930E6
:102C1000464A4749474F03EB830303EB8303DB003B
:102C20009BB213803288534393FBF1F313449BB25E
:102C3000632B3B8006D801F077FB3F4B00221A80C4
:102C4000FFF7CCBB01F0EEF93C4A3B88916963F396
:102C50001F419161D16963F31F41D16102F5805237
:102C6000916963F31F419161D16963F31F41D161A0
:102C700002F58052916963F31F419161D16963F359
:102C80001F412F4BD1611D70D7E7022D2CD1284653
:102C900001F019FB3288237B53434FF4FA62B3FBF4
:102CA000F2F3264A03EB83035B00916928339BB25E
:102CB00063F31F419161D16963F31F41D16102F553
:102CC0008052916963F31F419161D16963F31F41A0
:102CD000D16102F58052916963F31F419161D1691D
:102CE00063F31F41D161A8E7144A916963F31F415F
:102CF0009161D16963F31F41D16102F580529169FD
:102D000063F31F419161D16963F31F41D16102F502
:102D10008052916963F31F419161D16963F31F414F
:102D2000D16101F0C7FA88E72E14002006150020B3
:102D300030F8FFFF1E1400202014002000C00440C3
:102D4000A0140020944A2DE9F84F1168D36F934FD7
:102D50005B1A93499BB20B80924909885D0999429D
:102D60003D8080F0AA8090490988994240F2A58070
:102D70008E4B8F48002119800446536852F8086B27
:102D80009B1B9BB29D4201F101012CBF002301233B
:102D9000102940F8043BF0D1226923686169DFF80B
:102DA00058825340226A5A40636883EA0106636A84
:102DB0005E40B60046EAC206E368E2695340E26A52
:102DC00053401E43A269A3685340A26A534046EA97
:102DD0004306D4E90C239D00E36B45EAC2051D437D
:102DE000A36B45EA4305734B1B78F6B2EDB2FBB912
:102DF00098F80030E3B901F00BF9C8B16E4A1378C6
:102E00000133DBB2642B137012D9012388F8003030
:102E10003B886A486A49722B8CBF4FF480728022CB
:102E2000684B8BBF028002800820072008809A60D0
:102E300098F8003013B1C5F10F05EDB2B54240F07E
:102E40002B81D4E900A3D4E9028ED4F82890574FFF
:102E50005B0243EA8A23D4E904C643EA090343EA4E
:102E60000823D4E9065043EACE134FF0000B43EA9F
:102E70008C13D4E90812A7F800B043EA4613DFF830
:102E80007CB1E46ABBF8007043EA051343EAC0036F
:102E900043EA81034C490137012CABF8007043EA47
:102EA000420308BF494F0A7808BF3C70CAB1012AE3
:102EB00005D1474A138002230B70BDE8F88F022A20
:102EC00003D1444A13700323F6E7032AF5D1252BD7
:102ED000F3D1404A3E4B10781B883F4AD054002320
:102EE000EAE72F2B3D4C0ADD3D4890F9000060B128
:102EF0003C4922709BB20B803B4B1A70DDE7581E99
:102F00002E281FD83748237002802378002BD4D076
:102F1000364A1278002AD0D1264800780028CCD032
:102F2000334D2878984230481CBF2B700270052B17
:102F30009CBF0622027002780132D2B2052A11D853
:102F40000270BAE7002BE0D12A4A92F90020012A48
:102F500004BF234A1370234A00231380224A23709C
:102F60001370D2E70022013B0270232B4ED8DFE81A
:102F700003F0474A5356595C5E62686B4D6E768229
:102F80004D4D4D4D4D868C4D4D4D4D4D4D4D4D4DF9
:102F90004D4D4D4D4D9000BFF00E0020D615002038
:102FA000DE150020D0160020A80300200014002009
:102FB000901600201A14002074160020A60300208A
:102FC000A403002000200540D4150020A1140020F7
:102FD000D2150020D1150020101500201B14002050
:102FE0008416002014140020761600202E140020D1
:102FF00075160020851600209F140020DC15002087
:10300000294B012201E0284B02221A70274B22781B
:103010001A700023237050E7234B0322F5E7224B5D
:103020000422F2E7204B0522EFE7214BE9E7214B91
:103030005A74214BE5E71F4B01225A741E4B0022A4
:10304000E3E71C4B9A74E1E71A4B0122FAE7FEF71B
:10305000B5FA184B144A5B7C01331370D6E7174A54
:1030600001231370164A1370164B93F90030012B8D
:10307000CCD1154AF1E7114B1A70144BC1E70D4B37
:103080000D4A5B7CC3F10103E7E70A4B5A7C0A4B0C
:10309000BBE701230B70B9E70D4A13880133138096
:1030A0000C4B002229E700BFC91400209E14002009
:1030B00008150020101500200A000020D815002057
:1030C0008716002085160020841600208616002012
:1030D000DA150020D4150020F0B55D4C5D490023C1
:1030E00023601E4641F823600133252BFAD15A4B49
:1030F0001B7823B1594A9579002D60D09671002331
:10310000574A92F900501DB1002313704FF46063C9
:10311000544A92F90050002D7FD00023137040F6DE
:10312000FF63514A13604D4B01229A714E4A4F4E34
:103130001068C0F30B1483B2C0F307206040434013
:10314000DB43106803F00F0343EA001313601568B4
:10315000146810681368464A2D1303F00F03C4F374
:1031600003245557D3561457C0F3031043EAC5330D
:10317000125643EA842343EA421333603D4B1D78E1
:103180003D4B6A1C1B8841F822303C4B1F881320A2
:103190004FF0010CD6F800E051F822400CFA00F391
:1031A00003EA0E03C340FC4001326340BB400138D8
:1031B00041F82230EED2002341F82530F0BD978847
:1031C000568813880137BFB201360133B6B29BB2BD
:1031D000272F9780568013800AD9294B9580B3F901
:1031E0000030322693FBF6F3DBB243F4C06387E78B
:1031F000C72E09D9234B55801B881926B3FBF6F33C
:10320000DBB243F480637BE7C72B7FF678AF1E4BBE
:1032100015801B8843F4007372E7002B81D11B4B90
:103220001A784FF6FF73002A08BF18460F2340FA9A
:1032300003F2012A07D1083B2360184140EA4320EA
:10324000094B186072E7013B082BF0D10023F4E72B
:1032500080160020E0150020D815002088160020D8
:103260008716002086160020781600207C16002085
:10327000204F0000B8040020A6030020A403002073
:10328000CE140020DC140020AC1400202E140020EA
:10329000F0B5059D0446184601E01D4632469442AD
:1032A00010DAA1420FDA85420DD08F182B18B1EB3E
:1032B000670F4FEA67064FEA630305D0B442ECDDBF
:1032C000711CE8E72846F0BD1846FCE7401A0028C4
:1032D000B8BF40427047000064235843074B586012
:1032E0001A7842F001021A70596821B91A7861F30C
:1032F00000021A70704700BFF6E700BF00A004404C
:1033000010B5044604B910BD4FF47A70FFF7E4FF1E
:10331000013CF7E74840082243B2002BBDBF5B00E9
:1033200083F00703D8B2400002F1FF33A8BFC0B258
:1033300013F0FF02F0D1704738B50446451800205D
:10334000AC4200D138BD014614F8010BFFF7E2FF93
:10335000F6E70000694B2DE9F74FD3E9002064241C
:10336000801A6FF44873B0FBF4F41FFA84F808EB8A
:10337000030292B240F276518A42614F4FF000024E
:1033800000F2B1805F4DDFF8A4912A8099F8002007
:10339000002A7CD0DFF898A19AF80020EAB140F228
:1033A000E1439845584E66D933784B2B32D9574A6A
:1033B000138819339BB21380A3F2EE23544A03EB14
:1033C000D3735B10002482F8203089F80040FEF7A8
:1033D000F5F8347000F06AFB1CE04E4ADFF854B197
:1033E000117809B9ABF800004B4EBBF80000013171
:1033F00011703188FFF76AFF3228464A3F4B1CD9CB
:10340000002389F800303388ABF800309AF8003098
:10341000002BC4D100232B80404B414819883A68C7
:10342000006889B2511A814260DD1A8810FA82F26E
:1034300092B21A8003B0BDE8F08FD3E90031CB1A05
:1034400031881278C1EBC1010B44C3F3CF03322A98
:103450003380D8D9193B9BB23380A3F2D6632C4A70
:1034600003EBD3735B1082F8213001238AF800301C
:1034700000F0DCFAC7E73378244A0133337013884D
:10348000C3EBC30313FA84F3DB1013808CE7204BE8
:10349000A0B29C7CBCB1234B198841450AD34FF4A0
:1034A0007A73009313460A4618490988FFF7F0FE1D
:1034B0003860AFE74FF4FA63174A0093128840F27E
:1034C000E9330131F2E740F2FF73134A0F490093E9
:1034D000128809882F23FFF7DBFE3028CCBF034674
:1034E00023463B6096E7104B1A8095E7198889B20E
:1034F000891A8842BCBF1A88121A99E7F00E002078
:10350000EC16002000140020E21600201203002018
:1035100010150020E71600201003002014140020CE
:10352000B00300200E03002018140020E81600202D
:10353000E6160020E4160020134B1B68A3F15A0284
:10354000B2F59B7F11D2114B1A6841F26F739A4208
:103550000AD80F4A012313700E4A0E2111700E4A29
:10356000202111700D4A137070470A3B462BFBD87F
:10357000064B1B68B3F57A7FF6D2054A0123137018
:103580000721044AEAE700BFAC030020DC16002054
:1035900011140020B8040020AA03002012140020F7
:1035A000084B1B686FF4FA621344074A934207D82A
:1035B000064B04221A70064A01231370054A137041
:1035C000704700BFAC0300207E2C0300AA0300203C
:1035D00010140020121400201E481F490268F8B57C
:1035E0001E4F002439602346A446012550F8046F7D
:1035F000964207D0B21A8A423CBF11464FF0010CE6
:103600001344012401351F2D3246EFD1002C08BF91
:103610000023BCF1000F00D03960114A11485B094A
:10362000136090F90030012B01D1FFF785FF0E499F
:103630000B78012B01D1FFF7B3FF90F900303BB9B4
:103640000B782BB9FFF778FFBDE8F840FFF7A8BF6C
:10365000F8BD00BFF00E002080841E00AC030020E7
:10366000DC1600201114002010140020F8B5504D75
:103670002B787BB14F4B1B7863B14F4B4F4C1B7872
:1036800023B101F049FC02232370F8BD01F040FC96
:103690000123F9E74A4B1A782AB9FFF79DFFBDE8E5
:1036A000F84001F039BC1B78012BEED1414B1B785F
:1036B0006BB1414B1B7833B1424B1888FFF70CFDBF
:1036C000FFF740FBEBE7BDE8F84001F021BC3E4CC2
:1036D00094F90030012B03D1FFF734FB01F01CFCFF
:1036E0003A4B1B78012B08D100F092FC384B002894
:1036F00034D003221A7001F00FFC2B78002BC4D1B8
:1037000094F90030FBB1334B1A78032A1BD83249A5
:103710000988052917D931490132D2B21A70CB6F05
:1037200009685B1A2E490868042A10FA83F30B60B3
:1037300009D1C3F38F12C3F38F03D01829499B1A01
:10374000294A08801380294F388860B9284B1B7894
:103750004BB9214A13880133138096E702221A706D
:10376000FFF7F8FDC7E7234BDD79002D8DD11A4B0C
:103770001D8040F2DC53984287D91F4E1F4C318880
:10378000FFF7A4FD322803D925703B8833807CE7FE
:1037900023780133DBB2322B2370F6D9184B1D7816
:1037A000002DF2D100F0C2F9114B01221A70EBE7A3
:1037B0001A1400209F1400202C170020FF14002052
:1037C00012140020B0140020111400201014002046
:1037D000AA030020D816002018140020F00E0020A4
:1037E000D4160020A8030020D01600209C1400202E
:1037F000E816002010150020E0160020E916002031
:10380000E61600200B28034B28BF0B204000187041
:10381000704700BFF01600200F4A104B91691B78CB
:1038200063F31F419161D16963F31F41D16102F5D7
:103830008052916963F31F419161D16963F31F4124
:10384000D16102F58052916963F31F419161D169A1
:1038500063F31F41D161704700C00440F01600209F
:103860002DE9F04172B6DFF890801E4F1E4E1F4CBE
:1038700040F2CF73C8F8103003203B613361FFF78B
:10388000CBFF00F020FD372000F0D4FD4FF0FF35D6
:10389000C820FFF735FDE560052000F014FD282065
:1038A00000F0C8FDC820FFF72BFDE560062000F002
:1038B0000AFD192000F0BEFDC820FFF721FDE560DC
:1038C00000F0F8FC002000F0B5FD094B00221A8042
:1038D000084B1B88C8F810303B61336162B6BDE805
:1038E000F08100BF00D0044000E0044000300440FC
:1038F00000140020F202002000C004402DE9F04135
:10390000DFF888801C4F1D4E40F2CF73C8F810308E
:103910003B61336172B61A4C4FF0FF35E5603C20D5
:1039200000F088FD0120FFF777FF00F0CCFC4B2072
:10393000FFF7E6FCE560502000F07CFD4B20FFF730
:10394000DFFCE5605A2000F075FD4B20E560FFF7D5
:10395000D7FCE56000F0AEFC002000F06BFD094BE9
:1039600000221A80084B1B88C8F810303B61336175
:1039700062B6BDE8F08100BF00D0044000E0044022
:103980000030044000140020F202002000C0044077
:103990002DE9F84372B61F4CDFF88890DFF8888075
:1039A0001D4F40F2CF734FF0FF35C9F81030502053
:1039B000C8F810303B61E56000F03CFD0320FFF7E4
:1039C0002BFF00F080FC154B002664201E80FFF7C3
:1039D00097FCE560462000F02DFD6420FFF790FC89
:1039E000E560282000F026FD6420FFF789FCE560F3
:1039F00000F060FC304600F01DFD084B1E80084BB7
:103A00001B88C9F81030C8F810303B6162B6BDE8B9
:103A1000F88300BF0030044000E0044000140020A0
:103A2000F202002000C0044000D004402DE9F04123
:103A3000DFF87480174F184E184C40F2CF73C8F857
:103A4000103032203B61336100F0F4FC0220FFF7BC
:103A5000E3FE4FF0FF3500F036FC9620FFF750FCF8
:103A6000E5601E20E56000F0E5FC9620FFF748FCCD
:103A7000E56000F01FFC002000F0DCFC084B002299
:103A80001A80084B1B88C8F810303B613361BDE8D1
:103A9000F08100BF00D0044000E00440003004404A
:103AA00000140020F202002000C004402DE9F04183
:103AB000DFF87480174F184E184C40F2CF73C8F8D7
:103AC000103028203B61336100F0B4FC0220FFF786
:103AD000A3FE4FF0FF3500F0F6FB9620FFF710FC39
:103AE000E5605020E56000F0A5FC9620FFF708FC9B
:103AF000E56000F0DFFB002000F09CFC084B00229A
:103B00001A80084B1B88C8F810303B613361BDE850
:103B1000F08100BF00D0044000E0044000300440C9
:103B200000140020F202002000C004401B4A40F2B2
:103B3000CF7370B5136102F58052136102F58052A4
:103B4000136172B6FFF768FE154D77244FF0FF360C
:103B5000EE601420B4FBF0F000F0B5FB60100A300A
:103B600080B200F067FC023C0A20FFF7C9FB631C2F
:103B7000EE60EDD100F09EFB002000F05BFC094BF5
:103B800000221A80084B054A1B88136102F58052F7
:103B9000136102F58052136162B670BD00C004402B
:103BA0000030044000140020F202002038B50B4C15
:103BB000BDF810502070A170080A110A6070E17001
:103BC0002271A3711A0A09212B0A20466271E3713E
:103BD0002572FFF7B1FB607238BD00BFF4160020FC
:103BE000064B07499A880A80064918880880598830
:103BF000054B1980054B1A80704700BF261700201F
:103C0000AA140020A8140020A6140020A414002048
:103C10000849820900F03F0051F82230013251F882
:103C200022209A1A504348BF3F30A3EBA01000B2A5
:103C3000704700BFB4030020014B1888FFF7E8BFAE
:103C4000A414002010B5374BD3F8A020012161F354
:103C50000922C3F8A020D3F8A02061F31D62C3F8A5
:103C6000A020D3F8A02042F48032C3F8A020D3F8DB
:103C7000A0200A43C3F8A020D3F8A02042F01002ED
:103C8000C3F8A0204FF08043072093F800240A4394
:103C900083F800241A7E60F303021A76D86D02229C
:103CA00062F31740D865B3F8500062F30100A3F83F
:103CB0005000B3F85000062464F34B20A3F85000E2
:103CC000B3F8500020F48070A3F85000B3F840001F
:103CD00020F00300A3F84000B3F8400061F30510A2
:103CE000A3F84000B3F8401062F30921A3F8401094
:103CF0009A6E322161F317029A661A7842F0010235
:103D00001A70D3F800249207FBD51A8C42F00102F6
:103D10001A84054B4FF480225A60C02283F8322364
:103D200010BD00BF0010044000E100E0104B93F90B
:103D300000201B78062B19D80120904010F0480F66
:103D40000FD110F0240F07D110F012000FD0094B43
:103D50001868C0F380107047064B1868C0F3001055
:103D60007047044B1868C0F340107047002070473C
:103D70000400002000100140124BB3F8642042F010
:103D80001002A3F86420B3F8642042F02002A3F8E4
:103D90006420B3F8642042F04002A3F86420B3F832
:103DA000802042F01002A3F88020B3F8802042F077
:103DB0002002A3F88020B3F8802042F04002A3F84C
:103DC0008020704700100140094BB3F8602042F09A
:103DD0001002A3F86020B3F8602042F02002A3F89C
:103DE0006020B3F8602042F04002A3F860207047E2
:103DF00000100140494B93F90020494B012A01D0A2
:103E0000042A35D1B3F8642042F01002A3F86420EC
:103E1000B3F8642042F02002A3F86420B3F86020D5
:103E200042F04002A3F860201A8B42F010021A837D
:103E30001A8B42F020021A839A8A42F040029A8238
:103E4000384A92F90020002A55D0B3F8742042F085
:103E50001002A3F87420B3F8742042F02002A3F8F3
:103E60007420B3F8742042F04002A3F87420704725
:103E7000022A01D0052A1ED1B3F8602042F01002B8
:103E8000A3F86020B3F8642042F02002A3F8642075
:103E9000B3F8642042F04002A3F864209A8A42F00A
:103EA00010029A821A8B42F020021A831A8B42F077
:103EB00040021A83C4E7032A1AD1B3F8642042F0FF
:103EC0001002A3F86420B3F8602042F02002A3F8A7
:103ED0006020B3F8642042F04002A3F864201A8BFB
:103EE00042F010021A839A8A42F020029A82DDE799
:103EF000062AE2D0A4E7B3F8702042F01002A3F83B
:103F00007020B3F8702042F02002A3F87020B3F8BC
:103F1000702042F04002A3F8702070470400002097
:103F200000100140E40200202DE9F7430C4605464D
:103F300000211046904600F007FFB4F5806FA8BF3F
:103F40004FF48064082CB8BF0824264600274FF0A1
:103F5000FF39042E3246294628BF04226846CDE99F
:103F6000009900F0C5FF042E07D9321F042A28BF8C
:103F70000422291D01A800F0BBFF08EB0700002266
:103F80006946083700F0CAFEA742A6F1080605F107
:103F90000805DED303B0BDE8F083F7B50024CDE912
:103FA00000440F4616460546A64201D803B0F0BDB0
:103FB0000022E019694600F09BFE009B2B70621CFA
:103FC000964284BF1A0A6A70A21C964284BF1A0CD9
:103FD000AA70E21C964284BF1B0EEB70231D9E420A
:103FE00084BF019B2B71631D9E4282BF019B1B0AF4
:103FF0006B71A31D9E4284BFBDF80630AB71E31DFB
:104000009E4284BF9DF80730EB7108340835CBE73A
:10401000024B1868C0F34010704700BF0000014019
:1040200070470000124B1A8F42F480521A879A8907
:1040300042F480529A811A8F42F480621A879A89D8
:1040400042F480629A811A8F42F480721A879A89A8
:1040500042F480729A819A8E42F400529A869A8E25
:1040600042F400629A869A8E42F400729A867047F1
:1040700000000140114B1A78114BAAB91A8F42F473
:1040800000621A879A8942F400629A819A8D42F4FA
:1040900000629A850A4B9A8E42F480629A861A8E42
:1040A00042F480621A8670479A8E42F400629A86C1
:1040B0001A8E42F400621A86ECE700BFED1400206D
:1040C000000001400C4B1A8F42F400621A879A8953
:1040D00042F400629A819A8D42F400629A851A8FA6
:1040E00042F480621A879A8942F480629A819A8D9A
:1040F00042F480629A857047000001400C4B1A8F91
:1041000042F400621A871A8942F400621A819A8D79
:1041100042F400629A851A8F42F480621A879A8963
:1041200042F480629A819A8D42F480629A85704747
:1041300000000140114B1A78114BAAB91A8F42F4B2
:1041400000521A879A8942F400529A819A8D42F459
:1041500000529A850A4B9A8E42F480529A861A8EA1
:1041600042F480521A8670479A8E42F400529A8620
:104170001A8E42F400521A86ECE700BFED140020BC
:10418000000001400C4B1A8F42F400521A879A89A2
:1041900042F400529A819A8D42F400529A851A8F05
:1041A00042F480521A879A8942F480529A819A8DF9
:1041B00042F480529A857047000001400C4B1A8FE0
:1041C00042F400521A871A8942F400521A819A8DD9
:1041D00042F400529A851A8F42F480521A879A89C3
:1041E00042F480529A819A8D42F480529A857047A7
:1041F00000000140114B1A78114BAAB91A8F42F4F2
:1042000000721A879A8942F400729A819A8D42F458
:1042100000729A850A4B9A8E42F480729A861A8EA0
:1042200042F480721A8670479A8E42F400729A861F
:104230001A8E42F400721A86ECE700BFED140020DB
:10424000000001400C4B1A8F42F400721A879A89C1
:1042500042F400729A819A8D42F400729A851A8F04
:1042600042F480721A879A8942F480729A819A8DF8
:1042700042F480729A857047000001400C4B1A8FFF
:1042800042F400721A871A8942F400721A819A8DD8
:1042900042F400729A851A8F42F480721A879A89C2
:1042A00042F480729A819A8D42F480729A857047A6
:1042B0000000014008B5FFF765FFFFF703FFBDE809
:1042C0000840FFF7BFBF013808B505282BD8DFE845
:1042D00000F0030B13181D25FFF72CFFFFF70EFF4F
:1042E000BDE80840FFF7AEBFFFF74CFFFFF706FF42
:1042F000BDE80840FFF77EBFFFF760FFFFF7E2FE73
:10430000F6E7FFF75BFFFFF7B5FEE9E7FFF73AFFD8
:10431000FFF7B0FEBDE80840FFF7B0BFFFF70AFFA8
:10432000FFF7D0FEF6E708BD08B5FFF747FFFFF738
:10433000E5FEBDE80840FFF7A1BF08B5FFF7FAFEAC
:10434000FFF798FEBDE80840FFF754BF084B4FF455
:10435000806210B55A63074C074A0023D9B28842DD
:1043600000D810BD12F8011B21600133F6E700BF31
:104370000010014000500440F416002038B5254BD1
:104380002548D3F8002142F00202C3F80021D3F8F7
:10439000042142F00202C3F80421204A4FF4806154
:1043A0005161116A012464F315511162196E1C4A9E
:1043B0000A4042F480721A661A6E22431A661A6E16
:1043C00042F010021A6600F081FD134B9C72154CEE
:1043D00019464FF4E13520465D6000F04BFD94F83E
:1043E0002C3043F0100384F82C30238F43F4006307
:1043F00023872946204600F00DFD238E43F001035C
:104400002386094B4FF000721A60C02283F81923EB
:1044100038BD00BF001004403017002000100140DC
:10442000FFFCFEC00050044000E100E07047FEE7E2
:104430007047000030B5E0B95B495C4A0B68012465
:1044400064F38C230B60136864F38C231360584B64
:104450001D6864F38C251D600C6860F3C9140C6042
:10446000116860F3C91111601A6860F3C9121A600B
:104470000AE0322800F088800FD8192855D004D8D7
:104480000A282CD014283DD030BD1E2860D0282802
:10449000FAD1454902200B6837E046287CD016D86F
:1044A000372875D03C28EFD13F49404A0B6803209C
:1044B00060F38C230B60136860F38C2313603C4B18
:1044C0001C6860F38C241C600C680420C5E750282D
:1044D00066D05A28D8D1344903200B683BE0324AD1
:1044E0001168052363F3C911116002F58052116848
:1044F00063F3C911116002F58052116863F3C911A9
:104500001160C1E728490B68012060F38C23274A1A
:104510000B60136860F38C231360254B1C6860F3F9
:104520008C241C600C68052097E71F490B6801204C
:1045300060F38C231D4A0B60136860F38C231360B7
:104540001B4B1C6860F38C241C600C68062084E7FD
:1045500015490B680120154A60F38C230B60136822
:1045600060F38C231360124B1C6860F38C241C6076
:10457000086840F460700860116841F4607111606F
:104580001A6842F4607272E7074902200B68CFE7AD
:10459000054902200B68DEE7034903200B68B4E7F6
:1045A000014903200B68C3E700C0044000D0044069
:1045B00000E00440074B1A8D22F480721A85002215
:1045C0001A609A8D42F008029A851A8D42F4807220
:1045D0001A85704700200540044B9A6960F31F421A
:1045E0009A61DA6960F31F42DA61704700C00440E3
:1045F000044B9A6960F31F429A61DA6960F31F42C3
:10460000DA61704700D00440044B9A6960F31F429E
:104610009A61DA6960F31F42DA61704700E0044092
:10462000074B1A7822F008021A701A7842F0010239
:104630001A701A7842F001021A70FFF703BB00BF2C
:1046400000800440704700001D4B93F8002142F0A9
:10465000020283F8002193F8042142F0020283F859
:104660000421A3F540339A8A42F010029A829A8A72
:1046700042F020029A829A8A42F040029A82196A93
:10468000012262F309211962196A62F38B2119620E
:10469000196A62F30D311962B3F8682042F0100212
:1046A000A3F86820B3F8682042F02002A3F868203D
:1046B000B3F8682042F04002A3F86820704700BFBA
:1046C000001004400A4B5A6B42F001025A635A6BC5
:1046D00042F010025A6303F50053064A1A601A7A30
:1046E00042F001021A721A7A42F002021A727047FC
:1046F00000100440400D030070B5664A6649138AF5
:1047000043F4E0631382A2F540320120536943F47D
:104710007C535361614BB3F8E02042F01002A3F8E0
:10472000E020B3F8F02042F01002A3F8F020B3F834
:10473000E02042F02002A3F8E020B3F8F02042F09D
:104740002002A3F8F020B3F8E02042F04002A3F8E2
:10475000E020B3F8F02042F04002A3F8F02003F587
:10476000304340F2CF751A6860F38C221A601A68E1
:1047700022F460721A600A6860F38C220A600A6888
:1047800022F460720A60464A146860F38C24146054
:10479000146824F4607414605C6D44F400645C6517
:1047A0005C6D60F30A245C651C6860F305141C6092
:1047B0001D611E8C022464F383061E841E8C60F32C
:1047C00005161E849E8C60F383069E849E8C64F383
:1047D00009269E840D610E8C64F383060E840E8C74
:1047E00060F305160E848E8C60F383068E848E8CA7
:1047F00064F309268E841561158C64F38305158492
:10480000158C60F305151584958C60F383059584EC
:10481000908C64F30920908428205863986393F85F
:10482000305045F0030583F8305093F8305064F36E
:10483000830583F830504863886391F8305045F021
:10484000030581F8305091F8305064F3830581F806
:1048500030505063906392F8300040F0030082F8CB
:10486000300092F8300064F3830082F8300093F84F
:10487000300020F0300083F8300091F8303023F021
:10488000300381F8303092F8303023F0300382F872
:10489000303070BD0000044000D0044000100440DF
:1048A00000E004400C4BB3F8E02042F00202A3F811
:1048B000E020B3F8F02042F00202A3F8F02003F564
:1048C00000434FF0FF325A6000229A601A7842F09B
:1048D00001021A70704700BF00100440034B586873
:1048E0003223C043B0FBF3F080B270470090044025
:1048F00032235843014BC043586070470090044036
:1049000032235843054B58601A7B42F001021A7358
:104910001A7842F008021A70704700BF0080044005
:104920004FF0E02341F286325A61054AE02100202F
:1049300082F8231098610720186182F823107047CD
:1049400000ED00E00F4BB3F8E02042F00102A3F8C5
:10495000E020B3F8F02042F00102A3F8F02003F5C4
:10496000E0434FF0FF3200215A6099601A7842F01C
:1049700008021A70044B4FF400121A6083F81513E2
:10498000704700BF0010044000E100E0084BB3F89E
:10499000E02042F00402A3F8E020B3F8F02042F057
:1049A0000402A3F8F02003F5104300229A60704738
:1049B000001004400F4B93F8002142F0020283F8EC
:1049C000002193F8042142F0020283F8042193F8B5
:1049D000002142F0010283F8002193F8042142F003
:1049E000010283F80421044B10221A60402283F84C
:1049F000042370470010044000E100E030B5764A1F
:104A00007649B2F8E03043F48063A2F8E030B2F8BF
:104A1000F03043F48063A2F8F03092F8003143F0B4
:104A2000010382F8003192F8043143F0010382F867
:104A300004316B4BC3F89C10198F41F0200119878A
:104A4000B3F8A41041F02001A3F8A410998A41F012
:104A500020019982D96921F44061D961B3F88410A9
:104A600041F02001A3F88410B3F8681041F0200150
:104A7000A3F86810B3F8781041F02001A3F878107B
:104A8000B2F8E030574943F00803A2F8E030B2F83A
:104A9000F03043F00803A2F8F030534B4FF0FF32F0
:104AA0005A609A60514A524B9360888D40F400706E
:104AB0008885888D40F4806088854FF48070886098
:104AC0000020C860118D41F480711185118D41F471
:104AD0008051118547490C784749153401EB840111
:104AE000C3F8C010D3F8C840022161F31964C3F8B9
:104AF000C840D3F8C84061F39B64C3F8C8403F4C3A
:104B0000C3F8C440D3F8C84061F31D74C3F8C8406B
:104B1000D3F8C84044F04044C3F8C840D3F8C84074
:104B200060F39134C3F8C840D3F8C840152565F345
:104B30000D14C3F8C840D3F8C840012565F302043A
:104B4000C3F8C8402E4CC3F88040D3F8884061F3C6
:104B50001964C3F88840D3F8884044F04064C3F82F
:104B60008840284CC3F88440D3F8884061F31D7412
:104B7000C3F88840D3F8884061F39F74C3F8884035
:104B8000D3F8881060F39131C3F88810D3F88810F7
:104B90001F2464F30D11C3F88810D3F8881065F34F
:104BA0000201C3F88810184B4FF4002159606021AE
:104BB00083F83313154B196A29431962196A21F4D2
:104BC00080311962138D60F308231385138D60F310
:104BD0000C33138530BD00BF00100440EEDBEAAD9E
:104BE000000001400020054000B0044000400440A7
:104BF00000180020B8040020E01500200C2005401B
:104C000004B004406C10002000E100E0000004400B
:104C100008B5FFF7F3FEFFF7CDFEFFF76DFDFFF7D9
:104C200041FEFFF711FDFFF78DFEFFF779FEFFF75D
:104C3000ADFEBDE80840FFF7A1BB000010B5154B65
:104C40005A6902F00302012A1FD020D9032A08BFA3
:104C5000D9689A689C6898689B6806BFC1F305216B
:104C600001310121C2F3052213F4801FC0F301407A
:104C7000094B04F03F0408BF0023824063434A43CA
:104C8000B3FBF2F3054A136010BD0023FAE7024BB1
:104C9000F8E700BF0010044000127A00001A00205C
:104CA0000E4C0F4DAC4209DA21686268A368043BE0
:104CB000A2BFC858D050FAE70C34F3E7094B0A4CAE
:104CC000A34208DA19685A680020043AA4BF885041
:104CD000FBE70833F4E7FDF7F9FA0000304F000076
:104CE0003C4F00003C4F0000444F0000FEE700BF77
:104CF000084B186008481043586200BF00BF00BF4F
:104D000000BF00BF9A6AD207FCD45A680A609B6849
:104D10004B607047000003400100DEC0084B186084
:104D2000086858604968996006491143596200BF94
:104D300000BF00BF00BF00BF9A6AD207FCD4704713
:104D4000000003400200DEC0064A074B0A43186019
:104D50005A6200BF00BF00BF00BF00BF9A6AD207FF
:104D6000FCD470470400DEC00000034010B50A4ABE
:104D70000A48936894689168926812F4801F04F05E
:104D80003F04C1F3014108BF0020C3F30523604382
:104D90008B40B0FBF3F010BD0010044000127A000D
:104DA00010B5054BDC68FFF7E1FFC4F305240134BF
:104DB000B0FBF4F010BD00BF00100440022805D085
:104DC000032805D0012805D1FFF7D0BFFFF7E8BFC2
:104DD000014870470020704700127A000C4A00F129
:104DE000180310B552F8230052F82310C90342BF2C
:104DF00052F82340C4F305640134C0F301204CBFD2
:104E000064000124FFF7DAFFB0FBF4F010BD00BF2F
:104E10000010044038B505461448281A18BF012070
:104E20000C46FFF7DBFF07EE900AB8EE677A07EE55
:104E3000904AF8EE677AF3EE006A67EEA67A2301ED
:104E4000C7EE276AB0FBF3F36B6207EE903AF8EE19
:104E5000E77A36EEE77ADFED066AF6EE007AE7EEFD
:104E6000267AFCEEE77AC5ED0A7A38BD0050044098
:104E70000000804238B504460D464968FFF7CAFF76
:104E800094F82C30AA7862F3461384F82C3094F806
:104E90002C302A7862F3C30384F82C30E36A6A78F2
:104EA00023F086031343E36294F82C302A7A62F3EA
:104EB000041384F82C30AA7A238E62F30823238605
:104EC0006A7A238E62F34923238638BD03220023A6
:104ED00082704FF4165203804260038183727047E0
:104EE00002440346934200D1704703F8011BF9E7DF
:104EF0000A44914200F1FF3300D1704710B511F818
:104F0000014B03F8014F9142F9D110BD00000000A0
:104F10005FF800F0B50B00205FF800F0150B0020E3
:104F2000191B12131D1516171A090A0B1E0D0E0F49
:0C4F3000444F000000000020F00E0000C4
:084F3C0000140020040600002F
:104F4400D430000001060604280001006400B40007
:104F5400B700BA00BD00C100C400C700CA00CD003C
:104F6400D000D300D600D900DC00E000E300E60066
:104F7400E900EC00EF00F200F500F700FA00FD0094
:104F840000010301060109010B010E0111011301C6
:104F9400160119011B011E0120012301250128010D
:104FA4002A012C012F0131013301350138013A0165
:104FB4003C013E01400142014401460147014901CF
:104FC4004B014D014E015001510153015401560151
:104FD400570158015A015B015C015D015E015F01EB
:104FE400600161016201630163016401650165019E
:104FF400660166016701670167016801680168016C
:105004006801680168016801680168016701670156
:10501400670166016601650165016401630163015D
:105024006201610160015F015E015D015C015B0180
:105034005A015801570156015401530151015001BD
:105044004E014D014B014901470146014401420112
:1050540040013E013C013A0138013501330131017F
:105064002F012C012A0128012501230120011E0101
:105074001B0119011601130111010E010B01090194
:10508400060103010001FD00FA00F700F500F2003B
:10509400EF00EC00E900E600E300E000DC00D900EA
:1050A400D600D300D000CD00CA00C700C400C100A0
:1050B400BD00BA00B700B400B100AE00AB00A70059
:1050C400A400A1009E009B009800950092008F0010
:1050D4008C008800850082007F007C0079007600C7
:1050E400730071006E006B006800650062005F0071
:1050F4005D005A005700550052004F004D004A0011
:1051040048004500430040003E003C0039003700A1
:105114003500330030002E002C002A002800260021
:105124002400220021001F001D001B001A0018008B
:105134001700150014001200110010000E000D00DD
:105144000C000B000A000900080007000600050017
:105154000500040003000300020002000100010036
:10516400010000000000000000000000000000003A
:105174000000000001000100010002000200030021
:1051840003000400050005000600070008000900EC
:105194000A000B000C000D000E001000110012009C
:1051A40014001500170018001A001B001D001F0032
:1051B400210022002400260028002A002C002E00B2
:1051C400300033003500370039003C003E00400019
:1051D4004300450048004A004D004F00520055006E
:1051E40057005A005D005F006200650068006B00B4
:1051F4006E0071007300760079007C007F008200ED
:10520400850088008C008F009200950098009B0018
:105214009E00A100A400A700AB00AE00B1000000F6
:105224002800000001050501D00790014600140084
:10523400D007CF07CF0728002800C80002010A00C2
:1052440078009F000100DC05D0074A016400DC05FA
:105254006C074C04B40064192800D0071E10060221
:1052640000F0000000000000010000000000000049
:1052740032000000000000000000000000000000F8
:10528400000000001027000050C3000000000000D0
:105294009001000000000000E8030000000000008E
:1052A400000000000000000000000000204E00008C
:1052B400A0860100000000000A00000000000000B9
:1052C4006400000000000000000000000000000076
:1052D400000000001027000050C30000E803000095
:1052E400102700000800000150C32000204E0000D9
:1052F400FA0000004E030000C50000009B000000FF
:1053040085000000770000006C00000064000000CD
:105314005D00000057000000520000004D00000036
:105324004900000045000000420000003F0000006A
:105334003C0000003900000036000000340000008A
:10534400320000002F0000002D0000002B000000A0
:1053540029000000270000002500000023000000B1
:1053640022000000200000001E0000001C000000BD
:105374001B000000190000001700000016000000C8
:105384001400000013000000110000000F000000D2
:105394000E0000000C0000000B00000009000000DB
:1053A40007000000060000000400000002000000E6
:1053B40000000000FFFFFFFFFDFFFFFFFBFFFFFFFB
:1053C400F9FFFFFFF7FFFFFFF5FFFFFFF2FFFFFF0E
:1053D400F0FFFFFFEDFFFFFFEAFFFFFFE7FFFFFF27
:1053E400E4FFFFFFDFFFFFFFDAFFFFFFD4FFFFFF54
:1053F400C9FFFFFF9BFFFFFF070000001A4A08B523
:10540400137823F00803137000F0EAFC17491848D6
:10541400184A098800881368014403EB51035B08A8
:105424001360154B116893F82F30D3B9134B1B78C5
:1054340012684B439B0912499BB20B80C3EB520386
:10544400104A1380104B93F900300BB900F0C4FCE0
:105454000E4A136842F20F718B429CBF01331360F2
:1054640008BD0B4BE3E700BF008004400814002094
:10547400061400200000002010150020FE14002057
:105484002C14002002140020E70200200C14002039
:10549400FC14002070B5114D114E00242B78A3424A
:1054A40014DC72B60F4C00F08FFC0F4B22881A806C
:1054B40000F09EFC2080002000F0B6FC0B4B188806
:1054C400013080B200F0A4FC62B670BD00F094FC20
:1054D40096F900309842F8D00134DFE7E502002065
:1054E400E402002006140020081400200214002006
:1054F4002DE9F84F774BDFF86C82774D1B882B80B2
:10550400B8F80030754ADFF860B2DFF860A2744E74
:10551400744F754C0133A8F800301388013313809D
:10552400BBF800303A780133ABF80030BAF80030F9
:105534000133AAF80030337813435AB2002B32D126
:105544006A4803787BB36A4B6A491B88002B40F096
:10555400BC800A88013292B244F6206C62450A800B
:1055640021D9654A12881E2A40F2AC800122327089
:1055740094F82420012A40F0A280604A4FF4B971C3
:105584001288B2FBF1F299463A7097F900204A4525
:1055940000F389805A4B5B4A1B78127813435AB242
:1055A4000BB984F82620E07F90B1574B57491B78FC
:1055B4000A88013B0132034492B203EB8303B2EB4A
:1055C400830F0A8004DD524B01221A7000230B80E2
:1055D400504B93F90030002B40F04F814E4B4F4F0E
:1055E40093F90030BBB13B78ABB100F0EDFB00F0B8
:1055F400FBFB4B4A137873B94A494B4B91F90010A2
:105604001B78002963D049490978994203D20123C0
:10561400137000F0DDFBBAF8003097F80090142BFB
:1056240040F2C980424B01221A700023AAF80030CC
:10563400404B93F900300BB3B9F1000F1ED094F82E
:105644002C203D48C8235A433C4BB3F9001000F0CA
:10565400B3FB3B4A3B4942F2107390FBF3F01388CF
:1056640009881B1A1BB28B421380BCBF0BB2138078
:10567400B3F5FA6FC4BF4FF4FA631380637F002B52
:105684007AD0B9F1000F77D02F4B30481968304BDE
:105694001A8800F091FB2F4B1A6810442E4A90424E
:1056A40066DD1A6068E000F0B7FB642000F0ACFB34
:1056B4002A4B4FF0FF31D96009F1010965E700F089
:1056C400ABFB67E703700B806DE70A806BE7244947
:1056D4009AE700BFCA140020041400200415002017
:1056E4001A140020DB1400201015002012140020CE
:1056F4009C140020E414002018140020DC14002062
:1057040010140020111400201C030020DE140020BB
:10571400A114002025140020E70200202E140020EC
:105724000B140020E40200200A14002006000020CC
:10573400A2140020EC1400204C030020CE140020FE
:1057440008030020F80200200000002024030020A9
:1057540016030020E814002060E316000030044023
:1057640005000020D8140020021500200015002098
:10577400002840F3888018607D4B93F90030D3B142
:10578400B9F1000F17D07B4B7B481A887B4B196803
:1057940000F012FB7A4A7B491368034423EAE3735B
:1057A4008B42D4BF13601160774B1B68632B9EBF81
:1057B400714A00231361754BBBF800201B78DFF896
:1057C40014A29A42BAF8001067D90023ABF800304B
:1057D4006D4B1B68952B01D9952956D86C4B1B78BA
:1057E4006C4ADBB213702A88501A9842C4BF5A1804
:1057F40092B2A1EB0200C8BF2A80834202DACB1A1C
:105804009AB22A803378DFF8D0B16349002B56D09E
:10581400B9F1000F00F08880604B1B882F2B51D901
:105824005F4B187800283BD000221A705D4B227D14
:105834001A702B88AAF800305B480B885B4A5C49D5
:1058440003610B6113618469BBF8003063F31F4487
:105854008461C46963F31F44C461886963F31F40AE
:105864008861C86963F31F40C861916963F31F418C
:105874009161D16963F31F41D1614E4A13880133A9
:105884001380BDE8F88F00220BE74B4B1B68B3F580
:10589400FA7F8CBF494B4A4BA1E729800A46B1E7FE
:1058A40040F2B273934228BF13460A8853434FF41D
:1058B400FA62B3FBF2F30133ABF80030B9E7B9F1A4
:1058C400000F31D0354B1B882E2B2DD8637B012B39
:1058D4000BD1344800240470314803700B885343BF
:1058E4004FF4FA62B3FBF2F3E6E7022B03D12D483F
:1058F40001230370F0E7D81E0628EFD82848314C5E
:1059040006783EB9023B237044F62063A8F80030C1
:105914000123E2E72378002BFAD10478012C02BF9B
:10592400194C3B702360F3E7274B93F9003053B1D4
:10593400264B0A881B882648534393FBF0F31A44EA
:10594400ABF8002075E7207F0228C7D13378002BFD
:10595400C4D000F035FA1049237B0A8853434FF42E
:10596400FA62B3FBF2F303EB83035B002833A3E790
:10597400F4140020F614002074030020B014002056
:10598400F0140020F05838010C14002009150020F0
:105994001F030020FC020020F40200201614002043
:1059A400FB140020ED14002000C0044000E004407B
:1059B40000D0044000140020B81400201E0300206E
:1059C4001D030020FA140020A01400200615002056
:1059D40030F8FFFFCC1400201E14002010B5184C22
:1059E400238F43F02003238700F03EF9154B16491B
:1059F4001A7C22F001021A740A7F22F004020A7748
:105A04001A7822F001021A704FF0FF325A609A603D
:105A14000E4A918D21F01001918500211160B4F896
:105A240084200B4942F02002A4F884200A7942F031
:105A340001020A711A7842F001021A7010BD00BF07
:105A44000000014000B00440000004400020054074
:105A540000400440034B1B78034B00221A70FFF7ED
:105A6400BDBF00BF101400202C17002008B500F0A3
:105A74003BF91A4B1A7822F001021A70184A12885C
:105A8400510859609A601A7C42F001021A74154A4E
:105A940000211160D160918D41F001019185918DBA
:105AA40041F01001918510490A7F42F004020A77FF
:105AB4000E4A918E41F020019186B2F8881041F08F
:105AC4002001A2F888100A490A7942F001020A71F9
:105AD4001A7842F001021A7008BD00BF00B00440F9
:105AE400A6030020002005400000044000000140FF
:105AF40000400440024B01221A70FFF7B7BF00BFF9
:105B04002C1700200A4BDA6B12050FD5B3F844208A
:105B140042F40062A3F84420A3F5503301211A6A29
:105B240061F315521A624FF480629A63704700BFA2
:105B340000500440FFF7DCBC4FF08043012282B0E8
:105B44009A620E4A0020D96E890601D102B07047CC
:105B54000190019909290CD9196FC1F30B01118026
:105B6400196FC1F30B015180196FC1F30B019180BF
:105B7400E9E700BF019901310191EAE72617002006
:105B84001D4B93F900201B78062B33D80123934037
:105B940013F0480F21D113F0240F11D113F0120F79
:105BA40028D0164BD3F88020500623D54FF0FF326F
:105BB400C3F880201B6E13F0400F1BD0FFF76ABCA4
:105BC4000E4BD3F88020D10614D54FF0FF32C3F822
:105BD40080201B6E13F0100FEFE7084BD3F88020E2
:105BE400920607D54FF0FF32C3F880201B6E13F0E6
:105BF400200FE2E7704700BF0400002000100140BE
:105C0400034A137B43F001031373FFF7F7BB00BF91
:105C14000080044008B5074B4FF0FF325A6000F093
:105C2400B9F800F0FDF8044B4FF40022C3F8042146
:105C340008BD00BF00B0044000E100E008B5054B1A
:105C440000225A6100F0ECF8034B4FF40022C3F831
:105C5400042108BD0020054000E100E04FF080432E
:105C640002229A6200F0CCB81A4B4FF4003210B5FD
:105C7400C3F88020BFF34F8FBFF36F8F4FF40052F0
:105C84001A600021144A83F80D13138D61F30C3349
:105C94001385124BD3F8880061F391301049C3F88F
:105CA40088000978D3F88800013961F30D10C3F82E
:105CB4008800D3F88800012464F30200C3F8880044
:105CC400084800EB8101C3F88410138D43F48073FA
:105CD400138510BD00E100E00040044000180020DE
:105CE400AA030020F00F00201A4B4FF40052C3F80F
:105CF4008020BFF34F8FBFF36F8F4FF400321A60D1
:105D04000021154A83F81113138D61F308231385B9
:105D1400124BD3F8C80061F39130C3F8C800D3F82C
:105D2400C810152060F30D11C3F8C810D3F8C810BB
:105D3400012060F30201C3F8C81009490878094931
:105D4400153001EB8001C3F8C010138D43F4805368
:105D54001385704700E100E0004004400018002073
:105D6400B8040020E0150020074B08491B78084AB6
:105D7400013B01EB8301C2F88410D2F8881063F36D
:105D84000D11C2F888107047AA030020F00F0020FC
:105D94000018002006480749202350F8042B013B33
:105DA400D24313F0FF0341F8042BF6D1704700BF30
:105DB400F00F0020F00E00205FF800F07D110000CD
:105DC4005FF800F0C74200005FF800F0793D000082
:105DD4005FF800F0052200005FF800F0C93D000004
:105DE4005FF800F0651600005FF800F01D16000073
:105DF4005FF800F0DD4800005FF800F02D3D000082
:105E04005FF800F09D2000005FF800F0013300000F
:105E14005FF800F0014900005FF800F091390000DC
:105E24005FF800F06D3600005FF800F0F148000004
:105E3400000000000000000000000000000000005E
:105E4400000000000000000000000000000000004E
:105E5400000000000000000000000000000000003E
:105E6400000000000000000000000000000000002E
:105E7400000000000000000000000000000000001E
:105E8400000000000000000000000000000000000E
:105E940000000000000000000000000000000000FE
:105EA40000000000000000000000000000000000EE
:105EB40000000000000000000000000000000000DE
:105EC40000000000000000000000000000000000CE
:105ED40000000000000000000000000000000000BE
:105EE40000000000000000000000000000000000AE
:105EF400000000000000000000000000000000009E
:105F0400000000000000000000000000000000008D
:105F1400000000000000000000000000000000007D
:105F2400000000000000000000000000000000006D
:105F3400000000000000000000000000000000005D
:105F4400000000000000000000000000000000004D
:105F5400000000000000000000000000000000003D
:105F6400000000000000000000000000000000002D
:105F7400000000000000000000000000000000001D
:105F8400000000000000000000000000000000000D
:105F940000000000000000000000000000000000FD
:105FA40000000000000000000000000000000000ED
:105FB40000000000000000000000000000000000DD
:105FC40000000000000000000000000000000000CD
:105FD40000000000000000000000000000000000BD
:105FE40000000000000000000000000000000000AD
:105FF400000000000000000000000000000000009D
:10600400000000000000000000000000000000008C
:10601400000000000000000000000000000000007C
:10602400000000000000000000000000000000006C
:0400000300004CA10C
:00000001FF
