:101000006F401004130000001300000013000000E4
:101010001300000013000000130000001300000084
:101020001300000013000000130000001300000074
:08103000130000007300100022
:101038000010000000000000AA4E0000AC4E0000A6
:1010480000000000D8570000000000000000000069
:10105800DA570000DC570000000000000000000024
:101068005C50000000000000165100000000000065
:10107800E2570000E4570000E6570000E857000078
:10108800EA570000EC570000EE570000F057000048
:10109800F25700006C500000AC500000AE4E00004B
:1010A800FA570000FC570000FE570000D24E00001F
:1010B80002580000544F000006580000085800006D
:1010C8000A5800000C5800000E5800001058000084
:1010D8001258000014580000165800001858000054
:1010E8001A580000EC5000001E580000205800005C
:1010F80022580000245800002658000028580000F4
:101108002A5800002C580000F04F0000305800000A
:101118003258000034580000365800003858000093
:101128003A5800003C5800003E58000000000000FB
:081138000000000000000000AF
:10114000397101436EC619A0397141536AC866CA24
:1011500062CC5ECE19A0397101535AD056D252D406
:101160004ED64AD826DA22DC06DE3301614082827E
:1011700041114AC026C222C406C68282B24D410134
:10118000024D924C224CB24B4101024B924A224AF0
:10119000B2494101024992442244B2404101828055
:1011A0003D432A876373C3029377F700BDEFADE534
:1011B000937606FF3D8ABA960CC34CC30CC74CC746
:1011C0004107E36BD7FE11E28280B306C3408A0673
:1011D0009702000096966780A6002307B700A30633
:1011E000B7002306B700A305B7002305B700A30483
:1011F000B7002304B700A303B7002303B700A3027B
:10120000B7002302B700A301B7002301B700A30072
:10121000B7002300B700828093F5F50F9396850001
:10122000D58D93960501D58D61B7939627009702CA
:10123000000096968682E78086FA9680C1171D8FF9
:101240003E96E374C3F8A5B71845918D1C493387C2
:10125000E5020CC13E971C5118C963D3E7001CC9B5
:101260001849B307F0406353F7001CC91C4D5041A7
:101270005845B387F5400CCDB385C5021049B387F7
:10128000E702B295BE955CC95C514CCD63D3B70003
:101290005CCD584DB307F0406353F7005CCD484D2B
:1012A0008280EFF25FEB83A50182138541BA1306BA
:1012B000000CEF30E044938741BA83C717000D4715
:1012C000138441BAFD1793F7F70F636BF700834759
:1012D00024001307D00FFD1793F7F70F637CF70077
:1012E0003145EF302002B707EFBE37E700E09387C4
:1012F00007083CC703471400894763E3E7049307E3
:1013000000FAA302F40085472303F400A94723044D
:10131000F40093074006A304F400A305F400930728
:101320002003A307F4009547A3030400230504004A
:1013300023060400A3060400230704002308F40086
:10134000834674021306D00F1387F6FF1377F70F47
:10135000938741816373E63C7D57A303E4023D47D5
:101360002380E7000347E400854763F4E700230791
:1013700004008347F4001307900FFD1793F7F70F4E
:101380006376F70093072003A307F4008347040163
:101390001307900FFD1793F7F70F6375F700954745
:1013A0002308F4000347D400A54763F4E700A3062D
:1013B00004000347E4002384E18A034714018547BE
:1013C00063F4E700A308040003472401854763F49E
:1013D000E7002309040003473401854763F4E7006D
:1013E000A309040003474401854763F4E700230A87
:1013F000040003476401854763F4E700230B0400FE
:101400000347F402854763F4E700A3070402034798
:1014100044019306800C238EE1B00347F400B70724
:1014200000203307D70223A4E73683470401B3879C
:10143000D70223A2F180834774011307A0026369D6
:10144000F7001387C7FF1377F70F954663E5E600AC
:10145000C146238AD1B80D47636AF7008E0793F718
:10146000F70F238AF1B8A907A30BF400834774018F
:1014700013070002D91793F7F70F6364F700238A65
:10148000F1B88347840193068008138787FF137799
:10149000F70F63E7E62813074006B387E70219470B
:1014A00033C7E702B7370C0093870737B3C7E702A4
:1014B000C207C1832394F180373701402316F7C256
:1014C000834664001306100381471387F6FF1377E2
:1014D000F70F6365E600A947B387F6028346040366
:1014E000239EF1821386F6FF1376F60F93053006DE
:1014F0009389C1831387618363FDC5229306007DB1
:101500002310D7000346940193054006BE861307B7
:10151000E6FC1377F70F63E4E500B386C700938713
:1015200007192399F1848347A40113078002B38725
:10153000E702239DD1827947138AA18313892185EC
:10154000D107239FF1828347B4019384E183F91784
:1015500093F7F70F6375F700B947A30DF40009453A
:10156000EF20702F83471400638E07260345E401A4
:10157000AD4763F3A7001545EF20F02D8347040224
:101580009387771786072395F184834714029387FF
:10159000B73686072394F184834724029387E7555F
:1015A0002396F184034734022383E1848347540262
:1015B0009387A70F2396F182834784025147ED1743
:1015C00093F7F70F6375F70095472304F4028347F9
:1015D00094022547FD1793F7F70F6375F700A947A6
:1015E000A304F4028347A4022147FD1793F7F70FE2
:1015F0006375F700A9472305F4028347A402254732
:101600006363F7065957B387E70203A781819306FF
:10161000800CBA97938767F993F7F70F1387C18107
:1016200063E1F6122300F7008347070003570A001F
:101630003E972310EA0003D709003E972390E90064
:101640001387C18583560700BE962310D700035722
:1016500009003E972310E90037370140835647C4FD
:10166000D58F2312F7C48347B4021307600493870E
:10167000A7FB93F7F70F6375F700FD57A305F40277
:101680008347C40213073006FD1793F7F70F63650E
:10169000F70005472384E18E03479400B707002035
:1016A000938707000607D8C30347A40098C70347DA
:1016B000B4000607D8C78347D4022547FD1793F720
:1016C000F70F6375F7009547A306F4028347E4021A
:1016D00025476361F70A0547638FE706B5C7894663
:1016E0006380D70891466380D708938741BA83C740
:1016F0005700938541BA25481386418393863183E9
:1017000013872183636EF806238A01B12300F60054
:101710002380F6002300F70049A82380D70099B161
:101720001307F07C239FE184B73701402396E7C27B
:1017300041BB5146B386C602E3F4F6DC2310F70042
:10174000D1B3930780FCF9BDA384018A2386018C61
:101750002388E18E59BFA384F18A2388F18E71B763
:101760002386E18C59B7A388E18E2388018EA38458
:10177000E18AA5BFA384018A2386018C0547C9BFDE
:10178000238A01B02945B3D7A7020345060063F4B5
:10179000A7002300F60003C6060063F4C7002380F9
:1017A000F60083460700E3E7D7F683D70400130764
:1017B000B0126364F7002388018203C7B501930662
:1017C0000002B3C6E6021307400633D7E7023347E9
:1017D000D7022397E1823147B3D7E702B3C7D702D5
:1017E0002395F18203D5040005661307401F930675
:1017F000803E130686BB9305C012EF20E02203470C
:1018000024012391A18411C71307803E23A0E1B2D4
:10181000ADBA1307007DDDBFEFF29F9503A60182ED
:101820009305000C138541BAEF20D062A5B29386D0
:10183000818C03C706001386418E93151700138809
:10184000C1B283D781880842C29503D805003E956E
:101850002390F500330505419307170008C293F75D
:10186000F70F13071003636DF7002380F60093074B
:1018700020033355F50242054181239AA18C8280D1
:1018800023800600EDB7EFF2BF8EEF20904E8387E6
:10189000518489CB09E983C7A1B18507238DF1B0B4
:1018A0006FF05F8F6DF91387818983470700850784
:1018B00093F7F70F2300F70003C7C180E372F7FE29
:1018C000238D01B0F1BFEFF2BF8A83867182054696
:1018D00083C741851387518413844185639BC60662
:1018E0008507E207E18719466340F6062300F40006
:1018F000830704008946B3E7D7022300F70089670E
:1019000093870780739007808387518C89E703054D
:101910000400EF30203A89679387878873900780A7
:10192000EF20B049238D01B02386018E83A601816B
:1019300083070400FD171397170093878191BA97C7
:101940002390D7006FF01F852300D400A382D18A93
:1019500045B7FD17E207E187635AF0002300F40062
:101960008347040093C7F7FF858B41BF9947230046
:10197000F400A382C18AEDB7EFF28FFF3707004072
:101980008357C740C207C183F99BC207C18323168F
:10199000F740153F83D701BA83D561B9938601819A
:1019A0009042AE978587B29785839CC21387018149
:1019B00083C731BD1443A9E383C741B9B387D702B5
:1019C000184305839983C207C1832398F188B3071D
:1019D000F7402395F18E8387018499E3EF20F03B54
:1019E00083A741C609671307F7706365F70085078A
:1019F00023A2F1C66FF00FFA83C741B2C1B7EFF26D
:101A00002FF7014483C76182634EF404096493078E
:101A1000048073900780EF20D03683D661B9130419
:101A200084882390D1BAB717004083D64782239B7E
:101A3000D1B823920782B70700402392074203D709
:101A4000A18E0507420741832396E742239807406A
:101A500003D7C740136717002396E740731004802D
:101A60006FF04FF3EF20F03083875184E30AF5FEE7
:101A7000050449BFEFF2CFEF1384A18C8347040024
:101A80008DE3913589679387077123A8F1800567F6
:101A9000B7170040130787382392E7828547230052
:101AA000F400EF20902F6FF0EFEEEFF2EFE9938765
:101AB00041BA83C72701938441BA1384018C938A66
:101AC000C18D638907568387918A9389918A638937
:101AD000071083C76402639C0744835704001307FD
:101AE00070416375F7068386718203C7140193877B
:101AF0007182639FE60283A6018103D62184637805
:101B0000D60003D6C18A9306700C63F6C60083869E
:101B10000A00638B065085463387E6402380E70042
:101B200023A201C62380D184EF20B025238D018814
:101B300003570400A167938787BEBA970387418440
:101B40008607998F9387F7022397F18883570400BC
:101B500013077041636BF706835704001307F00205
:101B60006375F70683C61401038671820547158FD6
:101B700093877182631DE60203A7018103D6218446
:101B80006378E60003D6C18A1307700C6376C7003A
:101B900003870A00630D074823A201C60546238078
:101BA000D7002380C184EF20D01D238D01880357E7
:101BB0000400A167938707FDBA97038741848607CE
:101BC000998F9387F7022397F188835704001307AF
:101BD000F0026363F71223970188238D018829AAF5
:101BE00083C5618483C764021389618486059385F4
:101BF000853E638507208357040063DBF504138764
:101C0000718283C61401030607009387518C631EFB
:101C1000D6020385918C2397018885462380D700BF
:101C200005C9918E2300D7002380070003550400C7
:101C30001307F07F9306F0021306007DA384018C46
:101C4000EF10905E2397A18821A083870700F9DF1A
:101C50000346090003570400931716001306803E3D
:101C60001D8E635BC70483C614011387718203084A
:101C7000070085453385D5409387518C631BA802A7
:101C80002380B7008385918C2397018895C5230015
:101C9000D70023800700035504001307F0029306C2
:101CA000F07F8145A384018CEF1010582397A18801
:101CB00021A083870700E5D38347090083560400EA
:101CC0001307803E86071D8F63C4E6020357040096
:101CD0009387873E63CEE700239701889387518CD3
:101CE0000387070011C7238007000547A384E18C01
:101CF00083870900E39F07DC138991890347090063
:101D00008387D18063DDE73283C76401638907324B
:101D1000EF201079EF20F0062398018A93076006E0
:101D20002300F90083870A00639C074883C7218941
:101D3000E207E1876386074883C73401130700057C
:101D4000B387E70203D7018B9389518C138A018BE8
:101D5000138BA18C1389E18A9387E70263C9E73E5D
:101D60008387418C938B418C6393074603C744015F
:101D700083470B00631F07522310090081EF0547BB
:101D80002380E18423A201C683C7C401638C074674
:101D9000EF20B07883C7640263800742838709001D
:101DA0006399074603570A009307E00263ECE75C78
:101DB00083D7E1818356090063F4D7002310F9002B
:101DC0008387818E89CB839701868356090063D4EC
:101DD000D7002310F90083A7818D6353F03E93064B
:101DE000F00263FFE63C096713070771B3C7E70218
:101DF00003570900BA972310F900D9A683570400A6
:101E000063D8F5068386718203C7140193877182B4
:101E1000639FE60283A6018103D621846378D600FE
:101E200003D6C18A9306700C63F6C60083860A0047
:101E30006385060E85463387E6402380E70023A2AC
:101E400001C62380D184EF20C073238D0188834590
:101E50000900035504001307F07F86059306F0027E
:101E60001306007D9385853EEF10103C2397A188D3
:101E70008347090083560400139717009307803E99
:101E8000998F63D7F60683C61401038671820547CE
:101E9000158F93877182631CE60203A7018103D625
:101EA00021846378E60003D6C18A1307700C63753A
:101EB000C70003870A003DC723A201C60546238049
:101EC000D7002380C184EF20C06B238D0188834716
:101ED0000900035504001306803E86071D8E130774
:101EE000F0029306F07F8145EF1010342397A1880C
:101EF00083470900835604001307803E86071D8F21
:101F0000E3C8E6DE035704009387873EE3C2E7DEBB
:101F100023970188238D0188E1BB9307803E23101E
:101F2000F40035B79307803E2310F4004DB7835774
:101F3000040013077041637DF7041387718283C621
:101F40001401030607009387518C6310D604838520
:101F5000918C2397018885462380D70095C9918E5F
:101F60002300D7002380070003570400A384018CBB
:101F7000A167938787BEBA97038741848607998FA5
:101F80009387F7022397F18821A083870700E9DF71
:101F900083570400130770416364F70683570400F6
:101FA0001307F002637EF70483C61401138771825E
:101FB000030507000546B305D6409387518C631E81
:101FC000B5022380C7000386918C239701880DCA30
:101FD0002300D7002380070003570400A384018C4B
:101FE000A167938707FDBA97038741848607998F76
:101FF0009387F7022397F18821A083870700E9DF01
:10200000835704001307F002E368F7CE2397018893
:102010009387518C03870700E30007CE23800700D6
:102020000547A384E18CC9B92310040011B623101D
:102030000400B5BE035704002397E18875B983C730
:102040003401B5C303D5E18875471389E188636816
:10205000A7022398018A83C58402D147035509004A
:10206000B385F502E340B5CC1307F07F9306000A71
:102070001306F07FEF10501B2398A18A65B1F94732
:10208000E30BF5FC03C68402D1473306F602E354A2
:10209000C5FC1307000A9306F002F945EF10D018AB
:1020A0002398A18A4DBF8387918E1389018BC9CF55
:1020B00083C7818A9389418BA9CFB707002003A7E3
:1020C0008736138AE18883A6418003550A001306E8
:1020D000F07F9305F002EF103015B78793039387D5
:1020E000077033C5A70283C7B40103570A0085836D
:1020F0003345F502239FA18C9307E00263EBE700D1
:10210000B70700202310090023AC072E23A00900E5
:1021100011B983A70900096713070771B3C7E7025D
:102120001307F07FC207C1832310F9006377F7001C
:102130009307F07F2310F900F5B61307F002E3636D
:10214000F7BE93070003FDB783D7E188E5B7834760
:102150000B0099EFEF20D0348387018499E3EFF0EF
:102160007F9185472300FB0003D7A183239DE18A4C
:1021700083D6C18303D7618383C7340103550A0023
:10218000B1C3938686021306F07F93059008EF1083
:10219000B00983C764022310A90099E323800900D2
:1021A00083C7340113070005B387E70203570A000A
:1021B0009387E702E3D6E7BA83870900E38407BE83
:1021C0006FE01FFC1306F07F9305F002C9B7FD17FF
:1021D00093F7F70F1147636BF7001D678A07130723
:1021E00087A1BA979C438287EF10307C23800B0035
:1021F000B5BEEF202002DDBFEF208008C5BFEF1085
:102200001068EDB783870900E39607B8EF205029DF
:1022100051B6138B918A83070B00938A618C85CF0B
:102220008357040013077041637DF704835704004C
:1022300013077041637EF70203570400A167938779
:1022400087BEBA97038741848607998F9387F702E1
:102250002390FA0031A8835504001305803EEF1047
:10226000500083070B001305853E2390AA00CDFB89
:1022700003D70A009307E07C63FAE702EF20F02916
:1022800025BF835704001307F002E371F7FA0357E1
:102290000400A167938707FDBA97038741848607E7
:1022A000998F9387F7022390FA0049B7EF20E066F1
:1022B00021B79DEF05472380E18403C4C40123A215
:1022C00001C6238C018859CC83C7340195E3854727
:1022D0006310F40283C794021307800CB387E702EC
:1022E0002393F18C1307E07C6379F706EF20F0224B
:1022F000838741851307C00313067016FD17B38744
:10230000E70203D74182BA97C207C18393960701B8
:10231000C186634CD6042393D1B083D761B0130632
:10232000701613877707420741876345E6042391B8
:10233000E1BA1387F70E4207418713067016634E02
:10234000E602239FE1B883C7340105476394E700A1
:102350002380FA002310090085B5EF20005C23805C
:10236000890079B7EF20D01361B7938787E923936A
:10237000F1B065B71387F7F05DBF938777F8239FB8
:10238000F1B8D1B783C6D401F947B3D7D74083A6F4
:1023900041C6E3FFF6A083D7A1838356090063F407
:1023A000F6002310F90083D7218583560900E3F155
:1023B000D7A02310F900EDBAEFE29FDB9387C18924
:1023C00083C7070005471384C1896316F700EF1020
:1023D000000D230004008347040009476318F70237
:1023E00083A701B1416563C9A7007D15EF10604463
:1023F000230004006FE01FDA9387470663E4A70019
:102400009307F5FF139507014181CDB7EFF0EFE991
:10241000D5B7EFE27FD38386718283D761B06394AF
:1024200006108507C207C1879306701663CBF602B4
:102430002393F1B083D721BA930670168507C2079C
:10244000C18763C3F6022391F1BA83D7E1B993063A
:1024500070168507C207C18763CBF600239FF1B8CA
:1024600009A8239301B0F9B7239101BAF9BF239FBB
:1024700001B8839761B037040020130484028607F3
:10248000938A8182A2970395070083D70A00138A53
:1024900081803E9583570A00930B007D3305F5023A
:1024A000938941BA83C7D902294B33457503330554
:1024B000F5023345650342054181EF30E00C839717
:1024C00021BA8607A2970395070083D70A003E9595
:1024D00083570A003305F50283C7D90233457503D4
:1024E0003305F5023345650342054181EF30600A4B
:1024F0008397E1B986073E940315040083D70A0049
:102500003E9583570A003305F50283C7D902334548
:1025100075033305F5023345650342054181EF300C
:10252000E0076FE0FFC5FD17C207C18763C7070259
:102530002393F1B083D721BAFD17C207C18763C1C6
:1025400007022391F1BA83D7E1B9FD17C207C1870A
:10255000E3D607F09307701611B793077016C9BF3B
:1025600093077016F9BFEFE2BFC0B716004083D7DC
:1025700046820D46139707014183239BE1B82392BE
:102580000682938601819C4213840181B387C7022E
:1025900003A641C69145BA9789839CC2984283C7D6
:1025A00041B9B387E70299831397070141832398C1
:1025B000E1889C42B71600408583998FC207C1838A
:1025C0002395F18E03D746826374F700E3ECC5FED2
:1025D000EFF06FAF238D01B0238C018883A741C634
:1025E00083C641BA850723A2F1C691CA094763761B
:1025F000F70023800184EF10507A6FE0BFB9138792
:1026000041BA8346D70103476702558F11CB4D4727
:10261000E375F7FE18409307007DE3E0E7FED1BFC6
:10262000184083A701B2E1B7EFE21FB283D7E18A76
:102630001387018E2396F18A83570700850723109D
:10264000F7009387C18B03D7070005072390E700A6
:1026500083D721B01387218C85072391F1B083574D
:1026600007009384C18A938A018E85072310F7009F
:102670009387218983C7070003C7B189138A218CF7
:10268000138B2189D98F138441BAC9E39386218B97
:1026900083C70600E207E187B5CB83D7E18863965D
:1026A000072C83D7A1AF1566130606E28507C2077C
:1026B000C183239DF1AE637BF60403D6E18EF94717
:1026C00063F3C72A0347440285472300FB0085477D
:1026D0006318F72883D701B0130720179389B189AE
:1026E000B3D7E7022D6C814BB73C0040130CACAA6A
:1026F0002380F9008387090063CAFB2483C7C18C48
:1027000003C7918AD98F99E3230304020346F40196
:1027100015C683C7818503D761B1FD17B2975146AE
:10272000B387C702050742074183239BE1B063D704
:10273000E7000547A385E18C239B01B08387C18D0A
:10274000639D071E838701849389A18C9DCB83C7DA
:10275000090085CBEF10F062EFF0EF9203C7C18E56
:102760009387C18E19EF8386518403C7A1B163811A
:10277000062083C6918363F6E60005472380E700C1
:10278000DD3303570A00D14763FAE70E0547A385F7
:10279000E1888387818E23100A00ADC383C70900B7
:1027A000B1CF0346C4029307800C370500203306DF
:1027B000F6028395C18813050500EFE0FFA80967BD
:1027C000130707713345E5029386018603D7060098
:1027D000938701863305A740420503D7C18341850E
:1027E0002390A6006354E5002390E700839607003A
:1027F0001307007D6354D7002390E7008347D4017B
:102800008DCB83C7090095C783A5018103D60185B8
:102810003705002013050532EFE01FA39387818D54
:1028200098433A9537E71600130707366355A71400
:1028300098C38387918EB9C383C70900A1C303D608
:10284000E18D83A501B1370A002013058A2FEFE03F
:10285000BF9F9387418B98433A9537673801130799
:10286000078F6351A71298C303A741C69307300689
:1028700063E6E700130A8A2F23280A0003C741B141
:1028800083D621B083D7A18B938BA18B6374D7049C
:1028900003A641C6239101B0930650091387118303
:1028A00063F4C60063E7F60E83C641832300D700B6
:1028B00083D60400034707009D8E6356D700B38676
:1028C000E7002390D40083D60400B386D740635535
:1028D000D700998F2390F40083470B0083D6040020
:1028E000E207E18703C709001389E1856384070EC6
:1028F0006305071603D7018B9307F00263FDE70C0E
:1029000083C751B993F7F70FCDC3A38A01B8034723
:102910004401238EE1B083D70400035709002390BC
:10292000FB00B73701402396E7C203D741B0239A93
:10293000E7C2239CE7C2239EE7C29387E18C03D7BB
:10294000070005072390E7006FE09F83EF10807C6E
:1029500013054006EF102014850B23A08C0159BBF2
:10296000EF10407B61BB23800600239D01AE79BB45
:1029700083C6818309B56354A00088C35DBD23A0CD
:10298000070045BD6344050088C3F9BD23A00700C7
:10299000E1BD03A641899306401F63F5C60083C6C7
:1029A000318329B783C6218311B71307207BB687EC
:1029B0006374D7009307207B03570900C207C183C4
:1029C000B387E7021307007DB3C7E70285072392A9
:1029D000F1B091B759C303D7018B9307E00263EEBF
:1029E000E7068347D40005466397C700238E01B0EE
:1029F000A38AF1B801A80947639FE700238EC1B0FD
:102A0000A38AC1B8835709001307007DB387D70293
:102A1000B3C7E7026DBF1387D7FF1377F70F994549
:102A2000E3E2E5FE83C551B993F5F50F99E9F9178E
:102A3000A382F1B29567938707E22390FA00854756
:102A400045BF83C751B2E5FF83C751B9E319F6FE0D
:102A500023A201C623800900DDB78387518C89CF6B
:102A60000357090083D7618C93060083B387E7027D
:102A7000B3C7D702BA97A1BF0347C4018947E3137D
:102A8000F7F883470B00E207E187ADDF0945EF2048
:102A90006022035709008347C400B387E702130786
:102AA000007DB3C7E7022947B387E7029387870210
:102AB00039BFEFE2EFE8BD673707000813070700EB
:102AC00093870700BA97011123A0F182EF20904766
:102AD000BD654146938505FE0808EF1070428306E8
:102AE00041011307800393878181639DE66E13077D
:102AF000800298C3984393170701C1832394F182FE
:102B0000239EF1822397F184238EE180EF20E06001
:102B1000EF20B024EF20302BEFE0AFF8938741BADD
:102B200003C7370089471389C183138AE18413845B
:102B300041BA631BF700834744000D476396E700E3
:102B40000347140063EDE7008947A301F4008D47B4
:102B50002302F4009147A300F400EFE0FFCB83478A
:102B60001401FD17B337F000A383F18203D78180EE
:102B7000938781803EC4239FE1840347440193846B
:102B8000E18519E3A309040083476402A1CB13077D
:102B9000803E239EE18485472388F1822309F40047
:102BA00083570900A3090400A30A0400938727039D
:102BB0002310F90083570A00A3060400230A040027
:102BC000938727032310FA009387A18303D7070075
:102BD000230B0400130727032390E7002397018E9C
:102BE000EF20E063AD679387A7AA373700401CC387
:102BF000EF10504283C7818A938AE18E91C70547BF
:102C0000A384E18EA3090400EF10704F1389819112
:102C10006E8B0357290083570900BA970357490061
:102C2000BA9703576900BA9703578900BA970357B1
:102C3000A900BA979107858723A8F1B09389818B62
:102C400083C70900E207E18789C7EFF0EFF6238029
:102C5000090003A641C69146138791839387818318
:102C600063EEC65803462401630806582380D70044
:102C7000AD672300D7009387A7AA373700401CC34E
:102C80000347540185476311F70203A50181A24759
:102C90001306800C9305000603D707009356170010
:102CA000EF0090582390A400034754018947631B09
:102CB000F7049387418994431307900F636DD700FE
:102CC0009443130740066378D7009843A946330717
:102CD000D7022390E4009443130730066368D700BB
:102CE000984309C71307803E2390E40094431307D9
:102CF000900F6364D7009C4391E785679387479C57
:102D00002390F40083D6E18C896793870771938BB6
:102D1000E18C63FDD70A9387218983C707009389D4
:102D20002189E207E187A9C7EF1090772380090086
:102D30002398018A2389018A23900A00B73701402A
:102D4000239A07C2239C07C2239E07C2EF20D00606
:102D50009387819F1387071023A007009107E31D26
:102D6000F7FEB707EFBE37E700E0938707083CC7D9
:102D700003D70B00A967938707C463F9E704EF1033
:102D80003072238009002398018A2389018A2390C5
:102D90000A00B7370140239A07C2239C07C2239E2B
:102DA00007C2EF2070019387819F1387071023A02C
:102DB00007009107E31DF7FE2945EF10A054B70760
:102DC000EFBE37E700E0938707083CC71387018E03
:102DD000835607009567938707E263F6D7028397C8
:102DE000C18813068016C207B3C7C7029386018A3B
:102DF000904223100700B2979CC283C751B281C78B
:102E0000FD17A382F1B203A741C69306803E83D784
:102E1000E18863E3E60099E3A38C0188930640060A
:102E200063F8E6001307700C6364F700A38C018855
:102E30000347340119C71307F0096364F700A38C33
:102E400001880387418A630D073A1307F01863640A
:102E5000F700A38C018883C7318F93F7F70F9DCBC1
:102E600083C7218903C7418CE207E187D98F03C754
:102E7000A18CD98FE207E18791EF2D45EF108048B3
:102E8000AD67373700409387A7AA1CC31305C05D01
:102E9000EF007040034774029307F00F631AF702C4
:102EA00083C7A18C95E783D7018B9DE383A7018D11
:102EB0000567930647CEB387D7021107B3C7E7026A
:102EC00093F7F70FA303F402238AF180EFE0DF9476
:102ED00083A701B10D4793894189B3C7E7021387DF
:102EE00041891CC30387518A938C518A3DCF03A724
:102EF00041C6A94763FBE70683A5090003A581B97D
:102F0000EF00303683A70900858363FAA70403A77F
:102F100009009307F07C63E4E7049387618A03C7A1
:102F2000070023A201C605072380E7008347240189
:102F300099E703D7018B9307F00263E8E70003A743
:102F400001819307803E63F4E7002385018C0547E8
:102F50002380E18483D7A1838583239DF18A83A77E
:102F6000090023800C0023ACF1B8938BB18C83C78C
:102F70000B00E207E1876382072A83A701B103D729
:102F800001B93307F702938747063357F70283D611
:102F9000218A03D6C18883D501B0038581B1420758
:102FA0004183EF10A03C2945EF10B05923800B005E
:102FB00003C7B1888547938BB188938CC18D631308
:102FC000F70EEF10A05703D521B9EF108058239CBE
:102FD000A1B003D781B00566930746CE3307F70249
:102FE0007D163347C70203D6A1803307C7021306F5
:102FF00040063347C7022390E1B0EFE05F83856767
:10300000938747CEB307F50223A8A18C130590023E
:10301000B3C7A70203C541811307C0F93305E50211
:103020001387C188AA973D45B3C7A702C207C187C6
:1030300063CC071E2310F70003474402054693871D
:10304000E18B631DC71E83D601B00387B18903D608
:10305000C1823307C70263DCE61C03D707000507FC
:103060002390E70083D6070083870C007977130746
:103070004795B387E702096713070771BA9763D1CA
:10308000D70205472385E1882398018AEF10504134
:10309000EF10204F2385018C23900A00238901889B
:1030A00023800B00A38E018C83870C006396071C82
:1030B00083A701B1372509001305057C3345F502C7
:1030C00083C7A18C938CA18C938BE1813305F5028E
:1030D000420541812398A1B8A9473355F5022394AD
:1030E000A1B2838701836385071603D7A18583D6A1
:1030F000C18503D6A18283D5E182EF00F01223902F
:10310000AB008345B4029307F00F6381F50203958A
:1031100081B163DDA50083D6A1851386A50005478F
:103120008582D915EF0050102390AB0083A641C6CD
:1031300013073006938B018193876182636FD710E9
:1031400083A60B001307401F6379D71031472380F4
:10315000E70083A60B00130710036365D700094738
:103160002380E7008347F40289CF03D5C18A5D47F6
:10317000B5461306007D93054006EF00F00A238252
:10318000A1B2B717004003D74782AD67938787FC8A
:10319000E3F1E7A883C90C00A38A01B88547E39A45
:1031A000F9A603474401238EE1B09387918903C7B1
:1031B000070005072380E700EF10A03C238031853E
:1031C00003D7018B9307F00263E9E70085679387D4
:1031D000873823800C0023A0FB0023A201C6EFF058
:1031E0008FB805BC8306310113071003E394E69002
:1031F000130700056FF0FF8F99468DBC8D46BDB457
:10320000930650091387D18063E7F60093074006C1
:103210002300F70089B1A947E5BF0387A1B0E309FF
:1032200007D8238501B069B32310070031B50387A0
:10323000A188E31907E2239007002DB50946E3139F
:10324000C7E283D601B0034784001306200311B5FB
:103250009307007D2390FB006DB503A5090031475E
:103260008D461306401F93054006EF00E07B9387D1
:1032700061822380A700F1BD1386018B835706006E
:103280001387018B3AC6930600031387718A63F58F
:10329000F61483C62189E206E186638F06129387BE
:1032A000F7FC8546C2072380DB00C18393057005C8
:1032B000938B618563ECF5088307070085CFB7061C
:1032C000004083D7C640C207C183F99BC207C183B0
:1032D0002396F640EF10E02AB7370140239A07C241
:1032E000239C07C2239E07C2EF1070241387718AA4
:1032F00023000700EFF0EF918346B40189679387BD
:1033000087B51307A0323347D7021306800793050A
:103310000003B3C6D702B24703D50700EF00C07061
:103320002390AB0042054181EF00A07483D70B00CE
:10333000130780253347F7022398E1B81307801657
:10334000B387E70223A8F1B06FF0BF8C2300D7004A
:10335000EFF02F8C1386018B835606001307800C29
:103360006378D70013070005239301B02390EB0087
:1033700003D50B00EF00E06F839761B0E39B0788F4
:1033800085472385F18C2380F18489679387873271
:1033900023A8F18023A0F90083A6090023800C0054
:1033A00023ACD1B8371700402312F782D14723A2AC
:1033B000F1C6A382018C03C7E180238AE18483479D
:1033C000D40189C703570A00239DE18AEFE0AFCFFC
:1033D000EF20601D6FF0FF838547834BC4012300FE
:1033E000F7002385018C85476390FB068347940291
:1033F0001307800C93060083B387E7022393F18CB5
:1034000003D70400B387E702B3C7D702BA97C2074E
:10341000C1832392F1B0130730066368F700EF1001
:10342000D00F239801B86FF0CFFEEF10004F03D7F5
:1034300041B0B7370140239AE7C2239CE7C2239EDD
:10344000E7C2A382718DF1BF8947639FFB020945E3
:10345000EF10500603D704008347C400B387E70288
:103460001307007DB3C7E7022947B387E702373761
:10347000014093878702C207C183231AF7C2231C26
:10348000F7C2231EF7C271BFB7370140239A07C2A4
:10349000239C07C2239E07C2EF10900059B7EFD2BA
:1034A0009FCB9387819F83A6819FFC5F958FC207E7
:1034B000C1832396F1C683D6A19013D65700239BD0
:1034C000C18E63F6F60483D6818663F2D704138730
:1034D000819F938541929389618F2397018C998372
:1034E00013181600130507081384419254438328C8
:1034F0000700B3861641C206C18201CE63E4F6001E
:103500006379D80083D7C1C78507239EF1C66FD0E2
:10351000DFC7B336D60094C121079105E318E5FC57
:103520001C480440584803290403BD8C1C500E0954
:10353000BD8C5C408E04B98F5850B98F8A07DD8CE2
:10354000584C5C44B98F5854B98FDD8C184C1C44CE
:10355000B98F1854B98F8607DD8C5C5893F4F40F3B
:103560008A073369F9005C5C3369F9001C5C8607E3
:103570003369F90083C721891379F90FE207E187DD
:10358000B1EB83C7A18AE207E187A9E7EF106036B4
:1035900031C11387818F83470700850793F7F70FA2
:1035A0002300F700130740066376F70203D60900ED
:1035B00085472385F18A9306900313874186938775
:1035C000218663FCC60A930600082310D7001D4716
:1035D0002390E70083C7A18AE207E18791C7BD472F
:1035E000338927411379F90F631F992203DFE1C75C
:1035F0002397018C1440050F239FE1C7032FC402BA
:10360000854F5840832E8400032EC40003230401F9
:103610005C48832884010328C40108504C5083224D
:1036200084026314FF01A385E18DAA062607558F46
:103630003367570093968E00558F93167E00558FF3
:1036400093166300558F9607D98F13974800D98F2B
:1036500013173800D98F13172500D98F139715002A
:10366000D98F03C7E1C631CB8546631ED7002395AA
:10367000F1C689472387F1C659BD9306000423107C
:10368000D7001947B1B789466316D700238AF1C618
:103690008D47CDB78D46E31CD7E613075002E3985C
:1036A000E7E683D7A1C6138741BABA9703C741C7D4
:1036B0002380E700238701C699BD1307F002635EEC
:1036C000F7000387018F05C7C207C1832390F18CE0
:1036D000A38A01B02389018E1DBD1387F7FF9306CE
:1036E000E00263E1E6062390018CA38AF1B083C770
:1036F00051B1E38E07E003C7A18CE31A07E003C7CB
:10370000218962076187E30407E09386918F83C56F
:1037100006001387218F6386F5002380F6002300BF
:103720000700954663E5F60099462300D7008346D7
:1037300007009545850693F6F60F63E4D50223004E
:10374000D700F1B3CDF70387118F85476314F700D6
:103750002388018E2390018CA38A01B02389018ED6
:1037600079B7FD172300070093F7F70F130730020F
:10377000636CF7001D678A071307C7A2BA979C43BB
:10378000828705472382E18C03C751B1A38A01B028
:10379000A38CE18AADBB0947F5B70D47E5B71147E3
:1037A000D5B71547C5B705472385E1B0F1BFA38A53
:1037B00001BA0547A383E182C1BF0547A38AE1BAE5
:1037C000A3830182D1B7238B01BA7DBF0547238B29
:1037D000E1BA5DBFEFE04F8483C751BB8507238209
:1037E000F18C5DB78547238AF18E2384F1C68387E8
:1037F000118F0547E39AE7F82388F18E71B7238A82
:10380000018E0547A38AE1C641B703C751BB85476F
:10381000998FA383F1828DBF03C751BB61BF8547D9
:103820002387F1C695B783D7C1C78507239EF1C605
:1038300051B523AE018E81471388C18F938641967F
:103840001306500213972700369723200700850799
:10385000E39AC7FE83C7418F6392071081470386AF
:1038600081C611C68567238401C6938707E0038656
:1038700051C7630C06168567A38A01C69387F7EFC5
:1038800023A8F1C605472383E19083A701C7854E8E
:103890007D53C207C18313D6870013D74700318FEA
:1038A000B98F03A701C793C7F7FFBD8B1207D98F45
:1038B00023A8F1C683A701C703A601C703A501C7B3
:1038C00083A501C71D671307C7ABB1872186BA97C8
:1038D000BD893D8ABA953A9683870700838505009E
:1038E00003060600BE07CD8F2A06D18F135645402A
:1038F0003D8A3297030707001607D98F23ACF1C61C
:1039000083C5718703D64186138715009317270057
:10391000B69790C383D821864D461318270003AE6F
:1039200081C7369803280800B397CE00B3F7C701C4
:10393000B3D7C700335818010507B3C707011318D9
:103940002700B397170136982320F8007D16E31659
:1039500066FC8A05AE9623A006008280138701903C
:103960008347670081C723030700CDBD8355470008
:103970000356270083570700850505068507C205FE
:103980004206C207C1814182C1832312B7002311BD
:10399000C7002310F7009308700263FFB8008397F5
:1039A000C1881306200323120700B3C7C70293F789
:1039B000F70F93E7076065B59305700C63FEC500CC
:1039C00083D701B0654623110700B3D7C70293F729
:1039D000F70F93E7074061B5E3F2F5E883D781B1CC
:1039E0002310070093E707209DBDE39B07E883C7EB
:1039F000A18C99E341657D15BD4705462147B35527
:103A0000F540639FC500E1172320F8000327080055
:103A1000931797003355E5405D8D23A8A1C6B5B532
:103A2000FD17E39EE7FCDDB76358C50263D7A50227
:103A30006305D702B307B6003308D700858713584C
:103A40001840638EB70063D6A70093851700C2861F
:103A5000E1BF42873E86C9BFBA8636858280C2866C
:103A6000EDBFB307B54063D40700B387A5403E85DB
:103A70008280B717004003D747824205B71600403F
:103A80000583418183D746828583998FC207C1838D
:103A9000E3EAA7FE8280EFD2AFED2A84FD547D14C5
:103AA000631494006FD00FEF1305803EEFF07FFC9E
:103AB000FDB72D8DA147131785019315150061875B
:103AC00013F5F50F6356070013C575001375F50F51
:103AD000FD1793F7F70FE5F38280EFD26FE92A84A1
:103AE000B304B5000145631494006FD0AFEAAA8512
:103AF000034504000504EFF0DFFBF5B7EFD2CFE498
:103B00001387819F032A470003A7819F930660576D
:103B1000330AEA40420A135A0A011307FACD420750
:103B2000418363EBE6183E8B938C819F83C7819022
:103B30002397018C938481906383071283C7E1905C
:103B40001389E190A1C79307104E1389419163F83F
:103B5000470F034709009307B00463F8E70683D7CC
:103B6000A18423800400E507C207C1832395F18463
:103B70000947938727D1B3C7E7022382F1BCEFD06F
:103B8000BFC923000900EF00E06881A083C7D1907E
:103B9000938BD190138C019199E323104C0183D521
:103BA000818403550C0085072380FB00EFF07FEB39
:103BB0009306200363F0A6042380040083D7818446
:103BC0002310FC0083470900BDFF2397018C83A6C7
:103BD00041C803D6018C83A7C1863386C64063D013
:103BE000C70E83D6018CB697C207C1832390F18C90
:103BF0006FD00FD903A7819F83A74C001D46998FD3
:103C000003D781843307C702BA978D83C20703C7DE
:103C10000B00C1832394F184E3F2E6FA9D17C207F7
:103C2000C1832394F18409479387A792B3C7E7021E
:103C3000A382F1BC85472300F900852B41B7834758
:103C400009009D4685072300F90083D7A184B38727
:103C5000D7023E9A135A3A4023954185DDBD83C76A
:103C600061BB8DCB83D5C18463EE45012E8683D5A0
:103C7000A1841307803E81465285EFF0FFDA23A22C
:103C8000A1C8A1B71307007D9306903E03D6818497
:103C90008505DDB703D6818483D5A1841307F07F22
:103CA0009306F0025285EFF03FD893070003E3C874
:103CB000A7FC23A201C811BF2397018E09BF03D619
:103CC000018C158E63D7C70083D6018CB387F6406D
:103CD00021BFC206C1822390D18C19BF83A701875F
:103CE00009479386F7FF6369D70203A781C8930743
:103CF000B00363E2E702238C0186238601C885476F
:103D0000A384F18AB946A38BD1869306000223834C
:103D1000D1862389F18A8280F1171147E36DF7FE7E
:103D200003A781C893073006E3E7E7FE8547238CA6
:103D3000F1862386F1C8A384F18A9D46E9B703A7DB
:103D4000018795679387E713130777F363EEE7001F
:103D500009472383E1861307F005238CE186854715
:103D60002386F18C2389F18A8280EFD26FC0956718
:103D7000938707E283A6819F1387819F23A8F186FB
:103D800023A401C8130E8707814801450143938589
:103D9000018703284700630AD800B306D84063F4BC
:103DA000F600B6870543369585481107C286E312AB
:103DB000EEFE630303009CC16384080023A4A1C832
:103DC00083A781C80547958323A4F1C88386918A78
:103DD000BE846394E600EFF07FF003C7C18C854694
:103DE0003E84620761876314D700EFF05FF5838735
:103DF000918A91EB83C7C18CE207E18789E7EFF0F5
:103E0000FFEDEFF0DFF36FD0EFB8EFD26FB683C7FF
:103E10002189E207E18795C783C7A18AE207E18785
:103E20008DC383C75191E207E18781CBEF00901EDC
:103E30008947238EF1886FD0EFB5EF00D0258547F5
:103E4000CDBF83C7218BE207E18791E7EFF0FFF158
:103E5000EF00501CCDB783C7218B0547E207E187F0
:103E6000E39BE7FC03C7A18A620761870DCB83C789
:103E70005191E207E1878DC303A501B1C167130525
:103E800045066364F5001385F7FF42054181EFF0B5
:103E90005F9AEFF0CFE06DBFEF00F01F69BF838640
:103EA000918ABA846396F600EFF06FDFEF00901608
:103EB00083C7C18C0547E207E187639CE700EF00F9
:103EC00050239387618641C90D472380E700EF00A7
:103ED000701483C72189E207E187B1FF8387918A44
:103EE000B1CF03C7D1C88D4663EAE60403D6E18E9D
:103EF000954663F5C60405071377F70FA386E1C857
:103F00009387819FFC5F83A6819F958F03A601C83D
:103F1000C207C183B29723A0F1C891466310D702AC
:103F200013D7670089834207C2074183C1833306E1
:103F3000F700998F2394C1862395F19003D5E188EA
:103F40003E8905E183C7819089EF83D7E18E85079C
:103F50002397F18ECDB509472380E700EFF01FBA14
:103F6000BDB783C7B1BAE39807EC2397018E9307D7
:103F7000C05DE3F2A7EC83D5219193842191EFF00A
:103F80005FAE130720031384C1906379A700230059
:103F9000040083D7E1882390F40071BD83470400B7
:103FA000850793F7F70F2300F400E374F7FE83C748
:103FB000E190E5F3F12405472384E190C9BFEFD2F6
:103FC0008F99AD642A847D59B73900409384A4AA9F
:103FD0007D14631424016FD04F9B23A09900130517
:103FE000803EEFF01FA9EDB7EFD2EF96A9473375EA
:103FF000F5029D679387C7ACAD641144B73A0040A2
:104000009384A4AA37390140FD59AA9703CA07002F
:1040100023A09A0003C7E1C8B3578A40858B231AAF
:10402000E9C2231CE9C2231EE9C21305400B99E330
:104030001305C003EFF0BFF8231A09C2231C09C2FD
:10404000231E09C21305C0037D14EFF05FF7E311CF
:1040500034FD6FD08F932D47AA876373A700AD47B8
:1040600086072387F1C8828003C7E1C8B7370140BC
:10407000239AE7C2239CE7C2239EE7C28280EFD245
:104080008F8D37340140130404C09307F07C896995
:104090002316F4029387098073900780AD64373943
:1040A00000409384A4AA9307C003232099002314FB
:1040B000F402EFF07FFB0545EF00D03F1305B0049D
:1040C000EFF07F9D93070005232099002314F4024D
:1040D0001305B004EFF03F9C9307A005232099003F
:1040E0002314F4021305B00423209900EFF0BF9AC3
:1040F00023209900EF00D03A231404022397018C67
:1041000083D78180938989882316F402739009806C
:104110006FD0AF87EFD22F8409699307098073901E
:104120000780373401409307F07CAD642316F4C256
:10413000B73900409384A4AA9307000523A09900EF
:104140002314F4C2EFF05FF20D45EF00B036130513
:1041500040062397018CEFF01F949307600423A07F
:1041600099002314F4C213054006EFF0DF92930781
:10417000800223A099002314F4C213054006EFF037
:104180009F9123A09900EF00B031231404C283D77C
:1041900081802397018C130404C02316F4021309B1
:1041A0008988731009806FC05FFEEFC27FFC3734CF
:1041B00001409307F07C2316F4C2930720032314D5
:1041C000F4C2EFF07FEA0945EF00D02EAD64373935
:1041D00000409384A4AA13056009EFF0DF8B23202D
:1041E0009900F947232099002314F4C213056009AC
:1041F000EFF07F8A23209900EF00902A231404C255
:104200002397018C83D78180130404C02316F40202
:104210006FC05FF8EFC2DFF5373401409307F07CE1
:104220002316F4C2930780022314F4C2EFF0DFE3F5
:104230000945EF003028AD64373900409384A4AAC3
:1042400013056009EFF03F852320990093070005CF
:10425000232099002314F4C213056009EFF0BF83F3
:1042600023209900EF00D023231404C22397018C4C
:1042700083D78180130404C02316F4026FC09FF11A
:10428000EFC27FEDB73701401307F07C2396E7C2FA
:1042900089679387078073900780AD64EFF0DFDC58
:1042A00013047007B73900409384A4AA514BB73A5E
:1042B00001407D5A3345640323A0990013890AC045
:1042C000EF00501F93571440A907C207C1832394DE
:1042D000FAC22945EFF02FFC791423A09900E31BC3
:1042E00044FDEF00F01B23940AC22397018C83D76F
:1042F00081802396FAC289679387878873900780A5
:104300006FC0BFE8EFC23FE58964AA899387048044
:1043100073900780373401409307F07C2316F4C272
:104320000D45EF003019930720032314F4C2EFF07A
:10433000BFD3294933D52903130404C09384848847
:10434000EFF09FCA1305400BEFF07FC733F5290349
:10435000EFF09FC9EF00D0142314040283D78180AB
:104360002316F402739004806FC03FE2EFC25FE057
:10437000138401C92388A1C82301B40013D5850083
:1043800093558600A300A400A301B4002302C40037
:104390002303D40013D68600A545935687001385C2
:1043A00001C9A302C400A303D4002304E400EFF076
:1043B000CFF2A304A4006FC0FFDD938741CC03D6E6
:1043C00027002394C1B083D641CC2394D18803D74E
:1043D00047002399E1B88280EFC29FD91D7113066F
:1043E000400281456818EFC0BFDB1306000281451B
:1043F0004808EFC0FFDA372401409307C4443EDA8F
:10440000938741CC3EDC93070008BEC4930700109D
:10441000BEC693070040B7040240BEC8930700021F
:10442000138584000D49BECA4C188567BECC02C4F2
:1044300002C602C8CAC0EF10E073054613858400A7
:10444000A945EF10E077138584008545EF100076CD
:10445000B7E700E0130700FCA38DE740370700082B
:1044600023A0E710854513050020EF10503B0145C0
:10447000EF10902B37150140930720042C001305F3
:1044800005802314F10002C8EF1010081305044042
:10449000EF10A04385473ECC4C08B7070E0013052C
:1044A00004403ED002CA02CE02D223042103EF1000
:1044B000C04585460546854513050440EF1040502C
:1044C00085460946994513050440EF10604F85461F
:1044D0000D46C14513050440EF10804E8545130578
:1044E0000440EF100049854513050440EF10604774
:1044F000814513050440EF10A05C13050440EF1044
:104500006048930404402685EF1060486DFD130554
:10451000044037240140EF100048930404402685EE
:10452000EF1000486DFD854513050440EF1040591C
:104530000545EF10605425616FC0DFC5EFC25FC352
:1045400037250140854513050540EF10E0456FC054
:104550007FC4EFC2FFC103D521B98567938747CEDA
:104560003305F5023185EF102053420541856FC0B8
:104570007FC2B717014003A5878083C741877D8D20
:104580008280B707014003A70740938607401D9B21
:1045900023A0E740E147DCCA828037070140E146BB
:1045A000232AD74003C66187832607408547B397F0
:1045B000C700D58F2320F740828003874185854639
:1045C000938761876305D7009146631DD700B7467F
:1045D0000240054623A2C6808D462380D70021468F
:1045E000239AC18689466305D7009546631ED70086
:1045F000B74602401306000723A2C68091462380D7
:10460000D7004146239AC1868D466305D700994657
:10461000631ED70037470240930600032322D7804A
:1046200011472380E700C146239AD18683C707003C
:1046300005473317F70083865184B70701409387F6
:10464000074089C623A40700D8C7828023A6070095
:1046500098C78280EFC23FB06D71AA84AE8932895B
:104660008145130600100808EFC09FB3B72702402A
:10467000C047058875FCB70667459386361237979D
:10468000EFCDD4C31307B79AD8C3D4D3D8D3937775
:10469000F90F81E74A85EF10005E937709F03EC677
:1046A00013070010B247A29783D607001C08A297F1
:1046B0002390D7000904E317E4FE8947B3C9F90240
:1046C0002685814663CB360132450C08EF10805DAC
:1046D000EF10805951616FC05FABB247180A0346B3
:1046E0000500B307F9408583B6978607BA97034755
:1046F0001500850609052207518F2390E7F0D9B7E9
:10470000814763C3C70082803387F5008346070073
:104710003307F50085072300D700E5B7EFC25FA593
:10472000B7170140054423A8878003A70780854564
:104730000545419B23A0E78003A707801367370047
:1047400023A0E78003A707801367870023A0E780E3
:10475000EF10901281450545EF1010123707004009
:1047600093070006231CF7008D472310F70223143C
:10477000070283D74186854537050040FD17C207EC
:10478000C1832316F702A38A8190EF1050576FC0A0
:104790007FA0EFC2FF9D85450545EF10F00D8145D7
:1047A0000545EF10700D3707004023100702B717BB
:1047B0000140054623A8C78083A60780C19A23A08D
:1047C000D78083A6078093E6460023A0D78083C7BF
:1047D000C18CE207E1879DC7231CC700038781873F
:1047E000B707004085452394E7027D572396E702EB
:1047F0002398070037050040EF107050A38A0190FE
:104800006FC05F998D47231CF700930700042314A2
:10481000F700E9B7EFC2DF9583C7C18C0547E20710
:10482000E187639DE7003707004083570702C2070F
:10483000C183F19B93E717002310F702EFF07FF598
:10484000370702409387819F7CD3B70700401386C8
:10485000470330D303C6618685669386B69870CFCA
:1048600034CF2392070283D6C70093E6062023960F
:10487000D70083D6070293E616002390D70283D68B
:10488000070093E616002390D7003C4F93E74700BC
:104890003CCF6FC03F90EFC2BF8DEFF03FE8856720
:1048A000370702409387A7993CCF938741967CD3E3
:1048B000B70700401386470330D303C671875D06F0
:1048C00070CF83D6C70093E606202396D70083D601
:1048D000070293E616002390D70283D6070093E6DB
:1048E00016002390D7003C4F93E717003CCF6FC0D2
:1048F0007F8AB717014003A5878005898280B71793
:10490000014003A70780419B23A0E78003A70780FE
:104910001367470023A0E780828037170140832672
:1049200047807D761306F60FF18E2322D7808326EB
:10493000478093E606302322D78093060040232A3F
:10494000D7808326478093F6F6F02322D7808326EC
:10495000478093E606032322D78093060020232A6C
:10496000D78083264780C19A2322D7808326478019
:1049700093E636002322D78093060010232AD7809F
:10498000832707C0B70600B093F7F7F02320F7C0DE
:10499000832707C093E7070B2320F7C0832707C0AF
:1049A000C19B2320F7C0832707C093E7B7002320CC
:1049B000F7C083270780920791832320F7808327FE
:1049C0000780D58F2320F780828083C7C1B193F7FA
:1049D000F70FA9E3B717014003A707C0938607C0E5
:1049E000419B23A0E7C003A707C01367370023A09C
:1049F000E7C08547DCCAB717014003A74780137794
:104A0000F7F023A2E78003A747801367070B23A2D1
:104A1000E7808280B717014003A707C0419B23A00E
:104A2000E7C003A707C01367B70023A0E7C0E1B73B
:104A3000B717014003A707C0419B23A0E7C003A706
:104A400007C01367370023A0E7C0054723AAE7C0C4
:104A500003A747801377F7F023A2E78003A74780D7
:104A60001367070323A2E7801307002023AAE78028
:104A70008280B717014003A707C0419B23A0E7C06E
:104A800003A707C01367370023A0E7C0054723A883
:104A9000E7C003A747801377F7F023A2E78003A7B7
:104AA00047801367070323A2E7801307002023AA88
:104AB000E780828083C7C1B193F7F70FB9E3B717D7
:104AC000014003A70780370600309386078012074E
:104AD000118323A0E78003A70780518F23A0E780DD
:104AE00093070008DCCAB717014003A74780419B22
:104AF00023A2E78003A747801367B70023A2E780BC
:104B000082803717014083270780B70600B09207DD
:104B100091832320F78083270780D58F2320F78078
:104B2000D9B737170140832607803706003093072F
:104B30000780920691822320D78083260780D18E1A
:104B40002320D78013070008D8CBD843419BD8C374
:104B5000D84313673700D8C313070010D8CB82801F
:104B600037170140832607803706003093070780F8
:104B7000920691822320D78083260780D18E23201E
:104B8000D7801307000898CBD843419BD8C3D8439C
:104B900013673700D8C313070010D8CB828083C7B0
:104BA000C1B193F7F70FB1E7B717014003A707C0EB
:104BB000938607C01377F7F023A0E7C003A707C0C9
:104BC0001367070323A0E7C08947DCCAB717014072
:104BD00003A74780FD769386F60F758F23A2E780A3
:104BE00003A747808566938606B0558F23A2E7808A
:104BF0008280B717014003A707C01377F7F023A0FF
:104C0000E7C003A707C01367070B23A0E7C07DBF5A
:104C1000B717014003A707C0FD769386F60F1377F9
:104C2000F7F023A0E7C003A707C01367070323A07B
:104C3000E7C0094723AAE7C003A74780758F23A2CF
:104C4000E78003A747801367073023A2E780130795
:104C5000004023AAE7808280B717014003A707C05E
:104C6000FD769386F60F1377F7F023A0E7C003A72E
:104C700007C01367070323A0E7C0094723A8E7C0BD
:104C800003A74780758F23A2E78003A74780136798
:104C9000073023A2E7801307004023AAE780828021
:104CA000EFC20FCDEFF0FFE7EFF09FD8EFF05FF628
:104CB0006FC04FCE7D15954763E0A706EFC24FCB7F
:104CC0009D67938787AD0A053E951C418287EFF06B
:104CD0007FDEEFF01FDAEFF0BFF339A0EFF07FE4F3
:104CE000EFF03FD9EFF0BFEB6FC0CFCAEFF05FE757
:104CF000EFF01FD4C5BFEFF0BFE6EFF01FCDE1BF6F
:104D0000EFF03FE2EFF07FCCEFF01FF5F1BFEFF0F7
:104D10007FDAEFF0FFD1CDBF8280EFC26FC5EFF039
:104D20003FE4EFF01FD5EFF03FF36FC0AFC6EFC227
:104D30002FC4EFF03FD8EFF05FC9EFF05FE66FC030
:104D40006FC5EFC2EFC241119147AA842312F1004F
:104D5000371501408D473EC44C00E14713050580DF
:104D60003EC623130100EF00307A3745004013059B
:104D700005408357C500370402400546C207C1837A
:104D8000CD9B93E787002316F50023229408938791
:104D900001C92326F40893050008EF1050411304BD
:104DA000040885452285EF00706041016FC08FBE09
:104DB000EFC26FBA5D711306C0028145481002CA86
:104DC00002CC02CE02D0EFC0AFBD85453705020050
:104DD000EF10C02685451145EF106024914723143C
:104DE000F100371501408D473EC62C009307800423
:104DF000130505803EC823150100EF00F070F16730
:104E000037440040938707203ECA4C08B707080084
:104E1000130504403ECE02CC23100102EF10902671
:104E2000130504408545EF10703393050004130506
:104E30000440EF103039B7E400E0815937090240EF
:104E4000238B3443B707400023A2F410130509084D
:104E5000EF009048938701C93ED4C1473ED69307DF
:104E600010034C10130444403ED81305090893075F
:104E700000083EDC22D202DA02DE82C082C282C494
:104E800082C6EF00304F3705000EEF007055054623
:104E9000A94513050908EF00B0528947A3803443A0
:104EA00023A2F41061616FC04FAE01A001A00945BB
:104EB000EF00905311C51945EF009052EFF0EFCF7E
:104EC0002145EF00705201C52145EF00705173007C
:104ED0002030B70702409C43411122C61397D700E8
:104EE0006351070283C7C18CE207E18791C7B70707
:104EF00000400D472390E702B70702403707040040
:104F0000D8C3370402401C401397E700635D0700D5
:104F10003C4CF99B3CCCEFE05FEFB70702005CC074
:104F20000547238CE18AB707024098439316C700D0
:104F300063DE0600B84F37050800799BB8CFEF0055
:104F4000304AEFE09FEC0547238CE18A324441016F
:104F50007300203041113705000222C6EF00D0480F
:104F600031C1374400400146930500081305044051
:104F7000EF10F02337050240814513050508EF00C7
:104F8000F04237050002EF00B04593050004130519
:104F90000440EF103023054693056062130504407A
:104FA000EF10901D37050008EF00104415CD374471
:104FB000004001469305000813050440EF10301F20
:104FC0008357C4403705024013050508C207C18353
:104FD000CD9BC207C1832316F4408145EF00103DED
:104FE00037050008EF00D03F324441017300203004
:104FF000011122CE3744004093056062130504403E
:10500000EF10301D21C91305044093050004EF1073
:10501000701B130504408357C50093056062014669
:10502000C207C183DD9BC207C1832316F500EF10C1
:10503000B01491472312F100371501408D473EC44B
:105040004C009307800413050580231301003EC61E
:10505000EF00904B7244056173002030B7F700E019
:1050600023A20700EFD04FDC73002030B7170040B9
:1050700003D7478283A74189858363FBE700B7078E
:105080000140214723AAE740EFC07F9773002030FB
:10509000EFF02FCE83875184E31AF5FEB707014066
:1050A000214723AAE74093870740CDB7B7170040B1
:1050B00003D7478283A74189858363FBE700B7074E
:1050C0000140414723AAE740EFC07F93730020309F
:1050D000EFF02FCA83875184E31AF5FEB70701402A
:1050E000414723AAE74093870740CDB7411122C625
:1050F00037040040854513050440EF10007601C9D0
:10510000EFC09F87854513050440EF10C0763244F9
:10511000410173002030730020308280EFC24F8540
:10512000011137140140930400024C001305048060
:105130002312910023130100231401002315010001
:10514000231601002317010002C802CA02CC02CEB6
:10515000EF00903BF577938707C04C00130504C020
:105160002312F10002C6EF00303AE14711494C002A
:10517000130504802312F1004AC6EF00F0384C00FA
:1051800013050480231221014AC6EF00F0370547BA
:10519000B747024023A2E7808D450145EF005054F8
:1051A000A147414908083EC84ACC02CA02CEEF00D6
:1051B00070242145EF00B02A37E400E0E547A3085A
:1051C000F404B75700009387C70693E717007CD015
:1051D000A30C9440B70700022320F4109145014529
:1051E000EF00105008084AC84ACC02CA02CEEF00AD
:1051F00070204145EF00B026E9472309F404B75772
:1052000000009387C70A93E717003CD4230D94400E
:10521000B70700042320F41005616FB0BFF7EFB2A9
:105220003FF51567B73700401307575598C30D472B
:10523000D8C30567130707FA98C7EF00304DEF0092
:10524000D04D6FB03FF5EFB2BFF2056539718545BE
:105250001305158002C402C62318010002D802DA21
:1052600002DC02DE02D002D202D42316010202CAFC
:1052700002CC02CEEF00B05A370516008545130563
:10528000050437340140EF00B0379307F07C2C0061
:10529000130504C03EC602C4EF001070130504C01D
:1052A0008545EF10E026130504C0A145EF10202826
:1052B000930700060C18130504C03ED802DA02DC7E
:1052C00002DEEF007075130504C08145EF10A02BBE
:1052D000130504C0A145EF10A0260C18130504C047
:1052E00023190102231A0102EF00907B130504C069
:1052F0008145EF10602A130504C0A145EF10E02599
:105300000C18130504C023190102231A0102EF101F
:105310006004130504C08145EF10A029130504C0E3
:10532000A145EF10A0240C18130504C02319010295
:10533000231A0102EF10200D130504C08145EF1060
:105340006028B70728003ED20C10B70700201305CD
:1053500004C03ED43714014002D023160102EF10DE
:10536000A01261498D4489474C08130504C0231AD3
:10537000F1004ACE26CCEF00301985474C081305C2
:1053800004C0231AF1004ACE26CCEF00F017930791
:1053900000084C0813050480231AF1004ACE26CCDD
:1053A000EF009016930700404C0813050480231A61
:1053B000F1004ACE26CCEF003015930700204C08B0
:1053C00013050480231AF1004ACE26CCEF00D01337
:1053D000930700104C0813050480231AF1004ACEED
:1053E00026CCEF00701221616FB0DFDAEFB25FD828
:1053F00085451145EF009044B71700407D5723962F
:10540000E7825D472394E7826FB0DFD8B7F700E00B
:1054100023A0070023A20700814694C70147D8C7ED
:1054200083A5C1871567130707E233D6E5028146D6
:105430003D4790CBD4CB98C3B7E700E00157238614
:10544000E740056723A0E7108280EFB27FD2854551
:105450000945EF00B03EB70700405D472394E7429F
:105460000567130707FA2396E742B7E700E0A3862C
:105470000742096723A2E7106FB0DFD1EFB25FCF19
:1054800085450545EF00D03737E700E0930700FC7E
:10549000A30FF740B70700802320F710FD4723082C
:1054A000F704B7570000938727ED93E717003CD325
:1054B0006FB05FCEEFB2DFCB85453545EF003036BC
:1054C0006FB05FCDEFB2DFCA79718545054502D275
:1054D00002D402D602C602C8231A010002CC02CEB0
:1054E00023100102EF00903585451145EF00303360
:1054F00085472312F1023715014091473ED64C10E3
:105500008D47130505803ED4EF001000C167FD17DD
:105510006C00370500403EC802C6EF00F0478545E5
:1055200037050040EF00D07E814537050040EF1081
:10553000001085472C08370500403ECE02CC2310D2
:105540000102EF10C0180546930500203705004002
:10555000EF00507B45616FB0FFC3EFB27FC1DD222A
:10556000EFF05FF5EFF09FF1EFF0FFCDEFF01FE808
:10557000EFF0DFE9EFF09FBAEFF03FEDEFF09FF4CF
:10558000EFF01F836FB01FC1B7370140239AA7C246
:105590008280B7370140239CA7C28280B737014081
:1055A000239EA7C28280B737014003D747C1136744
:1055B0001700239AE7C08280B707004023960702AE
:1055C000239207028280EFB2BFBA3734014013053D
:1055D00004C005468145EF108000130504C0054650
:1055E0009145EF00D07F130504C00546A145EF00AB
:1055F000107F130504C011468145EF10C00013054C
:1056000004C011469145EF1000001146130504C077
:10561000A145EF00507F130504C08545EF00B06938
:10562000130504C08545EF00D06A130504C0854505
:10563000EF00F06C37040040130504408545EF008F
:105640009067130504408545EF00706B8357C44095
:105650008545C207C183F99BC207C1832316F44065
:105660003714004013050480EF00F0641305048034
:105670008545EF00D068EFE03FD605468145370508
:105680000040EF00D075854537050040EF00B0625F
:105690006FB05FB0B71702409843B706FFF01367CB
:1056A000170098C3D843758FD8C39843B706F7FE41
:1056B000FD16758F98C39843B706FCFFFD16758FCE
:1056C00098C3D843B70601FFFD16758FD8C33707B7
:1056D0009F0098C7B746024003A7068013670701DB
:1056E00023A0E680D8438D6693860680D8C3D8432E
:1056F000558FD8C3D843B706C1FFFD1613670750AF
:10570000D8C3D843758FD8C3D843B7062800558F60
:10571000D8C39843B7060001558F98C39843931692
:105720006700E3DD06FED843B7160240719BD8C37D
:10573000D84313672700D8C32147DC42B18BE39ECF
:10574000E7FE8280B7160240DC421146B18B138718
:10575000C1876385C70021466389C702B7177A00EE
:10576000938707201CC3B7170240DC43918393F64D
:10577000F700B707002093878734B69783C60700E2
:105780001C43B3D7D7001CC38280DC42D44241669D
:10579000C983BD8BF18E890745466393C700C9470E
:1057A00081EEB746024083A60680C18A89CEB7162D
:1057B0007A009386062021A8B7160240D442139699
:1057C000E600E35606FEB7163D0093860690B387C3
:1057D000D70249BF01A001A001A001A001A001A022
:1057E00001A001A001A001A001A001A001A001A0B1
:1057F00001A001A001A001A001A001A001A001A0A1
:1058000001A001A001A001A001A001A001A001A090
:1058100001A001A001A001A001A001A001A001A080
:1058200001A001A001A001A001A001A001A001A070
:1058300001A001A001A001A001A001A001A001A060
:1058400097B1FF1F9381813217F1FF1F1301817BF5
:10585000171500001305052A97A5FF1F9385857A64
:105860001386818863FAC5008322050023A05500B2
:1058700011059105E3EAC5FE138581889385C1CCA6
:105880006377B500232005001105E36DB5FEFD42E9
:10589000739002BC8D4273904280B72200009382C5
:1058A000828873A0023097B2FFFF9382227993E23D
:1058B000320073905230EFF0FFDD97D2FFFF9382FA
:1058C000821F7390123473002030EFB27F8AB727A3
:1058D000014093870740631CF500854513050020B0
:1058E000AD2F8145130500208D2F6FB0BF8AB737CC
:1058F000014093870780E31AF5FE854513050040B4
:10590000A92F814513050040C5B75C413707F1E079
:105910001307F7EF944D7D8F9C41D58FD44DD58FD4
:10592000D441A206D58FD98F5CC11C4537F7F1FF52
:105930001307D77FD4457D8F9C49D58F9445860624
:10594000D58FD98F1CC55C55370710FF7D177D8F0C
:1059500083C74501FD1793F7F70FD207D98F5CD5A1
:1059600082801C4589C593E717001CC58280F99B7E
:10597000EDBF1C4589C593E707101CC5828093F7CE
:10598000F7EFE5BF1C4593E787001CC582800845FB
:105990000D81058982801C4593E747001CC58280E4
:1059A00008450981058982801C4591C5370750004B
:1059B000D98F1CC582803707B0FF7D17F98FD5BFFF
:1059C000A54763F7B7048D47138765FF3307F702D1
:1059D0000328C5009D47B397E70093C7F7FFB3F7C8
:1059E0000701B396E600DD8E54C5994763E3C7040B
:1059F00095477D163306F6025859FD47B397C70001
:105A000093C7F7FFF98F3396C5005D8E50D982801A
:105A10000D473387E502032805019D47B397E7004B
:105A200093C7F7FFB3F70701B396E600DD8E14C9FD
:105A30006DBFB14763E2C702954765163306F602AC
:105A40001859FD47B397C70093C7F7FFF98F3396EF
:105A5000C5005D8E10D9828095474D163306F6023B
:105A60005855FD47B397C70093C7F7FFF98FB39514
:105A7000C500DD8D4CD58280B72701409387074054
:105A8000984711C5B7068000558F98C78280B70622
:105A900080FFFD16758FD5BFB7F7FF1F83A707726D
:105AA00013D70701C207C1831D8DA9473305F5022E
:105AB0009307B00255053345F5023305A7408280B0
:105AC0005C4191C537070004D98F5CC182803707DC
:105AD00000FC7D17F98FD5BF1C4141677917F98FFD
:105AE0001CC1232005002322050023240500B7073D
:105AF000024023260500138787006316E500D8437C
:105B00001367F70001A81387C7016317E500D8439F
:105B10001367070FD8C3B1A8138707036318E500FD
:105B2000D8438566938606F0558FEDB713874704F3
:105B30006315E500D843BD66C5BF138787056316A7
:105B4000E500D843B7060F00C5B71387C70663162D
:105B5000E500D843B706F000C1BF138707086316F6
:105B6000E500D843B706000FC1B713874709E3081C
:105B7000E5F882801C4161773D0794517D8F9C45FB
:105B8000D58F9449D58FD449D58F944DD58FD44D89
:105B9000D58FD451D58F9455D58FD98F1CC1DC4565
:105BA0005CC19C411CC5DC415CC582801C4189C52F
:105BB00093E717001CC1828041677917F98FDDBF19
:105BC0001C4101C6DD8D0CC1828093C5F5FFFD8DA2
:105BD000DDBFB70702409C437D8D3335A000828036
:105BE000B7070240C8C38280EFB28FD8EFF07FFEC4
:105BF0006FB04FDA5841032805004C453706014085
:105C0000930706403E979346F8FFB1C583250640AB
:105C1000F58D2320B640D043F18ED4C31443B3E6B0
:105C2000060114C3184190479346F7FF758E90C73D
:105C3000D047F18ED4C7144541466399C6009447B6
:105C4000D98E94C7D447558FD8C78280B6979443CE
:105C5000558F98C382801C43F58F1CC38280B70781
:105C6000014023AAA7408280372702401C4B93E7BC
:105C700007081CCB8280B7270240984BB70602006A
:105C8000137505F0558F98CBC8CB984B1367070455
:105C900098CBD847058B75FF984B8176FD16758F8D
:105CA00098CB8280372702401C4BC166137505F0E4
:105CB000D58F1CCB5C47858BF5FF372702405C47AF
:105CC000898BF5FF3727024013060010B386F500D5
:105CD00003A80600B306F50023A006015447898AED
:105CE000F5FE9107E394C7FE1C4BB7062000D58F45
:105CF0001CCBB7270240D847058B75FF984BC17660
:105D0000FD16758F98CB82809C4513F7070113F819
:105D1000F70001C7D8413368E80037270240145B19
:105D20003707000F758F45EF8546238BD1903717C6
:105D300001406317E50003D7050035832390E50094
:105D400083D5050013F7F50F39C318418146854EF9
:105D50003D4F930F800293028004214E3396DE0064
:105D6000B3F8C500631116039398260033131F017F
:105D70001343F3FF3377E300B318180133E7E80068
:105D80006397F70750C98506E39AC6FD18C1130744
:105D9000F00F6375B70454412146854E3D4F930F74
:105DA000800293028004414EB398CE0033F7150170
:105DB0006392E8021317260001173313EF00134311
:105DC000F3FFB376D3003317E800D98E6395F7035A
:105DD000232A15010506E319C6FD54C18280371731
:105DE0000140E31FE5F403C7619139DBA9B7E39CE8
:105DF00057F810C949BFE39F57FC23281501D9BFA5
:105E0000B707014063570504DC4F1357050193762C
:105E1000F700131605013707300041823378E5009B
:105E2000635A05066317E804138706018D46B39687
:105E3000E60093C6F6FFF58F89C91357550112077F
:105E40003317E600D98F63550506370701405CCF4D
:105E5000828037270240145BDC433707000F758FC1
:105E60004DF713D71700F976CE07758FCD83D98FED
:105E700069BF1317B500635607000D47B316D70067
:105E80004DBF1357550112073317E6001347F7FFAD
:105E9000F98F5DB76312E802370801408326480096
:105EA000370700F17D17F98F758F2322E800D1F5B0
:105EB000370701405CC382801317B500635C07009D
:105EC0000D473317D7001347F7FF7D8FB707000F34
:105ED000D98FF1BF1357550112073317E600E5B705
:105EE00013F7C50F93F73500B7050140BA959445F0
:105EF0008A073D473317F7001347F7FF758F98C59B
:105F000098453315F500598D88C58280AD673737C0
:105F100000409387A7AA1CC38280B567373700402B
:105F20009387C7CC1CC38280B7160240DC425177EE
:105F30007D17F98F5D8DC8C28280371702405C43A0
:105F40009146B18B6385D700A1466386D706B71704
:105F50007A00938707201CC1371602405C4237073E
:105F60000020130787359183BD8BBA9783C607003E
:105F70001C41B3D7D7005CC15442A1829D8ABA9616
:105F800083C60600B3D6D70014C55442AD829D8A9D
:105F9000369703470700B3D7E7005CC558423983FB
:105FA0009376370013870188369703470700B3D7E6
:105FB000E7021CC982805C435843C166C983BD8B1C
:105FC000758F8907C5466393D700C94701EF3747E7
:105FD000024003270780418B09CF37177A00130748
:105FE000072021A83717024058439316E700E3D64D
:105FF00006FE37173D0013070790B387E702A1BFDE
:1060000099C5371702405C4B5D8D48CB8280B7172E
:106010000240D84B1345F5FF798DC8CB828099C5D6
:10602000371702401C4F5D8D08CF8280B7170240A2
:10603000984F1345F5FF798D88CF828099C5371722
:1060400002405C4F5D8D48CF8280B7170240D84F29
:106050001345F5FF798DC8CF828099C53717024067
:106060005C475D8D48C78280B7170240D84713450B
:10607000F5FF798DC8C7828099C5371702401C4B40
:106080005D8D08CB8280B7170240984B1345F5FF12
:10609000798D88CB8280835705029206558EC20780
:1060A000C183F99BC207C1832310F5028357850181
:1060B00003570502B7360140C207C18393F7C7F003
:1060C000D18F4207C207938606C04183C183630410
:1060D000D502B70600406300D50293860640630CE4
:1060E000D500B7160040138606806306C500938668
:1060F00006C0631BD500759BD98D93E51500231C45
:10610000F5002310B5028280559BFDB78357050229
:10611000B2062206C207C183BD9BC207C1832310FA
:10612000F502835885018567035705029387F7CFEA
:10613000D18EB3F71701D58F13984500B7360140BC
:1061400042074208C207938606C0418313580801DC
:10615000C1836304D502B70600406300D50293866D
:106160000640630CD500B716004013860680630610
:10617000C500938606C0631DD5001377F7FD33670E
:10618000E80013670701231CF5002310E502828055
:106190001377F7F54D8FF5B7835705003737014073
:1061A000130707C0C207C1836304E5023707004035
:1061B0006300E50213070740630CE5003717004052
:1061C000930607806306D500130707C06317E50031
:1061D00003D7250093F7F7F8D98F03D7650093F716
:1061E000F7CFC207C183D98F2310F50083D74500AD
:1061F0002316F50283D705002314F502B7370140B3
:10620000938707C06316F50083C785002318F5023E
:106210008547231AF50082808357050203D60500BF
:1062200003D82500C207C183F99BC207C18323108D
:10623000F502835705028356450003578501C207BF
:10624000C183420741831377C7F8518F03D6850076
:10625000F59BC20633660601D18F3736014013061F
:1062600006C0C1826313C50203D6A500DD9B03D817
:10627000E500D18F03D64500ED9B93F6F6CFD18F85
:1062800003D6C50033660601D18E2312D500231C28
:10629000E50003D76500231AE5022310F50282808A
:1062A0008357050265771307F7CFC207C183BD9BEC
:1062B000C207C1832310F5028357050283564500A8
:1062C00003D88500C2071396060183568501C18352
:1062D00093F7F7FD758F83D605004182A206558F8F
:1062E00083D6250042074183B3E606019206D58F87
:1062F000B7360140C207938606C0C1836311D50437
:1063000083D6A50093F7F7F703D8C5009206D58F7B
:1063100083D64500C207C183920693F7F7FBD58F5A
:10632000FD769386F63FF18E03D6E500C207C18362
:10633000336606010A06D18E1396060141822312A6
:10634000C500231CE50003D76500231CE5022310CC
:10635000F50282808357050203D88500C207C183F6
:1063600093F7F7EFC207C1832310F50283570502A5
:10637000835645000357C501C2071396060142071D
:1063800083D6050041831377C7F8558F83D6250040
:10639000C18393F7F7DFB3E60601A206D58FB736C0
:1063A0000140C207938606C04182C1836312D504AF
:1063B000FD769386F67FF58F83D6A50003D8C500BA
:1063C000A206D58F83D64500C207C183A20693F7E4
:1063D000F7BFD58FF576FD16F18E03D6E500C2071F
:1063E000C183336606011206D18E139606014182DF
:1063F0002312C500231EE50003D76500231EE50216
:106400002310F502828003570502FD77FD17F98FEF
:106410002310F50203580502835645008357C50132
:10642000657703D605001307F7CF7D8FF97722062E
:10643000FD17518FB3F7070103D6250003D8850058
:10644000C2064207336606013206D18F3736014055
:10645000C207130606C0C1824183C183631BC50006
:1064600071767D16F18E03D6C5001A06D18EC2064E
:10647000C1822312D500231EE50003D76500231037
:10648000E5042310F502828003D7250083D7050099
:10649000D98F03D74500D98F03D76500D98F03D78C
:1064A0008500D98F03D7A500D98F03D7C500D98F11
:1064B0002312F50482808357050091C593E71700E6
:1064C0002310F5008280C207C183F99BC207C183F4
:1064D000C5BF8357450491C52167D98F2312F504A1
:1064E0008280C607C583DDBF8357C50009C6DD8D21
:1064F0002316B500828093C5F5FFFD8DD5BF231A05
:10650000B5008280EFA2DFC6EFF01FFE6FA09FC82C
:106510008357050091C593E707082310F500828093
:10652000C207C18393F7F7F7C207C183FDB783574B
:106530008501C207C183DD9BDD8D231CB5008280F0
:1065400003578501FD779387F77FF98FA205CD8FDC
:10655000C207C183231CF50082808357C501C2078F
:10656000C183DD9BDD8D231EB50082800357C501ED
:10657000FD779387F77FF98FA205CD8FC207C1837F
:10658000231EF500828083578501C207C183ED9BDE
:10659000DD8D231CB500828083578501A205C207CB
:1065A000C18393F7F7BFCD8FC207C183231CF500CA
:1065B00082808357C501C207C183ED9BDD8D231EF9
:1065C000B50082808357C501A205C207C18393F736
:1065D000F7BFCD8FC207C183231EF500828003570A
:1065E00005028547B397B70093C7F7FFF98F2310CC
:1065F000F50283570502B315B600DD8DC205C181D2
:106600002310B5028280035705029147B397B70064
:1066100093C7F7FFF98F2310F50283570502B315CF
:10662000B600DD8DC205C1812310B502828083577B
:106630004500C207C18393F7F7F8C207C18323124D
:10664000F50083574500DD8D2312B5008280835706
:106650008501C207C183CD9BC207C183231CF500FE
:1066600083578501DD8D231CB5008280035785018A
:10667000FD779387F73FF98F231CF500835785013A
:10668000A205DD8DC205C181231CB5008280835720
:10669000C501C207C183CD9BC207C183231EF5007C
:1066A0008357C501DD8D231EB50082800357C501C8
:1066B000FD779387F73FF98F231EF5008357C501B8
:1066C000A205DD8DC205C181231EB5008280EFA227
:1066D0003FAA03D705002A84AE8483D7250003D6BA
:1066E000450083D6850019EBBE85EFF0DF9A83D590
:1066F00064002285EFF0BFF56FA0DFA99145631B11
:10670000B700BE85EFF09FA083D564002285EFF02F
:10671000FFF5DDB7214583D56400631EA708035745
:106720000402920613988700420741831377F7EF1C
:10673000420741832310E4020355C40103570402B6
:106740004208420541811375C5F0518D558DB7360C
:10675000014042074205938606C041831358080151
:1067600041816304D402B70600406300D4029386DB
:106770000640630CD400B7160040138606806306FB
:10678000C400938606C06310D4021377F7DF336723
:10679000E80093670710231EA4002310F40222854B
:1067A000EFF0FFEE91BFFD769386F65F758FD98F80
:1067B00093E70710CDB7035504027D777D17698FE6
:1067C0002310E4020355C40105671307F7CF698F4F
:1067D00003580402131586001396C600498E939839
:1067E000C700518FB73601404208C208420793865E
:1067F00006C01358080193D8080141836304D402EA
:10680000B70600406300D40293860640630CD400B0
:10681000B7160040138606806306C400938606C040
:106820006313D402F977FD173378F80033E80801D1
:106830008567B367F800231EE4002310F402228565
:10684000EFF0DFE655BDA1669386F6DF3378D8001A
:10685000B3E707018566D58FF9BF83570501035557
:10686000C500ED8F4205418189C76D8D3335A0008C
:1068700082800145828093C5F5FFC205C18123183E
:10688000B5008280EFA2DF8E83560501F577FD17F4
:10689000F58F83D6650003D7C5007971D58F23188E
:1068A000F5008356C500FD779387379FF58F83D614
:1068B00045002A842EC6D58F83D68500D58F83D6F2
:1068C000A500D58F2316F50083574501C207C18364
:1068D00093F7F7CFD98F231AF5006808EFF0EFE5AB
:1068E000B747014093870780B245631DF404A25760
:1068F0008356C4006547B387E702C206C186984144
:1069000063D4060406070356C4004206B3D7E70261
:10691000130740064186B3D6E702B3F7E7029206B3
:10692000635606028E0793872703B3D7E70213F750
:106930007700B367D700C207C1832314F400456111
:106940006FA05F8592576DB70A0775BF920793874F
:106950002703B3D7E702BD8BD58FF1BF81C983571A
:10696000C5000967D98F2316F50082800357C5003B
:10697000F977FD17F98FC5BF13F7F50F8547158315
:10698000B395B7006319F7009307C500984301CE8C
:10699000D98D8CC38280894693074501E318D7FEC1
:1069A00093070501E5B793C5F5FFF98DDDB783576B
:1069B000450109C6DD8D231AB500828093C5F5FF18
:1069C000FD8DD5BF93C5F5FFC205C1812310B5006C
:1069D000828013F7F50F85461583B397B6006313CE
:1069E000D7020357C500F98F035705000145420739
:1069F000418381CB0545A181B315B5006D8F33353A
:106A0000E000828089466315D70003570501E1BF86
:106A100003574501C9BF0000E8210000F221000032
:106A2000F8210000FE210000E8210000823700006C
:106A3000963700009A3700009E370000A23700000A
:106A4000A6370000AE370000BA370000C637000096
:106A5000CC37000088370000D4370000E43700004E
:106A6000FE370000883700008837000088370000B4
:106A700088370000883700000A3800001838000006
:106A8000883700008837000088370000883700000A
:106A900088370000883700008837000088370000FA
:106AA00088370000883700008837000088370000EA
:106AB00088370000883700001E380000191B1213A9
:106AC0001D1516171A090A0B1E0D0E0F1F0F0703AF
:106AD000010010181C1E0000CE4C0000DC4C000011
