:1010000000400020CD4F0000594700005B47000022
:101010001950000019500000195000000000000095
:101020000000000000000000000000001950000057
:10103000195000000000000019500000190C002099
:1010400019500000195000001950000019500000FC
:10105000650C0020195000001950000019500000C4
:1010600019500000195000001950000019500000DC
:1010700019500000F90C0020195000001950000010
:1010800019500000210D00201950000019500000D7
:1010900019500000E50C0020195000001950000004
:1010A00019500000E90B00201950000019500000F1
:1010B000195000001950000019500000195000008C
:1010C000195000001950000019500000195000007C
:1010D000195000001950000019500000195000006C
:1010E000195000001950000019500000195000005C
:1010F000195000001950000019500000195000004C
:1011000019500000195000001D0C0020410D002056
:10111000195000001950000019500000195000002B
:10112000195000001950000019500000195000001B
:10113000195000001950000019500000195000000B
:1011400019500000195000001950000019500000FB
:101150001950000019500000BFF34F8F0549064B8E
:10116000CA6802F4E0621343CB60BFF34F8F00BF45
:10117000FDE700BF00ED00E00400FA058A1A036AEB
:10118000816830B5044602600069656801FB0200B1
:101190009842A8BF18465B429842B8BF1846A36958
:1011A000E1682061D31A4B43C4E90532616A05FB4B
:1011B000023318448842A8BF084649428842B8BF53
:1011C0000846E06130BD00002DE9F3410A4B0B4CAD
:1011D0001968C022204603F076F86278A378511E81
:1011E000032903D8013BDBB2FD2B09D90C2002F007
:1011F0003BFEFFF7B1FF00BF2003002010150020C9
:10120000022A12D8A02363710123A37100230A22AA
:10121000E371A37223736373A37332232272E373A4
:10122000642205236272E272237494F82730A8497D
:101230005A1ED2B2FD2A88BFFF23A64A84BF84F873
:1012400027300F231370A37B012B84BF0023A373CC
:10125000E37BA27B013BDBB2F92B84BF3223E37338
:10126000237C013BDBB2F92B84BF05232374637B12
:10127000092B84BF00236373974B1A70637C012B87
:1012800084BF00236374A37C012B84BF0023A37459
:10129000E37C012B84BF0023E374237D012B84BFF7
:1012A00000232375A37D227D012B84BF0023A3751A
:1012B00094F82F30012B84BF002384F82F30874B04
:1012C0001A70E37BC82213FB02F30B60237C13FB31
:1012D00002F3834A1360E37D2A2B03D81A1F052AE1
:1012E00000F2E8807F4B10221A70E37D0A3BDBB2EC
:1012F000202B9CBF7B4A1370237EA3F10802D2B23D
:10130000882A00F2E180642213FB02F30622B3FB79
:10131000F2F2754BB3FBF2F3744A1380744A754FC3
:10132000136102F58052744E136102F58052734DC1
:101330001361A379DFF8F4815A1E312A627E98BFC7
:1013400003EB8303A2F1320194BF5B000023642905
:1013500094BFD2181A463B8003F5C8733380A37E2E
:10136000A8F8002003EB8303DB0014332B80E37E1B
:10137000023B1E2B88BF0E234FF0020088BFE3768E
:1013800002F0EAFB6378002B00F02181A07F0B289C
:1013900088BF052002F0E0FB94F82030584A03F2A1
:1013A00077135B00138094F82130564A03F26B33B5
:1013B0005B00138094F82230534A03F25E5313808B
:1013C000524B94F823201A7094F82530504AFA337F
:1013D000138094F82830053B142B84BF052384F830
:1013E000283094F82930013B092B84BF0A2384F864
:1013F000293094F82A30013B082B84BF0A2384F853
:101400002A3094F82A30092B28D8C3EB4312C3EBB7
:101410008202404B40491B6803EB42036A3BDBB24C
:101420003E4AC82B28BFC8231370B8F800201A44BE
:10143000A8F800203A881A443A800A881A440A8098
:1014400032881A4432802A4A5363936302F58052E9
:101450005363936302F580525363936394F82B3084
:10146000463B462B84BFFF2384F82B3094F82C3066
:10147000013B632B9EBF2A4B01221A70627A294BD3
:1014800052005A60A27A9A60E27A5200DA6094F8C6
:101490002D30013B092B84BF052384F82D3094F8AF
:1014A0002E30092B62D8042B47D8DFE803F05F41C8
:1014B00053465700032B3FF618AF0A4ADB00DBB256
:1014C00013700A33E37510E7174A40F2CF7324E72D
:1014D000A40300209C030020D0150020ED14002060
:1014E000A0030020FE14002070330C00F202002044
:1014F00000C00440F8020020FA0200201A03002075
:1015000012030020100300200E0300200C03002013
:101510000A030020E0020020EA0200201803002055
:10152000EC1400204C030020F402002000030020F3
:10153000344A01231370344A13706379334E3448AC
:101540003449354A092B18D80927377003700B70B6
:10155000137022E0314B01221A70EEE7304A01236A
:101560001370294A00211170264AE5E7254A002315
:1015700013702A4A1370244BEDE7002737700A26B0
:10158000B3FBF6F30678B34238BF037008788342A2
:1015900038BF0B7011788B42DAD32B882148B3F512
:1015A000967F3EBF204A00211170204A2021D27E22
:1015B000B1FBF2F16422B3FBF2F2B2FBF1F2028072
:1015C0000C22B3FBF2F31A4AB3FBF1F313804FF48E
:1015D000FA73009340F6B8324FF47A7328884FF4C8
:1015E000967101F083FF134BA27C1880124B2AB135
:1015F0004FF47A721A6002B0BDE8F0814FF4FA62DB
:10160000F8E700BF111400209416002009150020EF
:101610001F0300201E0300201D03002010140020C3
:1016200095160020EE020020040300201015002073
:10163000EC020020060300200C150020024B03489A
:101640001A68C02102F006BE2003002010150020F9
:1016500070B50D490D4C0E4B0A780E4D1E88206852
:1016600035F8123025F812603044C01A531CDBB232
:10167000322B28BF002320600B703223B0FBF3F025
:10168000054B80B2188070BD98140020941400207F
:10169000A6140020301400209A14002008B502F08F
:1016A000DBFC0C4B93F900302BB130B90A4A1378AC
:1016B0000133137008BD0028F8D1084A13780133AC
:1016C000DBB21370064A12789A42F3D2024B002220
:1016D0001A70EFE7E40200200A1400201C14002016
:1016E0000700002010B5214A214C92F900202378F0
:1016F000012A2AD101335BB2062BC9BF1D4B2370CF
:1017000022701A7094F90030002B03F00103B8BF67
:101710005B42194A137072B6184B93F900301BB92B
:1017200094F9000002F065FF62B602F0F9FC144A79
:1017300000231370134A1370134B144A196894F959
:101740000030013B22F8131010BD013B5BB2002BAF
:10175000DDBF06232370074B2370DCBF01221A7004
:101760002378DB4303F00103D3E700BF0A00002026
:1017700004000020C8140020E4020020A01400206F
:101780000A1400200B14002000000020BC140020CC
:1017900010B5094C23785BB9FFF7A4FF074B42F261
:1017A000107241F288301A6003F038FA0123237076
:1017B000BDE8104002F09EBC2E1400200000002066
:1017C0002DE9F74F7A4D7B4CAB7C7B4F002B00F023
:1017D000DD82DFF8188295F8263098F9000000289D
:1017E00077D095F82630002B40F0308223889BB2CA
:1017F000B3F5836F2DD371496B7C91F900209A4228
:101800001BD16F4A6F4812680088904203D26E4A1B
:101810001288C72A04D997F90020002A00F0B28262
:10182000C3F101030B70694B00261E60684B012257
:101830001A7002F037FC674B1E702388664A9BB211
:1018400092F900205B006FF400610B449B1A634A1D
:10185000138023889BB2B3F5836F2FD223889BB26A
:101860002F2B2BD9554A697C92F90000C1F1010355
:10187000984219D1524B53481B680088984203D2B2
:10188000514B1B88C72B04D997F90030002B00F06F
:101890007B824E4B117000261E604D4B012018704C
:1018A00002F000FC4B4B1E7023884B4A9BB292F90E
:1018B00000205B00313B9B1A484A138023889BB26F
:1018C0002F2B00F2B780454A00231380414A137042
:1018D000B0E0434E3178490001F57A71002B00F0F9
:1018E000248123889BB28B422FDDDFF8D0C06A7C35
:1018F0009CF9003093423B4A23D1DFF8E0E0AEF898
:1019000000004FF0010E82F800E0DFF8DCE09EF905
:1019100000E0BEF1000F18D0C3F101038CF80030D5
:101920001070314B208800221A7040F2FF73009330
:101930004FF4FA622F2380B201F0D8FD274B1880B4
:1019400003E092F90030002BEBD03278238852006C
:101950009BB2C2F57A7293424EDA184895F811C0DC
:1019600090F90010CCF1010399421E4B40D1DFF8F1
:101970006CE00021AEF800104FF0010E83F800E09B
:10198000DFF864E09EF900E0BEF1000F34D080F88B
:1019900000C01970144B2088002119702F23009368
:1019A00080B240F2FF7301F0A1FD0C4B188023E0E0
:1019B0001015002014140020251400200A00002017
:1019C0000000002006030020041400200C14002056
:1019D000E7020020DA140020FD0200209C14002001
:1019E0000C030020A0140020F81400201114002083
:1019F00093F90030002BCDD0337822885B0092B26F
:101A0000C3F57A718A4210DB228803F57A7392B2A9
:101A10009A420ADCA24B00221A80A24B93F90010D2
:101A200019B11A70A04B01221A7098F90030002BDE
:101A30007FF4D7AE9D4E9E4B327893F900309A4298
:101A400040F3A881AB7D002B00F0A48102F0C8FD1B
:101A500002F028FB974B00221A806623337097F917
:101A60000030002B40F04682934B1B78002B00F097
:101A70004182E97CDFF83C92DFF82882DFF870A22F
:101A80008E4E2E22502313FB0123B9F800209342DF
:101A9000C0F2F981DFF85CB29BF90030002B40F016
:101AA00030822A7D9AF80030002A40F0B4823280D9
:101AB00053B9834A01211170824A13602B7F002B96
:101AC00000F0368202F0C6FD95F8262098F9003025
:101AD000002A00F00A82002B40F03282B9F8002080
:101AE00031882E2A00F2F082774B31881B88994288
:101AF00088BF3380754B93F9003033B1744B318814
:101B0000B3F900309942C8BF3380724B1B68002B79
:101B100040F3F0812F2A40F2ED8142F2107293FBE4
:101B2000F2F3328813443380E4E123889BB28B4282
:101B300033DD694A6B7C92F9001099421DD16749E7
:101B4000674809680088884203D266490988C7291E
:101B500003D997F90010002970D0C3F10103137065
:101B6000584B4FF00009C3F80090554B01221A70F2
:101B700002F098FA5C4B83F800903178208840F2AC
:101B8000FF73490000934FF4FA622F2301F57A7135
:101B900080B201F0ABFC424B1880337822885B00A6
:101BA00092B2C3F57A739A4232DA4B4B6A7C93F95C
:101BB0000000C2F1010188421BD148494848096828
:101BC0000088884203D247490988C72903D997F971
:101BD0000010002936D03B491A704FF00009C1F8B7
:101BE000009037490120087002F05CFA3E4B83F800
:101BF0000090327820882F2352000093C2F57A7229
:101C000040F2FF73002180B201F070FC244B188079
:101C1000337822885B0092B2C3F57A718A42FFF66C
:101C200004AF228803F57A7392B29A423FF7FDAE71
:101C30001B4A002313802C4A1370F6E64FF47A7384
:101C400023809AE74FF47A732380D2E723889BB2EC
:101C5000B3F5836F54D320486A7C90F900309342E7
:101C6000104A49D10E4E00213180012616700E4EC9
:101C700096F90060002E43D0C3F101030370117088
:101C8000094B00221A702388184A9BB292F900204F
:101C90005B006FF4006003449B1A014A13802FE03D
:101CA0009C140020A0140020F81400202F14002001
:101CB000FE020020161400201A140020CA1400206E
:101CC000E70200200C140020F0020020EC14002099
:101CD00008030020E81400200A0000200000002073
:101CE0000603002004140020DA140020FD02002066
:101CF0002E140020C914002092F90030002BBFD010
:101D000023889BB2B3F5836F29D223889BB22F2BF4
:101D100025D9A449687C91F90020C0F101039A42B9
:101D2000A14B18D1A14E0022328001261E70A04E78
:101D300096F900609EB108701A709D4B00221A70CF
:101D400023889C4A9BB292F900205B00313B9B1A8E
:101D5000964A138003E093F90030002BEDD02388DE
:101D60009BB22F2B3FF666AE904B00221A808E4B13
:101D700093F9001000293FF45DAE1A708C4B0122DC
:101D80001A7057E6228058E523808DE5874B22881C
:101D90001A804FE695F81380B8F1000F2ED0834ECD
:101DA00095F8283030881D2816D8834B00221A80D9
:101DB00095F82830308803EB8303B0EB830F4FEAAC
:101DC0008301FFF64CAE40F2FF72A023009201F0B7
:101DD0008DFB794B188042E61E28E9D003EB830384
:101DE000B0EB830F4FEA8302E2DAA02300931E21B7
:101DF0002F2301F07BFB704B1880D9E76F4B6E4EA1
:101E000093F90030002B3BD06D4BDFF8E0911B784D
:101E100013B36C4BDFF894A11B6800936A4BBAF8BC
:101E200000001B6840F2FF722F2101F05FFBEA7E89
:101E3000664B93FBF0F3520893FBF2F3644A138072
:101E4000BAF800302E2B07D8624BA6F80080C3F8F2
:101E50000080C9F8008002E6D9F8003042F2107222
:101E600093FBF2F39BB2B3F5006F338003D340F2E0
:101E7000FF733380F3E52F2B3FF6F1AD3023F8E706
:101E80004A4B1B88F5E79AF8003073B902F0A8FBBB
:101E9000514B93F900300BB9FFF77AFC01238AF814
:101EA00000304E4B1A884E4B1A804E4BE97CB9F8E5
:101EB00000001B884FF4FA620092F1B1283340F21F
:101EC000FF72892101F012FB95F8263080B2308034
:101ED0000BB988F80030E97C2E22502313FB012334
:101EE000B9F800209342BFF6D5AD98F90030002B29
:101EF0003FF4F4AD03B0BDE8F08F40F2FF722F2144
:101F0000E0E7013B042B06D8DFE803F003090C0FE0
:101F1000030001F0E9FE00238BF80030C1E501F079
:101F200023FFF8E701F060FFF5E701F043FEF2E779
:101F300098F90030002B7FF4C7AD02F051FBC3E5E8
:101F4000DFF8ACA0284F9AF90030ABB123889BB2E0
:101F5000B3F5836F4ED323889BB2B3F5836F18D349
:101F600023889BB26FF400625B001344114A92F91C
:101F700000209B1A3B800CE021884FF47A7089B2D4
:101F800001F0D2FA9AF9003000F57A703880002B0F
:101F9000DCD13A8840F2CE739A4239D902F05AFB2A
:101FA000A3E700BF0A000020A01400209C1400201A
:101FB000F8140020FD02002016140020F414002064
:101FC000D0150020A4030020A00300200087930365
:101FD000F614002074030020E70200200003002014
:101FE000CC140020F802002006150020F014002078
:101FF0001114002023889BB22F2BACD923883C4A94
:102000009BB292F900205B00313B9B1A3B80A2E718
:1020100002F09EF969E7EBB9364A2C7F0121117075
:10202000354A1360354A1370002C4AD0EB7C8BB9CB
:102030008C420FD195F82930314A03EB830303EB2F
:102040008303DB009BB2138040F2CE72934233D9FC
:1020500002F000FB2B4B2C4993F90030013BC3EB02
:1020600003122A4B1B8803EB82039AB21BB2B3F50F
:10207000B47FA8BFA2F5B473254AA8BF1BB21380D2
:102080009BB203F1770212B2B2F5B47FA4BFA3F101
:10209000F10212B20A8003F1EF0212B2B2F5B47F7C
:1020A000A4BF793B1AB21B4B1A80EB7C012B08BFF3
:1020B0003B700023338018E702F04AF988F80040AB
:1020C000C8E702F08DFAC5E7687F1E2303410A487E
:1020D000006883427FF608AD0F4B1B888B4288BF98
:1020E00033800E4B31881B88994288BF3380FBE4D4
:1020F000FD020020E70200200C1400201C14002028
:1021000006150020040000202814002014030020DD
:102110002A1400202614002000030020FA020020C8
:1021200010B5114C2378012B03D100F0C7FE00231A
:1021300023702378022B13D10C4B1868B0F5803F25
:1021400006DB4FF6FF7001F0F1F80023237010BD9D
:1021500064304FF6FF73984228BF184680B2F2E70A
:10216000BDE81040FFF72CBBFF140020B014002086
:102170002DE9F84F3F49404A91F9001013883F4D2F
:102180003F4C00295DD101331BB2B3F5B47FA8BF2A
:10219000002313802B8801331BB2B3F5B47FA8BF93
:1021A00000232B80238801331BB2B3F5B47F5EDAA2
:1021B0002380DFF8D4B0B2F90030DFF8D0A03BF9CB
:1021C0001300DFF8CC90BAF800302E4F1844B9F85D
:1021D0000030584397F82D304FF4FA680A2690FBE8
:1021E000F8F0584390FBF6F080B202F08BFBB5F9A3
:1021F00000303BF91300BAF800301844B9F8003049
:10220000584397F82D3090FBF8F0584390FBF6F0C8
:1022100080B202F083FBB4F900303BF91300BAF846
:1022200000301844B9F80030584397F82D3090FB2F
:10223000F8F0584390FBF6F0BDE8F84F80B202F09A
:1022400079BB013B40F267111BB233EA230328BF7D
:102250000B4613802B88013B1BB233EA230328BFB4
:102260000B462B802388013B1BB2002BA0DA218078
:102270009FE700BF0A0000202A1400202814002035
:1022800026140020101500200E0000200800002059
:10229000F202002070B502F0B7FC254D254C2880D5
:1022A000002002F0BBFC22682B88234E234D02EB5A
:1022B000420213449B082360214B22681B7853433E
:1022C000204AC3F38F1313802268C3EB5203338079
:1022D00002F09AFC3388834202D92B68042BF7D88A
:1022E000FFF700FA184A00231370184A1370184AAF
:1022F0002B68117801332B6059B9517F92F8262051
:1023000011430FD0132B03D92368B3F5FA6F02D909
:1023100070BD022BFCD90F4B00221A70BDE8704033
:1023200001F0E8BE0C4B22681B689A42F0D2F2E73B
:102330000614002000000020021400200C140020CD
:10234000FE1400202C1400200A1400201C1400206D
:1023500010150020E70200200C1500202DE9F04F99
:102360009249934B934A0B4489B0136002F0FCFDF1
:10237000102291490DEB020001F0A5FF9DF91430E8
:10238000382B8E4B40F0088128221A601A688C493D
:102390008C4D8D4E8D4F8E4C2A7093B20B803380B6
:1023A0003B8002F0DBF902F0C9FD02F0CFFAFEF744
:1023B0000BFFE378022B05D12379032B02D163783D
:1023C000032B07D80223E3700323237104236370D4
:1023D000FFF734F97F4A2B785363936302F58052F9
:1023E0007D4D5363936302F5805253639363637C23
:1023F0007A4A013B18BF01231370794B1B882B804D
:10240000237D03B9E37494F82630BBB1754B76494C
:102410004FF47A721A800023E37463756373237533
:10242000A37533883233012233803B88A2740A704B
:102430006E4A32333B801388323313806C4B002654
:102440001E8002F0D5FA6B4B4FF0FF32DA6003F0DA
:1024500047F9694B1B781BB1684BE67401221A706F
:1024600001F074FFDFF8BC81654A664E518813881D
:102470000B4491880B44D1880B44118952890B4439
:10248000134404335B10C8F800303368042B00F2A7
:102490008A80A37C002B14BF07230C235A4A137095
:1024A0005A4A1370534B4FF0FF32DA60637D012BB1
:1024B0000AD1574B18684A4B1B880093C8225B0807
:1024C000602101F013F82880637DDFF85C91022B16
:1024D00021D1D9F80030F92B09D8D9F80030642B74
:1024E00081BFD9F8003003EB83035B002B80D9F860
:1024F0000030632B05D8D9F8003013B14FF47A734C
:102500002B80D9F80030F92B02D8D9F8003013B954
:1025100040F6C4132B803F4B1B8842F2107293424B
:1025200040F2C080DFF804B19BF800204FFA82FA35
:10253000002A7DD002F054F8374B00241C80374B22
:102540008BF800401C702A4B1C80224B9A6964F364
:102550001F429A61DA6964F31F42DA6103F580531E
:102560009A6964F31F429A61DA6964F31F42DA617F
:1025700003F580539A6964F31F429A61DA6964F340
:102580001F42DA6102F0ACF925484FF4807221460F
:1025900002F0B4FFFEF7E0FD9DF91320312A7FF42D
:1025A000F5AE5022F1E6062378E700BF00000008F0
:1025B00000F0000020030020E0EF0000E002002017
:1025C0000800002018030020F8020020F602002076
:1025D0001015002000C00440F40200200A00002072
:1025E000F2020020EA020020040300200003002081
:1025F0001814002000300440D0150020F4140020EE
:10260000BC1400200C14002006000020050000204F
:1026100000000020001400201614002012140020D6
:10262000200F0020B0140020B81400201A1400203D
:1026300049F64042934235D901F0D2FF2C4B8BF83A
:1026400000A0A3F800A02B4B83F800A02A4BA3F80E
:1026500000A02A4B9A696AF31F429A61DA696AF309
:102660001F42DA6103F580539A696AF31F429A6147
:10267000DA696AF31F42DA6103F580539A696AF3F3
:102680001F429A61DA696AF31F42DA6102F028F99F
:102690004FF4807251461A4802F030FF0A2001F0D0
:1026A000E3FB77E7174A118844F62063994212D971
:1026B000154B1648B3F900304FF4B4711B0493FB6B
:1026C000F1F301680B44036000231380104A137870
:1026D0000BB1013B137032680E4BB2F57A7F1B8849
:1026E0001CD90D4A00211170C72B21D81DE000BF55
:1026F00016140020121400201814002000C00440FA
:10270000200F0020D8140020CE140020D414002064
:10271000FA1400209C1400202F140020002B40F0FD
:1027200007818C49642A0B7002D98A4A00211170F2
:10273000E27C22B19F2B9EBF864A00211170864AFF
:1027400092F90020002A00F0F780B3F5C87F02D28A
:10275000804B00221A70814B1B78ABB1804B814AB1
:102760001B7812785BB213437F4A127813435BB233
:1027700053B90B2001F078FB7C4B4FF0FF32DA604D
:1027800040F2DC5000F0EAFE94F82730FF2B15D120
:10279000754B1B7893B9764B1B887BB9754B1B68BF
:1027A00040F6E442534341F2040293FBF2F3724ACF
:1027B000DBB284F827301370FEF740FFDFF800B279
:1027C000D8F80030032293FBF2F3C9F800309BF9EC
:1027D0000030002B37D033680A2B34D9DFF8E4A15E
:1027E000D9F80010DAF8000000F09EFED9F80030A9
:1027F000B0EB530F20D9D9F80030B3F5FA6F1BD2E4
:102800005E4A00233360137801331370A37C1BB935
:10281000574B1B882F2B04D8594B1B68B3F57A7F75
:1028200002D9514B00221A70564B01221A70564B96
:102830001B88D340554A138000238BF80030D9F809
:102840000030CAF80030DFF8809199F800305AB2B1
:10285000002B78D04E4BD8F800201B884D494E48AD
:1028600053436432B3FBF2F39BB200934B4A4C4B9D
:1028700012885B88098890F9000001F02DFB0A207E
:1028800001F0FAFE002389F80030DFF8409199F852
:102890000030012B40F0C48001F038FB4FF0804243
:1028A00000205368DFF8ECB043F00043536001F0C0
:1028B00059FB394B18803B4B1A8840F6E44A40F6E6
:1028C000FF710AFB02F2B2FBF1F2374909884A4371
:1028D0006421B2FBF1F2ABF80020FEF7B9FE254A05
:1028E0000AFB00F310602922B3FBF2F3224A1278AC
:1028F0006FF0630101FB02330F2293FBF2F3274ACF
:102900001BB223EAE373138094F82420274B012A97
:1029100040F02B81264A274892F900200088BBF816
:1029200000104243914253DA1A8801321A8054E06F
:10293000642A7FF6FDAED7E6952B98BF64221E4B26
:1029400088BF0A2206E71D4B93F9001000299CD08E
:102950001A709AE72F140020E2140020DC150020E2
:102960001A140020C91400202E1400200030044046
:1029700016140020D01400209C030020E314002033
:1029800000000020E702002000030020CC140020FB
:1029900020140020DC140020AC140020CE140020F1
:1029A000D4140020A814002002030020E01400200A
:1029B000DB1400200A030020FE020020081500207E
:1029C000C8140020B4140020A1140020A214002078
:1029D0009E4A92F90020002AA8D01A889C4B9D4854
:1029E00093F9001042F2107300FB01339A4214DD98
:1029F000964B01221A70984B4FF0000BA3F800B0D1
:102A000001F0EEFD01F04EFB944B83F800B0944BC7
:102A1000A3F800B0934B83F800B0002389F800308E
:102A2000914A8B4B4FF0000A82F800A093F90020E6
:102A3000002A40F0A980DFF824A2D8F800209AF8F4
:102A400000008A4B93FBF2F310FB03F0884B80B23B
:102A500018800A23B0FBF3F0864B1880864B93F95D
:102A60000030002B00F08B80844B854A1B8800933C
:102A70008449854B12881B88098800F037FD80B295
:102A800094F82B10DFF83892FF29A9F8000010D035
:102A90007E4BB3F9000088420BDD784B1B88012286
:102AA0000092D34001F10A020A3900F01FFDA9F893
:102AB00000003368DFF80492632B04D8D9F80030A3
:102AC000B3F5FA7F5ED8724B18680C2300934FF46D
:102AD000FA720323642100F009FDC0B2D9F8002086
:102AE0006C4B312A98BF0222187098BF1A7094F864
:102AF0002F305BB117236848009300880D234FF4F3
:102B0000FA62642100F0F2FC644B187002F07CF869
:102B10004AF6C87398427FF6A7AC9AF80020604B3B
:102B20004FF0000B012A83F800B07FF49DAC5D4BA1
:102B3000217D19705C4903920B7801330B7001F011
:102B4000B1FA5A4B039A1A70434B1B882F2B9CBF28
:102B500041F28833C9F800304FF0000398BF8AF87B
:102B600000B03360FFF796FB7EE4022A7FF435AFB6
:102B7000227ABBF80010322012FB00F2D2E64FF4AA
:102B8000FA607DE70C20A9E7DFF8CCB0484ABBF833
:102B90000010302940F2D88032480078002800F038
:102BA000D38031390120572989F80000DFF81491CA
:102BB00000F28A8092F9001041B33E4801786AF32E
:102BC000C301017001F06EFA3B4988696AF31F4046
:102BD0008861C8696AF31F40C86101F5805188693E
:102BE0006AF31F408861C8696AF31F40C86101F534
:102BF000805188696AF31F408861C8696AF31F4081
:102C0000C86101F030FD2A4A82F800A0FFF7B0FA4F
:102C1000E37E40F22A32B2FBF3F20092302141F619
:102C20005832BBF80000B2FBF3F3782200F05EFCF0
:102C3000A9F8000080B200F07DFCB9F800204FF444
:102C40001673B3FBF2F30A4A13800DE4F914002063
:102C50002514002054D9FFFF161400202E14002044
:102C6000181400201A14002024140020C027090082
:102C7000201400202214002004030020E802002079
:102C8000EC020020EE020020EA020020AC1400203A
:102C9000B8140020E502002004140020FC140020D9
:102CA000FB140020ED1400202F140020E702002068
:102CB000FD1400200080044000C0044000000020FB
:102CC000F00200200C0000201070FFF751FABBF852
:102CD0000020DFF8E0B1C82A84BF5023A9F80030F3
:102CE000B9F8000088BFABF800A000F023FCBBF9E6
:102CF0000090B9F1000F7FF4B7AB604B604A83F8E6
:102D00000090012313705F4A13705F4B42F228302A
:102D100018605E4B18601A685D4B1A6001F07EFF08
:102D2000142333605B4B83F800905B4B1A785B4B4A
:102D30001A70637F13B15A4B3A881A80FEF7D2FC9F
:102D400001F016FEFFF790BB0123267F13704C4A5B
:102D50000023012E137041D194F82930514A524971
:102D6000DFF8549103EB830303EB8303DB009BB297
:102D700013802A88534393FBF1F313449BB2632BD4
:102D8000A9F8003006D801F065FC484B00221A80F3
:102D9000FFF76ABB01F0DCFA454AB9F800309169E7
:102DA00063F31F419161D16963F31F41D16102F562
:102DB0008052916963F31F419161D16963F31F41AF
:102DC000D16102F58052916963F31F419161D1692C
:102DD00063F31F412F4BD1611E70D6E7022E2CD119
:102DE000304601F006FC2A88237B53434FF4FA62F5
:102DF000B3FBF2F32E4A03EB83035B0091692833A4
:102E00009BB263F31F419161D16963F31F41D161AB
:102E100002F58052916963F31F419161D16963F3B7
:102E20001F41D16102F58052916963F31F419161A5
:102E3000D16963F31F41D161A7E71D4A916963F32B
:102E40001F419161D16963F31F41D16102F5805245
:102E5000916963F31F419161D16963F31F41D161AE
:102E600002F58052916963F31F419161D16963F367
:102E70001F41D16101F0B4FB87E700BF251400209A
:102E80002E140020E702002000000020B8140020CB
:102E9000B4140020A0140020E6020020040000204A
:102EA000CC1400200615002030F8FFFF201400206D
:102EB00000C004402A1400201E1400209C490A6807
:102EC000CB6F9B1A9B4A9BB22DE9F04F13809A4A15
:102ED0009A4C12885E099A4287B0268080F0EE8074
:102EE000974A12889A4240F2E980964B964800220F
:102EF0001A800D4682466B6855F8087BDB1B9BB237
:102F00009E4202F101022CBF00230123102A40F847
:102F1000043BF0D1DAF81020DAF80030DAF81400C7
:102F20008A4D5340DAF820205A40DAF80430434002
:102F3000DAF8240043409B00DAF81C0043EAC2039D
:102F4000DAF80C204240DAF82C0042401343DAF859
:102F50001800DAF808204240DAF82800424043EA34
:102F60004203DAE90C02920042EAC002DAF83C00BD
:102F70000243DAF8380042EA4002754800785FFA06
:102F800083F85FFA82F9F0B92878E0B901F0D6F950
:102F90006749C0B16F4E30780130C0B264283070DC
:102FA00011D90120287020886B4F6C4E72288CBF7D
:102FB0004FF4807480246A488BBF3C803C80082793
:102FC000072737808460287818B1C9F10F025FFAAB
:102FD00082F9DAF808300193DAF80C300293DAE972
:102FE00006530393DAF820300493C145DAF824300D
:102FF0000593DAE900B4DAE90476DAF828A040F0BB
:103000006B81504B00221A80564A1388013313807B
:10301000554B1B7843B30A688B6F54499B1A544A2B
:103020000868D2F800C0BCF1000F4AD1136038B96B
:10303000B3F5616F94BF4FF416634FF496530B6072
:1030400011684A4A080412680023090C02F0DEF8ED
:10305000A0F55942993A44F6CD418A4238D8454ABA
:103060001060454A00231380374B4448DB6A012B2C
:1030700004BF434A13706302019A43EA8B2343EA75
:103080000A0343EA0223029A43EAC21343EA87137C
:10309000039A43EA461343EA051343EAC203049A38
:1030A00043EA8203059A43EA42030278002A30D0B9
:1030B000012A1CD1334A13800223037007B0BDE8F4
:1030C000F08F106811681B1A01EBE3031360B7E778
:1030D0002D4A1378002BC7D127490B8801339BB2A7
:1030E000B3F5FA7F0B8024BF01231370BCE7022ADB
:1030F00003D1264A13700323DFE7032ADED1252BF1
:10310000DCD1224A1F4B11781B88214AD15400235D
:10311000D3E72F2B1F4C45DD1F4991F900100029E3
:1031200046D01E4922709BB20B801D4B1A70C5E71A
:10313000200F0020EC150020E0160020E4150020F0
:10314000B003002000140020A01600209F140020CF
:103150001A14002084160020AE030020AC030020C7
:1031600000200540EA150020D0150020D8150020C9
:10317000E0150020A8030020D6150020D41500205B
:10318000A1140020D2150020DC150020D11500204C
:10319000101500201B140020941600201414002089
:1031A00086160020591E2E2921D84F4923700A80E7
:1031B0002378002B82D04D4A1278002A7FF47EAF0C
:1031C0004B49097800293FF479AF4A4D2978994253
:1031D00049491CBF2B700A70052B9CBF06220A7040
:1031E0000A780132D2B2052A11D80A7066E7002B9C
:1031F000DED1424A92F90020012A04BF404A1370EE
:10320000394A002313803C4A23701370D0E7002210
:10321000013B0A70232B19D8DFE803F012151E2199
:103220002427292D33361839414D181818181851EC
:103230005718181818181818181818181818185B8C
:10324000304B012201E02F4B02221A702E4B2278C4
:103250001A700023237031E72A4B0322F5E7294B2C
:103260000422F2E7274B0522EFE7284BE9E7284B3A
:103270005A74284BE5E7264B01225A74254B00224D
:10328000E3E7234B9A74E1E7214B0122FAE7FEF7CB
:10329000D5F91F4B1B4A5B7C01331370D6E71E4ADE
:1032A000012313701D4A1370144B93F90030012B46
:1032B000CCD1134AF1E7184B1A70194BC1E7144BE4
:1032C000144A5B7CC3F10103E7E7114B5A7C114BB5
:1032D000BBE701230370B9E7124A13880133138057
:1032E000114B002222E700BF141400202E140020EE
:1032F0001A1400208516002086160020951600203E
:1033000094160020C91400209E14002008150020E7
:10331000101500200A000020E61500209716002056
:1033200096160020E8150020D4150020F0B55F4C5B
:103330005F49002323601E4641F823600133252B9B
:10334000FAD15C4B1B7823B15B4A9579002D60D094
:1033500096710023594A92F900501DB10023137051
:103360004FF46063564A92F90050002D7FD000233D
:10337000137040F6FF63534A13604F4B01229A715A
:10338000504A514E1068C0F30B1483B2C0F30720AB
:1033900060404340DB43106803F00F0343EA00132F
:1033A00013601568146810681368484A2D1303F0F9
:1033B0000F03C4F303245557D3561457C0F3031017
:1033C00043EAC533125643EA842343EA4213336087
:1033D0003F4B1D783F4B6A1C1B8841F822303E4B07
:1033E0001F8813204FF0010CD6F800E051F822405E
:1033F0000CFA00F303EA0E03C340FC4001326340C1
:10340000BB40013841F82230EED2002341F825308C
:10341000F0BD9788568813880137BFB20136013353
:10342000B6B29BB2272F9780568013800AD92B4BB8
:103430009580B3F90030322693FBF6F3DBB243F408
:10344000C06387E7C72E09D9254B55801B881926ED
:10345000B3FBF6F3DBB243F480637BE7C72B7FF665
:1034600078AF204B15801B8843F4007372E7002B64
:1034700081D11D4B1A784FF6FF73002A08BF1846FA
:10348000C313012B4FF00F0308D1083B23602368BF
:10349000184140EA43200B4B186071E7013B082BB1
:1034A000F5D040FA03F2012AEEE700BF90160020A3
:1034B000F0150020E6150020981600209716002031
:1034C00096160020881600208C160020E856000072
:1034D000C0040020AE030020AC030020CE14002066
:1034E000DC140020AC1400202E140020F0B5059D43
:1034F0000446184601E01D463246944210DA8C42DA
:103500000FDD85420DD057182B18B1EB670F4FEA2E
:1035100067064FEA630305D0B442ECDD711CE8E7AF
:103520002846F0BD1846FCE70346401A48BFC81AB3
:103530007047000064235843074B58601A7842F0E4
:1035400001021A70596821B91A7861F300021A70E1
:10355000704700BFF6E700BF00A0044010B5044666
:1035600004B910BD4FF47A70FFF7E4FF013CF7E7B0
:103570004840082243B2002BBDBF5B0083F0070325
:10358000D8B2400002F1FF33A8BFC0B213F0FF026F
:10359000F0D1704738B5044645180020AC4200D140
:1035A00038BD014614F8010BFFF7E2FFF6E7000013
:1035B0006A4B2DE9F74FD3E900206424801A6FF499
:1035C0004873B0FBF4F4A7B2FA1892B240F2765105
:1035D0008A42634E4FF0000200F2B480DFF8A891F7
:1035E000DFF8A881A9F8002098F80020002A7DD0F3
:1035F000DFF89CA19AF80020EAB140F2E1439F4233
:10360000584D67D92B784B2B32D9574A1388193329
:103610009BB21380A3F2EE23544A03EBD3735B10E7
:10362000002482F8203088F80040FEF707F82C705C
:1036300000F09AFB1CE04E4ADFF858B1117809B946
:10364000ABF800004B4DBBF8000001311170298828
:10365000FFF76AFF3228464A404B1DD9002388F8FD
:1036600000302B88ABF800309AF80030002BC4D122
:103670000023A9F80030404B4048198832680068A0
:1036800089B2511A814260DD1A8810FA82F292B230
:103690001A8003B0BDE8F08FD3E90031CB1A298836
:1036A0001278C1EBC1010B44C3F3CF03322A2B8044
:1036B000D7D9193B9BB22B80A3F2D6632B4A03EBDD
:1036C000D3735B1082F8213001238AF8003000F0B8
:1036D0000BFBC6E72B78244A01332B701388C3EB0E
:1036E000C30313FA84F3DB1013808BE71F4BA0B2E4
:1036F0009C7CBCB1224B1988B9420AD34FF47A732F
:10370000009313460A4618490988FFF7EFFE306018
:10371000AEE74FF4FA63174A0093128840F2E93398
:103720000131F2E740F2FF73124A0F490093128809
:1037300009882F23FFF7DAFE3028CCBF0346234643
:10374000336095E70F4B1A8095E7198889B2891A7B
:103750008842BCBF1A88121A99E700BF200F0020C8
:10376000FC160020F2160020120300201015002085
:10377000F71600201003002014140020B8030020C6
:103780000E0300201814002000140020F81600205A
:10379000F6160020F4160020134B1B68A3F15A0202
:1037A000B2F59B7F11D2114B1A6841F26F739A42A6
:1037B0000AD80F4A012313700E4A0E2111700E4AC7
:1037C000202111700D4A137070470A3B462BFBD81D
:1037D000064B1B68B3F57A7FF6D2054A01231370B6
:1037E0000721044AEAE700BFB4030020EC160020DA
:1037F00011140020C0040020B20300201214002085
:10380000084B1B686FF4FA621344074A934207D8C7
:10381000064B04221A70064A01231370054A1370DE
:10382000704700BFB40300207E2C0300B2030020C9
:1038300010140020121400202048DFF894C0204902
:103840000268F8B51F4CCCF80010002323601D4619
:103850009E46012650F8047F974207D0BA1A8A4242
:103860003CBF11464FF0010E1544012301361F2EB7
:103870003A46EFD103B12560BEF1000F01D0CCF87C
:103880000010236810485B09236090F90030012B79
:1038900001D1FFF781FF0D490B78012B01D1FFF713
:1038A000AFFF90F900303BB90B782BB9FFF774FFED
:1038B000BDE8F840FFF7A4BFF8BD00BF200F00200F
:1038C00080841E00EC16002011140020101400202B
:1038D000B4030020F8B5544D2B787BB1534B1B78C3
:1038E00063B1534B534C1B7823B101F0F9FE022313
:1038F0002370F8BD01F0F0FE0123F9E74E4B1A7872
:103900002AB9FFF799FFBDE8F84001F0E9BE1B783E
:10391000012BEED1454B1B78A3B1454B1B786BB106
:10392000464B18684FF6FF736430984228BF18461C
:1039300080B2FFF7FBFCFFF7C1FAE4E7BDE8F8400F
:1039400001F0CABE3E4C94F90030012B03D1FFF7C1
:10395000B5FA01F0C5FE3B4B1B78012B08D100F0F6
:10396000EDFC394B002834D003221A7001F0B8FE68
:103970002B78002BBDD194F90030FBB1334B1A7872
:10398000032A1BD832490988052917D93149013240
:10399000D2B21A70CB6F09685B1A2F490868042AE3
:1039A00010FA83F30B6009D1C3F38F12C3F38F03B3
:1039B000D0182A499B1A2A4A08801380294F388830
:1039C00060B9294B1B784BB9214A13880133138006
:1039D0008FE702221A70FFF7EBFDC7E7234BDD7973
:1039E000002D86D11A4B1D8040F2DC53984280D9BD
:1039F0001F4E204C3188FFF797FD322803D92570E0
:103A00003B88338075E723780133DBB2322B237098
:103A1000F6D9194B1D78002DF2D100F0E5F9124BC3
:103A200001221A70EBE700BF1A1400209F14002037
:103A30003C170020FF14002012140020B0140020B6
:103A40001114002010140020B2030020E8160020FA
:103A500018140020200F0020E4160020B0030020DE
:103A6000E01600209C140020F816002010150020FD
:103A7000F0160020F9160020F616002070B5064D4D
:103A8000441E4FF0FF36EE604FF47A70FFF752FDA0
:103A9000013CF8D270BD00BF003004400A23B0FBE7
:103AA000F3F202FB1300C0B2254B2DE9F04713F8E7
:103AB0000080DFF8A090234D234C04274FF0FF3AFD
:103AC000224E234BC9F80CA01B78B26963F31F4246
:103AD000B261F26963F31F42F261AA6963F31F42A4
:103AE000AA61EA6963F31F42EA61A26963F31F42B4
:103AF000A261E26963F31F4248FA07F313F0010F72
:103B00000CBF3C20B420E261FFF7B8FFB3699BB261
:103B1000B361F3699BB2F361AB699BB2AB61EB69D3
:103B20009BB2EB61A3699BB2A361E3699BB2E361C2
:103B30003C20FFF7A3FF013FC2D2BDE8F08700BFE2
:103B4000F856000000D0044000E0044000C00440EB
:103B500000170020003004400B28034B28BF0B2027
:103B600040001870704700BF001700200F4A104B2C
:103B700091691B7863F31F419161D16963F31F4120
:103B8000D16102F58052916963F31F419161D1695E
:103B900063F31F41D16102F58052916963F31F41C4
:103BA0009161D16963F31F41D161704700C0044046
:103BB000001700202DE9F041DFF888801C4F1D4ED2
:103BC00040F2CF73C8F810303B61336172B61A4CC3
:103BD0004FF0FF35E5603C2000F0C2FD0120FFF70B
:103BE000C5FF00F006FD4B20FFF7B8FCE560502054
:103BF00000F0B6FD4B20FFF7B1FCE5605A2000F065
:103C0000AFFD4B20E560FFF7A9FCE56000F0E8FCA4
:103C1000002000F0A5FD094B00221A80084B1B88EC
:103C2000C8F810303B61336162B6BDE8F08100BF77
:103C300000D0044000E004400030044000140020A4
:103C4000F202002000C004402DE9F04772B6204C7B
:103C5000DFF88890DFF888801E4FDFF888A040F2F8
:103C6000CF734FF0FF35C9F810305020C8F810302E
:103C70003B61E56000F074FD03200026FFF776FF4E
:103C800000F0B7FC6420AAF80060FFF767FCE5606D
:103C9000462000F065FD6420FFF760FCE560282009
:103CA00000F05EFD6420FFF759FCE56000F098FC31
:103CB000304600F055FD084BAAF800601B88C9F893
:103CC0001030C8F810303B6162B6BDE8F08700BF25
:103CD0000030044000E00440F202002000C0044034
:103CE00000D00440001400202DE9F041DFF874807A
:103CF000174F184E184C40F2CF73C8F810303220CE
:103D00003B61336100F02CFD0220FFF72FFF4FF0E5
:103D1000FF3500F06EFC9620FFF720FCE5601E20CA
:103D2000E56000F01DFD9620FFF718FCE56000F04F
:103D300057FC002000F014FD084B00221A80084BAD
:103D40001B88C8F810303B613361BDE8F08100BFCB
:103D500000D0044000E00440003004400014002083
:103D6000F202002000C004402DE9F041DFF8748029
:103D7000174F184E184C40F2CF73C8F81030282057
:103D80003B61336100F0ECFC0220FFF7EFFE4FF0E7
:103D9000FF3500F02EFC9620FFF7E0FBE560502099
:103DA000E56000F0DDFC9620FFF7D8FBE56000F051
:103DB00017FC002000F0D4FC084B00221A80084BAE
:103DC0001B88C8F810303B613361BDE8F08100BF4B
:103DD00000D0044000E00440003004400014002003
:103DE000F202002000C004401B4A40F2CF7370B5BD
:103DF000136102F58052136102F58052136172B6AD
:103E0000FFF7B4FE154D77244FF0FF36EE60142017
:103E1000B4FBF0F000F0EDFB60100A3080B200F06F
:103E20009FFC023C0A20FFF799FB631CEE60EDD17A
:103E300000F0D6FB002000F093FC094B00221A8012
:103E4000084B054A1B88136102F58052136102F585
:103E50008052136162B670BD00C00440003004405F
:103E600000140020F20200202DE9F843044672B647
:103E7000154F164E164D40F2CF733B610320336150
:103E80002B6100F0B6FB322000F06AFC4FF00A090B
:103E9000FFF76CFEB4FBF9F84046FFF7FFFDB420D6
:103EA000FFF7ECFD09FB1840C0B2FFF7F7FD00F08B
:103EB00097FB002000F054FC064B1B883B613361EC
:103EC0002B6162B6BDE8F88300C0044000D0044016
:103ED00000E00440F202002038B50B4CBDF8105051
:103EE0002070A170080A110A6070E1702271A3713C
:103EF0001A0A09212B0A20466271E3712572FFF725
:103F000049FB607238BD00BF04170020064B07490B
:103F10009A880A800649188808805988054B1980B4
:103F2000054B1A80704700BF36170020AA140020E6
:103F3000A8140020A6140020A41400200849820917
:103F400000F03F0051F82230013251F822209A1A35
:103F5000504348BF3F30A3EBA01000B2704700BFF2
:103F6000BC030020014B1888FFF7E8BFA414002011
:103F700010B5374BD3F8A020012161F30922C3F813
:103F8000A020D3F8A02061F31D62C3F8A020D3F8CD
:103F9000A02042F48032C3F8A020D3F8A0200A4326
:103FA000C3F8A020D3F8A02042F01002C3F8A0204C
:103FB0004FF08043072093F800240A4383F800243D
:103FC0001A7E60F303021A76D86D022262F317405C
:103FD000D865B3F8500062F30100A3F85000B3F8BD
:103FE0005000062464F34B20A3F85000B3F85000AF
:103FF00020F48070A3F85000B3F8400020F00300D4
:10400000A3F84000B3F8400061F30510A3F84000A6
:10401000B3F8401062F30921A3F840109A6E3221E0
:1040200061F317029A661A7842F001021A70D3F807
:1040300000249207FBD51A8C42F001021A84054B2A
:104040004FF480225A60C02283F8322310BD00BF93
:104050000010044000E100E0104B93F900201B78B1
:10406000062B19D80120904010F0480F0FD110F006
:10407000240F07D110F012000FD0094B1868C0F3BD
:1040800080107047064B1868C0F300107047044B4F
:104090001868C0F3401070470020704704000020EB
:1040A00000100140124BB3F8642042F01002A3F854
:1040B0006420B3F8642042F02002A3F86420B3F82F
:1040C000642042F04002A3F86420B3F8802042F05C
:1040D0001002A3F88020B3F8802042F02002A3F859
:1040E0008020B3F8802042F04002A3F8802070477F
:1040F00000100140094BB3F8602042F01002A3F811
:104100006020B3F8602042F02002A3F86020B3F8EA
:10411000602042F04002A3F8602070470010014088
:10412000494B93F90020494B012A01D0042A35D18B
:10413000B3F8642042F01002A3F86420B3F86420BE
:1041400042F02002A3F86420B3F8602042F040025D
:10415000A3F860201A8B42F010021A831A8B42F0E7
:1041600020021A839A8A42F040029A82384A92F9CF
:104170000020002A55D0B3F8742042F01002A3F8B2
:104180007420B3F8742042F02002A3F87420B3F82E
:10419000742042F04002A3F874207047022A01D034
:1041A000052A1ED1B3F8602042F01002A3F8602067
:1041B000B3F8642042F02002A3F86420B3F864202E
:1041C00042F04002A3F864209A8A42F010029A82D8
:1041D0001A8B42F020021A831A8B42F040021A8393
:1041E000C4E7032A1AD1B3F8642042F01002A3F8FE
:1041F0006420B3F8602042F02002A3F86020B3F8F6
:10420000642042F04002A3F864201A8B42F01002AE
:104210001A839A8A42F020029A82DDE7062AE2D0C7
:10422000A4E7B3F8702042F01002A3F87020B3F8AE
:10423000702042F02002A3F87020B3F8702042F002
:104240004002A3F8702070470400002000100140D5
:10425000E40200202DE9F7430C46054600211046F4
:10426000904600F007FFB4F5806FA8BF4FF480645C
:10427000082CB8BF0824264600274FF0FF39042E2B
:104280003246294628BF04226846CDE9009901F04C
:1042900087F9042E07D9321F042A28BF0422291DBA
:1042A00001A801F07DF908EB0700002269460837F4
:1042B00000F0CAFEA742A6F1080605F10805DED304
:1042C00003B0BDE8F083F7B50024CDE900440F4604
:1042D00016460546A64201D803B0F0BD0022E019FB
:1042E000694600F09BFE009B2B70621C964284BFC7
:1042F0001A0A6A70A21C964284BF1A0CAA70E21CA9
:10430000964284BF1B0EEB70231D9E4284BF019B0F
:104310002B71631D9E4282BF019B1B0A6B71A31D03
:104320009E4284BFBDF80630AB71E31D9E4284BF40
:104330009DF80730EB7108340835CBE7024B18685D
:10434000C0F34010704700BF0000014070470000FC
:10435000124B1A8F42F480521A879A8942F4805283
:104360009A811A8F42F480621A879A8942F4806295
:104370009A811A8F42F480721A879A8942F4807265
:104380009A819A8E42F400529A869A8E42F4006282
:104390009A869A8E42F400729A8670470000014015
:1043A000114B1A78114BAAB91A8F42F400621A877E
:1043B0009A8942F400629A819A8D42F400629A8549
:1043C0000A4B9A8E42F480629A861A8E42F4806278
:1043D0001A8670479A8E42F400629A861A8E42F4C8
:1043E00000621A86ECE700BFED14002000000140D7
:1043F0000C4B1A8F42F400621A879A8942F40062C9
:104400009A819A8D42F400629A851A8F42F48062F2
:104410001A879A8942F480629A819A8D42F4806266
:104420009A857047000001400C4B1A8F42F40062DD
:104430001A871A8942F400621A819A8D42F4006246
:104440009A851A8F42F480621A879A8942F48062B0
:104450009A819A8D42F480629A85704700000140EB
:10446000114B1A78114BAAB91A8F42F400521A87CD
:104470009A8942F400529A819A8D42F400529A85A8
:104480000A4B9A8E42F480529A861A8E42F48052D7
:104490001A8670479A8E42F400529A861A8E42F417
:1044A00000521A86ECE700BFED1400200000014026
:1044B0000C4B1A8F42F400521A879A8942F4005228
:1044C0009A819A8D42F400529A851A8F42F4805252
:1044D0001A879A8942F480529A819A8D42F48052C6
:1044E0009A857047000001400C4B1A8F42F400522D
:1044F0001A871A8942F400521A819A8D42F40052A6
:104500009A851A8F42F480521A879A8942F480520F
:104510009A819A8D42F480529A857047000001403A
:10452000114B1A78114BAAB91A8F42F400721A87EC
:104530009A8942F400729A819A8D42F400729A85A7
:104540000A4B9A8E42F480729A861A8E42F48072D6
:104550001A8670479A8E42F400729A861A8E42F436
:1045600000721A86ECE700BFED1400200000014045
:104570000C4B1A8F42F400721A879A8942F4007227
:104580009A819A8D42F400729A851A8F42F4807251
:104590001A879A8942F480729A819A8D42F48072C5
:1045A0009A857047000001400C4B1A8F42F400724C
:1045B0001A871A8942F400721A819A8D42F40072A5
:1045C0009A851A8F42F480721A879A8942F480720F
:1045D0009A819A8D42F480729A857047000001405A
:1045E00008B5FFF765FFFFF703FFBDE80840FFF7D9
:1045F000BFBF013808B505282BD8DFE800F0030B52
:1046000013181D25FFF72CFFFFF70EFFBDE808402C
:10461000FFF7AEBFFFF74CFFFFF706FFBDE808400E
:10462000FFF77EBFFFF760FFFFF7E2FEF6E7FFF759
:104630005BFFFFF7B5FEE9E7FFF73AFFFFF7B0FED4
:10464000BDE80840FFF7B0BFFFF70AFFFFF7D0FE55
:10465000F6E708BD08B5FFF747FFFFF7E5FEBDE841
:104660000840FFF7A1BF08B5FFF7FAFEFFF798FE75
:10467000BDE80840FFF754BF084B4FF4806210B507
:104680005A63074C074A0023D9B2884200D810BDAC
:1046900012F8011B21600133F6E700BF0010014052
:1046A0000050044004170020254BD3F8002142F0AD
:1046B000020270B5C3F80021D3F80421214D42F065
:1046C0000202C3F80421204A4FF480615161116A4B
:1046D000012464F315511162196E1C4A0A4042F418
:1046E00080721A661A6E22431A661A6E42F010021F
:1046F0001A66284600F080FDAC72154C4FF4E13686
:10470000294620466E6000F04BFD94F82C3043F0B3
:10471000100384F82C30238F43F400632387314641
:10472000204600F00DFD238E43F001032386094B44
:104730004FF000721A60C02283F8192370BD00BFC9
:10474000001004404017002000100140FFFCFEC094
:104750000050044000E100E07047FEE762B6704799
:1047600030B5E0B95B495C4A0B68012464F38C23E3
:104770000B60136864F38C231360584B1D6864F35B
:104780008C251D600C6860F3C9140C60116860F31F
:10479000C91111601A6860F3C9121A600AE0322860
:1047A00000F088800FD8192855D004D80A282CD0BA
:1047B00014283DD030BD1E2860D02828FAD14549A4
:1047C00002200B6837E046287CD016D8372875D0F1
:1047D0003C28EFD13F49404A0B68032060F38C230B
:1047E0000B60136860F38C2313603C4B1C6860F310
:1047F0008C241C600C680420C5E7502866D05A2819
:10480000D8D1344903200B683BE0324A11680523B4
:1048100063F3C911116002F58052116863F3C91185
:10482000116002F58052116863F3C9111160C1E78C
:1048300028490B68012060F38C23274A0B6013681A
:1048400060F38C231360254B1C6860F38C241C6080
:104850000C68052097E71F490B68012060F38C2343
:104860001D4A0B60136860F38C2313601B4B1C689C
:1048700060F38C241C600C68062084E715490B68E3
:104880000120154A60F38C230B60136860F38C23BE
:104890001360124B1C6860F38C241C60086840F4A1
:1048A00060700860116841F4607111601A6842F428
:1048B000607272E7074902200B68CFE705490220C2
:1048C0000B68DEE7034903200B68B4E701490320C6
:1048D0000B68C3E700C0044000D0044000E004407F
:1048E000074B1A8D22F480721A8500221A609A8D65
:1048F00042F008029A851A8D42F480721A85704738
:1049000000200540044B9A6960F31F429A61DA69FE
:1049100060F31F42DA61704700C00440044B9A699B
:1049200060F31F429A61DA6960F31F42DA617047EF
:1049300000D00440044B9A6960F31F429A61DA691F
:1049400060F31F42DA61704700E00440074B1A78B9
:1049500022F008021A701A7842F001021A701A78CE
:1049600042F001021A70FFF703BB00BF0080044051
:10497000704700001D4B93F8002142F0020283F8BB
:10498000002193F8042142F0020283F80421A3F5E8
:1049900040339A8A42F010029A829A8A42F02002A8
:1049A0009A829A8A42F040029A82196A012262F33C
:1049B00009211962196A62F38B211962196A62F37B
:1049C0000D311962B3F8682042F01002A3F8682094
:1049D000B3F8682042F02002A3F86820B3F86820FA
:1049E00042F04002A3F86820704700BF0010044066
:1049F0000A4B5A6B42F001025A635A6B42F01002A2
:104A00005A6303F50053064A1A601A7A42F001020B
:104A10001A721A7A42F002021A72704700100440A9
:104A2000400D030070B5664A6649138A43F4E0639B
:104A30001382A2F540320120536943F47C53536141
:104A4000614BB3F8E02042F01002A3F8E020B3F885
:104A5000F02042F01002A3F8F020B3F8E02042F07A
:104A60002002A3F8E020B3F8F02042F02002A3F8DF
:104A7000F020B3F8E02042F04002A3F8E020B3F8C1
:104A8000F02042F04002A3F8F02003F5304340F25A
:104A9000CF751A6860F38C221A601A6822F460726B
:104AA0001A600A6860F38C220A600A6822F4607255
:104AB0000A60464A146860F38C241460146824F475
:104AC000607414605C6D44F400645C655C6D60F35C
:104AD0000A245C651C6860F305141C601D611E8C53
:104AE000022464F383061E841E8C60F305161E8464
:104AF0009E8C60F383069E849E8C64F309269E84BC
:104B00000D610E8C64F383060E840E8C60F3051623
:104B10000E848E8C60F383068E848E8C64F309265B
:104B20008E841561158C64F383051584158C60F3F0
:104B300005151584958C60F383059584908C64F33A
:104B40000920908428205863986393F8305045F0EA
:104B5000030583F8305093F8305064F3830583F8ED
:104B600030504863886391F8305045F0030581F870
:104B7000305091F8305064F3830581F83050506321
:104B8000906392F8300040F0030082F8300092F811
:104B9000300064F3830082F8300093F8300020F096
:104BA000300083F8300091F8303023F0300381F882
:104BB000303092F8303023F0300382F8303070BD5E
:104BC0000000044000D004400010044000E0044015
:104BD0000C4BB3F8E02042F00202A3F8E020B3F857
:104BE000F02042F00202A3F8F02003F500434FF05A
:104BF000FF325A6000229A601A7842F001021A705D
:104C0000704700BF00100440034B58683223C04374
:104C1000B0FBF3F080B27047009004403223584359
:104C2000014BC04358607047009004403223584302
:104C3000054B58601A7B42F001021A731A7842F051
:104C400008021A70704700BF008004404FF0E02354
:104C500041F286325A61054AE021002082F8231091
:104C600098610720186182F82310704700ED00E07A
:104C70000F4BB3F8E02042F00102A3F8E020B3F8B4
:104C8000F02042F00102A3F8F02003F5E0434FF0DA
:104C9000FF3200215A6099601A7842F008021A70B7
:104CA000044B4FF400121A6083F81513704700BFCD
:104CB0000010044000E100E0084BB3F8E02042F0AF
:104CC0000402A3F8E020B3F8F02042F00402A3F8B5
:104CD000F02003F5104300229A6070470010044052
:104CE0000F4B93F8002142F0020283F8002193F861
:104CF000042142F0020283F8042193F8002142F0DB
:104D0000010283F8002193F8042142F0010283F8A4
:104D10000421044B10221A60402283F804237047B8
:104D20000010044000E100E030B5764A7649B2F860
:104D3000E03043F48063A2F8E030B2F8F03043F49E
:104D40008063A2F8F03092F8003143F0010382F85A
:104D5000003192F8043143F0010382F804316B4BC7
:104D6000C3F89C10198F41F020011987B3F8A410E3
:104D700041F02001A3F8A410998A41F02001998202
:104D8000D96921F44061D961B3F8841041F0200160
:104D9000A3F88410B3F8681041F02001A3F868105C
:104DA000B3F8781041F02001A3F87810B2F8E030A1
:104DB000574943F00803A2F8E030B2F8F03043F06E
:104DC0000803A2F8F030534B4FF0FF325A609A605C
:104DD000514A524B9360888D40F400708885888DCD
:104DE00040F4806088854FF4807088600020C8603F
:104DF000118D41F480711185118D41F4805111851F
:104E000047490C784749153401EB8401C3F8C010B9
:104E1000D3F8C840022161F31964C3F8C840D3F83D
:104E2000C84061F39B64C3F8C8403F4CC3F8C4401A
:104E3000D3F8C84061F31D74C3F8C840D3F8C84024
:104E400044F04044C3F8C840D3F8C84060F39134FC
:104E5000C3F8C840D3F8C840152565F30D14C3F84E
:104E6000C840D3F8C840012565F30204C3F8C84020
:104E70002E4CC3F88040D3F8884061F31964C3F81E
:104E80008840D3F8884044F04064C3F88840284CF8
:104E9000C3F88440D3F8884061F31D74C3F8884098
:104EA000D3F8884061F39F74C3F88840D3F8881022
:104EB00060F39131C3F88810D3F888101F2464F38D
:104EC0000D11C3F88810D3F8881065F30201C3F8F8
:104ED0008810184B4FF400215960602183F8331378
:104EE000154B196A29431962196A21F48031196234
:104EF000138D60F308231385138D60F30C33138532
:104F000030BD00BF00100440EEDBEAAD0000014000
:104F10000020054000B0044000400440001800207C
:104F2000C0040020F01500200C20054004B004400F
:104F30009C10002000E100E00000044008B5FFF7ED
:104F4000F3FEFFF7CDFEFFF76DFDFFF741FEFFF724
:104F500011FDFFF78DFEFFF779FEFFF7ADFEBDE80F
:104F60000840FFF7A1BB000010B5154B5A6902F0CD
:104F70000302012A1FD020D9032A08BFD9689A68E2
:104F80009C6898689B6806BFC1F305210131012127
:104F9000C2F3052213F4801FC0F30140094B04F053
:104FA0003F0408BF0023824063434A43B3FBF2F34C
:104FB000054A136010BD0023FAE7024BF8E700BF73
:104FC0000010044000127A00001A00200E4C0F4D11
:104FD000AC4209DA21686268A368043BA2BFC858E2
:104FE000D050FAE70C34F3E7094B0A4CA34208DA35
:104FF00019685A680020043AA4BF8850FBE70833B8
:10500000F4E7FDF7ABF90000385700004457000003
:10501000445700004C570000FEE700BF084B1860E3
:1050200008481043586200BF00BF00BF00BF00BF68
:105030009A6AD207FCD45A680A609B684B60704732
:10504000000003400100DEC0084B1860086858608B
:105050004968996006491143596200BF00BF00BF0B
:1050600000BF00BF9A6AD207FCD47047000003401B
:105070000200DEC0064A074B0A4318605A6200BFAE
:1050800000BF00BF00BF00BF9A6AD207FCD47047C0
:105090000400DEC00000034010B50A4A0A489368C5
:1050A00094689168926812F4801F04F03F04C1F381
:1050B000014108BF0020C3F3052360438B40B0FBD0
:1050C000F3F010BD0010044000127A0010B5054B3B
:1050D000DC68FFF7E1FFC4F305240134B0FBF4F012
:1050E00010BD00BF00100440022805D0032805D0E1
:1050F000012805D1FFF7D0BFFFF7E8BF014870478F
:105100000020704700127A000C4A00F1180310B515
:1051100052F8230052F82310C90342BF52F823402B
:10512000C4F305640134C0F301204CBF64000124C2
:10513000FFF7DAFFB0FBF4F010BD00BF0010044031
:1051400038B505461448281A18BF01200C46FFF749
:10515000DBFF07EE900AB8EE677A07EE904AF8EEAA
:10516000677AF3EE006A67EEA67A2301C7EE276A34
:10517000B0FBF3F36B6207EE903AF8EEE77A36EEA7
:10518000E77ADFED066AF6EE007AE7EE267AFCEEC5
:10519000E77AC5ED0A7A38BD00500440000080422D
:1051A00038B504460D464968FFF7CAFF94F82C301D
:1051B000AA7862F3461384F82C3094F82C302A78BD
:1051C00062F3C30384F82C30E36A6A7823F0860321
:1051D0001343E36294F82C302A7A62F3041384F8C0
:1051E0002C30AA7A238E62F3082323866A7A238ED0
:1051F00062F34923238638BD0322002382704FF4D3
:1052000016520380426003818372704753B94AB9D2
:10521000002908BF00281CBF4FF0FF314FF0FF30BE
:1052200000F06AB9ADF1080C6DE904CE00F006F8A3
:10523000DDF804E0DDE9022304B070472DE9F04712
:10524000089D0E4604460F46002B4AD194468C45D5
:10525000B2FA82F260D942B1C2F12003974020FA3B
:1052600003F30CFA02FC1F4394404FEA1C4E1FFA52
:105270008CF6B7FBFEF1230C0EFB117743EA0743D4
:1052800001FB06F098420AD91CEB030301F1FF373A
:1052900080F01581984240F21281023963441B1A52
:1052A000A4B2B3FBFEF00EFB103344EA034400FB50
:1052B00006F6A6420AD91CEB040400F1FF3380F085
:1052C0000081A64240F2FD806444023840EA014079
:1052D000A41B00211DB1D4400023C5E90043BDE853
:1052E000F0878B4205D90DB1C5E9000100210846C0
:1052F000F5E7B3FA83F1002946D1B34202D38242E3
:1053000000F2F580841A66EB030201201746002D97
:10531000E5D0C5E90047E2E7002A40F09380A1EB21
:105320000C034FEA1C471FFA8CFE0121B3FBF7F672
:1053300007FB1630230C43EA00430EFB06F09842AD
:1053400008D91CEB030306F1FF3802D2984200F2A1
:10535000D08046461B1AA4B2B3FBF7F007FB10330C
:1053600044EA03440EFB00FEA64508D91CEB0404E6
:1053700000F1FF3302D2A64500F2B6801846A4EB36
:105380000E0440EA0640A5E7C1F120078B4022FA4F
:1053900007FC4CEA030C06FA01FE20FA07F426FA91
:1053A00007F344EA0E0400FA01F84FEA1C404FEA02
:1053B0001449B3FBF0FE1FFA8CF600FB1E3349EADA
:1053C00003430EFB06F9994502FA01F20BD91CEBD7
:1053D00003030EF1FF3A80F08580994540F2828008
:1053E000AEF1020E6344A3EB0909A4B2B9FBF0F3DA
:1053F00000FB139944EA094403FB06F6A64208D9C8
:105400001CEB040403F1FF3068D2A64266D9023BCC
:10541000644443EA0E40A41BA0FB02E6B442734678
:10542000B14652D34FD05DB1B8EB030264EB09042F
:1054300004FA07F722FA01F31F43CC40C5E90074D0
:1054400000214CE7C2F1200120FA01F30CFA02FC22
:1054500026FA01F1964033434FEA1C471FFA8CFEAF
:10546000B1FBF7F007FB1016190C41EA064100FBEF
:105470000EF68E4204FA02F408D91CEB010100F189
:10548000FF382DD28E422BD902386144891B9BB242
:10549000B1FBF7F607FB161143EA014306FB0EF1D9
:1054A000994208D91CEB030306F1FF3814D2994244
:1054B00012D9023E63445B1A46EA004136E7394698
:1054C000EDE6184602E7F045ADD2BEEB020366EB0F
:1054D0000C060138B146A6E74646ECE7034698E7D6
:1054E0004046D3E7D6467EE76444023847E708469D
:1054F0000DE7023E63442DE7704700BF830730B5D8
:1055000047D0541E002A3ED0CAB2034601E0013CF7
:1055100039D303F8012B9D07F9D1032C2CD9CDB237
:1055200005EB05250F2C05EB054535D9A4F1100237
:1055300022F00F0C03F1100EE6444FEA121C1A463B
:10554000C2E90055C2E9025510327245F8D10CF19A
:10555000010214F00C0F03EB021204F00F0C13D035
:10556000ACF1040323F003030433134442F8045B57
:105570009342FBD10CF003042CB1C9B21C4403F8D4
:10558000011BA342FBD130BD64461346002CF4D16D
:10559000F9E703461446C0E71A46A446E0E700BF11
:1055A000844641EA000313F003036DD1403A41D32E
:1055B00051F8043B40F8043B51F8043B40F8043BED
:1055C00051F8043B40F8043B51F8043B40F8043BDD
:1055D00051F8043B40F8043B51F8043B40F8043BCD
:1055E00051F8043B40F8043B51F8043B40F8043BBD
:1055F00051F8043B40F8043B51F8043B40F8043BAD
:1056000051F8043B40F8043B51F8043B40F8043B9C
:1056100051F8043B40F8043B51F8043B40F8043B8C
:1056200051F8043B40F8043B51F8043B40F8043B7C
:10563000403ABDD2303211D351F8043B40F8043B1C
:1056400051F8043B40F8043B51F8043B40F8043B5C
:1056500051F8043B40F8043B103AEDD20C3205D32C
:1056600051F8043B40F8043B043AF9D2043208D024
:10567000D2071CBF11F8013B00F8013B01D30B8896
:1056800003806046704700BF082A13D38B078DD074
:1056900010F003038AD0C3F10403D21ADB071CBF46
:1056A00011F8013B00F8013B80D331F8023B20F8B0
:1056B000023B7BE7043AD9D3013A11F8013B00F8E9
:1056C000013BF9D20B7803704B7843708B78837071
:1056D00060467047000000005FF800F0D90B002022
:1056E0005FF800F0390B0020191B12131D15161757
:1056F0001A090A0B1E0D0E0F1F0F070301001018C9
:105700001C1E00001000000000000000017A520082
:10571000027C0E011B0C0D0014000000180000009C
:1057200080FEFFFF340100000002710A430B0000FD
:085730000CFBFF7F01000000EB
:0C5738004C57000000000020200F000073
:0857440000140020040600001F
:10574C00D430000001060604280001006400B400F7
:10575C00B700BA00BD00C100C400C700CA00CD002C
:10576C00D000D300D600D900DC00E000E300E60056
:10577C00E900EC00EF00F200F500F700FA00FD0084
:10578C0000010301060109010B010E0111011301B6
:10579C00160119011B011E012001230125012801FD
:1057AC002A012C012F0131013301350138013A0155
:1057BC003C013E01400142014401460147014901BF
:1057CC004B014D014E015001510153015401560141
:1057DC00570158015A015B015C015D015E015F01DB
:1057EC00600161016201630163016401650165018E
:1057FC00660166016701670167016801680168015C
:10580C006801680168016801680168016701670146
:10581C00670166016601650165016401630163014D
:10582C006201610160015F015E015D015C015B0170
:10583C005A015801570156015401530151015001AD
:10584C004E014D014B014901470146014401420102
:10585C0040013E013C013A0138013501330131016F
:10586C002F012C012A0128012501230120011E01F1
:10587C001B0119011601130111010E010B01090184
:10588C00060103010001FD00FA00F700F500F2002B
:10589C00EF00EC00E900E600E300E000DC00D900DA
:1058AC00D600D300D000CD00CA00C700C400C10090
:1058BC00BD00BA00B700B400B100AE00AB00A70049
:1058CC00A400A1009E009B009800950092008F0000
:1058DC008C008800850082007F007C0079007600B7
:1058EC00730071006E006B006800650062005F0061
:1058FC005D005A005700550052004F004D004A0001
:10590C0048004500430040003E003C003900370091
:10591C003500330030002E002C002A002800260011
:10592C002400220021001F001D001B001A0018007B
:10593C001700150014001200110010000E000D00CD
:10594C000C000B000A000900080007000600050007
:10595C000500040003000300020002000100010026
:10596C00010000000000000000000000000000002A
:10597C000000000001000100010002000200030011
:10598C0003000400050005000600070008000900DC
:10599C000A000B000C000D000E001000110012008C
:1059AC0014001500170018001A001B001D001F0022
:1059BC00210022002400260028002A002C002E00A2
:1059CC00300033003500370039003C003E00400009
:1059DC004300450048004A004D004F00520055005E
:1059EC0057005A005D005F006200650068006B00A4
:1059FC006E0071007300760079007C007F008200DD
:105A0C00850088008C008F009200950098009B0008
:105A1C009E00A100A400A700AB00AE00B1000000E6
:105A2C002800000001050501D00790014600140074
:105A3C00D007CF07CF0728002800C80002010A00B2
:105A4C0078009F000100DC05D0074A016400DC05EA
:105A5C006C074C04B40064192800D0071E10060211
:105A6C0000F0000000000000010000000000000039
:105A7C0032000000000000000000000000000000E8
:105A8C00000000001027000050C3000000000000C0
:105A9C009001000000000000E8030000000000007E
:105AAC00000000000000000000000000204E00007C
:105ABC00A0860100000000000A00000000000000A9
:105ACC006400000000000000000000000000000066
:105ADC00000000001027000050C300000F00000061
:105AEC00E80300001027000000000100080000017E
:105AFC0050C32000204E0000FA0000004E030000AE
:105B0C00C50000009B00000085000000770000002D
:105B1C006C000000640000005D00000057000000F5
:105B2C00520000004D00000049000000450000003C
:105B3C00420000003F0000003C0000003900000063
:105B4C003600000034000000320000002F0000007E
:105B5C002D0000002B000000290000002700000091
:105B6C00250000002300000022000000200000009F
:105B7C001E0000001C0000001B00000019000000AB
:105B8C0017000000160000001400000013000000B5
:105B9C00110000000F0000000E0000000C000000BF
:105BAC000B000000090000000700000006000000C8
:105BBC00040000000200000000000000FFFFFFFFD7
:105BCC00FDFFFFFFFBFFFFFFF9FFFFFFF7FFFFFFED
:105BDC00F5FFFFFFF2FFFFFFF0FFFFFFEDFFFFFF01
:105BEC00EAFFFFFFE7FFFFFFE4FFFFFFDFFFFFFF21
:105BFC00DAFFFFFFD4FFFFFFC9FFFFFF9BFFFFFF93
:105C0C00070000001A4A08B5137823F00803137034
:105C1C0000F01EFD17491848184A098800881368B7
:105C2C00014403EB51035B081360154B116893F8A7
:105C3C002F30D3B9134B1B7812684B431249C3F363
:105C4C008F130B80C3EB5203104A1380104B93F944
:105C5C0000300BB900F0D4FC0E4A136842F20F71FD
:105C6C008B429CBF0133136008BD0B4BE3E700BFB5
:105C7C0000800440081400200614002000000020BE
:105C8C0010150020FE1400202C14002002140020FB
:105C9C00E70200200C140020FC14002070B5114DFC
:105CAC00114E00242B78A34214DC72B60F4C00F07A
:105CBC00C7FC0F4B22881A8000F092FC2080002039
:105CCC0000F0AEFC0B4B1888013080B200F08CFC5D
:105CDC0062B670BD00F0A8FC96F900309842F8D07E
:105CEC000134DFE7E5020020E40200200614002066
:105CFC000814002002140020774B2DE9F74FDFF831
:105D0C0064A2764D1B882B80BAF80030744ADFF8F9
:105D1C005882DFF858B2734F734E744C0133AAF8A3
:105D2C000030138801331380B8F800303278013317
:105D3C00A8F80030BBF800300133ABF800303B78EA
:105D4C0013435AB2002B32D1694803787BB3694BA9
:105D5C0069491B88002B40F0BB800A88013292B243
:105D6C0044F6206C62450A8021D9644A12881E2AA6
:105D7C0040F2AB8001223A7094F82420012A40F0C2
:105D8C00A1805F4A4FF4B9711288B2FBF1F29946C7
:105D9C00327096F900304B4500F38880594B5A4AC3
:105DAC001B78127813435AB20BB984F82620E07F83
:105DBC0088B1564B56491B780A88013B0344013283
:105DCC00142092B243439A420A8004DD514B0122C3
:105DDC001A7000230B80504B93F90030002B40F0CD
:105DEC005C814E4ADFF8889192F9002099F80030D6
:105DFC00B2B1ABB100F024FC00F00EFC484A1378B1
:105E0C0073B94849484B91F900101B78002961D0AF
:105E1C0046490978994203D20123137000F01CFC07
:105E2C00BBF8003099F80060142B40F2D680404B40
:105E3C0001221A700023ABF800303E4B93F900306E
:105E4C0003B3FEB194F82C203B48C8235A433B4B78
:105E5C00B3F9001000F0D0FB394A3A4942F2107302
:105E6C0090FBF3F0138809881B1A1BB28B4213802A
:105E7C00B8BF1180B2F90030B3F5FA6FC4BF4FF45C
:105E8C00FA631380637F002B78D0002E76D02E4BD4
:105E9C002E4819682E4B1A8800F0AEFB2D4B1A6851
:105EAC0010442D4A904265DD1A6067E000F0ACFBAF
:105EBC00642000F0BDFB294A4FF0FF31D16009F19D
:105ECC00010966E700F0A0FB68E703700B806EE742
:105EDC000A806CE722499CE7CA14002004140020B5
:105EEC00041500201A140020DB14002010150020CB
:105EFC00121400209C140020E4140020181400201C
:105F0C00DC14002010140020111400201C030020AD
:105F1C00DE140020A114002025140020E70200202C
:105F2C000B140020E40200200A14002006000020BC
:105F3C00A2140020EC1400204C030020CE140020EE
:105F4C0008030020F8020020000000202403002099
:105F5C0016030020E814002060E316000030044013
:105F6C0005000020D8140020021500200015002088
:105F7C002E140020002840F397801860844B93F96E
:105F8C00003053B34EB3834B834A1B880193834B2E
:105F9C001268D3F800C0DFF85CB24FEAEC71090468
:105FAC0000234FEA0C4041EA1C4100F021FB019A0E
:105FBC000146584600F020FB79490A68104420EA53
:105FCC00E070784A9042D4BF08600A60764A126842
:105FDC00632A9CBF0023CBF81030744BB8F8001028
:105FEC001B78DFF814B29942BBF8002066D9002365
:105FFC00A8F800306C4B1B68952B01D9952A55D805
:10600C006B4B1B786B49DBB20B702988891A994250
:10601C00C4BF991829802988511A8B4201DAD31AE6
:10602C002B803B782988644ADFF8D081002B55D02F
:10603C00002E00F08880614B1B882F2B50D9604BB1
:10604C0010881E78002E3BD0002119705D4B217DED
:10605C0019702B88ABF800305B4813885B495C4A9D
:10606C0003610B6113618469B8F8003063F31F445A
:10607C008461C46963F31F44C461886963F31F407E
:10608C008861C86963F31F40C861916963F31F415C
:10609C009161D16963F31F41D1614E4A1388013379
:1060AC00138003B0BDE8F08F0022FDE64A4B1B685D
:1060BC00B3F5FA7F8CBF494B494BA2E72A80B0E776
:1060CC0040F2B2738B4228BF0B4643434FF4FA6144
:1060DC00B3FBF1F30133A8F80030BAE7002E32D04D
:1060EC00364B1B882E2B2ED8637B012B0BD13548BE
:1060FC00002404703248037013884B434FF4FA6148
:10610C00B3FBF1F3E7E7022B03D12E480123037015
:10611C00F0E7D81E0628EFD82948324C06783EB94D
:10612C00023B237044F62063AAF800300123E2E717
:10613C002378002BFAD10478012C02BF1A4C89F871
:10614C0000302360F2E7284B93F9003053B1274B12
:10615C0011881B8826484B4393FBF0F31944A8F88D
:10616C00001076E7207F0228C6D13B78002BC3D0E5
:10617C0000F062FA104A237B11884B434FF4FA610A
:10618C00B3FBF1F303EB83035B002833A3E700BFFE
:10619C00F4140020F6140020A8030020B0140020F2
:1061AC00F0140020F05838010C14002009150020C0
:1061BC001F030020FC020020F40200201614002013
:1061CC00FB140020ED14002000C0044000D004405B
:1061DC0000E0044000140020B81400201E0300202E
:1061EC001D030020FA140020A01400200615002026
:1061FC0030F8FFFF74030020CC1400201E14002084
:10620C0010B5184C238F43F02003238700F03EF980
:10621C00154B16491A7C22F001021A740A7F22F0DF
:10622C0004020A771A7822F001021A704FF0FF323A
:10623C005A609A600E4A918D21F0100191850021CF
:10624C001160B4F884200B4942F02002A4F8842099
:10625C000A7942F001020A711A7842F001021A70AE
:10626C0010BD00BF0000014000B00440000004401D
:10627C000020054000400440034B1B78034B0022D8
:10628C001A70FFF7BDBF00BF101400203C17002090
:10629C0008B500F03BF91A4B1A7822F001021A707B
:1062AC00184A1288510859609A601A7C42F001020F
:1062BC001A74154A00211160D160918D41F00101D1
:1062CC009185918D41F01001918510490A7F42F022
:1062DC0004020A770E4A918E41F020019186B2F8A1
:1062EC00881041F02001A2F888100A490A7942F07E
:1062FC0001020A711A7842F001021A7008BD00BF3F
:10630C0000B00440AE030020002005400000044013
:10631C000000014000400440024B01221A70FFF7BC
:10632C00B7BF00BF3C1700200A4BDA6B12050FD524
:10633C00B3F8442042F40062A3F84420A3F5503390
:10634C0001211A6A61F315521A624FF480629A6342
:10635C00704700BF00500440FFF7CEBC4FF08043A5
:10636C0001229A620E4A82B00020D96E890601D1B0
:10637C0002B070470190019909290CD9196FC1F32A
:10638C000B011180196FC1F30B015180196FC1F30F
:10639C000B019180E9E700BF019901310191EAE716
:1063AC00361700201D4B93F900201B78062B33D891
:1063BC000123934013F0480F21D113F0240F11D176
:1063CC0013F0120F28D0164BD3F88020500623D58B
:1063DC004FF0FF32C3F880201B6E13F0400F1BD020
:1063EC00FFF75CBC0E4BD3F88020D10614D54FF0D0
:1063FC00FF32C3F880201B6E13F0100FEFE7084B31
:10640C00D3F88020920607D54FF0FF32C3F88020D6
:10641C001B6E13F0200FE2E7704700BF0400002052
:10642C0000100140034A137B43F001031373FFF781
:10643C00E9BB00BF0080044008B5074B4FF0FF32AA
:10644C005A6000F0B9F800F0E3F8044B4FF4002266
:10645C00C3F8042108BD00BF00B0044000E100E017
:10646C0008B5054B00225A6100F0D2F8034B4FF4EB
:10647C000022C3F8042108BD0020054000E100E023
:10648C004FF0804302229A6200F0DEB81A4B4FF4B0
:10649C00003210B5C3F88020BFF34F8FBFF36F8F5E
:1064AC004FF400521A600021144A83F80D13138D17
:1064BC0061F30C331385124BD3F8880061F39130E0
:1064CC001049C3F888000978D3F88800013961F3C2
:1064DC000D10C3F88800D3F88800012464F302007F
:1064EC00C3F88800084800EB8101C3F88410138DB1
:1064FC0043F48073138510BD00E100E000400440BC
:10650C0000180020B2030020201000201A4B4FF47A
:10651C000052C3F88020BFF34F8FBFF36F8F4FF43F
:10652C0000321A600021154A83F81113138D61F3A0
:10653C0008231385124BD3F8C80061F39130C3F8CC
:10654C00C800D3F8C810152060F30D11C3F8C8109B
:10655C00D3F8C810012060F30201C3F8C810094930
:10656C0008780949153001EB8001C3F8C010138D70
:10657C0043F480531385704700E100E00040044071
:10658C0000180020C0040020F0150020074B08491B
:10659C001B78084A013B01EB8301C2F88410D2F846
:1065AC00881063F30D11C2F888107047B2030020F5
:1065BC00201000200018002006480749202350F81E
:1065CC00042B013BD24313F0FF0341F8042BF6D10B
:1065DC00704700BF20100020200F0020000000009A
:1065EC005FF800F0094C00005FF800F02D4C000043
:1065FC005FF800F00D5200005FF800F07D11000014
:10660C005FF800F0F54000005FF800F0493C000036
:10661C005FF800F0D53800005FF800F09D16000020
:10662C005FF800F01D4C00005FF800F059400000CE
:10663C005FF800F05D3500005FF800F0F3450000F6
:10664C005FF800F0A54000005FF800F02121000089
:10665C005FF800F0E51600005FF800F095220000EE
:10666C00000000000000000000000000000000001E
:10667C00000000000000000000000000000000000E
:10668C0000000000000000000000000000000000FE
:10669C0000000000000000000000000000000000EE
:1066AC0000000000000000000000000000000000DE
:1066BC0000000000000000000000000000000000CE
:1066CC0000000000000000000000000000000000BE
:1066DC0000000000000000000000000000000000AE
:1066EC00000000000000000000000000000000009E
:1066FC00000000000000000000000000000000008E
:10670C00000000000000000000000000000000007D
:10671C00000000000000000000000000000000006D
:10672C00000000000000000000000000000000005D
:10673C00000000000000000000000000000000004D
:10674C00000000000000000000000000000000003D
:10675C00000000000000000000000000000000002D
:10676C00000000000000000000000000000000001D
:10677C00000000000000000000000000000000000D
:10678C0000000000000000000000000000000000FD
:10679C0000000000000000000000000000000000ED
:1067AC0000000000000000000000000000000000DD
:1067BC0000000000000000000000000000000000CD
:1067CC0000000000000000000000000000000000BD
:1067DC0000000000000000000000000000000000AD
:1067EC00000000000000000000000000000000009D
:1067FC00000000000000000000000000000000008D
:10680C00000000000000000000000000000000007C
:10681C00000000000000000000000000000000006C
:10682C00000000000000000000000000000000005C
:10683C00000000000000000000000000000000004C
:10684C00000000000000000000000000000000003C
:10685C00000000000000000000000000000000002C
:0400000300004FCDDD
:00000001FF
