:101000006F402025130000001300000013000000B3
:101010001300000013000000130000001300000084
:101020001300000013000000130000001300000074
:08103000130000007300100022
:1010380000100000000000002449000026490000BC
:1010480000000000EA51000000000000000000005D
:10105800EC510000EE51000000000000000000000C
:101068006E4A000000000000284B0000000000004D
:10107800F4510000F6510000F8510000FA51000048
:10108800FC510000FE510000005200000252000016
:10109800045200007E4A0000BE4A000028490000B1
:1010A8000C5200000E520000105200004C49000083
:1010B80014520000CA490000185200001A520000D9
:1010C8001C5200001E520000205200002252000054
:1010D8002452000026520000285200002A52000024
:1010E8002C520000FE4A000030520000325200002C
:1010F8003452000036520000385200003A520000C4
:101108003C5200003E520000405200004252000093
:101118004452000046520000485200004A52000063
:101128004C5200004E5200005052000000000000D7
:081138000000000000000000AF
:10114000397101436EC619A0397141536AC866CA24
:1011500062CC5ECE19A0397101535AD056D252D406
:101160004ED64AD826DA22DC06DE3301614082827E
:1011700041114AC026C222C406C68282B24D410134
:10118000024D924C224CB24B4101024B924A224AF0
:10119000B2494101024992442244B2404101828055
:1011A0003D432A876373C3029377F700BDEFADE534
:1011B000937606FF3D8ABA960CC34CC30CC74CC746
:1011C0004107E36BD7FE11E28280B306C3408A0673
:1011D0009702000096966780A6002307B700A30633
:1011E000B7002306B700A305B7002305B700A30483
:1011F000B7002304B700A303B7002303B700A3027B
:10120000B7002302B700A301B7002301B700A30072
:10121000B7002300B700828093F5F50F9396850001
:10122000D58D93960501D58D61B7939627009702CA
:10123000000096968682E78086FA9680C1171D8FF9
:101240003E96E374C3F8A5B71845918D1C493387C2
:10125000E5020CC13E971C5118C963D3E7001CC9B5
:101260001849B307F0406353F7001CC91C4D5041A7
:101270005845B387F5400CCDB385C5021049B387F7
:10128000E702B295BE955CC95C514CCD63D3B70003
:101290005CCD584DB307F0406353F7005CCD484D2B
:1012A0008280EFF25FEB83A5C181138541B91306FC
:1012B000000CEF20706F938741B983C77701130744
:1012C000A002138441B96369F7001387C7FF13773E
:1012D000F70F954663E5E600C1462382D1B80D4776
:1012E000636AF7008E0793F7F70F2382F1B8A90717
:1012F000A30BF4008347740113070002D91793F777
:10130000F70F6364F7002382F1B8834784019306E3
:101310008008138787FF1377F70F63E7E624130727
:101320004006B387E702194733C7E702B7370C0017
:1013300093870737B3C7E702C207C1832394F180BD
:10134000373701402316F7C28346640013061003A3
:1013500081471387F6FF1377F70F6365E600A94708
:10136000B387F60203469401239BF1821307E6FC40
:101370001377F70F9305400693896183BE8663E474
:10138000E500B386C700938707192396F184834746
:10139000A40113078002B387E7020945239AD1828B
:1013A0001389C184138A4183D107239CF182EF20E2
:1013B0000072834714009384818363810726034569
:1013C000E401AD4763F3A7001545EF204070834764
:1013D0000402A30304029387771786072392F184FC
:1013E000834714029387B73686072391F184834796
:1013F00024029387E7552393F18403473402238023
:10140000E184834754029387A70F2394F182834793
:1014100084025147ED1793F7F70F6375F70095476F
:101420002304F402834794022547FD1793F7F70F2F
:101430006375F700A947A304F4028347A402214778
:10144000FD1793F7F70F6375F700A9472305F4021B
:101450008347A40225476363F7065957B387E7021A
:1014600003A741819306800CBA97938767F993F796
:10147000F70F1387818163E2F6102300F70083479B
:10148000070003570A003E972310EA0003D709001C
:101490003E972390E9001387618583560700BE9627
:1014A0002310D700035709003E972310E900373770
:1014B0000140835647C4D58F2312F7C48347B40233
:1014C000130760049387A7FB93F7F70F6375F70083
:1014D000FD57A305F4028347C40213072006FD1736
:1014E00093F7F70F6365F70005472380E18E034705
:1014F0009400B7070020938707000607D8C3034767
:10150000A40098C70347B4000607D8C78347D4028E
:101510002547FD1793F7F70F6375F7009547A30667
:10152000F4028347E40225476362F70805476380B6
:10153000E706B9C789466381D70691466381D70616
:10154000834754002545138601839386F1821387D0
:10155000E1826363F5062384A1B02300F6002380B3
:10156000F6002300F700B5A81307F07C239CE18464
:10157000B73701402396E7C2C1BB930780FCF5BD96
:10158000A380018A2382018C2384E18E55BFA3802E
:10159000F18A2384F18E6DB72382E18C55B7A38441
:1015A000E18E2384018EA380E18A59BFA380018A42
:1015B0002382018C0547C9BF238401B0A945B3D755
:1015C000B7028345060063F4B7002300F60003C6A4
:1015D000060063F4C7002380F60083460700E3E2B9
:1015E000D7F883D704001307B0126364F70023868B
:1015F00001820347B40193060002B3C6E602130753
:10160000400633D7E7023347D7022395E1823147BB
:10161000B3D7E702B3C7D7022393F18203D50400FF
:1016200005661307401F9306803E130686BB93058D
:10163000C012EF10907503472401239EA18211C7A9
:101640001307803E23A8E1B089B61307007DDDBFF4
:10165000EFF21FB203A6C1819305000C138541B9B7
:10166000EF20D02905BE9386018C03C706001386A0
:10167000C18D931517001388C1B183D70188084223
:10168000C29503D805003E952390F500330505412A
:101690009307170008C293F7F70F13071003636D42
:1016A000F7002380F600930720033355F502420527
:1016B00041812396A18C828023800600EDB7EFF252
:1016C0003FABEF2090158387F18381CB01E983C77E
:1016D000D1B08507A386F1B075BC75F91387018970
:1016E00083470700850793F7F70F2300F70003C729
:1016F000C180E373F7FEA38601B0F9BFEFF25FA7E5
:1017000083863182054683C7E1841387F18313847E
:10171000E184639AC6068507E207E1871946634FAD
:10172000F6042300F400830704008946B3E7D702D8
:101730002300F7008967938707807390078083876A
:10174000D18B89E703050400EF20F07F8967938739
:10175000878873900780EF20D010A38601B0238282
:10176000018E83070400FD17139717009387C1901C
:10177000BA9703A701812390E70029BC2300D40076
:10178000A38ED1884DB7FD17E207E187635AF000B9
:101790002300F4008347040093C7F7FF858B49BFFC
:1017A00099472300F400A38EC188EDB7EFF25F9C48
:1017B000370700408357C740C207C183F99BC20760
:1017C000C1832316F7401D3F03D701B983D761B802
:1017D000938601813E979C4205873E9783C731BC23
:1017E0001356170090C29DEF83C741B8B387C70255
:1017F00009839983C207C1832394F188B307F74013
:101800002391F18E8387A18399E3EF20900383A72F
:1018100041C509671307F7706365F700850723AAB9
:10182000F1C48DBA83C741B1D1B7EFF27F940144BF
:1018300083C72182634EF404096493070480739084
:101840000780EF20807E83D661B8130484882398B4
:10185000D1B8B717004083D647822393D1B82392DB
:101860000782B70700402392074203D7218E05075E
:10187000420741832396E7422398074003D7C74096
:10188000136717002396E740731004806FF09F9052
:10189000EF20A0788387F183E30AF5FE050449BFB2
:1018A000EFF21F8D1384218C834704008DE3B9353B
:1018B00089679387077123A8F1800567B7170040F0
:1018C000130787382392E78285472300F400EF202F
:1018D00040776FF03F8CEFF23F87938741B983C722
:1018E000270103D5818B138441B9138A818B938A95
:1018F000418D638307528387118A1389118A638715
:1019000007108347640283560A00639B07429307CC
:10191000704163F5D70683863182034714019387AC
:101920003182639FE60203D6C18383A60181637877
:10193000D60003D6418A9306700C63F6C6008386F0
:101940000A006385064C85463387E6402380E7001E
:1019500023AA01C4238DD182EF20206D2389018821
:1019600083570A002167130787BEBA970387E1836D
:101970008607998F9387F7022393F18883570A008C
:101980001307703E938707FDC207C1836365F7069F
:1019900083461401038631820547158F9387318270
:1019A000631DE60203D6C18303A701816378E600C5
:1019B00003D6418A1307700C6376C70003870A00B9
:1019C0006309074423AA01C405462380D700238D59
:1019D000C182EF2080652389018883570A0021672F
:1019E000130707FDBA970387E1838607998F9387CB
:1019F000F7022393F18803570A009307F00263EC80
:101A0000E710239301882389018831A283C50184CB
:101A1000834764029384018486059385853E638CA5
:101A2000071E63DAA5041387318283461401030677
:101A300007009387D18B631DD6020388118C2393F3
:101A4000018885462380D70063070802918E230012
:101A5000D700238007001307F07F9306F0021306D8
:101A6000007DA380018CEF1050322393A18821A028
:101A700083870700EDD303C6040003550A009317BC
:101A800016001306803E1D8E6359C504834614015B
:101A9000138731828308070085453388D5409387B3
:101AA000D18B639908032380B7008385118C23931E
:101AB000018885C52300D700238007001307F002A3
:101AC0009306F07F8145A380018CEF10102C2393A7
:101AD000A18821A083870700F5D383C7040083561C
:101AE0000A001307803E86071D8F63C2E6029387B4
:101AF000873E63CED700239301889387D18B0387DA
:101B0000070011C7238007000547A380E18C8307E6
:101B10000900E39807DE9384118903C704008387D3
:101B2000D18063DEE72E83476401638A072EEF20AE
:101B30005040EF20804F2394018A93076006238052
:101B4000F40083870A00639D07448387A188638923
:101B500007448347340113070005B387E70203D71F
:101B6000818A1389D18B9389818A138B218C9384E9
:101B7000618A9387E70263CCE73A8387C18B938BB3
:101B8000C18B639607420347440183470B006311EF
:101B9000074E2390040081EF0547238DE18223AA9D
:101BA00001C48347C401638F0742EF20304083475D
:101BB00064026383073E83070900639C074203D7DF
:101BC00009009307E00263EFE75683D7A18183D62C
:101BD000040063F4D7002390F4008387018E89CB3F
:101BE0008397A18583D6040063D4D7002390F400A3
:101BF00083A7018D6356F03A9306F00263F2E63A4A
:101C0000096713070771B3C7E70203D70400BA9740
:101C10002390F40071A663D8A5068386318203471A
:101C2000140193873182639FE60203D6C18383A6A2
:101C300001816378D60003D6418A9306700C63F65F
:101C4000C60083860A006383060E85463387E64016
:101C50002380E70023AA01C4238DD182EF20E03C3A
:101C60002389018883C5040003550A001307F07F08
:101C700086059306F0021306007D9385853EEF10DE
:101C8000D0102393A18883C7040083560A001397BA
:101C900017009307803E998F63D7F6068346140199
:101CA000038631820547158F93873182631CE602D4
:101CB00003D6C18303A701816378E60003D6418A76
:101CC0001307700C6375C70003870A002DC723AA8A
:101CD00001C405462380D700238DC182EF20E03464
:101CE0002389018883C7040003550A001306803E38
:101CF00086071D8E1307F0029306F07F8145EF10D3
:101D0000D0082393A18883C7040083560A001307D1
:101D1000803E86071D8FE3CCE6DE9387873EE3C8CF
:101D2000D7DE2393018823890188D5B39307803EAA
:101D30002310FA0005BF9307803E2310FA005DB719
:101D4000930770411387D18B63FCD704938731824B
:101D50000346140183850700639FC5020385118C28
:101D60002393018805462300C700E30605DA0D8E9C
:101D70002380C70023000700A380018CA1679387FD
:101D800087BE0387E183B6978607998F9387F7020B
:101D90002393F18849B383070700E39E07D6E9BF81
:101DA000938706FDC207C1831306703E6364F60481
:101DB00003461401938731820388070085453385E4
:101DC000C5406314A8022300B7008385118C2393B8
:101DD0000188E38205D42380C70023000700A38085
:101DE000018CA167938707FD69BF83070700E39410
:101DF00007D2F5B72393018883070700E38D07D047
:101E0000230007000547A380E18C31B323100A00AB
:101E100081BE23100A00D1B62393A188EDB9834770
:101E20003401B5C303D561887547938461886368BD
:101E3000A7022394018A83458402D14703D5040075
:101E4000B385F502E34FB5CE1307F07F9306000A82
:101E50001306F07FEF1060732394A18ADDB1F94778
:101E6000E30BF5FC03468402D1473306F602E35444
:101E7000C5FC1307000A9306F002F945EF10E07065
:101E80002394A18A4DBF8387118E9384818AC9CF01
:101E900083C7018A1389C18AA9CFB707002003A786
:101EA00087369389618883A6418003D5090013068C
:101EB000F07F9305F002EF10406DB787930393878F
:101EC000077033C5A7028347B40103D70900858390
:101ED0003345F502239BA18C9307E00263EBE700F7
:101EE000B70700202390040023AC072E232009000D
:101EF00089B983270900096713070771B3C7E70288
:101F00001307F07FC207C1832390F4006377F700C3
:101F10009307F07F2390F4002DB11307F002E362E2
:101F2000F7C293070003FDB783D76188E5B78347FE
:101F30000B0099EFEF20E07F8387A18399E3EFF017
:101F40003F9685472300FB0003D741832399E18A0D
:101F500083D661838347340103D509001307007DCD
:101F6000B1C3938686021306F07F93059008EF10A5
:101F7000C061834764022390A40099E32300090011
:101F80008347340113070005B387E70203D709002D
:101F90009387E702E3D3E7BE83070900E38107C223
:101FA0006FF00F9E1306F07F9305F002C9B7FD177F
:101FB00093F7F70F1147636BF70019678A07130749
:101FC000073ABA979C438287EF10304F23800B006B
:101FD0005DBEEF103055DDBFEF10905BC5BFEF1059
:101FE000103BEDB783070900E39307BCEF20607453
:101FF0007DBE138B118A83070B00938AE18B9DC3EF
:1020000083570A009306703E138707FD42074183FA
:1020100063F0E604130770416373F7022167130747
:1020200087BE15A883550A001305803EEF1080591E
:1020300083070B001305853E2390AA00F1F303D715
:102040000A009307E07C63F2E702EF202076A9B74D
:102050002167130707FDBA970387E1838607998FE6
:102060009387F7022390FA00D9BFEF20E0342DB711
:10207000A1E30547238DE182034AC40123AA01C4D9
:102080002388018863000A0A8347340195E3854762
:102090006310FA02834794021307800CB387E702A8
:1020A000239FF18A1307E07C6379F706EF20007025
:1020B0008387E1841307C00313067016FD17B387E7
:1020C000E70203D70182BA97C207C183939607013B
:1020D000C186634CD604239DD1AE83D7A1AF13062E
:1020E000701613877707420741876345E6042399F3
:1020F000E1B81387F70E4207418713067016634E47
:10210000E6022397E1B88347340105476394E7006B
:102110002380FA002390040041B5EF20E02923003A
:10212000490179B7EF20E06061B7938787E9239D84
:10213000F1AE65B71387F7F05DBF938777F8239704
:10214000F1B8D1B78346D401F947B3D7D74083A6B6
:1021500041C5E3FCF6A683D7418383D6040063F42C
:10216000F6002390F40083D7C18483D60400E3FEF5
:10217000D7A42390F40091BCEFE29FFF1384418920
:102180008347040005476399E700EF00306E2300A2
:102190000400EFF04FF411A80947E39CE7FE03D5D4
:1021A00041B0EF108022230004006FE0BFFEEFE299
:1021B000BFF98386318283D7A1AF63940610850768
:1021C000C207C1879306701663CBF602239DF1AE5A
:1021D00083D721B9930670168507C207C18763C3E9
:1021E000F6022399F1B883D7E1B8930670168507F4
:1021F000C207C18763CBF6002397F1B809A8239DD6
:1022000001AEF9B7239901B8F9BF239701B88397B5
:10221000A1AF37040020130484028607938A418209
:10222000A2970395070083D70A00138A81803E9501
:1022300083570A00930B007D3305F502938941B95A
:1022400083C7D902294B334575033305F50233455E
:10225000650342054181EF205054839721B98607D9
:10226000A2970395070083D70A003E9583570A007B
:102270003305F50283C7D902334575033305F502EB
:102280003345650342054181EF20D0518397E1B882
:1022900086073E940315040083D70A003E958357B2
:1022A0000A003305F50283C7D902334575033305A8
:1022B000F5023345650342054181EF20504F6FE041
:1022C0003FECFD17C207C18763C70702239DF1AE2C
:1022D00083D721B9FD17C207C18763C107022399BC
:1022E000F1B883D7E1B8FD17C207C187E3D607F07D
:1022F0009307701611B793077016C9BF930770162E
:10230000F9BFEFE2FFE6B716004003D74682138617
:10231000018193170701C1832393F1B823920682A9
:1023200014420D473307D7021384018191453E972C
:1023300083C741B89356270014C2B387D70203A6B8
:1023400041C5998393960701C1822394D1889357FD
:102350003700958FC207C1832391F18EB7160040D5
:1023600003D746826374F700E3ECC5FEEFF00FB9C4
:10237000A38601B02388018883A741C583C641B9DC
:10238000850723AAF1C491CA09476376F700238D14
:102390000182EF10104B6FE0FFDF138741B98346D6
:1023A000D70103476702558F11CB4D47E375F7FE01
:1023B00018409307007DE3E0E7FED1BF83A701B19A
:1023C0001840E1B7EFE25FD883D7618A2392F18AA0
:1023D0009387818D03D7070005072390E700938734
:1023E000418B03D7070005072390E70083D761AF30
:1023F0001387A18B1384418A8507239BF1AE8357F2
:102400000700138AA18B938441B985072310F70035
:1024100083C7A18803C731891389A188D98FBDEFEC
:102420009386A18A83870600B5CB83D76188639999
:10243000072C83D7E1AE1566130606E28507C207AF
:10244000C1832397F1AE637BF60403D6618EF9470F
:1024500063F6C72A03C7440285472300F90085476E
:10246000631BF72883D741AF13072017938A31895D
:10247000B3D7E702AD6B014B373C0040938BABAA5F
:102480002380FA0083870A00634DFB2483C7418CB5
:1024900003C7118AD98F99E32383040203C6F40189
:1024A00015C683C7218503D7A1B0FD17B297514642
:1024B000B387C7020507420741832395E1B063D77D
:1024C000E7000547A381E18C239501B08387418D07
:1024D000639007208387A1839DCB83C7218C85CB05
:1024E000EF10B034EFF0AF9D03C7418E9387418E5C
:1024F00019EF8386F18303C7D1B06386062083C6B4
:10250000218363F6E60005472380E700DD3B0357A0
:102510000A00D14763FAE70E0547A381E188838764
:10252000018E23100A00ADC383C7218CB1CF03C62F
:10253000C4029307800C370500203306F60283950A
:10254000418813050500EFE03FD0096713070771C5
:102550003345E5029386A18503D706009387A185BD
:102560003305A740420503D7618341852390A60028
:102570006354E5002390E700839607001307007D6E
:102580006354D7002390E70083C7D4018DCB83C762
:10259000218C95C703D6A18483A50181370500202E
:1025A00013050532EFE05FCA9387018D98433A9592
:1025B00037E7160013070736635AA71498C38387B3
:1025C000118EB9C383C7218CA1C303D6618D83A5A6
:1025D00041B0370A002013058A2FEFE0FFC693872A
:1025E000C18A98433A95376738011307078F6356B6
:1025F000A71298C303A741C59307300663E6E70017
:10260000130A8A2F23280A0003C781B083D661AF3B
:1026100083D7218B138A218B6374D70403A641C50A
:10262000239B01AE930650091387D18263F4C60041
:1026300063ECF60E83C601832300D70083560400A3
:10264000034707009D8E6356D700B386E70023102B
:10265000D40083560400B386D7406355D700998FC2
:102660002310F400830709000357040013898185B0
:10267000E1CB83C6218CE9C603D6818A9306F0029A
:1026800063F0C60C9306207BBA8763F4E6009307D9
:10269000207B03570900C207C183B387E7021307F2
:1026A000007DB3C7E7028507239CF1AE8357040082
:1026B000035709002310FA00B73701402396E7C2F9
:1026C00003D781AF239AE7C2239CE7C2239EE7C2C8
:1026D0009387618C03D7070005072390E7006FE01D
:1026E0003FAAEF10205413054006EF00F070050BD1
:1026F00023207C0141BBEF10E05249BB2380060040
:10270000239701AE61BB83C61183E5BB6354A00070
:1027100088C375B523A007005DB56344050088C371
:10272000D1BD23A00700F9B503A6C1889306401FB9
:1027300063F5C60083C6F18201B783C6E182EDBDB1
:102740008386D18B89CE0357090083D7E18B93060B
:102750000083B387E702B3C7D702BA97B1B703C6FE
:10276000C40189466316D60285C70945EF10B07DBE
:102770000357090083C7C400B387E7021307007D2E
:10278000B3C7E7022947B387E7029387870229BFC8
:1027900083570900B387E7021307007DB3C7E70239
:1027A00021B7EFE2FF99BD6737070008130707005D
:1027B00093870700BA97011123AEF180EF20B0197B
:1027C000BD654146938505FE0808EF10F01D8306A0
:1027D000410113078003938741816392E65E794745
:1027E00098C3984393170701C1832392F182239BD7
:1027F000F1822394F184238CE180EF202033EF20B9
:10280000E076EF20607DEFE0DFA9938741B983C7D1
:102810003700094713896183138A8184138441B97E
:102820006399E7000347440009E70347140063EC9A
:10283000E7008947A301F4008D4723020400A300A9
:10284000F400EFE0FFE083471401FD17B337F00019
:10285000A381F18203D78180938781803EC4239C2A
:10286000E184034744019384818519E3A3090400AB
:1028700083476402B1C71307803E239BE1848547E9
:102880002386F1822309F40083570900A309040079
:10289000A30A0400938727032310F90083570A0033
:1028A000230A0400230B0400938727032310FA0054
:1028B0009387418303D70700130727032390E7007B
:1028C0002393018EEF20C036AD67373700409387E2
:1028D000A7AA1CC3EF102022EF10F01D83C7018AA6
:1028E0001387618E3AC281C70547A380E18E896B49
:1028F000EF10D02A1389C190138C8B320357290013
:1029000083570900BA9703574900BA9703576900DC
:10291000BA9703578900BA970357A900BA97910746
:10292000858723A2F1B09389018B83C70900E20751
:10293000E18789C7EFF05F842380090003A641C5C2
:102940009146138721839387118363E5C648034625
:102950002401630F06462380D700AD672300D7000C
:102960009387A7AA373700401CC303475401854704
:102970006311F702A2471306800C9305000603D7E4
:10298000070003A5018193561700EF001040239024
:10299000A4000347540189476318F70283A7C1883D
:1029A000130740099386B7F96367D7002947338730
:1029B000E7022390E400FD1713072006636EF7403B
:1029C0009307803E2390F40083D6618C13870B71AC
:1029D000138B618C6378D70A8387A188938AA18837
:1029E000B1C7EF1010552394018A2385018A9247BD
:1029F00023800A0023900700B7370140239A07C2BB
:102A0000239C07C2239E07C2EF20205C9387C19EB0
:102A10001387071023A007009107E31DF7FEB707F0
:102A2000EFBE37E700E0938707083CC703570B006A
:102A3000A967938707C463F7E704EF10904F2394C7
:102A4000018A2385018A924723800A002390070088
:102A5000B7370140239A07C2239C07C2239E07C2AF
:102A6000EF20A0569387C19E1387071023A007006D
:102A70009107E31DF7FEB707EFBE37E700E0938746
:102A800007083CC71387818D835607009567938796
:102A900007E263F0D7028397418813068016C207C6
:102AA000B3C7C70293868189904223100700B2976B
:102AB0009CC283A641C51307803E83D761886363A8
:102AC000D70099E3A3880188130740066378D700ED
:102AD0001307700C6364F700A3880188034734016F
:102AE00019C71307F0096364F700A38801880387F7
:102AF000C189630B072E1307F0186364F700A388DE
:102B0000018883A541B08D47B3C5F5020387D189FC
:102B1000938DC188938AD18923A6B18825CBA947F3
:102B200063F6D70603A581B8EF00D02983A60D0070
:102B300093D7160063F8A7049307F07C63E4D704E7
:102B40009387E18903C7070023AA01C405072380EF
:102B5000E7008347240199E703D7818A9307F002AE
:102B600063E8E70003A701819307803E63F4E70071
:102B70002381018C0547238DE18283D7418385839F
:102B80002399F18A23800A0023A4D1B8938A318C37
:102B900083870A006387072603D701B883D6A189F4
:102BA00003D6418883D541AF03C5C1B0EF1080265D
:102BB0002945EF10304223800A0003C7318885473A
:102BC000938A3188138B418D631EF70CEF1080417F
:102BD00003D521B8EF1060422386A1B003D7C1AF5F
:102BE0000566930746CE3307F7027D163347C702C3
:102BF00003D6A1803307C702130640063347C70236
:102C0000239AE1AEEFE03FA68567938747CEB307EF
:102C1000F50223A4A18C1305900213874188B3C742
:102C2000A7023D45938747A2B3C7A702C207C18742
:102C300063C0071E2310F70003474402054693872D
:102C4000618B631AC71C0387318903D6818283D6BF
:102C500041AF3307C70263D9E61C03D70700050756
:102C60002390E70083D6070083070B0079771307CB
:102C70004795B387E70213870B71BA9763D2D702E0
:102C800005472381E1882394018AEF10902AEF10F1
:102C9000C0392381018C9247239007002385018846
:102CA00023800A00A38A018C83070B006390071C12
:102CB00083A741B0372509001305057C3345F5028C
:102CC00083C7218C938A218C138BA1813305F50254
:102CD000420541812390A1B8A9473355F502239CB1
:102CE000A1B08387C1826388071403D7418583D647
:102CF000618503D6618283D5A182EF00100923107C
:102D0000AB008345B40203C5C1B063FDA50083D603
:102D100041851386A50005478582D915EF00F00689
:102D20002310AB0083A641C513073006138B018126
:102D3000938721826366D71083260B001307401FF9
:102D40006370D71031472380E7008347F40289CFAF
:102D500003D5418A5D47B5461306007D93054006BD
:102D6000EF00B002238AA1B0B717004003D7478213
:102D7000AD67938787FCE3F3E7B883CD0A00854707
:102D8000E39EFDB69387118903C7070005072380DB
:102D9000E700EF108029238DB18303D7818A930741
:102DA000F00263E9E70085679387873823800A008C
:102DB0002320FB0023AA01C4EFF0AFD481B6830621
:102DC000310113071003E39EE6A01307C00309BCFB
:102DD000994651B68D4641B61307800FE376F7BE8C
:102DE00085679387479CF9BE130650091387D180E6
:102DF0006367F600930740062300F70019B3A9475D
:102E0000E5BF0387E1AFE30A07DA238F01AE75B3AD
:102E10002310070015B50946E316C7E403468400EE
:102E200003D741AFE36BC7E203872188E31C07E2C6
:102E30002390070005BD9307007D2310FB00D1B54B
:102E400003A50D0031478D461306401F930540062C
:102E5000EF00A07383260B00938721822380A700B5
:102E600013071003E363D7EE0947F1BD9386818A08
:102E700083D706001387818A3AC613060003138797
:102E8000F1896374F6120386A188630006129387A2
:102E9000F7FCC207C18313067005938A018563643A
:102EA000F6088307070085CFB706004083D7C640E2
:102EB000C207C183F99BC207C1832396F640EF1076
:102EC000C016B7370140239A07C2239C07C2239E2E
:102ED00007C2EF10F00E1387F18923000700EFF00F
:102EE0000FAD8347B40193868BB51307A0323347E8
:102EF000F7021306800793050003B3C6F602B24734
:102F000003D50700EF0060682390AA0042054181C5
:102F1000EF00406C03D70A0093078025B3C7E70290
:102F20002390F1B8E1BA85472300F700EFF02FA80E
:102F30009386818A83D606001307800C6378D700B6
:102F400013070005239D01AE2390EA0003D50A0074
:102F5000EF0040688397A1AFE392079A85472381EA
:102F6000F18C238DF18223A8818123000B00B717F8
:102F7000004023A08D0123A481B923928783D147E8
:102F800023AAF1C4A38E018A03C7E1802387E184C9
:102F90008347D40189C703570A002399E18AEFE0E8
:102FA000EFF5EF2060016FF07F95834AC4018547FC
:102FB0002300F70085476390FA06834794021307BE
:102FC000800C93060083B387E702239FF18A03D71F
:102FD0000400B387E702B3C7D702BA97C207C18319
:102FE000239CF1AE130730066368F700EF10007CF6
:102FF000239001B86FF09F90EF10003C03D781AF92
:10300000B7370140239AE7C2239CE7C2239EE7C259
:10301000A38E518BF1BF8947639FFA020945EF10D8
:10302000807203D704008347C400B387E702130705
:10303000007DB3C7E7022947B387E702373701406E
:1030400093878702C207C183231AF7C2231CF7C2E2
:10305000231EF7C271BFB7370140239A07C2239CD2
:1030600007C2239E07C2EF10C06C59B7EFE2AF8EC4
:103070001387C19E83A6C19E785F158F4207418347
:10308000239EE1C483D6E18F135657002396C18E49
:1030900063FCE61883D621866378D7189387C19E90
:1030A000938681919389C18E2393018C9385070820
:1030B00013848191D8438843A1079106098F420761
:1030C00041833337E60023AEE6FEE395F5FE1C4868
:1030D0000440584803290403BD8C1C500E09BD8CC4
:1030E0005C408E04B98F5850B98F8A07DD8C584CDC
:1030F0005C44B98F5854B98FDD8C184C1C44B98F7F
:103100001854B98F8607DD8C5C5893F4F40F8A0746
:103110003369F9005C5C3369F9001C5C860733692C
:10312000F9008387A1881379F90FA5E78387218A9E
:10313000A9E7EF10E02531CD1387E18E8347070023
:10314000850793F7F70F2300F70013074006637214
:10315000F70403D6090085472381F18A930690037B
:103160001387E1859387C18563FFC600930600043A
:103170002310D70019472390E700BD473389274123
:103180001379F90F11A8930600022310D7001547F1
:10319000DDB78387218AF5F36313992203DFE1C644
:1031A0002393018C1440050F2397E1C7032FC4021A
:1031B000854F5840832E8400032EC400032304014E
:1031C0005C48832884010328C40108504C508322A2
:1031D00084026314FF01A381E18DAA062607558F9F
:1031E0003367570093968E00558F93167E00558F48
:1031F00093166300558F9607D98F13974800D98F80
:1032000013173800D98F13172500D98F139715007E
:10321000D98F03C7E1C529C785466319D700239D08
:10322000F1C48947238FF1C46FD03FF689466316F6
:10323000D7002382F1C68D47F5B78D46E316D7FE3A
:1032400013075002E392E7FE83D7A1C5138741B964
:10325000BA9703C741C62380E700238F01C4E9B7AB
:103260001307F002635CF7000387818E15C3239C6C
:10327000F18AA38401B02385018E7DB71387F7FF00
:103280009306E00263ECE604239C018AA384F1B078
:1032900083C791B0D1DB03C7218C59F70387A1887D
:1032A00041D79386F18E83C506001387A18E63866E
:1032B000F5002380F60023000700954663E5F6003D
:1032C00099462300D700834607009545850693F667
:1032D000F60F63E4D5022300D700B9B7D5FB038707
:1032E000918E85476314F7002384018E239C018A05
:1032F000A38401B02385018E61BFFD172300070061
:1033000093F7F70F13073002636CF70019678A070A
:103310001307473BBA979C4382870547238EE18A70
:1033200003C791B0A38401B0A388E18AF5BD094722
:10333000F5B70D47E5B71147D5B71547C5B70547E9
:10334000238FE1AEF1BFA38201BA0547A381E182D9
:10335000C1BF0547A382E1BAA3810182D1B723830C
:1033600001BA7DBF05472383E1BA5DBFEFE04FAEF1
:1033700083C751BA8507238EF18A5DB78547A38538
:10338000F18E238CF1C48387918E0547E39AE7F889
:103390002384F18E71B7A385018E0547A382E1C610
:1033A00041B703C751BA8547998FA381F1828DBF79
:1033B00003C751BA61BF8547238FF1C495B783D73F
:1033C000C1C685072396F1C649BD83C7B18E6396F2
:1033D000070E8147838681C591C68567238C01C40A
:1033E000938707E0838651C6638006168567A382AC
:1033F00001C69387F7EF23A0F1C60547238DE18E21
:1034000003A701C603D5E18593170701C18393D5AF
:10341000870093D64700AD8EB58F93C7F7FF12078D
:10342000BD8BD98F99669386464413D7C74023A096
:10343000F1C6369713F6F700369603070700030622
:103440000600054E3E07518F13D687403D8A91876F
:103450003696BD8BB69703060600838707007D531B
:103460002A06518F9607D98F23A4F1C683C5F1860A
:1034700093868195138615000A06369608C28A053A
:1034800083D8C185AE964D451386819503A8460025
:103490003317AE007D8F3357A700335818013347D9
:1034A00007013317170198C67D159106E31065FED5
:1034B0003307B6002320070082801387418F83479C
:1034C000670081C72303070029B7035647008356C7
:1034D0002700835707000506850685074206C206B2
:1034E000C2074182C182C1832312C7002311D700C2
:1034F0002310F7009305700263FFC500839741888E
:103500009306200323120700B3C7D70293F7F70FE0
:1035100093E70760C1B51306700C637ED60083D7AE
:1035200041AFE54623110700B3D7D70293F7F70F52
:1035300093E7074045B5E37EF6E883C7C1B02310A3
:10354000070093E7072079B5E39707EA83C7218C43
:1035500099E341657D15BD47854621473356F540C2
:10356000631FD600E11723A8F18E03A7018F9317DD
:1035700097003355E5405D8D23A0A1C651B5FD17D9
:10358000E39EE7FC23A8018ECDB76358C50263D73D
:10359000A5026305D702B307B6003308D7008587B5
:1035A00013581840638EB70063D6A70093851700A1
:1035B000C286E1BF42873E86C9BFBA863685828011
:1035C000C286EDBFB307B54063D40700B387A540FB
:1035D0003E858280B717004003D747824205B71661
:1035E00000400583418183D746828583998FC20736
:1035F000C183E3EAA7FE8280EFD29FB72A84FD54FD
:103600007D14631494006FD0FFB81305803EEFF073
:103610007FFCFDB72D8DA14713178501931515006C
:10362000618713F5F50F6356070013C57500137511
:10363000F50FFD1793F7F70FE5F38280EFD25FB335
:103640002A84B304B5000145631494006FD09FB47D
:10365000AA85034504000504EFF0DFFBF5B7EFD2C0
:10366000BFAE1387C19E032A470003A7C19E9306DE
:103670006057330AEA40420A135A0A011307FACD87
:103680004207418363E7E6183E8B938CC19E83C754
:10369000C18F2393018C9384C18F638F071083C7DD
:1036A000219013892190A1C79307104E138981900F
:1036B00063F4470F034709009307B00463F8E70674
:1036C00083D7418423800400E507C207C183239286
:1036D000F1840947938727D1B3C7E702238AF1BA58
:1036E000EFD01FF723000900EF00C06381A083C75C
:1036F0001190938B1190138C419099E323104C01FE
:1037000083D5218403550C0085072380FB00EFF04F
:103710007FEB9306200363FCA6022380040083D77B
:1037200021842310FC0083470900BDFF2393018CF3
:1037300003A641C783D7818B83A64186B305F64094
:1037400063DCB60CB697239CF18A6FD07FA303A7E6
:10375000C19E83A74C001D46998F03D72184330750
:10376000C702BA978D83C20703C70B00C183239199
:10377000F184E3F6E6FA9D17C207C1832391F18431
:1037800009479387A792B3C7E702A38AF1BA85478F
:103790002300F9001D2361B7834709009D46850773
:1037A0002300F90083D74184B387D7023E9A135A86
:1037B0003A4023924185FDBD83C761BA8DCB83D545
:1037C000618463EE45012E8683D541841307803ED4
:1037D00081465285EFF07FDB23AAA1C681BF130784
:1037E000007D9306903E03D621848505DDB703D680
:1037F000218483D541841307F07F9306F00252851C
:10380000EFF0BFD893070003E3C8A7FC23AA01C6C3
:1038100031BF2393018E29BFB385C74063D4B6005F
:10382000958F15B7239CC18A0DB783A78186094759
:103830009386F7FF6369D70203A781C79307B00395
:1038400063E2E70223880186238E01C68547A380B1
:10385000F18AB946A387D186930600022380D186D8
:103860002385F18A8280F1171147E36DF7FE03A7E4
:1038700081C793073006E3E7E7FE85472388F18693
:10388000238EF1C6A380F18A9D46E9B703A78186FE
:1038900095679387E713130777F363EEE70009470C
:1038A0002380E1861307F0052388E186854723827C
:1038B000F18C2385F18A8280EFD29F8B9567938765
:1038C00007E283A6C19E1387C19E23A4F18623AC81
:1038D00001C6130E87078148014501439385818600
:1038E00003284700630AD800B306D84063F4F60003
:1038F000B6870543369585481107C286E312EEFE6A
:10390000630303009CC16384080023ACA1C683A7A2
:1039100081C70547958323ACF1C68386118ABE848F
:103920006394E600EFF07FF08386418C05473E8488
:103930006394E600EFF09FF583C7118A03C7418CBB
:10394000D98F89E7EFF07FEEEFF05FF46FD09F84BF
:10395000EFD21F820387A188BE8415C38387218A83
:1039600099CF8387919081CBEF00F0148947238A08
:10397000F1886FD03F82EF00F01B8547CDBF0387F2
:10398000A18A11E7EFF05FF3EF00F012DDB7854792
:10399000E311F7FE8387218A91CF8387919081CBB2
:1039A00003D541B0EFF07FA2EFF04FECF1BFEF0095
:1039B0007018C1B78386118A3E846396E600EFF0E3
:1039C000EFEAEF00500F0387418C8547631CF70037
:1039D000EF00101C9387018659C50D472380E7002F
:1039E000EF00700D8387A188C9F78387118AB9CF4B
:1039F00003C7D1C79D4663EBE60403D6618E9546A7
:103A000063F6C60405071377F70FA38EE1C6938705
:103A1000C19EFC5F83A6C19E958F03A601C7C20706
:103A2000C183B29723A8F1C6A1466311D70213D769
:103A300037009D834207C2074183C1833306F700E5
:103A4000B307F7402391C186239FF18E03D5618888
:103A50003E8905E183C7C18F89EF83D7618E8507D2
:103A60002393F18E39B709472380E700EFF03FBF7A
:103A700085BF83C7B1B9E39E07EE2393018E9307F9
:103A8000C05DE3F8A7EE83D5619093846190EFF079
:103A90007FB313072003138401906379A7002300E9
:103AA000040083D761882390F400E1B583470400C4
:103AB000850793F7F70F2300F400E374F7FE83C73D
:103AC0002190E5F3F1240547238EE18EC9BF2D47F0
:103AD000AA876373A700AD478607238FF1C682804C
:103AE00003C7E1C7B7370140239AE7C2239CE7C267
:103AF000239EE7C28280EFD20FE60969930709800F
:103B000073900780373401409307F07C2316F4C28A
:103B1000EFF01FFD0D45EF001043930770032314D2
:103B2000F4C21305800CAD64EFF01FADB73900404F
:103B30009384A4AA23A099001545EF00D0409307D1
:103B400080022314F4C21305800CEFF0FFAA19457C
:103B500023A09900EF00303FE5472314F4C213057A
:103B6000800CEFF07FA923A09900EF00903C231474
:103B700004C22393018C83D78180130404C01309EA
:103B800089882316F402731009806FD00FE0EFD2FA
:103B90008FDC37340140130404C09307F07C89693B
:103BA0002316F4029387098073900780AD64373938
:103BB00000409384A4AA9307C003232099002314F0
:103BC000F402EFF0FFF10545EF00F0371305B00404
:103BD000EFF09FA293070005232099002314F4021D
:103BE0001305B004EFF05FA19307A005232099000F
:103BF0002314F4021305B00423209900EFF0DF9F93
:103C000023209900EF00F032231404022393018C47
:103C100083D78180938989882316F4027390098061
:103C20006FD0AFD6EFD22FD3096993070980739075
:103C30000780373401409307F07CAD642316F4C24B
:103C4000B73900409384A4AA9307000523A09900E4
:103C50002314F4C2EFF0DFE80D45EF00D02E13057A
:103C600040062393018CEFF03F999307600423A053
:103C700099002314F4C213054006EFF0FF97930751
:103C8000800223A099002314F4C213054006EFF02C
:103C9000BF9623A09900EF00D029231404C283D734
:103CA00081802393018C130404C02316F4021309AA
:103CB0008988731009806FD04FCDEFD26FCB373426
:103CC00001409307F07C2316F4C2930720032314CA
:103CD000F4C2EFF0FFE00945EF00F026AD6437399C
:103CE00000409384A4AA13056009EFF0FF902320FD
:103CF0009900F947232099002314F4C213056009A1
:103D0000EFF09F8F23209900EF00B022231404C20C
:103D10002393018C83D78180130404C02316F402FB
:103D20006FD04FC7EFD2CFC4373401409307F07C38
:103D30002316F4C2930780022314F4C2EFF05FDA73
:103D40000945EF005020AD64373900409384A4AAA0
:103D500013056009EFF05F8A23209900930700059F
:103D6000232099002314F4C213056009EFF0DF88C3
:103D700023209900EF00F01B231404C22393018C2D
:103D800083D78180130404C02316F4026FD08FC040
:103D9000EFD26FBCB73701401307F07C2396E7C220
:103DA00089679387078073900780AD64EFF05FD3D6
:103DB00013047007B73900409384A4AA514BB73A53
:103DC00001407D5A3345640323A0990013890AC03A
:103DD000EF00701793571440A907C207C1832394BB
:103DE000FAC22945EFF05F81791423A09900E31B03
:103DF00044FDEF00101423940AC22393018C83D74F
:103E000081802396FAC28967938787887390078099
:103E10006FD0AFB7EFD2CFB5138401C82380A1C84C
:103E20002301B40013D5850093558600A300A40098
:103E3000A301B4002302C4002303D40013D68600D8
:103E4000A54593568700138501C8A302C400A303A8
:103E5000D4002304E400EFF06FFEA304A4006FD0AD
:103E60006FB3138741CB035647002391C1B88356E4
:103E70002700239ED1AE03D741CB239BE1B08280A4
:103E8000EFD20FAF1D711306400281456818EFD0C5
:103E90002FB11306000281454808EFD06FB03724D8
:103EA00001409307C4443EDA938741CB3EDC93073D
:103EB0000008BEC493070010BEC693070040B704B5
:103EC0000240BEC893070002138584000D49BECA94
:103ED0004C188567BECC02C402C602C8CAC0EF1027
:103EE000806A054613858400A945EF10806E13850E
:103EF00084008545EF10A06CB7E700E0130700FCD5
:103F0000A38DE7403707000823A0E7108545130578
:103F10000020EF10F0310145EF103022371501403D
:103F2000930720042C00130505802314F10002C818
:103F3000EF10A07E13050440EF10403A85473ECCB9
:103F40004C08B7070E00130504403ED002CA02CE4B
:103F500002D223042103EF10603C854605468545C7
:103F600013050440EF10E0468546094699451305C0
:103F70000440EF10004685460D46C1451305044038
:103F8000EF102045854513050440EF10A03F8545FF
:103F900013050440EF10003E814513050440EF1067
:103FA000405313050440EF10003F9304044026855E
:103FB000EF10003F6DFD1305044037240140EF1062
:103FC000A03E930404402685EF10A03E6DFD85457C
:103FD00013050440EF10E04F0545EF10004B25613D
:103FE0006FD04F9BEFD2CF98372501408545130501
:103FF0000540EF10803C6FD0EF99EFD26F9703D55B
:1040000021B88567938747CE3305F5023185EF10D8
:10401000C049420541856FD0EF97B717014003A50E
:10402000878083C7C1867D8D8280B707014003A743
:104030000740938607401D9B23A0E740E147DCCA69
:10404000828037070140E146232AD74003C6E18634
:10405000832607408547B397C700D58F2320F740B5
:1040600082800387E18485469387E1866305D700D4
:104070009146631DD700B7460240054623A2C6807D
:104080008D462380D70021462396C1868946630545
:10409000D7009546631ED700B746024013060007B7
:1040A00023A2C68091462380D70041462396C1862D
:1040B0008D466305D7009946631ED70037470240F7
:1040C000930600032322D78011472380E700C146CF
:1040D0002396D18683C7070005473317F7008386E9
:1040E000F183B70701409387074089C623A40700DF
:1040F000D8C7828023A6070098C78280EFD2AF85F9
:104100006D71AA84AE8932898145130600080808BA
:10411000EFD00F89B7270240C047058875FCB70666
:104120006745938636123797EFCDD4C31307B79AF6
:10413000D8C3D4D3D8D39377F90F81E74A85EF104A
:10414000A054937709F03EC613070010B247A29718
:1041500083D607001C08A2972390D7000904E31711
:10416000E4FE8947B3C9F9022685814663CB36014F
:1041700032450C08EF102054EF10205051616FD0E1
:10418000CF80B247180A03460500B307F94085837C
:10419000B6978607BA9703471500850609052207D3
:1041A000518F2390E7F0D9B7814763C3C70082805E
:1041B0003387F500834607003307F50085072300A2
:1041C000D700E5B7EFC2DFFAB7170140054423A8CF
:1041D000878003A7078085450545419B23A0E7808D
:1041E00003A707801367370023A0E78003A7078092
:1041F0001367870023A0E780EF103009814505454C
:10420000EF10B008B707004013070006239CE70033
:104210000D472390E7020387C1C785453705004056
:104220002394E7021307F0032396E702A384819007
:10423000EF10104E6FC01FF6EFC29FF38545054586
:10424000EF10B00481450545EF10300437070040FA
:1042500023100702B7170140054623A8C78083A68D
:104260000780C19A23A0D78083A6078093E64600E3
:1042700023A0D7808387418C9DC7231CC700038759
:104280000187B707004085452394E7027D572396B1
:10429000E7022398070037050040EF107047A3841A
:1042A00001906FC03FEF8D47231CF7009307000478
:1042B0002314F700E9B7EFC2BFEB0387418C8547B2
:1042C000631DF7003707004083570702C207C18309
:1042D000F19B93E717002310F702EFF0FFF5370784
:1042E00002409387C19E7CD3B707004013864703E3
:1042F00030D303C6018685669386B69870CF34CFD7
:104300002392070283D6C70093E606202396D700A0
:1043100083D6070293E616002390D70283D60700C0
:1043200093E616002390D7003C4F93E747003CCF1D
:104330006FC05FE6EFC2DFE3EFF0DFE885673707C6
:1043400002409387A7993CCF938781957CD3B70789
:1043500000401386470330D303C6F1865D0670CF55
:1043600083D6C70093E606202396D70083D607029C
:1043700093E616002390D70283D6070093E6160033
:104380002390D7003C4F93E717003CCF6FC09FE0CE
:10439000B717014003A5878005898280B7170140C0
:1043A00003A70780419B23A0E78003A7078013672B
:1043B000470023A0E780828037170140832647808B
:1043C0007D761306F60FF18E2322D7808326478051
:1043D00093E606302322D78093060040232AD78015
:1043E0008326478093F6F6F02322D78083264780E2
:1043F00093E606032322D78093060020232AD78042
:1044000083264780C19A2322D7808326478093E65C
:1044100036002322D78093060010232AD7808327D3
:1044200007C0B70600B093F7F7F02320F7C0832743
:1044300007C093E7070B2320F7C0832707C0C19B62
:104440002320F7C0832707C093E7B7002320F7C0D6
:1044500083270780920791832320F7808327078093
:10446000D58F2320F780828083C781BAA9E3B7174D
:10447000014003A707C0938607C0419B23A0E7C064
:1044800003A707C01367370023A0E7C08547DCCA2E
:10449000B717014003A747801377F7F023A2E780FF
:1044A00003A747801367070B23A2E7808280B71713
:1044B000014003A707C0419B23A0E7C003A707C093
:1044C0001367B70023A0E7C0E1B7B717014003A700
:1044D00007C0419B23A0E7C003A707C013673700AD
:1044E00023A0E7C0054723AAE7C003A747801377A7
:1044F000F7F023A2E78003A747801367070323A2EF
:10450000E7801307002023AAE7808280B7170140C5
:1045100003A707C0419B23A0E7C003A707C01367F9
:10452000370023A0E7C0054723A8E7C003A74780BB
:104530001377F7F023A2E78003A7478013670703E9
:1045400023A2E7801307002023AAE780828083C785
:1045500081BAB9E3B717014003A7078037060030D7
:10456000938607801207118323A0E78003A70780A3
:10457000518F23A0E78093070008DCCAB7170140DA
:1045800003A74780419B23A2E78003A747801367C7
:10459000B70023A2E7808280371701408327078076
:1045A000B70600B0920791832320F7808327078006
:1045B000D58F2320F780D9B737170140832607808E
:1045C0003706003093070780920691822320D78018
:1045D00083260780D18E2320D78013070008D8CBED
:1045E000D843419BD8C3D84313673700D8C31307B8
:1045F0000010D8CB8280371701408326078037060A
:10460000003093070780920691822320D78083266B
:104610000780D18E2320D7801307000898CBD8437A
:10462000419BD8C3D84313673700D8C31307001082
:10463000D8CB828083C781BAB1E7B717014003A7FF
:1046400007C0938607C01377F7F023A0E7C003A73E
:1046500007C01367070323A0E7C08947DCCAB71761
:10466000014003A74780FD769386F60F758F23A23E
:10467000E78003A747808566938606B0558F23A2FF
:10468000E7808280B717014003A707C01377F7F0D0
:1046900023A0E7C003A707C01367070B23A0E7C049
:1046A0007DBFB717014003A707C0FD769386F60FBD
:1046B0001377F7F023A0E7C003A707C0136707032A
:1046C00023A0E7C0094723AAE7C003A74780758F47
:1046D00023A2E78003A747801367073023A2E78060
:1046E0001307004023AAE7808280B717014003A781
:1046F00007C0FD769386F60F1377F7F023A0E7C087
:1047000003A707C01367070323A0E7C0094723A82F
:10471000E7C003A74780758F23A2E78003A74780E0
:104720001367073023A2E7801307004023AAE7801E
:104730008280EFC2FFA3EFF03FE8EFF01FD9EFF068
:104740005FF66FC03FA57D15954763E0A706EFC2F2
:104750003FA29967938747450A053E951C4182878A
:10476000EFF0FFDEEFF09FDAEFF0BFF339A0EFF0EC
:10477000BFE4EFF0BFD9EFF0FFEB6FC0BFA1EFF0E8
:104780009FE7EFF09FD4C5BFEFF0FFE6EFF0DFCD7E
:10479000E1BFEFF07FE2EFF03FCDEFF01FF5F1BFAB
:1047A000EFF0FFDAEFF07FD2CDBF8280EFC25F9CE7
:1047B000EFF07FE4EFF09FD5EFF03FF36FC09F9DE8
:1047C000EFC21F9BEFF0BFD8EFF01FCAEFF09FE6DC
:1047D0006FC05F9CEFC2DF9941119147AA842312F9
:1047E000F100371501408D473EC44C00E1471305E9
:1047F00005803EC623130100EF00307237450040AC
:10480000130505408357C500370402400546C2071B
:10481000C183CD9B93E787002316F50023229408DC
:10482000938701C82326F40893050008EF10F0359C
:104830001304040885452285EF00705841016FC0BC
:104840007F95EFC2FF925D711306C002814548104B
:1048500002CA02CC02CE02D0EFC09F948545370534
:104860000200EF10C01E85451145EF10601C9147F6
:104870002314F100371501408D473EC62C009307E5
:104880008004130505803EC823150100EF00F06881
:10489000F16737440040938707203ECA4C08B707AA
:1048A0000800130504403ECE02CC23100102EF1095
:1048B000901E854513050440EF10702BB70402408D
:1048C00013850408EF007042938701C83ED4C147A6
:1048D0003ED6930710034C10130444403ED8138572
:1048E0000408930700083EDC22D202DA02DE82C00E
:1048F00082C282C482C6EF0010493705000EEF0065
:10490000504F0546A94513850408EF00904CB7E7C2
:1049100000E00157A380E742094723A2E710616145
:104920006FC05F8701A001A00945EF00104D11C5C0
:104930001945EF00104CEFF0CFD22145EF00F04BBE
:1049400001C52145EF00F04A73002030B70702404F
:104950009C43411122C61397D700635F07008387EA
:10496000418C91C7B70700400D472390E702B70776
:10497000024037070400D8C3370402401C40139795
:10498000E700635D07003C4CF99B3CCCEFE05FFC2B
:10499000B70702005CC005472388E18AB7070240D9
:1049A00098439316C70063DE0600B84F370508002A
:1049B000799BB8CFEF00F043EFE09FF905472388DC
:1049C000E18A3244410173002030011137050002B1
:1049D00022CEEF0090420DC53745004001469305B9
:1049E000000813050540EF10501A37050240130563
:1049F00005088145EF00B03C37050002EF00703F2D
:104A000037050008EF00703F15CD374400400146E0
:104A10009305000813050440EF1030178357C44076
:104A20003705024013050508C207C183CD9BC207A5
:104A3000C1832316F4408145EF0070383705000824
:104A4000EF00303B91472312F100371501408D47AD
:104A50003EC44C0093078004130505802313010016
:104A60003EC6EF00904B7244056173002030B7F7EB
:104A700000E023A20700EFD0FF9473002030B717A7
:104A8000004003D7478283A7C188858363FBE70083
:104A9000B7070140214723AAE740EFC01FD97300A1
:104AA0002030EFF08FD78387F183E31AF5FEB70745
:104AB0000140214723AAE74093870740CDB7B717A6
:104AC000004003D7478283A7C188858363FBE70043
:104AD000B7070140414723AAE740EFC01FD5730045
:104AE0002030EFF08FD38387F183E31AF5FEB70709
:104AF0000140414723AAE74093870740CDB74111C2
:104B000022C637040040854513050440EF100076A7
:104B100001C9EFC0BFC9854513050440EF10C07639
:104B20003244410173002030730020308280EFC294
:104B30002FE4011137140140930400024C001305C7
:104B40000480231291002313010023140100231574
:104B50000100231601002317010002C802CA02CC7B
:104B600002CEEF00903BF577938707C04C0013050A
:104B700004C02312F10002C6EF00303AE1471149A8
:104B80004C00130504802312F1004AC6EF00F038F0
:104B90004C0013050480231221014AC6EF00F037B0
:104BA0000547B747024023A2E7808D450145EF0046
:104BB0005054A147414908083EC84ACC02CA02CE17
:104BC000EF0070242145EF00B02A37E400E0E5470C
:104BD000A308F404B75700009387E7A793E71700EB
:104BE0007CD0A30C9440B70700022320F410914519
:104BF0000145EF00105008084AC84ACC02CA02CE4C
:104C0000EF0070204145EF00B026E9472309F40486
:104C1000B75700009387E7AB93E717003CD4230D09
:104C20009440B70700042320F41005616FC08FD6AD
:104C3000EFC20FD41567B73700401307575598C315
:104C40000D47D8C30567130707FA98C7EF00304D23
:104C5000EF00D04D6FC00FD4EFC28FD10565397111
:104C600085451305158002C402C62318010002D829
:104C700002DA02DC02DE02D002D202D423160102E2
:104C800002CA02CC02CEEF00B05A370516008545A5
:104C90001305050437340140EF00B0379307F07C6B
:104CA0002C00130504C03EC602C4EF0010701305AB
:104CB00004C08545EF10E026130504C0A145EF10A0
:104CC0002028930700060C18130504C03ED802DA0A
:104CD00002DC02DEEF007075130504C08145EF10A1
:104CE000A02B130504C0A145EF10A0260C18130536
:104CF00004C023190102231A0102EF00907B13055F
:104D000004C08145EF10602A130504C0A145EF10CF
:104D1000E0250C18130504C023190102231A01020F
:104D2000EF106004130504C08145EF10A02913059E
:104D300004C0A145EF10A0240C18130504C02319CA
:104D40000102231A0102EF10200D130504C0814552
:104D5000EF106028B70728003ED20C10B7070020DC
:104D6000130504C03ED43714014002D023160102BB
:104D7000EF10A01261498D4489474C08130504C007
:104D8000231AF1004ACE26CCEF00301985474C0893
:104D9000130504C0231AF1004ACE26CCEF00F01709
:104DA000930700084C0813050480231AF1004ACE2B
:104DB00026CCEF009016930700404C0813050480A2
:104DC000231AF1004ACE26CCEF00301593070020BD
:104DD0004C0813050480231AF1004ACE26CCEF00BC
:104DE000D013930700104C0813050480231AF10018
:104DF0004ACE26CCEF00701221616FC0AFB9EFC26E
:104E00002FB785451145EF009044B71700407D57F7
:104E10002396E7825D472394E7826FC0AFB7B7F769
:104E200000E023A0070023A20700814694C70147A2
:104E3000D8C783A541871567130707E233D6E50274
:104E400081463D4790CBD4CB98C3B7E700E00157EC
:104E50002386E740056723A0E7108280EFC24FB1A9
:104E600085450945EF00B03EB70700405D472394F4
:104E7000E7420567130707FA2396E742B7E700E022
:104E8000A3860742096723A2E7106FC0AFB0EFC245
:104E90002FAE85450545EF00D03737E700E0930793
:104EA00000FCA30FF740B70700802320F710FD4751
:104EB0002308F704B75700009387C79493E71700B8
:104EC0003CD36FC02FADEFC2AFAA85453545EF008B
:104ED00030366FC02FACEFC2AFA97971854505455B
:104EE00002D202D402D602C602C8231A010002CCA2
:104EF00002CE23100102EF00903585451145EF00E9
:104F0000303385472312F1023715014091473ED6D1
:104F10004C108D47130505803ED4EF001000C1678B
:104F2000FD176C00370500403EC802C6EF00F04791
:104F3000854537050040EF00D07E814537050040AC
:104F4000EF10001085472C08370500403ECE02CCFC
:104F500023100102EF10C018054693050020370505
:104F60000040EF00507B45616FC0CFA2EFC24FA061
:104F7000DD22EFF05FF5EFF09FF1EFF0FFCDEFF006
:104F80001FE8EFF0DFE9EFF09FBAEFF03FEDEFF051
:104F90009FF4EFF01F8B6FC0EF9FB7370140239A4C
:104FA000A7C28280B7370140239CA7C28280B7374F
:104FB0000140239EA7C28280B737014003D747C173
:104FC00013671700239AE7C08280B7070040239633
:104FD0000702239207028280EFC28F993734014083
:104FE000130504C005468145EF108000130504C079
:104FF00005469145EF00D07F130504C00546A14545
:10500000EF00107F130504C011468145EF10C0006A
:10501000130504C011469145EF1000001146130519
:1050200004C0A145EF00507F130504C08545EF0083
:10503000B069130504C08545EF00D06A130504C0AC
:105040008545EF00F06C37040040130504408545AA
:10505000EF009067130504408545EF00706B8357A0
:10506000C4408545C207C183F99BC207C18323168B
:10507000F4403714004013050480EF00F06413057A
:1050800004808545EF00D068EFE09FDF054681454D
:1050900037050040EF00D075854537050040EF002B
:1050A000B0626FC02F8FB71702409843B706FFF06A
:1050B0001367170098C3D843758FD8C39843B706B2
:1050C000F7FEFD16758F98C39843B706FCFFFD16D3
:1050D000758F98C3D843B70601FFFD16758FD8C3E7
:1050E00037079F0098C7B746024003A7068013679B
:1050F000070123A0E680D8438D6693860680D8C337
:10510000D843558FD8C3D843B706C1FFFD161367E0
:105110000750D8C3D843758FD8C3D843B7062800E3
:10512000558FD8C39843B7060001558F98C398434D
:1051300093166700E3DD06FED843B7160240719B65
:10514000D8C3D84313672700D8C32147DC42B18BAB
:10515000E39EE7FE8280B7160240DC421146B18B27
:10516000138741876385C70021466389C702B71744
:105170007A00938707201CC3B7170240DC43918352
:1051800093F6F700B707002093878734B69783C656
:1051900007001C43B3D7D7001CC38280DC42D44233
:1051A0004166C983BD8BF18E890745466393C7006D
:1051B000C94781EEB746024083A60680C18A89CEE0
:1051C000B7167A009386062021A8B7160240D4426B
:1051D0001396E600E35606FEB7163D00938606904A
:1051E000B387D70249BF01A001A001A001A001A07F
:1051F00001A001A001A001A001A001A001A001A0A7
:1052000001A001A001A001A001A001A001A001A096
:1052100001A001A001A001A001A001A001A001A086
:1052200001A001A001A001A001A001A001A001A076
:1052300001A001A001A001A001A001A001A001A066
:1052400001A001A001A001A001A001A001A001A056
:1052500001A097C1FF1F93816191170100201301E5
:1052600061DA171500001305A52097B5FF1F938578
:1052700065D91386018863FAC5008322050023A03F
:10528000550011059105E3EAC5FE13850188938554
:10529000C1CB6377B500232005001105E36DB5FE92
:1052A000FD42739002BC8D4273904280B722000091
:1052B0009382828873A0023097C2FFFF938202D844
:1052C00093E2320073905230EFF0FFDD97D2FFFF90
:1052D0009382624D7390123473002030EFB25FE915
:1052E000B727014093870740631CF50085451305E8
:1052F0000020AD2F8145130500208D2F6FB09FE951
:10530000B737014093870780E31AF5FE85451305FB
:105310000040A92F814513050040C5B75C41370700
:10532000F1E01307F7EF944D7D8F9C41D58FD44D5D
:10533000D58FD441A206D58FD98F5CC11C4537F7D4
:10534000F1FF1307D77FD4457D8F9C49D58F9445B6
:105350008606D58FD98F1CC55C55370710FF7D1782
:105360007D8F83C74501FD1793F7F70FD207D98FBC
:105370005CD582801C4589C593E717001CC58280D7
:10538000F99BEDBF1C4589C593E707101CC58280BA
:1053900093F7F7EFE5BF1C4593E787001CC58280B4
:1053A00008450D81058982801C4593E747001CC58F
:1053B000828008450981058982801C4591C537078F
:1053C0005000D98F1CC582803707B0FF7D17F98F39
:1053D000D5BFA54763F7B7048D47138765FF33072C
:1053E000F7020328C5009D47B397E70093C7F7FF6F
:1053F000B3F70701B396E600DD8E54C5994763E322
:10540000C70495477D163306F6025859FD47B397F2
:10541000C70093C7F7FFF98F3396C5005D8E50D94B
:1054200082800D473387E502032805019D47B39726
:10543000E70093C7F7FFB3F70701B396E600DD8EE9
:1054400014C96DBFB14763E2C702954765163306BD
:10545000F6021859FD47B397C70093C7F7FFF98FB6
:105460003396C5005D8E10D9828095474D16330660
:10547000F6025855FD47B397C70093C7F7FFF98F5A
:10548000B395C500DD8D4CD58280B7270140938749
:105490000740984711C5B7068000558F98C782808E
:1054A000B70680FFFD16758FD5BFB7F7FF1F83A71F
:1054B000077213D70701C207C1831D8DA9473305A2
:1054C000F5029307B00255053345F5023305A740B1
:1054D00082805C4191C537070004D98F5CC182800E
:1054E000370700FC7D17F98FD5BF1C41416779173D
:1054F000F98F1CC123200500232205002324050069
:10550000B707024023260500138787006316E500CE
:10551000D8431367F70001A81387C7016317E50095
:10552000D8431367070FD8C3B1A8138707036318BD
:10553000E500D8438566938606F0558FEDB713874F
:1055400047046315E500D843BD66C5BF13878705CB
:105550006316E500D843B7060F00C5B71387C70623
:105560006316E500D843B706F000C1BF13870708EC
:105570006316E500D843B706000FC1B71387470984
:10558000E308E5F882801C4161773D0794517D8FE7
:105590009C45D58F9449D58FD449D58F944DD58FBF
:1055A000D44DD58FD451D58F9455D58FD98F1CC15B
:1055B000DC455CC19C411CC5DC415CC582801C4152
:1055C00089C593E717001CC1828041677917F98F5D
:1055D000DDBF1C4101C6DD8D0CC1828093C5F5FF86
:1055E000FD8DDDBFB70702409C437D8D3335A000A4
:1055F0008280B7070240C8C38280EFB27FB7EFF066
:105600007FFE6FB03FB95841032805004C4537066F
:105610000140930706403E979346F8FFB1C58325A6
:105620000640F58D2320B640D043F18ED4C31443F9
:10563000B3E6060114C3184190479346F7FF758EF1
:1056400090C7D047F18ED4C7144541466399C60030
:105650009447D98E94C7D447558FD8C78280B697C0
:105660009443558F98C382801C43F58F1CC382805E
:10567000B707014023AAA7408280372702401C4B6E
:1056800093E707081CCB8280B7270240984BB706E8
:105690000200137505F0558F98CBC8CB984B136754
:1056A000070498CBD847058B75FF984B8176FD167C
:1056B000758F98CB8280372702401C4BC1661375CB
:1056C00005F0D58F1CCB5C47858BF5FF3727024053
:1056D0005C47898BF5FF3727024013060010B3861D
:1056E000F50003A80600B306F50023A00601544701
:1056F000898AF5FE9107E394C7FE1C4BB70620008C
:10570000D58F1CCBB7270240D847058B75FF984B28
:10571000C176FD16758F98CB82809C4513F70701E3
:1057200013F8F70001C7D8413368E8003727024073
:10573000145B3707000F758F45EF85462385D190A1
:10574000371701406317E50003D705003583239021
:10575000E50083D5050013F7F50F39C318418146DD
:10576000854E3D4F930F800293028004214E339665
:10577000DE00B3F8C50063111603939826003313B7
:105780001F011343F3FF3377E300B318180133E726
:10579000E8006397F70750C98506E39AC6FD18C16C
:1057A0001307F00F6375B70454412146854E3D4FF2
:1057B000930F800293028004414EB398CE0033F7DA
:1057C00015016392E8021317260001173313EF0047
:1057D0001343F3FFB376D3003317E800D98E6395F4
:1057E000F703232A15010506E319C6FD54C182807B
:1057F00037170140E31FE5F403C7A19039DBA9B7D0
:10580000E39C57F810C949BFE39F57FC23281501B3
:10581000D9BFB707014063570504DC4F1357050193
:105820009376F7001316050137073000418233786D
:10583000E500635A05066317E804138706018D46E1
:10584000B396E60093C6F6FFF58F89C91357550145
:1058500012073317E600D98F635505063707014055
:105860005CCF828037270240145BDC433707000F90
:10587000758F4DF713D71700F976CE07758FCD8347
:10588000D98F69BF1317B500635607000D47B316CC
:10589000D7004DBF1357550112073317E6001347C2
:1058A000F7FFF98F5DB76312E802370801408326DE
:1058B0004800370700F17D17F98F758F2322E80024
:1058C000D1F5370701405CC382801317B500635CD4
:1058D00007000D473317D7001347F7FF7D8FB70732
:1058E000000FD98FF1BF1357550112073317E60088
:1058F000E5B713F7C50F93F73500B7050140BA9523
:1059000094458A073D473317F7001347F7FF758F14
:1059100098C598453315F500598D88C58280AD67C7
:10592000373700409387A7AA1CC38280B5673737F3
:1059300000409387C7CC1CC38280B7160240DC426C
:1059400051777D17F98F5D8DC8C28280371702406D
:105950005C439146B18B6385D700A1466386D70629
:10596000B7177A00938707201CC1371602405C42A4
:1059700037070020130787359183BD8BBA9783C6FD
:1059800007001C41B3D7D7005CC15442A1829D8A55
:10599000BA9683C60600B3D6D70014C55442AD826A
:1059A0009D8A369703470700B3D7E7005CC5584286
:1059B000398393763700138781873697034707002B
:1059C000B3D7E7021CC982805C435843C166C983D0
:1059D000BD8B758F8907C5466393D700C94701EF13
:1059E0003747024003270780418B09CF37177A00DA
:1059F0001307072021A83717024058439316E700E2
:105A0000E3D606FE37173D0013070790B387E7027A
:105A1000A1BF99C5371702405C4B5D8D48CB828092
:105A2000B7170240D84B1345F5FF798DC8CB82805C
:105A300099C5371702401C4F5D8D08CF8280B7177C
:105A40000240984F1345F5FF798D88CF828099C524
:105A5000371702405C4F5D8D48CF8280B7170240F8
:105A6000D84F1345F5FF798DC8CF828099C5371778
:105A700002405C475D8D48C78280B7170240D84717
:105A80001345F5FF798DC8C7828099C53717024045
:105A90001C4B5D8D08CB8280B7170240984B134595
:105AA000F5FF798D88CB8280835705029206558E4B
:105AB000C207C183F99BC207C1832310F502835734
:105AC000850103570502B7360140C207C18393F72A
:105AD000C7F0D18F4207C207938606C04183C183B6
:105AE0006304D502B70600406300D50293860640E2
:105AF000630CD500B7160040138606806306C50008
:105B0000938606C0631BD500759BD98D93E5150060
:105B1000231CF5002310B5028280559BFDB78357E7
:105B20000502B2062206C207C183BD9BC207C1831C
:105B30002310F50283588501856703570502938773
:105B4000F7CFD18EB3F71701D58F13984500B7362D
:105B5000014042074208C207938606C0418313589A
:105B60000801C1836304D502B70600406300D50273
:105B700093860640630CD500B71600401386068056
:105B80006306C500938606C0631DD5001377F7FD35
:105B90003367E80013670701231CF5002310E502B3
:105BA00082801377F7F54D8FF5B7835705003737A8
:105BB0000140130707C0C207C1836304E50237072A
:105BC00000406300E50213070740630CE500371748
:105BD0000040930607806306D500130707C06317CC
:105BE000E50003D7250093F7F7F8D98F03D76500B1
:105BF00093F7F7CFC207C183D98F2310F50083D75E
:105C000045002316F50283D705002314F502B737A4
:105C10000140938707C06316F50083C785002318EA
:105C2000F5028547231AF50082808357050203D6C3
:105C3000050003D82500C207C183F99BC207C183B1
:105C40002310F5028357050283564500035785014B
:105C5000C207C183420741831377C7F8518F03D628
:105C60008500F59BC20633660601D18F37360140A9
:105C7000130606C0C1826313C50203D6A500DD9BCF
:105C800003D8E500D18F03D64500ED9B93F6F6CF00
:105C9000D18F03D6C50033660601D18E2312D500FD
:105CA000231CE50003D76500231AE5022310F50243
:105CB00082808357050265771307F7CFC207C18338
:105CC000BD9BC207C1832310F5028357050283568B
:105CD000450003D88500C207139606018356850147
:105CE000C18393F7F7FD758F83D605004182A20625
:105CF000558F83D6250042074183B3E606019206FD
:105D0000D58FB7360140C207938606C0C1836311A1
:105D1000D50483D6A50093F7F7F703D8C5009206FC
:105D2000D58F83D64500C207C183920693F7F7FB50
:105D3000D58FFD769386F63FF18E03D6E500C20738
:105D4000C183336606010A06D18E1396060141828D
:105D50002312C500231CE50003D76500231CE502C0
:105D60002310F50282808357050203D88500C207FD
:105D7000C18393F7F7EFC207C1832310F50283575E
:105D80000502835645000357C501C2071396060155
:105D9000420783D6050041831377C7F8558F83D612
:105DA0002500C18393F7F7DFB3E60601A206D58F7E
:105DB000B7360140C207938606C04182C183631291
:105DC000D504FD769386F67FF58F83D6A50003D89C
:105DD000C500A206D58F83D64500C207C183A2069F
:105DE00093F7F7BFD58FF576FD16F18E03D6E50054
:105DF000C207C183336606011206D18E13960601CF
:105E000041822312C500231EE50003D76500231E2F
:105E1000E5022310F502828003570502FD77FD1786
:105E2000F98F2310F5020358050283564500835766
:105E3000C501657703D605001307F7CF7D8FF97786
:105E40002206FD17518FB3F7070103D6250003D8AB
:105E50008500C2064207336606013206D18F373607
:105E60000140C207130606C0C1824183C183631B80
:105E7000C50071767D16F18E03D6C5001A06D18E47
:105E8000C206C1822312D500231EE50003D7650098
:105E90002310E5042310F502828003D7250083D761
:105EA0000500D98F03D74500D98F03D76500D98F57
:105EB00003D78500D98F03D7A500D98F03D7C50095
:105EC000D98F2312F50482808357050091C593E78B
:105ED00017002310F5008280C207C183F99BC20717
:105EE000C183C5BF8357450491C52167D98F23124C
:105EF000F5048280C607C583DDBF8357C50009C688
:105F0000DD8D2316B500828093C5F5FFFD8DD5BFCD
:105F1000231AB5008280EFB2AFA5EFF01FFE6FB07D
:105F20006FA78357050091C593E707082310F50075
:105F30008280C207C18393F7F7F7C207C183FDB719
:105F400083578501C207C183DD9BDD8D231CB5000E
:105F5000828003578501FD779387F77FF98FA2052C
:105F6000CD8FC207C183231CF50082808357C501F2
:105F7000C207C183DD9BDD8D231EB50082800357E0
:105F8000C501FD779387F77FF98FA205CD8FC207F3
:105F9000C183231EF500828083578501C207C18318
:105FA000ED9BDD8D231CB500828083578501A20502
:105FB000C207C18393F7F7BFCD8FC207C183231CEC
:105FC000F50082808357C501C207C183ED9BDD8D3B
:105FD000231EB50082808357C501A205C207C18375
:105FE00093F7F7BFCD8FC207C183231EF5008280D0
:105FF000035705028547B397B70093C7F7FFF98F9B
:106000002310F50283570502B315B600DD8DC205D6
:10601000C1812310B5028280035705029147B397CF
:10602000B70093C7F7FFF98F2310F50283570502D6
:10603000B315B600DD8DC205C1812310B502828083
:1060400083574500C207C18393F7F7F8C207C1839E
:106050002312F50083574500DD8D2312B5008280A1
:1060600083578501C207C183CD9BC207C183231C0F
:10607000F50083578501DD8D231CB5008280035711
:106080008501FD779387F73FF98F231CF500835730
:106090008501A205DD8DC205C181231CB50082806A
:1060A0008357C501C207C183CD9BC207C183231E8D
:1060B000F5008357C501DD8D231EB500828003578F
:1060C000C501FD779387F73FF98F231EF5008357AE
:1060D000C501A205DD8DC205C181231EB5008280E8
:1060E000EFB20F8903D705002A84AE8483D7250039
:1060F00003D6450083D6850019EBBE85EFF0DF9A05
:1061000083D564002285EFF0BFF56FB0AF8891456D
:10611000631BB700BE85EFF09FA083D56400228586
:10612000EFF0FFF5DDB7214583D56400631EA708B6
:10613000035704029206139887004207418313779E
:10614000F7EF420741832310E4020355C4010357CC
:1061500004024208420541811375C5F0518D558DE9
:10616000B736014042074205938606C04183135863
:10617000080141816304D402B70600406300D402E1
:1061800093860640630CD400B71600401386068041
:106190006306C400938606C06310D4021377F7DF4A
:1061A0003367E80093670710231EA4002310F4024E
:1061B0002285EFF0FFEE91BFFD769386F65F758F37
:1061C000D98F93E70710CDB7035504027D777D176C
:1061D000698F2310E4020355C40105671307F7CF45
:1061E000698F03580402131586001396C600498E62
:1061F0009398C700518FB73601404208C208420742
:10620000938606C01358080193D80801418363049C
:10621000D402B70600406300D40293860640630CA4
:10622000D400B7160040138606806306C400938628
:1062300006C06313D402F977FD173378F80033E80A
:1062400008018567B367F800231EE4002310F402F9
:106250002285EFF0DFE655BDA1669386F6DF337841
:10626000D800B3E707018566D58FF9BF83570501CD
:106270000355C500ED8F4205418189C76D8D3335CA
:10628000A00082800145828093C5F5FFC205C181CF
:106290002318B5008280EFA2BFED83560501F57784
:1062A000FD17F58F83D6650003D7C5007971D58FAB
:1062B0002318F5008356C500FD779387379FF58F28
:1062C00083D645002A842EC6D58F83D68500D58FE8
:1062D00083D6A500D58F2316F50083574501C20745
:1062E000C18393F7F7CFD98F231AF5006808EFF031
:1062F000EFE5B747014093870780B245631DF4047B
:10630000A2578356C4006547B387E702C206C18619
:10631000984163D4060406070356C4004206B3D767
:10632000E702130740064186B3D6E702B3F7E70258
:106330009206635606028E0793872703B3D7E702B8
:1063400013F77700B367D700C207C1832314F400A3
:1063500045616FA03FE492576DB70A0775BF92077A
:1063600093872703B3D7E702BD8BD58FF1BF81C9D0
:106370008357C5000967D98F2316F500828003571C
:10638000C500F977FD17F98FC5BF8357450109C6C9
:10639000DD8D231AB500828093C5F5FFFD8DD5BF35
:1063A000C81F0000D21F0000D81F0000DE1F000021
:1063B000C81F00001A3300002E33000032330000E3
:1063C000363300003A3300003E330000463300000D
:1063D000523300005E3300006433000020330000BD
:1063E0006C3300007C330000963300002033000043
:1063F0002033000020330000203300002033000051
:10640000A2330000B033000020330000203300002E
:106410002033000020330000203300002033000030
:106420002033000020330000203300002033000020
:106430002033000020330000203300002033000010
:10644000B6330000191B12131D1516171A090A0B73
:106450001E0D0E0F604700006E4700007E470000D3
:0C6460008847000092470000A0470000A1
:10646C00000000009001000000000000E8030000A4
:10647C000000000000000000000000000000000010
:10648C00204E0000A0860100B400B700BA00BD0089
:10649C00C100C400C700CA00CD00D000D300D60094
:1064AC00D900DC00E000E300E600E900EC00EF00BE
:1064BC00F200F500F700FA00FD00000103010601EF
:1064CC0009010B010E0111011301160119011B0128
:1064DC001E0120012301250128012A012C012F0175
:1064EC0031013301350138013A013C013E014001D3
:1064FC00420144014601470149014B014D014E0146
:10650C0050015101530154015601570158015A01D0
:10651C005B015C015D015E015F0160016101620173
:10652C006301630164016501650166016601670130
:10653C006701670168016801680168016801680109
:10654C0068016801680167016701670166016601FE
:10655C006501650164016301630162016101600110
:10656C005F015E015D015C015B015A01580157013D
:10657C00560154015301510150014E014D014B0183
:10658C004901470146014401420140013E013C01E1
:10659C003A0138013501330131012F012C012A0157
:1065AC0028012501230120011E011B0119011601DF
:1065BC00130111010E010B01090106010301000178
:1065CC00FD00FA00F700F500F200EF00EC00E90026
:1065DC00E600E300E000DC00D900D600D300D000D8
:1065EC00CD00CA00C700C400C100BD00BA00B7008E
:1065FC00B400B100AE00AB00A700A400A1009E0047
:10660C009B009800950092008F008C0088008500FC
:10661C0082007F007C0079007600730071006E00B0
:10662C006B006800650062005F005D005A00570057
:10663C00550052004F004D004A00480045004300F1
:10664C0040003E003C00390037003500330030007C
:10665C002E002C002A0028002600240022002100F5
:10666C001F001D001B001A00180017001500140055
:10667C001200110010000E000D000C000B000A009F
:10668C0009000800070006000500050004000300CF
:10669C0003000200020001000100010000000000E4
:1066AC0000000000000000000000000000000100DD
:1066BC0001000100020002000300030004000500B9
:1066CC00050006000700080009000A000B000C007A
:1066DC000D000E0010001100120014001500170020
:1066EC0018001A001B001D001F00210022002400AE
:1066FC00260028002A002C002E0030003300350024
:10670C00370039003C003E00400043004500480083
:10671C004A004D004F005200550057005A005D00D2
:10672C005F006200650068006B006E007100730012
:10673C00760079007C007F008200850088008C0048
:10674C008F009200950098009B009E00A100A40071
:10675C00A700AB00AE00B100000000000A00000072
:10676C0000000000640000000000000000000000B9
:10677C0000000000000000001027000050C30000C3
:10678C0000000000010000000000000032000000CA
:10679C0000000000000000000000000000000000ED
:1067AC001027000050C30000000000000000000093
:1067BC00010203040607080900000000010203049B
:1067CC00010203040607080910270000E803000073
:1067DC00CF079F00040A0500D430000028000000F9
:1067EC002800D00700F00000B40005012800460086
:1067FC004A0114000102100602030300780028006D
:10680C00D0070100DC05010164006C074C04DC05B9
:10681C0028006419C800010064001E00D007900114
:10682C00CF07D00708000001200050C3FA00000079
:10683C00204E0000080003070C00000001000000BF
:08684C00020406080000000030
:0400000300001000E9
:00000001FF
