:101000007310003013040000930400001309000063
:1010100093090000130A0000930A0000130B00005C
:10102000930B0000130C0000930C0000130D000044
:10103000930D0000130400001304000013050000CA
:10104000930500001306000093060000130700003C
:1010500093070000130800009308000093020000AB
:101060001303000093030000130E0000930E000012
:10107000130F0000930F0000B70100209381017847
:10108000B7120000938202287390523073104030E0
:1010900073104034732510301375850263080508FA
:1010A000372500007320053073103000530000F026
:1010B000D30000F0530100F0D30100F0530200F020
:1010C000D30200F0530300F0D30300F0530400F008
:1010D000D30400F0530500F0D30500F0530600F0F0
:1010E000D30600F0530700F0D30700F0530800F0D8
:1010F000D30800F0530900F0D30900F0530A00F0C0
:10110000D30A00F0530B00F0D30B00F0530C00F0A7
:10111000D30C00F0530D00F0D30D00F0530E00F08F
:10112000D30E00F0530F00F0D30F00F0732540F101
:10113000631405043741002013010100130201006C
:1011400073100134B71200009382021AE780020084
:10115000B712000093820219E78002001305000015
:1011600093050000B74200009382220CB7100000E4
:10117000938080186780020073F00730731040304E
:10118000730050106FF0DFFF130000006FF0DFFE00
:101190006780000000000000000000000000000068
:1011A0009387C1FD1386819541113386C7408145E0
:1011B0001385819506C6EF40E07A93878195138663
:1011C000018E99653386C740938545EA1385018E64
:1011D000EF40407A9387018E1386018899653386A4
:1011E000C740938545E413850188EF40A078938735
:1011F00081951386819599653386C740938545E42B
:1012000013858195EF20F01B370500F0B70700F03C
:1012100093870700130605009D653386C7409385B5
:1012200045E413050500EF20D019B240370500F062
:10123000B70700F01306050093870700A165338602
:10124000C740938545E41305050041016F207017E1
:10128000232E51FE93020100130101F8137101FF97
:10129000232211002324510083A2C2FF2326310000
:1012A00023284100232A5100232C6100232E7100A2
:1012B00023208102232291022324A1022326B102AA
:1012C0002328C102232AD102232CE102232EF1027A
:1012D000232001052322110523242105232631057E
:1012E00023284105232A5105232C6105232E71054E
:1012F00023208107232291072324A1072326B10756
:101300002328C107232AD107232CE107232EF10725
:1013100073220034732310342320610073240030BF
:1013200073252034F325103413060100B701002083
:1013300093810178B762000093822294E7800200D3
:101340007310043003230100731013348321C10090
:101350000322010183224101032381018323C1016F
:101360000324010283244102032581028325C10253
:101370000326010383264103032781038327C10337
:101380000328010483284104032981048329C1041B
:10139000032A0105832A4105032B8105832BC105FF
:1013A000032C0106832C4106032D8106832DC106E3
:1013B000032E0107832E4107032F8107832FC107C7
:1013C00083204100032181007300203000000000D1
:1013D000000000000000000000000000000000000D
:1013E00000000000000000000000000000000000FD
:1013F00000000000000000000000000000000000ED
:0414000000000000E8
:101404001845918D10493387E50214510CC1AA8700
:10141400329763D3E6003687B306D0406353D700D0
:101424003687904FD447C8433386C5403306D60227
:101434008CCFD45398CBB385A502D0CBB29533854A
:10144400E50063D3A6003685B306D0406353D500C8
:101454003685C8CF828083A5C18D411193F7F53FAE
:10146400BDC33705DEC081477D5813038100214E7B
:10147400B72600500905930E000C1386C1F142C42F
:1014840042C601473E96B30FE60083CF0F00330FE9
:10149400E30005072300FF01E317C7FF3387F500C7
:1014A40098C2224798CA3247D8CAA8C2010001008C
:1014B400010001000100F842058B75FFA107E39EBE
:1014C400D7FB4101828037270050B707DEC00CC329
:1014D40091073CC3010001000100010001007C43AD
:1014E400858BF5FFBDBF0387A18D83D7E1A1631968
:1014F40007128507C207C187130770166353F700E5
:101504008147239FF1A083D7C1A1130770168507D4
:10151400C207C1876353F7008147239EF1A083D795
:10152400A1A1130770168507C207C1876345F70099
:10153400239DF1A019A0239D01A003D3418B83D83F
:10154400618B8397E1A11967130787B68607BA975A
:10155400839707001308007D9A97B38717031386B0
:10156400C1F10345D602B7CE005003AE8E01420E40
:10157400135E0E01B3C70703B387A7022945B3C798
:10158400A702C207336EFE0023ACCE0103AECE0128
:10159400420E135E0E01B367FE0023AEFE00839776
:1015A400C1A18345D60237DE00508607BA978397D8
:1015B40007009A97B3871703B3C70703B387B70224
:1015C40083258E01C205C181B3C7A702C207DD8D81
:1015D400232CBE008325CE01C205C181CD8F232ECD
:1015E400FE008397A1A1B7E6005086073E978317B4
:1015F40007000347D6029A97B3871703B3C70703B5
:10160400B387E702984E42074183B3C7A702C207D4
:101614005D8F98CED84E42074183D98FDCCE82802D
:10162400FD17C207C18763D4070093077016239F71
:10163400F1A083D7C1A1FD17C207C18763D40700F6
:1016440093077016239EF1A083D7A1A1FD17C207AB
:10165400C187E3DF07EC93077016D9BD411122C49B
:1016640006C626C2370420FE44409387C1B51397AB
:101674002400BA979C4399C3829744C0B240224441
:10168400924441018280357106CF16CDF322300099
:1016940016CB1AC91EC72AC52EC332C1B6DEBADCA0
:1016A400BEDAC2D8C6D6F2D4F6D2FAD0FECE82E6DC
:1016B40086E48AE28EE012FE16FC1AFA1EF82AF676
:1016C4002EF432F236F03AEE3EEC42EA46E872E6A6
:1016D40076E47AE27EE0F327203463C3070001A0B6
:1016E40093F7F70F8A071387C1B2BA979C43A1CF28
:1016F4008297FA40DA4273903200EA424A43BA438C
:101704002A459A450A46F6566657D6574658B65855
:10171400265E965E065FF64F3660A66016618661A9
:101724007272E2725273C2733275A2751276827645
:101734007267E2675268C268326EA26E126F826F7D
:101744000D617300203001A0B70602408547DCD646
:10175400B05E05677D17798E9387C19B2390C70080
:10176400B05E798E2391C700B45E758F2392E70033
:101774008280138701E17C5F1843998FC207C1837C
:1017840093D55700239AB19A03D7219B6370F736F8
:1017940003D7E18863FCE734239801A0938601E131
:1017A4001385C1AE138806081387C1AE9983939835
:1017B4001500D04203A30600330666404206418268
:1017C40099C96378F60083D7019B85072398F19A1A
:1017D4008280E3EAC8FE33B6C50010C1A106110534
:1017E400E319D8FC1C43144B105303284700BD8E47
:1017F400B18E504B832847028E063346C8003346C9
:1018040016010A068328C701D18E5047084733467C
:1018140016018328C70233461601D18E104F832840
:101824008702298E334616010606D18E8328470384
:10183400105B93F6F60F8A080E06336616018328AA
:10184400C7033366160183288703860833661601A7
:1018540083C8B1A21376F60F639B080483C8F19A78
:1018640063970804B708004083A80800939E1801F2
:1018740063DF0E0283C8E19A850893F8F80F238783
:10188400119B930E400663F41E038548A387119BA6
:10189400130F2007637DBF0A930500102396B188B8
:1018A400A14E2395D189B718015023A6B80083C54A
:1018B400F19A91C5BD453386C5401376F60F631F73
:1018C400D620411183D2C19A06C622C4832FC700F1
:1018D400032F0701832E4701032E87018328C701A5
:1018E400105354530057585785022396519A8542F2
:1018F400631457002381E19EAA072608B3E7070172
:10190400C18F220513977F00C98FD98F13176F00DA
:10191400D98F13975E00D98F13174E00D98F139761
:101924003800D98F13172600D98F13971600D98F33
:1019340003C7A19A29CF854609466310D702239489
:10194400F19A2385C19AB2402244410182809305D1
:1019540000082396B1889D4EA9B78D466317C7002A
:101964002383F19A2385D19AF9BFE31ED7FC130789
:101974005002E39AE7FC03D7819A9387C1F1BA979F
:1019840003C7619A2385019A2380E7006DBF13077B
:10199400F002635EF7000387919B05C7C207C1830A
:1019A4002392F1A4A382019A2382019A69BF138727
:1019B400F7FF9306E00263E8E604239201A4A382FE
:1019C400F19A83C7519AC1D303C7A1A22DFF03C7BC
:1019D400B1A235DB03C6319A6306F600A381F19AFE
:1019E4002382019A15476365F70019472382E19A18
:1019F40003C7419A154605071377F70F6364E60298
:101A04002382E19A89B7D5FF0387819B85476314B5
:101A1400F700A38C019A239201A4A382019A238242
:101A2400019A45B7FD172382019A93F7F70F13071D
:101A34003002636CF70019678A071307C798BA97CF
:101A44009C43828705472382E1A2A382019AE5BDD4
:101A54000947D5BF0D47C5BF1147F5B71547E5B7CA
:101A64000547A38DE19CD5B7A38601F20547238DD5
:101A7400E18CE1BF0547A386E1F2238D018CF1B728
:101A8400238701F2D9B705472387E1F27DBFE1320D
:101A940083C7D1F285072382F1A245BF85472381FD
:101AA400F19AA380F19A0387819BE310F7FAA38C40
:101AB400E19A61BF2381019A05472380E19A71B7B6
:101AC40003C7D1F28547998F238DF18CBDBF03C71E
:101AD400D1F271BF85472385F19A85BF83D7019BD6
:101AE4002385019A85072398F19A8280828023AE08
:101AF400019881479305500293962700138781A587
:101B04003697232007008507938681A5E396B7FEC1
:101B140083C7219A89CB13874199834767006381DF
:101B240007102303070081470386119A11C68567AE
:101B3400A380019A938707E00386019A630106163E
:101B440085672380019A9387F7EF23A8F1980547C7
:101B5400238DE19883A70199854EC207C18393D54C
:101B6400870013D647002D8EB18F03A6019993C722
:101B7400F7FFBD8B1206D18F23A8F19883A7019993
:101B840003A6019983A5019903A501991967130770
:101B940047A5B1872186BA973D893D8A3A953A96F9
:101BA400838707000305050003060600BE07C98FE7
:101BB4002A06D18F13D645403D8A32970307070082
:101BC4007D531607D98F23A6F19883C5918803D630
:101BD400C1881387150093172700B69790C303D8BD
:101BE400A1884D469317270003AEC198B697884342
:101BF400B397CE00B3F7C701B3D7C7003355050178
:101C04000507A98F13152700B397070136951CC143
:101C14007D16E31966FC8A05AE9623A00600828031
:101C2400835547000356270083570700850505069B
:101C34008507C2054206C207C1814182C1832312BE
:101C4400B7002311C7002310F7009308700263FF45
:101C5400B8008397419F1306200323120700B3C7DC
:101C6400C70293F7F70F93E707607DBD9305700CE8
:101C740063FEC50083D7E19D654623110700B3D7F2
:101C8400C70293F7F70F93E7074079BDE3FDF5E843
:101C940083D7019E2310070093E7072071B5E396CD
:101CA40007EA83C7A1A299E341657D15BD470546AF
:101CB4002147B355F540639EC500E11723AEF19863
:101CC400139797003355F540B367A70023A8F198FD
:101CD40051B5FD17E39FE7FC8147DDB72A883685B8
:101CE40019A036873E866353C80263D40503630292
:101CF400A702B387C500B306A700858785866389D5
:101D0400F500E3D007FF93851700D1BF3A858280A1
:101D140036858280130700063305E502B747015074
:101D240023A20700C8C703D707001377F7FC13677C
:101D340007012390E700D443D847E3EEE6FE03D738
:101D440007001377F7FC2390E7008280411122C437
:101D540026C206C62A84FD547D1463179400B2403B
:101D640022449244410182801305803E6537EDB7D9
:101D740083A7418813075013938667FA6366D702D3
:101D840003A7019785679387F77663EEE700854796
:101D94002383F1A4B946A384D18893060002238443
:101DA400D188238CF19E8280D91713076004E36CD9
:101DB400F7FE03A701979307703EE3E6E7FE854726
:101DC4002383F1A49D46C1BF03A74188B73703000D
:101DD4009387E7C71307F78263EAE7001147238471
:101DE400E1888547238DF19A238CF19E8280B7C6C2
:101DF4000050984E83C7619B42074183C2075D8FA1
:101E040098CED84E420741835D8FD8CEB7D60050C6
:101E1400984E420741835D8F98CED84E4207418346
:101E24005D8FD8CEB7E60050984E420741835D8F50
:101E340098CED84E42074183D98FDCCE82800111DF
:101E440022CC26CA4AC84EC606CE2A84FD54376917
:101E5400005085497D1463199400F2406244D244D1
:101E64004249B24905618280232639011305803E27
:101E74005535CDB79967938787A47971AA9756CAC0
:101E840083CA070022D426D24AD04ECE52CC5AC896
:101E94005EC662C406D69149B76B0050054C37C97B
:101EA4000050B7D4005037E400507D5A23A68B016C
:101EB4000327890183C7619B33D53A414207C2078F
:101EC40041835D8F232CE9000327C90105897D1512
:101ED400420741835D8F232EE900984C137585F8E2
:101EE4001305450B420741835D8F98CCD84CFD19EF
:101EF400420741835D8FD8CC184C420741835D8FE4
:101F040018CC584C42074183D98F5CCC0D3F8327B2
:101F140089011305C003C207C183232CF900832759
:101F2400C901C207C183232EF9009C4CC207C18397
:101F34009CCCDC4CC207C183DCCC1C4CC207C183E3
:101F44001CCC5C4CC207C1835CCCD53DE39049F703
:101F5400B250225492540259F249624AD24A424B34
:101F6400B24B224C456182800387918D994701458C
:101F74009376F70F63E2D7028547B397E70013F729
:101F840087040DE313F7470209EBC98B91C7B71711
:101F940000408843198105898280B717004088432F
:101FA4001181D5BFB717004088431581EDB7B71726
:101FB400004013070007F8D323A0E7088280B7176F
:101FC400004003D70706136707012390E70603D7EA
:101FD4000706136707022390E70603D7070613676C
:101FE40007042390E706828041113708DEC00147C9
:101FF400B72600500508930881002143B387E50004
:102004009CC223A00605010001000100010001009B
:10201400FC42858BF5FF03AE0601B30EE50072C4E6
:1020240003AE460172C6330EF700637DCE00338FD4
:10203400F800034F0F00338EFE0085072300EE01E6
:10204400E39367FE2107E36BC7FA41018280A3840F
:1020540001983717015083470702F576FD16F99B5F
:102064002300F7021C433716005093F7F7FC1CC3F8
:102074008357071093E707102310F71083570710AF
:10208400F58F2310F71083570710F176D58F23109F
:10209400F7108357071093F7F7F12310F710232253
:1020A4000700B7070050B443F99AB4C3544AF99AE5
:1020B40054CA9306471094C3938601E1D4C38C4752
:1020C40083C6818893F505C0CD8E94C7944BB7051C
:1020D40000801385F5FF93F606F893E6460094CB4B
:1020E400D44B93F606F893E64600D4CB944BE98E92
:1020F40094CBD44BCD8ED4CB9453B705E1FFFD15CF
:10210400819A93E6560094D39453ED8E94D3D44796
:1021140093E61600D4C7D44793E62600D4C7854671
:10212400B4CFF4CB544A93E6160054CAF443116670
:1021340093E61600F4C38347470293E7270023027C
:10214400F702B707004083D64703D18E239AD702FC
:1021540090DB1C4393F7F7FC93E707021CC38280D0
:102164008545A384B1983717015083474702371632
:102174000050F59B2302F7021C43138581A593F7B6
:10218400F7FC1CC38357071093F7F7EF2310F710DE
:102194008357071093E7070E2310F7102322071025
:1021A400232407102322070083D7C1885CC7B707FD
:1021B400005093870708B443F99AB4C3544AF59A74
:1021C40054CA83C691888A06AA9694C39306871034
:1021D400D4C3944793F606C093E6660194C7944B20
:1021E40093F606F893E6460094CBD44B93F606F8A0
:1021F40093E64600D4CB884BB7060080558D88CB38
:10220400C84BFD16E98ED4CB94533705E1FF7D15F9
:10221400819A94D39453E98E37050500C98E94D3DB
:10222400D447CD8ED4C7D44793E62600D4C7ACCFC9
:10223400ECCB544A93E6260054CAF4431166CD8E7F
:10224400F4C383470702CD8F2300F702B70700408A
:1022540083D64703D18E239AD70283D6C702D18E61
:102264002396D7021C4393F7F7FC93E707011CC39B
:1022740082800567B70700401307075098DFD8C767
:10228400D8D70D67130707A0D8DBD8D7828083C6B9
:1022940001F38567370700409387078099EA1CDFBD
:1022A4005CC75CD7B707004013070040D8DBD8D71A
:1022B40082805CDBFDB70567B70700401307078022
:1022C40098DFD8C798DB1307004098DFD8C798DB9E
:1022D40082800567B70700401307078098DFD8C7D7
:1022E400D8D71307004098DFD8C7D8D7828083C6D1
:1022F40001F313070020B707004099EA98DFD8C715
:10230400D8D7B707004013070010D8DBD8D782808E
:10231400D8DBFDB7B70700401307002098DFD8C704
:1023240098DB1307001098DFD8C798DB8280B707C3
:1023340000401307002098DFD8C7D8D71307001030
:1023440098DFD8C7D8D7828083C601F30967B70757
:10235400004091EA98DFD8C7D8D7B707004005678F
:10236400D8DBD8D78280D8DBC5BFB7070040096760
:1023740098DFD8C798DB056798DFD8C798DB8280D9
:10238400B7070040096798DFD8C7D8D7056798DF33
:10239400D8C7D8D78280411106C6AD3F293FB24085
:1023A4004101E1B77D15954763E3A70499679387D6
:1023B400C7A10A053E951C41411106C68287053F07
:1023C400093FB240410155B7B1372137B24041010D
:1023D400A5BFB13FCD35DDBF993F553DDDB71D3FAD
:1023E4007D35B240410169BF1937F135DDBF8280C7
:1023F4000387A18D411122C406C626C24AC0854660
:1024040003C4918D631AD708369462046184994693
:1024140063CE8606A38C818C8944B3649402238C96
:10242400918CA14773B00730038741A53E8919E316
:1024340022858D3F7320093085476305F400914759
:10244400631DF406B717004013070003F8D303D73E
:102454000706136707042390E706B7170040D9CC93
:1024640013070007F8DBA38901A4238901A403A7A8
:10247400418D7D140604938701F1A2972390E70010
:10248400B24022449244024941018280A38CE18CEF
:10249400A38AE1A43A8449B77D1462046184635831
:1024A4008000A38C818C9344F4FF85888DBF1944EC
:1024B400A38C818CA38AD1A4FDB789476305F4005A
:1024C4009547631CF400B717004013070006F8D3C0
:1024D40003D7070613670701BDBF8D47631CF400CC
:1024E400B717004013070005F8D303D7070613678F
:1024F400070295B79947E305F4FE85B703D70707A5
:10250400136707012398E70603D707071367070232
:102514002398E70603D70707136707042398E706FA
:1025240099B7411106C621356D33B240410189BDC9
:102534004111B727015006C6984B759B98CBD84FCD
:1025440013672700D8CF984B759B98CB553583D705
:10255400E1A403D601A583A6418DB2978587B697DA
:10256400858323AAF18C83C7B1F483A6418DB9E393
:1025740083C7A1A0B387D70203A7418D058399839D
:10258400C207C1832394F1A0B307F7402396F1A4B3
:102594008387D18C99E3EFF09FA283A781A3096776
:1025A4001307F7706365F700850723ACF1A2B24007
:1025B4004101828083C7119D75BFB7570150D85F11
:1025C4009316470163DF060003D7470485669386A5
:1025D4000680558F2392E704B717004013070020A5
:1025E40098DF828031E5B7C500509C4179771307A5
:1025F400F73FF98F93E707409CC137D600501C4240
:10260400B7E60050F98F93E707401CC29C42F98F4C
:1026140093E707409CC29C4193F7F7C79CC11C42B7
:1026240093F7F7C71CC29C4293F7F7C79CC28280FA
:10263400930720036301F52263E6A702E5476304D9
:10264400F51263E9A700A947630CF508D1476302B3
:10265400F50C8280F9476302F51693078002630242
:10266400F51A8280930760046300F52E63EBA700DC
:1026740093077003630CF5229307C003630CF526DC
:102684008280797793060005B7C700501307F73F98
:102694006317D52C94430566130606C0F98ED18EB4
:1026A40094C337D500501441B7E50050F98ED18E4C
:1026B40014C19441758F518F98C198431377F7C70C
:1026C4001367073098C31C4193F7F7C793E70730A4
:1026D4001CC19C4193F7F7C793E707309CC18280E4
:1026E40037C700501C4393F7F7C793E707281CC369
:1026F40037D700501C4393F7F7C793E707281CC349
:1027040037E700501C4393F7F7C793E707281CC328
:102714008280B7C500509C4179771307F73FF98F42
:1027240093E707409CC137D600501C42B7E60050DF
:10273400F98F93E707401CC29C42F98F93E7074047
:102744009CC29C4193F7F7C793E707289CC11C429E
:1027540093F7F7C793E707281CC29C4293F7F7C780
:1027640093E70728E1B5B7C500509C417977130773
:10277400F73FF98F93E707409CC137D600501C42BE
:10278400B7E60050F98F93E707401CC29C42F98FCB
:1027940093E707409CC29C4193F7F7C793E7073040
:1027A4009CC11C4293F7F7C793E707301CC29C42B5
:1027B40093F7F7C793E7073095BDB7C500509C4121
:1027C40079771307F73FF98F93E707409CC137D612
:1027D40000501C42B7E60050F98F93E707401CC233
:1027E4009C42F98F93E707409CC29C4193E70738CA
:1027F4009CC11C4293E707381CC29C4293E70738EC
:1028040035B537C500501C41F9769386F63F056708
:10281400F58F13070780D98F1CC1B7D500509C4191
:1028240037E60050F58FD98F9CC11C42F58FD98FA4
:102834001CC21C4193F7F7C793E707281CC19C41AE
:1028440093F7F7C793E707289CC11C4293F7F7C790
:1028540093E7072891A837C500501C41F976938661
:10286400F63F056713070780F58FD98F1CC1B7D5CD
:1028740000509C4137E60050F58FD98F9CC11C4213
:10288400F58FD98F1CC21C4193F7F7C793E7073024
:102894001CC19C4193F7F7C793E707309CC11C42C6
:1028A40093F7F7C793E707301CC2828037C50050FF
:1028B4001C41F9769386F63F056713070780F58F69
:1028C400D98F1CC1B7D500509C4137E60050F58F15
:1028D400D98F9CC11C42F58FD98F1CC21C4193E730
:1028E40007381CC19C4193E707389CC11C4293E7FD
:1028F40007385DBF37C500501C41F9769386F63F13
:102904000567130707C0F58FD98F1CC1B7D50050D1
:102914009C4137E60050F58FD98F9CC11C42F58F3E
:10292400D98F1CC21C4193F7F7C793E707201CC13A
:102934009C4193F7F7C793E707209CC11C4293F788
:10294400F7C793E707208DB737C500501C41F976C8
:102954009386F63F0567F58F130707C06DBD944353
:102964000566130606C0F98ED18E94C337D5005080
:102974001441B7E50050F98ED18E14C19441758F7E
:10298400518F98C198431367073898C31C4193E744
:1029940007381CC19C4193E7073889B301114AC821
:1029A40006CE22CC26CA4EC652C456C22149733022
:1029B40009309307F07CB7CA005023A8FA0037DA2D
:1029C40000502328FA00B7E9005023A8F90037641F
:1029D400005085441305000544C42931EFF02FC18C
:1029E4000D45EFF03F9C13054006239801A0EFF03E
:1029F400EFB51305600444C4F53613054006EFF043
:102A0400EFB41305800244C4F13E13054006EFF011
:102A1400EFB344C4EFF03F980145E93683D7618BA7
:102A240023A8FA002328FA0023A8F9007320093008
:102A3400F2406244D2444249B249224A924A056170
:102A44008280011106CE22CC26CA4AC84EC652C480
:102A54009307F07C37CA00502328FA00B7D90050F6
:102A640023A8F90037E900502328F90013052003AF
:102A7400953EEFF0CFB70945EFF0DF923764005091
:102A8400854413056009EFF06FAC44C444C4794530
:102A9400913E13056009EFF06FAB44C4EFF0BF8FB4
:102AA40001458936239801A083D7618B2328FA0036
:102AB40023A8F9002328F900F2406244D244424991
:102AC400B249224A05618280011106CE22CC26CA6F
:102AD4004AC84EC652C49307F07C37CA0050232814
:102AE400FA00B7D9005023A8F90037E90050232889
:102AF400F90013058002EFF0FFAEEFF04FAF094588
:102B0400EFF05F8A37640050854413056009EFF0E5
:102B1400EFA344C444C413050005EFF0BFAC130590
:102B24006009EFF0AFA244C4EFF0FF860145EFF077
:102B34007FAB239801A083D7618B2328FA0023A8B5
:102B4400F9002328F900F2406244D2444249B249D0
:102B5400224A05618280011106CE22CC26CA4AC8C7
:102B64004EC652C49307F07C37C700501CCB37D7EE
:102B740000501CCB37E700501CCBA14773B0073083
:102B840013047007EFF0AFA6B76400500549514A2B
:102B9400FD593345440323A62401EFF0BF801355A8
:102BA4001440290542054181EFF0DFA32945EFF0E8
:102BB400EF99791423A62401E31D34FDEFF0AFFD52
:102BC4000145EFF03FA2239801A083D7618B37C75B
:102BD40000501CCB37D700501CCB37E700501CCB20
:102BE400A14773A00730F2406244D2444249B2493B
:102BF400224A05618280397122DC03C771A406DE92
:102C040026DA4AD84ED652D456D25AD05ECE62CCA8
:102C140066CA6AC86EC685476316F700EFE07FB5DB
:102C2400A38301A403C771A489476315F70483A789
:102C3400C1A0416563C6A7027D15EFE05FEBA383E6
:102C440001A4F2506254D2544259B259225A925AAF
:102C5400025BF24B624CD24C424DB24D21618280F8
:102C64009387470663E4A7009307F5FF13950701CD
:102C74004181E1B79387C1F183C727019384C1F1EF
:102C840063800746838761A403C76402638F070CCC
:102C9400930770416316073803D741A463FCE70424
:102CA40083C714010387A18D631DF70203A7418D18
:102CB40003D6E18C6378E60003D6E1A31307700C16
:102CC4006376C7000387C1A3630607400547B307BC
:102CD400F740238DF18C23AC01A2A386E18CEFF0A5
:102CE4000FAD83D741A47D771307E77F8607BA9793
:102CF4002391F1A403D741A49307704163E0E7064D
:102D040003D741A49307F00263FAE70483C61401CE
:102D14000386A18D8547958F631BF60283A7418D9A
:102D240003D6E18C6378F60003D6E1A39307700C15
:102D340063F6C7008387C1A36381073A23AC01A26A
:102D44000546A386C18C238DD18CEFF04FA683D783
:102D540041A486079387E7FC2391F1A403D741A4F8
:102D64009307F00263F1E72AD5A083CA018D83D7C4
:102D740041A4860A13898A3E630C071A6358F9042E
:102D840083C714010386A18D631FF602838501A402
:102D9400239101A48547238AF1A48DC9918F238DA2
:102DA400F18C238A01A403D541A41307F07F930671
:102DB400F0021306007DCA85238001A4EFE01FF210
:102DC4002391A1A421A0838741A5F1DF83D741A446
:102DD4009309803EB389594163D8370583C61401EA
:102DE4000385A18D0546B305D640631CB502238A2D
:102DF400C1A4038601A4239101A41DC6238DD18CF3
:102E0400238A01A403D541A41307F0029306F07F9B
:102E14004E868145238001A4EFE05FEC2391A1A4B9
:102E240021A0838741A5F9DF83D741A463C0370379
:102E340083D741A4634CF900239101A4838741A55E
:102E440091C7238A01A405472380E1A403C761A392
:102E54008387C18C63DBE72883C764016387072802
:102E6400EFF06FD3EFF0AF94239A01A293076006BB
:102E7400238BF1A28387C1A3E39507DC83C7B1A2A7
:102E8400E38107DC83D941A383C734011307000519
:102E9400B387E7029387E70263C93733838741A285
:102EA4006391073C03C7440183C7A1A2631A075275
:102EB400239301A2038A41A581EF0547A386E18CF0
:102EC40023AC01A283C7C40163820746EFF06FE518
:102ED40083C76402638D0736631F0A449307E002C5
:102EE40063EA375D83D7A18B03D761A263F4E7005C
:102EF4002393F1A2838781A189CB8397818B03D705
:102F040061A263D4E7002393F1A283A741A1E35A0A
:102F1400F0D21307F002E37637D30967130707717A
:102F2400B3C7E70203D761A2BA972393F1A211BBF7
:102F3400635FF90483C714010387A18D631CF7023F
:102F440003A7418D03D6E18C6378E60003D6E1A3A1
:102F54001307700C6375C7000387C1A345CB0547EE
:102F6400B307F740238DF18C23AC01A2A386E18C37
:102F7400EFF0EF8303D541A41307F07F9306F0022B
:102F84001306007DCA85EFE07FD52391A1A483D7E2
:102F940041A49309803EB389594163DE370583C652
:102FA40014010386A18D8547958F631AF60283A7C2
:102FB400418D03D6E18C6378F60003D6E1A3930731
:102FC400700C63F5C7008387C1A3B1C723AC01A20A
:102FD4000546A386C18C238DD18CEFE05FFD03D51C
:102FE40041A41307F0029306F07F4E868145EFE07B
:102FF400FFCE2391A1A483D741A4E3C937E583D7A6
:1030040041A4E345F9E4239101A489B59307803EE3
:103014002392F1A485B79307803E2392F1A4C1B70C
:1030240003D741A463F4E70483C714010386A18D85
:10303400631BF602838501A4239101A48547238A97
:10304400F1A48DC5918F238DF18C238A01A4238053
:1030540001A483D741A47D771307E77F8607BA9736
:103064002391F1A421A0838741A5F5D303D741A4DB
:103074009307704163E9E70403D741A49307F0027F
:1030840063F3E70483C614010385A18D0546B305E4
:10309400D6406317B502238AC1A4038601A42391F1
:1030A40001A415C2238DD18C238A01A4238001A4F9
:1030B40083D741A486079387E7FC2391F1A421A039
:1030C400838741A5E5D703D741A49307F002E3EF33
:1030D400E7D69DB3239201A429B1239201A485B913
:1030E40003D741A42391E1A495B383C73401A9C7AD
:1030F40083C5840203D521A4D147B385F502F547DE
:1031040063ECA700239A01A2E346B5D61307F07F28
:103114009306000A3A8621A8F947E307F5FEE35728
:10312400B5FE2E861307000A9306F002BE85EFE073
:10313400FFBA239AA1A23DBB838731A3C1C783C72A
:1031440021A3B1C783DA21A403A7418C83A6818C70
:103154001306F07F9305F0025685EFE03FB8B7877A
:10316400930393870770B3C7A70203C7B40105830A
:10317400B3C7E7022398F1A29307E00263E957017A
:10318400239A01A223A8019223A601A2E5B183A751
:10319400C1A2096713070771B3C7E7021307F07FDA
:1031A400C207C183239AF1A26377F7009307F07FE4
:1031B400239AF1A2C1B11307F002E36DF7CA930792
:1031C4000003FDB783D721A4E5B783C7A1A2A1E378
:1031D400EFF06F9C8387D18C85E7EFF06FA189674F
:1031E4009387077123AAF18CB7B7030093870798D5
:1031F40023A4F1A4B737015023A20700EFE03FDC7A
:1032040085472385F1A203D7218C2394E1A283CBA4
:10321400340183D6018C03D7E18B638F0B02938631
:1032240086021306F07F930590084E85EFE01FABEE
:1032340083C764022393A1A299E3238A01A4930779
:103244000005B38BFB02938BEB02E3D93BC5838769
:1032540041A5E38507C8F5B21306F07F9305F00294
:10326400E9B7FD1793F7F70F1147636BF700196779
:103274008A07130747A3BA979C438287EFF06FFC32
:10328400238201A205B1EFF03F84DDBFEFF0BF8CD4
:10329400C5BF9307F07CB7C600509CCA37D700500F
:1032A4001CCBB7ED005023A8FD00214D73300D3029
:1032B400054CB76C00501305C00323A68C01EFF036
:1032C4006FB2EFE0DFB26285EFF0CF8D1305B0048B
:1032D400EFE0DFA71305000523A68C01EFF08FB004
:1032E4001305B004EFE09FA61305A00523A68C01E7
:1032F400EFF04FAF1305B00423A68C01EFE01FA538
:1033040023A68C01EFF02F890145EFF0AFAD239890
:1033140001A083D7618BB7C6005037D700509CCA31
:103324001CCB23A8FD0073200D3099BFE3120ABA09
:10333400EFF06F8671BE838761A483D641A4B1E3A5
:103344009307803E958F93D6F741B58F958F9387DA
:10335400873E2391F1A203D721A29307E07C63F176
:10336400E7066254F250D2544259B259225A925A40
:10337400025BF24B624CD24C424DB24D21616FF074
:103384004F9A9307704163EFD70083D641A4930704
:10339400F00263F9D70083D741A486079387E7FC3B
:1033A4002391F1A283D641A493077041E3F5D7FAA0
:1033B40083D741A4FD769386E67F8607B69751BFEF
:1033C4006254F250D2544259B259225A925A025B70
:1033D400F24B624CD24C424DB24D21616FE07FE919
:1033E40095EF8547A386F18C03C4C40123AC01A2E5
:1033F400238001A245C803C734010DE36310F4021E
:1034040003C794029307800CB387E7022391F1A2C8
:103414001307E07C6373F708EFF0AF908387918D17
:103424001307C00313067016FD17B387E702C2071C
:10343400C1839386470B13970601C206C186418355
:10344400635AD6009387C7F413970701939607012D
:103454004183C186239FD1A093077707C207C18701
:10346400130670166343F604239EF1A09307F70E28
:10347400C207C1876357F600130777F8931707014C
:10348400C187239DF1A083C7340105476394E700F6
:10349400238EF1A2239301A25DBBEFE09FDD238A7B
:1034A40081A4ADBFEFE03FEF95BF9307F7F0239EF4
:1034B400F1A0D9B703C7D401F947B3D7E74003A7AD
:1034C40081A3E371F7A283D761A203D7218C63F5AB
:1034D400E7002393E1A2BA8703D7C18BE374F7A073
:1034E4002393E1A201B479714ECE83C7B1A206D66B
:1034F40022D426D24AD052CC56CA5AC895CB83C7B6
:10350400F19A9DC783C7919885C3EFE05FB489475B
:10351400A383F1A4B250225492540259F249624A4C
:10352400D24A424B45618280EFE09FC38547CDB7C5
:1035340003C7819F59EFB7871E00938601E19387E4
:103544000748138701E1904223A2F18813038707F8
:103554008145814681484843630AC5003306C54016
:103564006374F600B2878548B296854511072A86AA
:10357400E313E3FEB305B040ED8E6384080023A299
:10358400F188038761A4958223A8D19685476314A3
:10359400F700EFE0EFFD83C7A19B0547E207E18752
:1035A4006394E700EFE05F82838761A481EB83C7C4
:1035B400A19B89E7EFE0CFFBEFE01F812254B250DB
:1035C40092540259F249624AD24A424B45616FE031
:1035D4001FA883C7819F0547E207E187E39CE7F2C1
:1035E40003C7F19A1DCF83C791988DC303A5C1A0CA
:1035F400C167130545066364F5001385F7FF4205AB
:103604004181EFE0CFCEEFE0CF964DBF2254B250D0
:1036140092540259F249624AD24A424B45616FE0E0
:103624003FB4038961A46316F900EFE08F94EFE0DF
:103634001FA283C7A19B0547E207E187639EE700BA
:10364400B707004098439316170163D706080D4740
:103654002384E188EFE0BF9F83C7B1A2E39C07EA1C
:10366400630E090403C781988D4663E9E60403D613
:1036740001A0954663F4C6040507938601E1137718
:10368400F70F2384E198FC5E9442958F03A641983A
:10369400C207C183B29723A2F19891466310D7025F
:1036A40013D7670089834207C2074183C183330666
:1036B400F700998F2397C1882399F19A03D421A401
:1036C4006318041C83C721986394071C83D701A043
:1036D40085072390F1A03DBD09472384E1889387A2
:1036E40001E1D0439C4313050006130760571D8E68
:1036F4003355A602420541819307F5CDC207C18324
:10370400636BF71683C72198239801A06389071078
:1037140083C7D197B1C39307104E63F3A70E03C7B2
:1037240081979307B00463F6E70683D781892381E1
:103734000198E507C207C183239CF1880947938751
:1037440027D1B3C7E702238EF1F2EFD0DFD0238C69
:103754000196EFF06FB735A883C6C19799E2239D10
:10376400C196850693F6F60F03D7A197238ED196BB
:1037740083D761891D8F9358F74133C7E800330716
:1037840017419308200363DAE80223810198239DFB
:10379400F196239801A003A7419783D641A4130669
:1037A400A00FB306D740635BD60C03D741A432976E
:1037B400420741832392E1A471BD1D47B387E70209
:1037C400B2978D83C207C18363E5D800239BF18838
:1037D4007DBF9D1713940701418009479307A49265
:1037E400B3C7E7022AC6239B8188A38EF1F28547DB
:1037F400A38EF196EFF0EFA43245239D819621BF6D
:1038040083C781979D468507238CF19683D7818949
:10381400B387D702AA978D87239CF18809B783C7FA
:10382400E1F285CB83D5418963EDA5002E8683D54E
:1038340081891307803E8146EFE04FCA23AAA196EF
:1038440099BF03D661891307007D9306903E8505D1
:10385400E5B703D6618983D581891307F07F930681
:10386400F002EFE0AFC793070003B3A7A700B307C5
:10387400F0407D8DE1B7239001A031BF83D641A4F0
:10388400998EE357D6F203D741A4130767F00DB717
:1038940083C731F2E39007C8239001A09307C05D6A
:1038A400E3FA87C683D70198B307F44013D7F741E7
:1038B400B98F998F130720036357F700238F01965D
:1038C4002390819881B983C7E197850793F7F70F10
:1038D400238FF196E376F7FE83C7D197F5F3EFF0E4
:1038E4008FA705472381E198D1BF411106C6B707C9
:1038F40000500547F8CBEFF01FBFB24041016FF015
:103904008FAF411106C6B7070050054723AAE70C3D
:10391400B717015023A4071098431377F7FC98C3F3
:10392400EFF07FBCB24041016FF0EFAC011122CC4B
:1039340026CA06CE4AC84EC652C42A84A14473B0CD
:1039440004309307F07C37CA00502328FA00B7D913
:10395400005023A8F90037E900502328F9000D4549
:10396400EFE05FA413052003EFE0DFC7EFE02FC80B
:103974000545EFE02FD01305400BEFE04FCC294570
:103984003375A402EFE00FCFEFE0FFA00145EFE0B5
:103994007FC583D7618B2328FA0023A8F900232845
:1039A400F90073A00430F2406244D2444249B2495F
:1039B400224A05618280B7370150C84383A781A496
:1039C4003E95930700033355F502420541818280F9
:1039D400411122C426C24AC006C6014483C7118DC0
:1039E400634BF406214473300430EFE04FDC03D71B
:1039F40001A52397E1A4C13723A401A42398A1A47A
:103A0400B737015023A2070003D7C1A493060003CC
:103A1400B72701500507420741833307D70223A282
:103A24000700D8C7D84F13672700D8CF984B759B8A
:103A340098CB98431377F7FC1367070198C3984B07
:103A44001367270098CB73200430B2402244924479
:103A5400024941018280EFE02FD18387818DE30603
:103A6400F5FE0504A5BF0387918D99479376F70F5B
:103A740063E7D7068547B397E70013F7870439E36D
:103A840013F747021DE3C98BB9CB371700408327CF
:103A940007089983858BA1C7FD572320F7083C535A
:103AA4009983858B8DCF6FF0BFF237170040832742
:103AB40007089183858B85C7FD572320F7083C535E
:103AC4009183C5B737170040832707089583858BF3
:103AD40099C7FD572320F7083C539583D9B78280B3
:103AE400011122CC26CA4EC652C406CE4AC8EFF0F3
:103AF4009FEC2398A1A423A401A4B737015023A2C7
:103B0400070083A7418D0D47B387E702114A3E950D
:103B1400098123AAA18C03A7418D83C7A1A003A473
:103B2400418DB387E70205809983C207C1831D8C49
:103B340042042394F1A04180239681A4EFF0BFE7CF
:103B440003A981A363748500E36A2AFFEFE05F8A17
:103B54001387C1F1A38901A483460700238001A22E
:103B64009307190023ACF1A299CE0947637CF702AD
:103B74006244F240D2444249B249224AA386018CAB
:103B840005616FE0CFC38346D70103476702558FB2
:103B940015C34D476378F70003A7418D9307007D54
:103BA400E3F8E7FCF2406244D2444249B249224A73
:103BB4000561828003A7418D83A741A045BF719A07
:103BC40081476393C70082803387F500144333072A
:103BD400F500910714C3F5B737C70002B7C6000252
:103BE4007117E11610439C420C43E31DB6FE0567B2
:103BF4001307072C3E97B337F700B7460002B29776
:103C04007D56D0C298C2DCC28280397122DC26DAA9
:103C14004AD852D456D25ECE62CC66CA6AC806DE90
:103C24004ED65AD06EC64D3F03D461A283D7619F4E
:103C34008507239BF19E83D7C19683DBA19683DC02
:103C4400819685072396F196850B83C7B1A203C796
:103C5400619D850CC20BC20C93DB0B0193DC0C0140
:103C6400239F81A22395719723949197D98F93844D
:103C7400C1F1B5E783C7819FBDC383D721A4639AEC
:103C8400072E83D761969566938606E28507C20759
:103C9400C1832393F19663F4F60483D601A0F94714
:103CA40063F7D72C83CD44028547A385F1A2639D96
:103CB400FD2A83D9E19D93072017014BB3D9F9025B
:103CC400E20993D98941238B319D63433B2983C7FF
:103CD400A19B03C761A4D98F99E32383040283C7FB
:103CE400F4019DC3F5075146B387C70203D7419634
:103CF4000507420741832392E19663D7E70005470E
:103D04002381E19E239201968387C1A3639E0720AA
:103D14008387D18C83C9A1A2B1C363810904EFE075
:103D24000FA9EFE06FA48386818D63870624631750
:103D3400052483C731A58507A389F1A483C721A5D9
:103D440091EF83C731A56388062483C6618A63F72C
:103D5400F60085472389F1A4EFF09FD8D14763F398
:103D6400970F0547238DE19C838781A123940196B6
:103D7400B1CB6389090403C6C4029307800C3306DC
:103D8400F6028395419F13858190EFD06FE7896791
:103D9400938707713345F50283D7818B83D6018CD2
:103DA400898FC207C187239CF18A63D7D700939771
:103DB4000601C187239CF18A9306007D63D4F60033
:103DC400239CD18A83C7D4019DC76386090283A536
:103DD400418D0966130646961385018EEFD04FE296
:103DE40083A741A13E95B7E716009387073663D7AB
:103DF400A71A23AAF1A0838731A3A9C7638409045E
:103E040003D601A383A5C1A013850193EFD04FDF8F
:103E140083A7C1A23E959347F5FFFD877D8DB767C4
:103E240038019387078F63D3A7003E8523A6A1A2F9
:103E340003A781A39307300663E6E700938C0193FD
:103E440023A80C0083C7719B03D781A263FC771757
:103E540083A681A3239501969307500963F4D700A1
:103E640063E6E71483C7218993F7F70F2380F1886A
:103E7400B306E44063D8D7003384E70042044180AA
:103E8400239F81A2B306874063D9D700B307F740C5
:103E9400139407014180239F81A283C7B1A203D950
:103EA400A18A638707146387091C03D741A3930777
:103EB400F00263F1E71403C7019D6309071003C708
:103EC40044012388019CA387E19C239481A237C6E3
:103ED400005023282601B7D6005023A8260137E72F
:103EE4000050232827010C4E83D7C19CC205C2076A
:103EF400C181DD8D0CCE4C4EC205C181DD8D4CCE11
:103F0400904E420641825D8E90CED04E4206418252
:103F14005D8ED0CE144FC206C182DD8E14CF544FB5
:103F2400C206C182D58F5CCF83D701A1F2506254FF
:103F340085072398F1A0D2544259B259225A925A71
:103F4400025BF24B624CD24C424DB24D21618280F5
:103F5400EFE0DFA413054006EFD05FDFB767005042
:103F640023A6B701050B95B3EFE05FA38DB3238CB4
:103F7400019E23930196A5B3E31D05DA83C701A22D
:103F8400850793F7F70F2380F1A21147E378F7DA57
:103F9400A38901A465B383C6518A55BBB327A00086
:103FA400B307F0407D8D23AAA1A0B1B583A6C19F1C
:103FB4009307401F63F5D70083C7118975B583C77D
:103FC40001895DB5239FE1A23A84C1BD1307207B1B
:103FD400A28763738700BA87C207C183B3872703A5
:103FE4001307007DB3C7E70285072396F19CF1BD53
:103FF4006382090803D741A39307E00263ECE70651
:1040040083C7D4000547639DE700A387019C2388E9
:10401400F19CB30724031307007DB3C7E702F1B78C
:1040240089466397D700A387E19C2388E19CD5B791
:104034009386D7FF93F6F60F1946E36CD6FC83C537
:10404400019D89EDF917A386F19E9567938707E291
:10405400239BF19E85472388F19C65BF83C7D19E2E
:10406400F5FB83C7019DE397E7FE23AC01A22385FB
:1040740001A2CDB7838741A599CB83D721A213078A
:104084000083B3872703B3C7E702CA97B9BF03C541
:10409400C4018947E31FF5F683C7B1A2BDDBEFE096
:1040A4006FB083C7C4001307007DB3872703B3C76A
:1040B400E7022947B387E702938787023DB7BD67C5
:1040C400370700081D711307070093870700D2C440
:1040D400BA975EDE23AEF18C86CEA2CCA6CACAC83D
:1040E400CEC6D6C2DAC062DC66DA6AD86ED6B74704
:1040F4000050D857B843F843F843F8434146FC43CB
:10410400BD65938505FE3305C100EFD0FFED0307C0
:10411400410193078003E318F7369307800223A82D
:10412400F18A03A7018B93170701C183239AF18AAC
:104134002387E18A2390F18C2396F18AB70720FE26
:10414400096723A00700B7051FFE9387C1B51307AE
:10415400475323ACE70A054C370600FE938605084F
:1041640023AC8603130706081D431165232C67023D
:104174001305A5A688CF23AC8501194508CE05658E
:104184001305C57423A8A70E23A88607914634DB1C
:1041940011671307E78EF8CF23AE85050D4D116720
:1041A400232EA60513076790B8D323A085073744A9
:1041B40000502320A6071C44B70600D0FD1693E741
:1041C40007101CC41C4CB73A0050757893E70710CD
:1041D4001CCCB7070040D85F7D187176758FB70681
:1041E4000010558FD8DF03D747039166C16D558FF3
:1041F400239AE70294DB03A70A05B7160150B70513
:10420400F4FF419B23A8EA0423A4060023A206008A
:1042140003D70610FD15F978136707102390E610ED
:1042240003D706109388F83F130EF07C3377070109
:104234002390E61003D70610B7140040518F239043
:10424400E61003C7460237060400136727002382DB
:10425400E60203C70602799B2380E602984213779D
:10426400F7FC1367070298C203A7CA00B706FDFF4D
:10427400FD163367B70123A6EA000347040013675A
:1042840027002300E40003470401136727002308E1
:10429400E40003470400336787012300E400034775
:1042A4000401336787012308E40018443367870156
:1042B40018C4184C3367870118CC371700502328CB
:1042C4000700232A070023220700D85F758F33676E
:1042D400B701D8DFD85FB706D0FFFD166D8F518FB9
:1042E400D8DFD85F758FB7061000558FD8DFD85F39
:1042F400B70640FFFD16758FB7064000558FD8DF0F
:10430400D85FB70600FDFD16758FB7060001558FFF
:10431400D8DFD85FB70600F4FD16758FB706000422
:10432400558FD8DFD45B1167130707F0D98ED4DB20
:10433400D457558FD8D7B7C700509843B7D6005035
:10434400337717011367074098C398431377F7C768
:1043540098C39842337717011367074098C298426D
:104364001377F7C798C237E7005008433375150130
:104374001365054008C308431375F5C708C383A82C
:104384004705056513050580B3E8A80023AA1705AA
:1043940083A8470593F8F88F93E8081023AA170514
:1043A40023A8C70183D8070293F838FF93E888004D
:1043B4002390170383D8070293F8F8FC93E80801C5
:1043C4002390170383D8470293F838FF93E84800F3
:1043D4002392170383D8470293F8F8CF93E8082071
:1043E4002392170323A8C60183D8060293F838FF43
:1043F40093E888002390160383D8060293F8F8FC08
:1044040093E808012390160383D8460293F838FFF3
:1044140093E848002392160383D8460293F8F8CF12
:1044240093E80820239216032328C7018358070220
:10443400130E800293F838FF93E8880023101703C3
:104444008358070293F8F8FC93E808012310170334
:104454008358470293F838FF93E848002312170360
:104464008358470293F8F8CF93E8082023121703E0
:1044740023AAC70323ACC70383C80703B3E8A8016F
:104484002388170383C8070393F838FF93E8880049
:104494002388170323AAC60323ACC60383C80603D1
:1044A400B3E8A8012388160383C8060393F838FFEA
:1044B40093E8880023881603232AC703232CC70301
:1044C40083480703B3E8A8012308170383480703B5
:1044D40093F838FF93E888002308170383C8070379
:1044E40093F8F8FC2388170383C7060393F7F7FCB4
:1044F4002388F6028347070393F7F7FC2308F702A0
:1045040023A66A003737015023240700232207001B
:104514001C4393F7F7FC93E707021CC383A7CA0065
:104524007D771307F73FD18F23A6FA009C5093F7AA
:10453400F7CF93E707109CD09C50F98F93E707407F
:104544009CD09C500567B3F70701D98F9CD083D7C3
:1045540084067D5793E707012394F40683D78406E2
:1045640093E707022394F40683D7840693E70704AA
:104574002394F40683D7840793E70701239CF40666
:1045840083D7840793E70702239CF40683D7840721
:1045940093E70704239CF40623A0E408B7270150FB
:1045A40023A4070023A20700D8C7944393F6F6FC7C
:1045B40094C383A7CA00B7060200D58F23A6FA00C6
:1045C400A14673B0063085679387A7687390573008
:1045D40073A0063011689387C1B21308E8C023AEF4
:1045E400070105681308086623A607039307000854
:1045F40073A047307320453073A00630EFF0CFDD51
:10460400B747015023A4070023A207007D57D8C74A
:104614009843370604001385C1B51377F7FC98C394
:1046240083A7CA0037070800D98F23A6FA001C40C5
:104634003707F4FF9305F7FF93E727001CC01C48D6
:1046440037F7C0FF791793E727001CC8DC5CED8FB0
:10465400D18FDCDC83D7440393E70720239AF40249
:1046640083D7C40293E707202396F4021C44B3E7DC
:10467400B7011CC41C4CB3E7B7011CCC3C50F98FE8
:1046840093E707203CD03C50716713070720B3E73A
:1046940087013CD03C5093E707013CD09387C1D5B8
:1046A40023A4A70123A8070023A2070023A007002F
:1046B40023AA0700D8C723AC870134503C50628733
:1046C400A18213963701B3F6A60163580600385049
:1046D40041831377F703629706078947638FF65A76
:1046E400B7470F000D4693870724638BC600B7179F
:1046F4003D009387079089C6B727F4009387074046
:10470400B3D7E70237271C0033D7E702D3F717D014
:10471400996707A787E3996787A6C7E3D3F7E718DD
:104724009967537707D0D3F7E70807A707E4B75784
:104734000150D8D3C3F7D770D39617C094D703C703
:10474400C702856693860680136707062386E702F9
:1047540003C7C7025D9B2386E702D857137797F7F1
:10476400D8D703C7C7023D9B2386E70203D70703B5
:10477400136707102398E70203D707031377F7DFBC
:104784002398E70203C7C702136707012386E702DA
:1047940003D78703558F239CE70203D70703896652
:1047A400136717002398E70289679387E75B232A37
:1047B400F51237071FFE8547232AF712370700FE35
:1047C400232AF712372700FE1C47D58F1CC737272B
:1047D40001501C4BB706C1FFFD16F59B1CCB1C43B7
:1047E40093F7F7FC93E707011CC3B747005093877F
:1047F4000708984B1377F7CF1367072098CB984B8C
:10480400758FC166558F98CB984B8566558F98CB1D
:10481400984B1367170098CB984B1367070198CBF5
:10482400B707024013870750344393E6160034C396
:1048340003C7C701B70601FFFD16419B1367770045
:10484400238EE700F853758FB7060200558FF8D30F
:1048540003D78705FD769386F61F619B13672700B0
:10486400239CE70403D78705758F8566938606C066
:10487400558F239CE70403D78705B70600FF1377FA
:10488400F7EF239CE704B843619BB8C3B84313779D
:10489400F7F813670701B8C3B8431377F78F1367A3
:1048A4000720B8C3B85B758F13672703B8DB03C74A
:1048B4000700136717002380E70003A70754058345
:1048C400058B65DF03D74702B7060010136717008F
:1048D4002392E702B70700FE114723A8E70E372704
:1048E40000FE5C431385C1F11306000CD58F5CC335
:1048F40083A5C18DEFD04FEF9387C1F103C7170094
:104904008D46138DC1F17D171377F70F63EBE60026
:1049140003472D009306D00F7D171377F70F63FB22
:10492400E6003145EFF08F8037075AA5B7460050AF
:10493400050798DA034C1D000947636687031307CC
:1049440000FAA302ED0005472313ED003767006466
:104954001307A7402324ED00370700322326ED0078
:1049640015472308ED0003477D021306D00F930675
:10497400F7FF93F6F60F6376D6007D57A303ED0297
:104984003D470344ED002382E18A054763758700B0
:1049940023070D0001448346FD001306900F13877F
:1049A400F6FF1377F70F6376E60093062003A30759
:1049B400DD0003470D019305900F1306F7FF1376EF
:1049C400F60F63F5C50015472308ED008345DD00A8
:1049D40025466374B600A3060D0083451D01238993
:1049E40081A205466374B600A3080D0083452D011A
:1049F40005466374B60023090D0083453D01054651
:104A04006374B600A3090D0003464D01854563F5A3
:104A1400C500230A0D00014603456D01854563F475
:104A2400A500230B0D000345FD02854563F4A50095
:104A3400A3070D02A387C19C1306800CB386C6028C
:104A44003307C70223A2D18C1306A00223A4E18C4E
:104A540003477D01C146636FE6001306C7FF137663
:104A6400F60F954563F8C5008D4663F6E628591799
:104A74009376F70F2385D1A003478D011306800891
:104A8400930687FF93F6F60F636FD62693064006C8
:104A94003307D7029946B346D70237370C001307BA
:104AA40007373347D702239BE18AB7C6005098CA19
:104AB400B7D6005098CAB7E6005098CA03466D00AE
:104AC4009305100381461307F6FF1377F70F63E589
:104AD400E500A946B306D60203460D032390D18C04
:104AE400130530069305F6FF93F5F50F1307007DC4
:104AF400636BB50051473306E60232876373D60011
:104B0400368742074183239FE18A03469D011305AB
:104B14004006B6851307E6FC1377F70F6364E500D8
:104B2400B305D6000345AD01130780023305E50242
:104B3400138806192391B18C239E018B7946510564
:104B440042054181239DA1880347BD01791713774D
:104B5400F70F6375E6003947A30DED001147238B6A
:104B6400E19A630B0C2A0347ED012D4E294363653B
:104B7400EE0006071373F70F03470D02238B619AA8
:104B8400130777170607239CE18803471D021307C1
:104B9400B7360607239BE18803472D021307E75521
:104BA400239AE18803463D022388C18C03475D02B2
:104BB4001307A70F2391E18A03478D0251466D170E
:104BC4001377F70F6375E60015472304ED020347D7
:104BD4009D0225467D171377F70F6375E600294775
:104BE400A304ED020346AD0221431307F6FF137736
:104BF400F70F637FE31029472305ED020347BD0246
:104C0400930660041307A7FB1377F70F63F5E60019
:104C14007D57A305ED020347CD02930630067D17A9
:104C24001377F70F63E5E6008546238CD1A083460E
:104C34009D0013878190860654C38346AD0014C734
:104C44008346BD00860654C70347DD02A5467D178B
:104C54001377F70F63F5E6001547A306ED028346C5
:104C6400ED0225476362D714094605476384C612DB
:104C7400636ED60E639D0610238301A4238D019ACF
:104C8400A38CE19AFDA00307310193071003631A73
:104C9400F7C8930700056FF08FC837480050832684
:104CA40048048325480403264804832748048328AA
:104CB40008049181418293D838009D8A93F5F503C5
:104CC4001376F6033728F40093F818008506850553
:104CD4000506E183130808406386080037480F007F
:104CE40013080824B386B602B3870703B386C60243
:104CF400B3D7D70231B40E079376F70F1387A60004
:104D0400A30BED0085BB1307F07C2395E18A71BBEF
:104D140059533306660203A7018B130767F93297C9
:104D24001377F70F1306800C6360E6043A86238733
:104D3400C18ABA962390D18C83D6818ABA953A983F
:104D4400BA962394D18A2391B18C239E018BB7C642
:104D54000050D8DA98DEB7D60050D8DA98DEB7E635
:104D64000050D8DA98DE59BD3287D1B71146638630
:104D7400C60203475D00A54863E0E804A38B119BCA
:104D84002389E188A388E1882388E18899A823837B
:104D9400E1A4FDB5238DE19AE9BF238CE19AA38CAC
:104DA400019A2383E1A4F1B7238301A4238D019AFB
:104DB4008546A38CD19A75BFA38B019A2948335792
:104DC400070303C82189637407012389E18883C524
:104DD40011896374B700A388E18803C60189E36578
:104DE400C7FA1307B0126364A700A383018A0347B9
:104DF400BD0193060002B3C6E6021307400633570B
:104E0400E5023347D7022390E18A31473357E5025D
:104E14003347D702239FE18805661307401F930693
:104E2400803E130686BB9305C012EFC03FEB83465A
:104E34002D012397A18C638A062E9306803E23A21C
:104E4400D1A083463D0009476399E60003474D001E
:104E54008D466314D700636D87010947A301ED00F4
:104E64000D472302ED001147A300ED00EFC0AFDEB4
:104E740003C7E18AB7C60050D8DA98DEB7D6005027
:104E8400D8DA98DEB7E60050D8DA98DE03471D0179
:104E940083D7618B7D173337E000238DE18C034783
:104EA4004D013EC22395F18A19E3A3090D0003477E
:104EB4006D0231C39306803E2394D18A0547A383B0
:104EC400E18A2319ED0003D7018CA3060D00231AF0
:104ED4000D00130727032390E18C03D7C18A230B0A
:104EE4000D00130727032396E18A03D7218C1307A8
:104EF40027032391E18C239001A037470050130727
:104F04000708544B854493E6160054CB544B93E660
:104F1400060154CBB716030037670050938606D4B6
:104F240014C38346870093E616002304D700834600
:104F3400870093E626002304D70044C7EFD02F91BF
:104F440009C4A38991A2A3090D009247054485834E
:104F5400130C803E3EC4138701F183562700035986
:104F6400070083AB81A3369983564700369983564D
:104F740067003699835687000357A70036993A99F4
:104F840013591940930C290023A691A1914619475E
:104F940063EA760103472D013337E0003307E0402D
:104FA4006D9B31072383E18AA382E18AB7670050AE
:104FB400C0C703475D01631D871603A5418DA24643
:104FC40012471306800C93050006EFC03FD12395CA
:104FD400A18A03D601A10967130707716371C7107A
:104FE40003C7B1A225CF32C6EFD0EFBAA38501A281
:104FF400239A01A2238C019E37C70050144FC20686
:10500400C18214CF544FC206C18254CF37D7005047
:10501400144FC206C18214CF544FC206C18254CF6A
:1050240037E70050144FC206C18214CF544FC20652
:10503400C18254CF37170150232207003246138709
:1050440001E193060710232007001107E39DE6FE04
:1050540037075AA5B7460050050798DA296713079A
:1050640007C4637EC706EFD00FB3A38501A2239ABA
:1050740001A2238C019E37C70050144FC206C1827F
:1050840014CF544FC206C18254CF37D70050144FA7
:10509400C206C18214CF544FC206C18254CF37E72F
:1050A4000050144FC206C18214CF544FC206C182AD
:1050B40054CF3717015023220700138701E19306C9
:1050C4000710232007001107E39DE6FE2945EFE0C2
:1050D400FF8537075AA5B7460050050798DA03D667
:1050E400619F1567130707E26376C7020397419F21
:1050F4009305801642073347B70283A5019F239B7C
:10510400019E2E9723A8E19E03C7D19E01C77D1758
:10511400A386E19E03D721A4637D7C07238B01A290
:105124009306700C63E1E608ADA89306007D01BB0D
:105134008946E310D7EA83A6C19F1307900F636FD4
:10514400D70083A6C19F130740066379D70003A73E
:10515400C19FA9463307D7022395E18A83A6C19F3D
:10516400130730066367D70003A7C19F19C32395AC
:10517400818B83A6C19F1307900F6366D70003A793
:10518400C19FE31807E405671307479C2395E18A49
:1051940089B5930640066312074A238B01A263F480
:1051A4007601238B01A29386C1F183C636019384D1
:1051B400C1F1638906489306F00963F3E648294779
:1051C4002386E18C03C7C19E05CB03C7B1A283C666
:1051D40041A262076187558F83C6A1A2558F6207DA
:1051E400618719EB2D45EFE06FF4B7670050C0C736
:1051F4001305C05DEFC09FB583C674021307F00F9B
:10520400639BE60203C7A1A21DE703D741A305E7F9
:1052140003A7819E8566938646CE3307D7028566AB
:1052240091063347D7021377F70FA383E40223824F
:10523400E18AEFC04FA20D4733C7EC0223AEE19ED3
:10524400038751A53DCB29476379770703A6C19FFF
:1052540003A7419E83A6C19F118F1356F741318F37
:105264008582118F63F5E60483A6C19F1307F07C42
:10527400636FD70203C7319E23AC01A20507A38144
:10528400E19E03C7240119E783D641A31307F00263
:105294006366D70003A7418D6374EC00238501A2E4
:1052A400A386818C03D7218C05832394E1A203A7D1
:1052B400C19FA38A01A423A2E19E03C7219E630E7A
:1052C400073883D6E19D8398419F8395219F03D717
:1052D400C19D130969063307970303D3019E33560F
:1052E4002703138781D7230067002301D70013D333
:1052F400860093960801C182A182A301D7009396E8
:105304000501C182A182A302D7002302170123034E
:10531400B700A30067008145138881D7A548931679
:105324000601C182A182A303D7002304C700014759
:10533400B306B80083C606002146358F931687014D
:10534400E18663D80630860693C6760013F7F60F17
:105354007D161376F60F7DF28505E39B15FDA304F8
:10536400E800930600203717004054DB37560150FD
:105374000147A946B305E80083C5050005070CC22B
:10538400E31AD7FE2381019E03C7A19D631B8716E1
:105394001387C19B83552700035847008356070092
:1053A4002392B19C239CD19C2391019D37060240FA
:1053B400584237050080498F58C2135668001315A8
:1053C400260019670506130747A60A063A95329779
:1053D400084118431376F8033307E5403307C7023F
:1053E400130600043347C7023307E5402390E19EC8
:1053F4000567130747CEB386E60205677D1703C624
:10540400619C1388C1DA131E1600729803580800B1
:105414000506B3C6E6021307F0091376F60F1385E3
:10542400C1DAB386E60213074006B3C6E602239F39
:10543400D19C03A7819C2E973307074113081003BF
:105444006373C80001462383C19C1306200323A46D
:10545400E19C3357C70272952310B5001305C0F9B8
:105464004207418323A4E19E0566130646CE330713
:10547400C702130690023347C70203C6418A3306A4
:10548400A60232973D463347C702239AE19E42075C
:1054940041833A864207418763530700014603C7A5
:1054A4004402239AC19E6318871C0387619D83D598
:1054B400218AC206C1823307B70263D7E61A03D72B
:1054C400419D0507239AE19C0387C1A3F97693863E
:1054D40046953307D70203D6419D896693860671A4
:1054E4003697635EC7002389819C239A01A2EFC08B
:1054F4009FEAEFC0DFAB238501A2A38501A2238D20
:10550400019C0387C1A3631207188386718A03A7CA
:10551400C1A0372809001308087C3348E80283CB6C
:10552400A1A233880B03420813580801239E019D4E
:105534001307007D99CE29453355A80283D6818A65
:1055440003D6E18983D5018AEFC04FF9131705010A
:10555400418383C5B402239DE18A1307F00F63805E
:10556400E5020395019E63DCA5001386A5000547AB
:105574009306803ED915EFC06FF6239DA18A83A6BA
:1055840081A3130730066369D70083A6418D1307EF
:10559400401F3145636ED70003A5C19F31478D4637
:1055A4001306401F93054006EFC04FF31375F50F24
:1055B40003A6418DA388A18C9306100363E5C6005E
:1055C4008946A388D18C03C7F40209CF03D5E1A38C
:1055D4005D47B5461306007D93054006EFC00FF006
:1055E400A388A19CEFE02FBD2D67130787FCE3740C
:1055F400A7962388019CE3908B9683C64401A387D6
:10560400D19C03C761A30507238BE1A2EFC03F9A96
:10561400A386818C83D641A31307F0026369D70064
:10562400056713078738238501A223AAE18C23ACDD
:1056340001A2EFE0EFCA6FF01F92E3F676B7CDB4A4
:10564400238B01A293065009E3EBE6B61307400649
:1056540085BE06071377F70FE5B98386B19DE38509
:1056640006D2A38D019C0DB30387219DE31E07E49D
:10567400239A019C91BD8945E318B7E4C20603C788
:105684008400C182930520033DB583DC41A3130745
:1056940000036378971503C7B1A263040714138743
:1056A400FCFC4207238D819C41839306700563E6CD
:1056B400E60A0387E19C31CFB7260150984A759BCF
:1056C40098CAEFC0DF8E37C70050144FC206C1829C
:1056D40014CF544FC206C18254CF37D70050144F51
:1056E400C206C18214CF544FC206C18254CF37E7D9
:1056F4000050144FC206C18214CF544FC206C18257
:1057040054CFEFC0DFBEEFC09FB8EFC0FFC3238705
:10571400019CEFB05FDD03C6B40189661307A032B4
:10572400938686B53347C702930500036685B3C6DF
:10573400C60213068007EFC06FDA93140501C18017
:10574400239EA1882685EFC0EFDC1307802533470D
:105754009702239EE19C6FF01F802387819CEFB00A
:105764009FD81307800C6378970113070005239FC4
:1057740001A0239EE18803D5C189EFC0AFD9039767
:10578400E1A1631A07FC238581A2A386818C0967A2
:105794001307873223AAE18C23AEE19E83A6C19F1F
:1057A400238E01A223A2D19E379706001307077800
:1057B40023A4E1A43737015023220700514723AC27
:1057C400E1A2238A01A49546A38CD18C03C7D401FA
:1057D40009C783D6C18A2394D1A2EFC07FC16FF0D9
:1057E4008FF703C5C4012387819C238501A2631D10
:1057F400850803C794029306800C13060083B386BE
:10580400E6022391D1A203D7A18AB386E602B3C6E6
:10581400C602369793140701C1802396919C1307FF
:10582400300663689700EFC0DFCF239E019C6FF0C2
:105834008FF2EFC01FA437C60050144E1397040113
:10584400C206C182D98E14CE544EC206C182D98EEC
:1058540054CE37D60050144EC206C182D98E14CE0F
:10586400544EC206C182D98E54CE37E60050144E2F
:10587400C206C182D98E14CE544EC206C182558F3F
:1058840058CE238A81A455B709476319E506EFC0AA
:105894007FB183D6A18A03C7C40037C6005033073B
:1058A400D7029306007D3347D702A9463307D702B0
:1058B400144EC206C182130787024207D98E14CE42
:1058C400544EC206C182D98E54CE37D60050144EDF
:1058D400C206C182D98E14CE544EC206C182D98E5C
:1058E40054CE37E60050144EC206C182D98E14CE6F
:1058F400544EC206C182558F58CE05BF37C70050DB
:10590400144FC206C18214CF544FC206C18254CF71
:1059140037D70050144FC206C18214CF544FC20669
:10592400C18254CF37E70050144FC206C18214CF4E
:10593400544FC206C18254CFEFC0FFA5FDB5F32773
:10594400203463CD070023A0F1967327103423AECF
:10595400E1947327303423ACE19401A06FB01FD0DD
:105964002A8311C62300B3007D16050365FE8280D9
:105974002A8309CA83830500230073007D16050367
:0659840085056DFA82802A
:10598C00481A0000541A0000581A00005C1A000053
:10599C00601A0000641A00006C1A0000781A0000EB
:1059AC00841A00008A1A00004E1A0000921A000095
:1059BC00A01A0000B81A00004E1A00004E1A00007F
:1059CC004E1A00004E1A00004E1A0000C41A0000B5
:1059DC00D21A00004E1A00004E1A00004E1A000097
:1059EC004E1A00004E1A00004E1A00004E1A00000B
:1059FC004E1A00004E1A00004E1A00004E1A0000FB
:105A0C004E1A00004E1A00004E1A0000D81A000060
:105A1C00C2230000CC230000D6230000DC230000AE
:105A2C00E2230000EC230000803200008A320000E8
:105A3C009032000096320000803200001F0F0703E6
:105A4C00010010181C1E0000191B12131D1516172F
:105A5C001A090A0B1E0D0E0F4E030000C5000000A4
:105A6C009B00000085000000770000006C00000027
:105A7C00640000005D0000005700000052000000B0
:105A8C004D000000490000004500000042000000ED
:105A9C003F0000003C000000390000003600000010
:105AAC0034000000320000002F0000002D00000028
:105ABC002B0000002900000027000000250000003A
:105ACC002300000022000000200000001E00000047
:105ADC001C0000001B000000190000001700000053
:105AEC00160000001400000013000000110000005C
:105AFC000F0000000E0000000C0000000B00000066
:105B0C00090000000700000006000000040000006F
:105B1C000200000000000000FFFFFFFFFDFFFFFF81
:105B2C00FBFFFFFFF9FFFFFFF7FFFFFFF5FFFFFF95
:105B3C00F2FFFFFFF0FFFFFFEDFFFFFFEAFFFFFFAC
:105B4C00E7FFFFFFE4FFFFFFDFFFFFFFDAFFFFFFD1
:105B5C00D4FFFFFFC9FFFFFF9BFFFFFFB400B7009F
:105B6C00BA00BD00C100C400C700CA00CD00D000FF
:105B7C00D300D600D900DC00E000E300E600E90029
:105B8C00EC00EF00F200F500F700FA00FD00000158
:105B9C000301060109010B010E011101130116018C
:105BAC0019011B011E0120012301250128012A01D5
:105BBC002C012F0131013301350138013A013C012F
:105BCC003E014001420144014601470149014B019C
:105BDC004D014E0150015101530154015601570121
:105BEC0058015A015B015C015D015E015F016001BE
:105BFC006101620163016301640165016501660174
:105C0C006601670167016701680168016801680145
:105C1C006801680168016801680167016701670133
:105C2C00660166016501650164016301630162013E
:105C3C00610160015F015E015D015C015B015A0164
:105C4C0058015701560154015301510150014E01A5
:105C5C004D014B01490147014601440142014001FC
:105C6C003E013C013A0138013501330131012F016C
:105C7C002C012A0128012501230120011E011B01F1
:105C8C0019011601130111010E010B010901060185
:105C9C0003010001FD00FA00F700F500F200EF002F
:105CAC00EC00E900E600E300E000DC00D900D600DF
:105CBC00D300D000CD00CA00C700C400C100BD0095
:105CCC00BA00B700B400B100AE00AB00A700A4004E
:105CDC00A1009E009B009800950092008F008C0004
:105CEC008800850082007F007C00790076007300BC
:105CFC0071006E006B006800650062005F005D0063
:105D0C005A005700550052004F004D004A00480001
:105D1C004500430040003E003C0039003700350090
:105D2C00330030002E002C002A002800260024000E
:105D3C00220021001F001D001B001A001800170074
:105D4C00150014001200110010000E000D000C00C4
:105D5C000B000A00090008000700060005000500FA
:105D6C000400030003000200020001000100010016
:105D7C000000000000000000000000000000000017
:105D8C0000000100010001000200020003000300FA
:105D9C0004000500050006000700080009000A00C1
:105DAC000B000C000D000E0010001100120014006E
:105DBC001500170018001A001B001D001F00210001
:105DCC0022002400260028002A002C002E0030007F
:105DDC0033003500370039003C003E0040004300E2
:105DEC00450048004A004D004F0052005500570036
:105DFC005A005D005F006200650068006B006E0079
:105E0C0071007300760079007C007F0082008500B1
:105E1C0088008C008F009200950098009B009E00DB
:0C5E2C00A100A400A700AB00AE00B10074
:0C5E38000000E149000080420000003F33
:105E440002000000204E000020070800000150C39B
:105E540010060200DC056C074C04D0076400460001
:105E640014004A010F0606019001CF0728002800FC
:105E7400280000002800CF07D007D007C800D007AB
:105E84002800780010270000E80300000A01DC0560
:105E940064050000D43000000101010000F000009E
:105EA40000000000010000000000000032000000BB
:105EB40000000000000000000000000000000000DE
:105EC4001027000050C300000000000090010000F3
:105ED40000000000E80300000000000000000000D3
:105EE4000000000000000000204E0000A086010019
:105EF400000000000A000000000000006400000030
:105F0400000000000000000000000000000000008D
:085F14001027000050C300003B
:0400000300001000E9
:00000001FF
