:10100000004000208D450000193D00001B3D000000
:10101000D9450000D9450000D94500000000000076
:10102000000000000000000000000000D9450000A2
:10103000D945000000000000D94500008D150020B2
:10104000D9450000D9450000D9450000D945000028
:10105000D9150020D9450000D9450000D945000028
:10106000D9450000D9450000D9450000D945000008
:10107000D94500006D160020D9450000D945000073
:10108000D945000095160020D9450000D94500003B
:10109000D945000059160020D9450000D945000067
:1010A000D94500005D150020D9450000D945000054
:1010B000D9450000D9450000D9450000D9450000B8
:1010C000D9450000D9450000D9450000D9450000A8
:1010D000D9450000D9450000D9450000D945000098
:1010E000D9450000D9450000D9450000D945000088
:1010F000D9450000D9450000D9450000D945000078
:10110000D9450000D945000091150020B5160020F2
:10111000D9450000D9450000D9450000D945000057
:10112000D9450000D9450000D9450000D945000047
:10113000D9450000D9450000D9450000D945000037
:10114000D9450000D9450000D9450000D945000027
:10115000D9450000D9450000BFF34F8F0549064B24
:10116000CA6802F4E0621343CB60BFF34F8F00BF45
:10117000FDE700BF00ED00E00400FA058A1A036AEB
:10118000816830B5044602600069656801FB0200B1
:101190009842A8BF18465B429842B8BF1846A36958
:1011A000E1682061D31A4B43C4E90532616A05FB4B
:1011B000023318448842A8BF084649428842B8BF53
:1011C0000846E06130BD00002DE9F341AE4BAF4C65
:1011D0001968C022204602F056FB6278A378511E9F
:1011E000032903D8013BDBB2FD2B04D90C2002F00C
:1011F0001BF9FFF7B1FF022A12D8A0236371012364
:10120000A37100230A22E371A37223736373A37390
:1012100032232272E373642205236272E272237422
:1012200094F82730E07B5A1ED2B2FD2A88BFFF23F4
:10123000974A84BF84F827300F231370A27B431E84
:10124000012A88BF0022DBB288BFA273F92B237C5E
:1012500003F1FF3188BF3220C9B288BFE073F9299A
:10126000617B84BF05232374092984BF0021617336
:1012700088490A70627CA17D012A84BF00226274C1
:10128000A27C012A84BF0022A274E27C012A84BFCE
:101290000022E274227D012A84BF002222750129E6
:1012A00084BF0021A17594F82F10012984BF00216B
:1012B00084F82F1078490A70C82110FB01F2774892
:1012C0000260774A13FB01F31360E37D2A2B00F2DF
:1012D000D1801A1F052A40F2CD80032B9DBFDB0071
:1012E000DBB203F10A020A3B94BFE275DBB26D4A3E
:1012F0001370237EA3F10802D2B2882A00F2BC80C8
:10130000642213FB02F30622B3FBF2F2664BB3FB3B
:10131000F2F3664A1380664A664D136102F5805205
:10132000136102F580521361A3795A1E312A94F891
:10133000302098BF03EB830302F1FF3194BF5B00C1
:10134000002363292B8000F29B8002EB8202920033
:101350009A4238BF1A465849584F0A80627E584E02
:10136000DFF88081A2F13201642994BFD2181A46B5
:1013700003F5C8733B80A37EA8F8002003EB83032A
:10138000DB0014333380E37E023B1E2B88BF0E2329
:101390004FF0020088BFE37601F0C0FE6378002BB7
:1013A00000F01D81A07F0B2888BF052001F0B6FE4C
:1013B00094F82030434A03F277135B00138094F8CB
:1013C0002130414A03F26B335B00138094F82230E2
:1013D0003E4A03F25E5313803D4B94F823201A706B
:1013E00094F825303B4AFA33138094F8283094F867
:1013F0002A20053B142B84BF052384F8283094F859
:101400002930013B092B84BF0A2384F82930531E5D
:10141000082B69D90A2384F82A3094F82B30463BEC
:10142000462B84BFFF2384F82B3094F82C30013BEB
:10143000632B9EBF284B01221A70627A274B520001
:101440005A60A27A9A60E27A5200DA6094F82D30FB
:10145000013B092B84BF052384F82D3094F82E30EE
:10146000092B00F28B80042B6FD8DFE803F087692B
:101470007B6E7F0010233AE7194A40F2CF7349E7A9
:101480004FF4FA6267E700BF24030020101D00201C
:10149000A0030020D01D0020ED1C0020A803002088
:1014A000A4030020FE1C002070330C00F202002078
:1014B00000C00440FA020020F8020020FC020020D4
:1014C0001C0300201403002012030020100300203E
:1014D0000E0300200C030020EC1C00205003002011
:1014E000F4020020020300204A4B1B68C2EB4211A9
:1014F000C2EB81026A3B03EB4203DBB2C82B4649D5
:101500008ABFC8221A4613460A70B8F80020434919
:101510001A44A8F800202A881A442A800A881A4403
:101520000A803A881A443A803D4A5363936302F52D
:1015300080525363936302F58052536393636CE765
:10154000384A01231370384A13706379374D38488D
:101550003849394A092B18D809272F7003700B70A6
:10156000137022E0354B01221A70EEE7344A012352
:1015700013702D4A002111702A4AE5E7294A0023F9
:1015800013702E4A1370284BEDE700272F700A25A1
:10159000B3FBF5F30578AB4238BF0370087883429C
:1015A00038BF0B7011788B42DAD333882548B3F5F6
:1015B000967F3EBF244A00211170244A2021D27E0A
:1015C000B1FBF2F16422B3FBF2F2B2FBF1F2028062
:1015D0000C22B3FBF2F31E4AB3FBF1F313804FF47A
:1015E000FA73009340F6B8324FF47A7330884FF4B0
:1015F000967101F073FC174BA27C1880164B2AB130
:101600004FF47A721A6002B0BDE8F0814FF4FA62CA
:10161000F8E700BFE00200201A030020EA020020E1
:1016200000C00440111C0020841E0020091D002061
:1016300021030020200300201F030020101C002095
:10164000851E0020EE02002006030020101D002051
:10165000EC020020080300200C1D0020024B034870
:101660001A68C02102F0D6B824030020101D002003
:1016700070B50D490D4C0E4B0A780E4D1E88206832
:1016800035F8123025F812603044C01A531CDBB212
:10169000322B28BF002320600B703223B0FBF3F005
:1016A000054B80B2188070BD981C0020941C00204F
:1016B000A61C0020301C00209A1C002008B501F058
:1016C000ABFF0C4B93F900302BB130B90A4A1378B9
:1016D0000133137008BD0028F8D1084A137801338C
:1016E000DBB21370064A12789A42F3D2024B002200
:1016F0001A70EFE7E40200200A1C00201C1C0020E6
:101700000700002010B5214B214C93F900202378CD
:10171000012A2AD101335BB2062BC9BF1D4B2370AE
:101720001A701346C8BF2270002B03F00103B8BF24
:101730005B42194A137072B6184B93F900301BB90B
:1017400094F9000002F035FA62B601F0C9FF144ABC
:1017500000231370134A1370134B144A196894F939
:101760000030013B22F8131010BD013B5BB2002B8F
:10177000DBBF0623074A23702370D8BF01216FEA1D
:101780000303D8BF117003F00103D2E70A00002061
:1017900004000020C81C0020E4020020A01C00203F
:1017A0000A1C00200B1C002000000020BC1C002094
:1017B00010B5094C23785BB9FFF7A4FF074B42F241
:1017C000107241F288301A6002F008FD0123237084
:1017D000BDE8104001F06EBF2E1C0020000000206C
:1017E0002DE9F74F784D794CAB7C794F002B00F009
:1017F000D982DFF8108298F90000002877D095F898
:101800002630002B40F02D8223889BB2B3F5836FE6
:101810002DD370496B7C91F900209A421BD16E4AFE
:101820006E4812680088904203D26D4A1288C72A17
:1018300004D997F90020002A00F0B082C3F1010317
:101840000B70684B00261E60674B01221A7001F076
:1018500009FF664B1E702388654A9BB292F90020EF
:101860005B006FF400610B449B1A624A138023886B
:101870009BB2B3F5836F2FD223889BB22F2B2BD92A
:10188000544A697C92F90000C1F10103984219D1D0
:10189000514B52481B680088984203D2504B1B881A
:1018A000C72B04D997F90030002B00F079824D4BFB
:1018B000117000261E604C4B0120187001F0D2FE02
:1018C0004A4B1E7023884A4A9BB292F900205B0063
:1018D000313B9B1A474A138023889BB22F2B00F27F
:1018E000B580444A00231380404A1370AEE0424E54
:1018F00095F826303178490001F57A71002B00F017
:101900001F8123889BB28B422FDDDFF8C8C06A7C21
:101910009CF900309342394A23D1DFF8D8E0AEF881
:1019200000004FF0010E82F800E0DFF8D4E09EF9ED
:1019300000E0BEF1000F18D0C3F101038CF80030B5
:1019400010702F4B208800221A7040F2FF73009312
:101950004FF4FA622F2380B201F0C0FA254B1880B1
:1019600003E092F90030002BEBD03278238852004C
:101970009BB2C2F57A7293424ADADFF858C095F802
:1019800011E09CF90010CEF1010399421B4B3BD1B1
:1019900018480021018001201870194890F90000B2
:1019A000002835D08CF800E01970154B20880021F4
:1019B00019702F23009380B240F2FF7301F08EFA6A
:1019C0000C4B188024E000BF101D0020141C0020C8
:1019D000251C00200A000020000000200803002031
:1019E000041C00200C1C0020E7020020DA1C002050
:1019F000FF0200209C1C00200E030020A01C0020E1
:101A0000F81C0020111C002093F90030002BCCD0D2
:101A1000337822885B0092B2C3F57A718A4210DB78
:101A2000228803F57A7392B29A420ADCA24B002212
:101A30001A80A24B93F9001019B11A70A04B012221
:101A40001A7098F90030002B7FF4D9AE9D4E9E4B52
:101A5000327893F900309A4240F3A881AB7D002B95
:101A600000F0A48102F09CF801F0FCFD974B0022ED
:101A70001A806623337097F90030002B40F04682BD
:101A8000934B1B78002B00F04182EB7CDFF83C92FB
:101A9000DFF82882DFF870A28E4E2E22502113FB31
:101AA0000123B9F800209342C0F2F981DFF85CB25B
:101AB0009BF90030002B40F030822A7D9AF80030EC
:101AC000002A40F0B682328053B9834A0121117056
:101AD000824A13602B7F002B00F0368202F09AF8C6
:101AE00095F82630002B00F00C8298F90030002B7E
:101AF00040F03282B9F800102E2900F2F382784BC0
:101B000032881B889A4288BF3380764B93F9003025
:101B100033B1754B3288B3F900309A42C8BF338075
:101B2000724B1B68002B40F3F1812F2940F2EE81AC
:101B300042F2107293FBF2F3328813443380E5E1F2
:101B400023889BB28B4233DD694A6B7C92F900108B
:101B500099421DD16749684809680088884203D2C4
:101B600066490988C72903D997F90010002970D060
:101B7000C3F101031370594B4FF00009C3F80090F3
:101B8000554B01221A7001F06DFD5D4B83F80090FA
:101B90003178208840F2FF73490000934FF4FA62D5
:101BA0002F2301F57A7180B201F098F9424B188029
:101BB000337822885B0092B2C3F57A739A4232DAA4
:101BC0004B4B6A7C93F90000C2F1010188421BD1A2
:101BD0004849494809680088884203D2474909882A
:101BE000C72903D997F90010002936D03B491A704C
:101BF0004FF00009C1F8009037490120087001F04A
:101C000031FD3F4B83F80090327820882F2352001B
:101C10000093C2F57A7240F2FF73002180B201F0A6
:101C20005DF9254B1880337822885B0092B2C3F5AA
:101C30007A718A42FFF605AF228803F57A7392B271
:101C40009A423FF7FEAE1C4A002313802C4A1370C1
:101C5000F7E64FF47A7323809AE74FF47A73238080
:101C6000D2E723889BB2B3F5836F55D320486A7CB3
:101C700090F900309342114A4AD10F4E0021318031
:101C8000012616700E4E96F90060002E44D0C3F166
:101C90000103037011700A4B00221A702388194A3D
:101CA0009BB292F900205B006FF4006003449B1A22
:101CB000014A138030E000BF9C1C0020A01C0020C3
:101CC000F81C00202F1C002000030020161C002000
:101CD0001A1C0020CA1C0020E70200200C1C002057
:101CE000F0020020EC1C00200A030020E81C002069
:101CF0000A0000200000002008030020041C00202F
:101D0000DA1C0020FF0200202E1C0020C91C00202D
:101D100092F90030002BBED023889BB2B3F5836FBD
:101D200029D223889BB22F2B25D9A449687C91F90D
:101D30000020C0F101039A42A14B18D1A14E00220C
:101D4000328001261E70A04E96F900609EB1087088
:101D50001A709D4B00221A7023889C4A9BB292F9FC
:101D600000205B00313B9B1A964A138003E093F9F5
:101D70000030002BEDD023889BB22F2B3FF666AEB0
:101D8000904B00221A808E4B93F9001000293FF4EB
:101D90005DAE1A708C4B01221A7057E622805AE50C
:101DA00023808FE5874B22881A804FE695F81380B1
:101DB000B8F1000F2ED0834E30881D2816D8844BE2
:101DC00000221A8095F82830308803EB8303B0EBAB
:101DD000830F4FEA8301FFF64EAE40F2FF72A0235D
:101DE000009201F07BF87A4B188044E61E28E9D077
:101DF00095F8283003EB8303B0EB830F4FEA83029F
:101E0000E0DAA02300931E212F2301F067F8704B26
:101E10001880D7E76F4B6E4E93F90030002B3BD004
:101E20006D4BDFF8E4911B7813B36C4BDFF894A192
:101E30001B6800936A4BBAF800001B6840F2FF72FF
:101E40002F2101F04BF8EA7E664B93FBF0F352082A
:101E500093FBF2F3644A1380BAF800302E2B07D8B4
:101E6000624BA6F80080C3F80080C9F8008002E643
:101E7000D9F8003042F2107293FBF2F39BB2B3F543
:101E8000006F338003D340F2FF733380F3E52F2BD1
:101E90003FF6F1AD3023F8E74A4B1B88F5E79AF897
:101EA000003073B901F07CFE514B93F900300BB94F
:101EB000FFF77EFC01238AF800304E4B1A884E4B08
:101EC0001A804E4A4E4BE97C1288B9F800001B88F4
:101ED0000092F1B1283340F2FF72892100F0FEFF39
:101EE00095F8263080B230800BB988F80030EB7C52
:101EF0002E22502113FB0123B9F800209342BFF694
:101F0000D5AD98F90030002B3FF4F4AD03B0BDE837
:101F1000F08F40F2FF722F21E0E7013B042B06D83F
:101F2000DFE803F003090C0F030001F0BDF9002303
:101F30008BF80030C1E501F0F7F9F8E701F034FA69
:101F4000F5E701F019F9F2E798F90030002B7FF47A
:101F5000C7AD01F025FEC3E5DFF8B0A0294F9AF91F
:101F60000030ABB123889BB2B3F5836F50D3238885
:101F70009BB2B3F5836F18D323889BB26FF40062D2
:101F80005B001344114A92F900209B1A3B800CE03D
:101F900021884FF47A7089B200F0BEFF9AF90030C0
:101FA00000F57A703880002BDCD13A8840F2CE738D
:101FB0009A423BD901F02EFEA3E700BF0A000020A1
:101FC000A01C00209C1C0020F81C0020FF02002008
:101FD000161C0020F41C0020D01D0020A8030020A7
:101FE000A403002000879303F61C00207803002040
:101FF000E702002002030020CC1C0020F802002091
:10200000FA020020061D0020F01C0020111C0020F8
:1020100023889BB22F2BAAD923883D4A9BB292F9E1
:1020200000205B00313B9B1A3B80A0E701F070FC75
:1020300067E7EBB9374A2C7F01211170364A1360EC
:10204000364A1370002C46D0EB7C8BB98C420FD1F2
:1020500095F82930324A03EB830303EB8303DB005B
:102060009BB2138040F2CE7293422FD901F0D2FD81
:102070002C4B2D4993F90030013BC3EB03122B4B42
:102080001B8803EB82039AB21BB2B3F5B47FA2BFE5
:10209000A2F5B4739AB21BB20B8002F177031BB2A4
:1020A000B3F5B47F224919DA0B8002F1EF031BB2BA
:1020B000B3F5B47F01DB793A13B21E4A1380EB7C8F
:1020C000012B08BF3B70002333801AE701F020FC8E
:1020D00088F80040CCE701F063FDC9E7A2F1F10305
:1020E0000B80E8E76A7F1E2313410B4A1268934274
:1020F0007FF605AD104A338812889A4284BF328039
:1021000013460E4A12889A4238BF3280F7E400BF65
:10211000FF020020E70200200C1C00201C1C0020F5
:10212000061D0020040000202A1C002016030020A9
:10213000281C0020261C002002030020FC02002096
:1021400010B5114C2378012B03D102F055FB00236D
:1021500023702378022B13D10C4B1868B0F5803F05
:1021600006DB4FF6FF7002F04FFB0023237010BD1B
:1021700064304FF6FF73984228BF184680B2F2E7EA
:10218000BDE81040FFF72CBBFF1C0020B01C002056
:102190002DE9F84F3F49404A91F9001013883F4D0F
:1021A0003F4C00295DD101331BB2B3F5B47FA8BF0A
:1021B000002313802B8801331BB2B3F5B47FA8BF73
:1021C00000232B80238801331BB2B3F5B47F5EDA82
:1021D0002380DFF8D4B0B2F90030DFF8D0A03BF9AB
:1021E0001300DFF8CC90BAF800302E4F1844B9F83D
:1021F0000030584397F82D304FF4FA680A2690FBC8
:10220000F8F0584390FBF6F080B201F05BFEB5F9B0
:1022100000303BF91300BAF800301844B9F8003028
:10222000584397F82D3090FBF8F0584390FBF6F0A8
:1022300080B201F053FEB4F900303BF91300BAF854
:1022400000301844B9F80030584397F82D3090FB0F
:10225000F8F0584390FBF6F0BDE8F84F80B201F07B
:1022600049BE013B40F267111BB233EA230328BF8A
:102270000B4613802B88013B1BB233EA230328BF94
:102280000B462B802388013B1BB2002BA0DA218058
:102290009FE700BF0A0000202A1C0020281C002005
:1022A000261C0020101D00200E0000200800002029
:1022B000F202002070B501F087FF254D254C2880E3
:1022C000002001F08BFF22682B88234E234D02EB68
:1022D000420213449B082360214B22681B7853431E
:1022E000204AC3F38F1313802268C3EB5203338059
:1022F00001F06AFF3388834202D92B68042BF7D898
:10230000FFF700FA184A00231370184A1370184A8E
:102310002B68117801332B6059B9517F92F8262030
:1023200011430FD0132B03D92368B3F5FA6F02D9E9
:1023300070BD022BFCD90F4B00221A70BDE8704013
:1023400001F0B8B90C4B22681B689A42F0D2F2E750
:10235000061C002000000020021C00200C1C002095
:10236000FE1C00202C1C00200A1C00201C1C00202D
:10237000101D0020E70200200C1D00202DE9F04F69
:102380009249934B934A89B00B44136002F0CCF806
:10239000102291490DEB020001F075FA9DF91430FD
:1023A000382B8E4B40F0088128221A601A688C491D
:1023B0008C4D8D4E8D4F8E4C2A7093B20B80338096
:1023C0003B8001F0ABFC02F099F801F09FFDFEF7B5
:1023D000FBFEE378022B05D12379032B02D163782E
:1023E000032B07D80223E3700323237104236370B4
:1023F000FFF734F97F4A2B785363936302F58052D9
:102400007D4D5363936302F5805253639363637C02
:102410007A4A013B18BF01231370794B1B882B802C
:10242000237D03B9E37494F82630BBB1754B76492C
:102430004FF47A721A800023E37463756373237513
:10244000A37533883233012233803B88A2740A702B
:102450006E4A32333B801388323313806C4B002634
:102460001E8001F0A5FD6B4B4FF0FF32DA6002F0E9
:10247000C7F9694B1B781BB1684BE67401221A70CF
:1024800001F044FADFF8BC81654A664E5188138832
:102490000B4491880B44D1880B44118952890B4419
:1024A00013445B100233C8F800303368042B00F289
:1024B0008A80A37C002B14BF07230C235A4A137075
:1024C0005A4A1370534B4FF0FF32DA60637D012B91
:1024D0000AD1574B18684A4B1B880093C8225B08E7
:1024E000602100F0FBFC2880637DDFF85C91022B0B
:1024F00021D1D9F80030F92B09D8D9F80030642B54
:1025000081BFD9F8003003EB83035B002B80D9F83F
:102510000030632B05D8D9F8003013B14FF47A732B
:102520002B80D9F80030F92B02D8D9F8003013B934
:1025300040F6C4132B803F4B1B8842F2107293422B
:1025400040F2C080DFF804B19BF800204FFA82FA15
:10255000002A7DD001F024FB374B00241C80374B30
:102560008BF800401C702A4B1C80224B9A6964F344
:102570001F429A61DA6964F31F42DA6103F58053FE
:102580009A6964F31F429A61DA6964F31F42DA615F
:1025900003F580539A6964F31F429A61DA6964F320
:1025A0001F42DA6101F07CFC25484FF4807221461D
:1025B00002F00CF9FEF7D0FD9DF91320312A7FF4CB
:1025C000F5AE5022F1E6062378E700BF00000008D0
:1025D00000F0000024030020E0EF0000E0020020F3
:1025E000080000201A030020FA020020F602002052
:1025F000101D002000C00440F40200200A0000204A
:10260000F2020020EA02002006030020020300205C
:10261000181C002000300440D01D0020F41C0020B5
:10262000BC1C00200C1C002006000020050000201F
:1026300000000020001C0020161C0020121C00209E
:10264000C8180020B01C0020B81C00201A1C002054
:1026500049F64042934235D901F0A2FA2C4B8BF84F
:1026600000A0A3F800A02B4B83F800A02A4BA3F8EE
:1026700000A02A4B9A696AF31F429A61DA696AF3E9
:102680001F42DA6103F580539A696AF31F429A6127
:10269000DA696AF31F42DA6103F580539A696AF3D3
:1026A0001F429A61DA696AF31F42DA6101F0F8FBAE
:1026B0004FF4807251461A4802F088F80A2000F060
:1026C000B3FE77E7174A118844F62063994212D97E
:1026D000154B1648B3F900304FF4B4711B0493FB4B
:1026E000F1F301680B44036000231380104A137850
:1026F0000BB1013B137032680E4BB2F57A7F1B8829
:102700001CD90D4A00211170C72B1ED920E000BF33
:10271000161C0020121C0020181C002000C00440C1
:10272000C8180020D81C0020CE1C0020D41C00207B
:10273000FA1C00209C1C00202F1C0020002B40F0C5
:1027400007818C49642A0B7002D98A4A00211170D2
:10275000E27C22B19F2B9EBF864A00211170864ADF
:1027600092F90020002A00F0F780B3F5C87F02D26A
:10277000804B00221A70814B1B78ABB1804B814A91
:102780001B7812785BB213437F4A127813435BB213
:1027900053B90B2000F048FE7C4B4FF0FF32DA605B
:1027A00040F2DC5000F0D2FB94F82730FF2B15D11B
:1027B000754B1B7893B9764B1B887BB9754B1B689F
:1027C00040F6E442534341F2040293FBF2F3724AAF
:1027D000DBB284F827301370FEF740FFDFF800B259
:1027E000D8F80030032293FBF2F3C9F800309BF9CC
:1027F0000030002B37D033680A2B34D9DFF8E4A13E
:10280000D9F80010DAF8000000F086FBD9F80030A3
:10281000B0EB530F20D9D9F80030B3F5FA6F1BD2C3
:102820005E4A00233360137801331370A37C1BB915
:10283000574B1B882F2B04D8594B1B68B3F57A7F55
:1028400002D9514B00221A70564B01221A70564B76
:102850001B88D340554A138000238BF80030D9F8E9
:102860000030CAF80030DFF8809199F800305AB291
:10287000002B78D04E4BD8F800201B884D494E488D
:1028800053436432B3FBF2F39BB200934B4A4C4B7D
:1028900012885B88098890F9000000F0FDFD0A208D
:1028A00001F0CAF9002389F80030DFF8409199F867
:1028B0000030012B40F0C48000F008FE4FF0804251
:1028C00000205368DFF8ECB043F00043536000F0A1
:1028D00029FE394B18803B4B1B8840F6E44A40F6F2
:1028E000FF710AFB03F3B3FBF1F3374909884B434C
:1028F0006421B3FBF1F3ABF80030FEF7B9FE254BD2
:102900001860254B1B7829220AFB00F0B0FBF2F07F
:102910004FF69C7213FB02030F2293FBF2F3274A3C
:102920001BB223EAE373138094F82420274B012A77
:1029300040F02B81264A274892F900200088BBF8F6
:1029400000104243914253DA1A8801321A8054E04F
:10295000642A7FF6FDAED7E6952B98BF64221E4B06
:1029600088BF0A2206E71D4B93F9001000299CD06E
:102970001A709AE72F1C0020E21C0020D51D0020B1
:102980001A1C0020C91C00202E1C0020003004400E
:10299000161C0020D01C0020A0030020E31C0020F7
:1029A00000000020E702002002030020CC1C0020D1
:1029B000201C0020DC1C0020AC1C0020CE1C0020B1
:1029C000D41C0020A81C002004030020E01C0020D0
:1029D000DB1C00200C03002000030020081D002049
:1029E000C81C0020B41C0020A11C0020A21C002038
:1029F0009E4A92F90020002AA8D01A889C4B9D4933
:102A000093F9000042F2107301FB00339A4214DD87
:102A1000964B01221A70984B4FF0000BA3F800B0B0
:102A200001F0BEF800F01EFE944B83F800B0944B0A
:102A3000A3F800B0934B83F800B0002389F800306E
:102A4000914A8B4B4FF0000A82F800A093F90020C6
:102A5000002A40F0A980DFF824A2D8F800209AF8D4
:102A600000008A4B93FBF2F310FB03F0884B80B21B
:102A700018800A23B0FBF3F0864B1880864B93F93D
:102A80000030002B00F08B80844B854A1B8800931C
:102A90008449854B12881B88098800F01FFA80B290
:102AA00094F82B10DFF83892FF29A9F8000010D015
:102AB0007E4BB3F9000088420BDD784B1B88012266
:102AC0000092D34001F10A020A3900F007FAA9F88E
:102AD00000003368DFF80492632B04D8D9F8003083
:102AE000B3F5FA7F5ED8724B18680C2300934FF44D
:102AF000FA720323642100F0F1F9C0B2D9F8002082
:102B00006C4B312A98BF0222187098BF1A7094F843
:102B10002F305BB117236848009300880D234FF4D2
:102B2000FA62642100F0DAF9644B187001F04CFB92
:102B30004AF6C87398427FF6A7AC9AF80020604B1B
:102B40004FF0000B012A83F800B07FF49DAC5D4B81
:102B5000217D19705C4903920B7801330B7000F0F2
:102B600081FD5A4B039A1A70434B1B882F2B9CBF35
:102B700041F28833C9F800304FF0000398BF8AF85B
:102B800000B03360FFF796FB7EE4022A7FF435AF96
:102B9000227ABBF80010322012FB00F2D2E64FF48A
:102BA000FA607DE70C20A9E7DFF8CCB0484ABBF813
:102BB0000010302940F2D88032480078002800F018
:102BC000D38031390120572989F80000DFF81491AA
:102BD00000F28A8092F9001041B33E4801786AF30E
:102BE000C301017000F03EFD3B4988696AF31F4054
:102BF0008861C8696AF31F40C86101F5805188691E
:102C00006AF31F408861C8696AF31F40C86101F513
:102C1000805188696AF31F408861C8696AF31F4060
:102C2000C86101F000F82A4A82F800A0FFF7B0FA64
:102C3000E37E40F22A32B2FBF3F20092302141F6F9
:102C40005832BBF80000B2FBF3F3782200F046F9EB
:102C5000A9F8000080B200F065F9B9F800204FF43F
:102C60001673B3FBF2F30A4A13800DE4F91C00203B
:102C7000251C002054D9FFFF161C00202E1C00200C
:102C8000181C00201A1C0020241C0020C02709004A
:102C9000201C0020221C002006030020E802002047
:102CA000EC020020EE020020EA020020AC1C002012
:102CB000B81C0020E5020020041C0020FC1C0020A1
:102CC000FB1C0020ED1C00202F1C0020E702002030
:102CD000FD1C00200080044000C0044000000020D3
:102CE000F00200200C0000201070FFF751FABBF832
:102CF0000020DFF8E0B1C82A84BF5023A9F80030D3
:102D0000B9F8000088BFABF800A000F00BF9BBF9E0
:102D10000090B9F1000F7FF4B7AB604B604A83F8C5
:102D20000090012313705F4A13705F4B42F228300A
:102D300018605E4B18601A685D4B1A6001F04EFA1D
:102D4000142333605B4B83F800905B4B1A785B4B2A
:102D50001A70637F13B15A4B3A881A80FEF7D2FC7F
:102D600001F0E6F8FFF790BB0123267F13704C4A71
:102D70000023012E137041D194F82930514A524951
:102D8000DFF8549103EB830303EB8303DB009BB277
:102D900013802A88534393FBF1F313449BB2632BB4
:102DA000A9F8003006D800F035FF484B00221A8001
:102DB000FFF76ABB00F0ACFD454AB9F800309169F5
:102DC00063F31F419161D16963F31F41D16102F542
:102DD0008052916963F31F419161D16963F31F418F
:102DE000D16102F58052916963F31F419161D1690C
:102DF00063F31F412F4BD1611E70D6E7022E2CD1F9
:102E0000304600F0D6FE2A88237B53434FF4FA6203
:102E1000B3FBF2F32E4A03EB83035B009169283383
:102E20009BB263F31F419161D16963F31F41D1618B
:102E300002F58052916963F31F419161D16963F397
:102E40001F41D16102F58052916963F31F41916185
:102E5000D16963F31F41D161A7E71D4A916963F30B
:102E60001F419161D16963F31F41D16102F5805225
:102E7000916963F31F419161D16963F31F41D1618E
:102E800002F58052916963F31F419161D16963F347
:102E90001F41D16100F084FE87E700BF251C0020A0
:102EA0002E1C0020E702002000000020B81C00209B
:102EB000B41C0020A01C0020E6020020040000201A
:102EC000CC1C0020061D002030F8FFFF201C002035
:102ED00000C004402A1C00201E1C0020F0B5059DE7
:102EE0000446184601E01D463246944210DAA142DB
:102EF0000FDA85420DD08F182B18B1EB670F4FEA10
:102F000067064FEA630305D0B442ECDD711CE8E7C5
:102F10002846F0BD1846FCE7401A0028B8BF4042DA
:102F20007047000064235843074B58601A7842F0FA
:102F300001021A70596821B91A7861F300021A70F7
:102F4000704700BFF6E700BF00A0044010B504467C
:102F500004B910BD4FF47A70FFF7E4FF013CF7E7C6
:102F60004840082243B2002BBDBF5B0083F007033B
:102F7000D8B2400002F1FF33A8BFC0B213F0FF0285
:102F8000F0D1704738B5044645180020AC4200D156
:102F900038BD014614F8010BFFF7E2FFF6E7000029
:102FA000134B1B68A3F15A02B2F59B7F11D2114B50
:102FB0001A6841F26F739A420AD80F4A01231370BC
:102FC0000E4A0E2111700E4A202111700D4A137005
:102FD00070470A3B462BFBD8064B1B68B3F57A7F3C
:102FE000F6D2054A012313700721044AEAE700BF1D
:102FF000B4030020DC1E0020111C0020C0040020AF
:10300000B2030020121C0020084B1B686FF4FA6208
:103010001344074A934207D8064B04221A70064A03
:1030200001231370054A1370704700BFB4030020DA
:103030007E2C0300B2030020101C0020121C002074
:1030400070B5064D04464FF0FF36013C00D270BD0E
:10305000EE604FF47A70FFF765FFF6E7003004404A
:103060002DE9F8430A23B0FBF3F202FB1300C0B2D0
:10307000244B254A13F80080244D254C04274FF09B
:10308000FF39244E244BC2F80C901B78B16963F3CE
:103090001F41B161F16963F31F41F161A96963F3F4
:1030A0001F41A961E96963F31F41E961A16963F304
:1030B0001F41A161E16963F31F4148FA07F313F06F
:1030C000010F0CBF3C20B420E161FFF7B9FFB369E9
:1030D0009BB2B361F3699BB2F361AB699BB2AB6125
:1030E000EB699BB2EB61A3699BB2A361E3699BB2FD
:1030F000E3613C20013FFFF7A3FF7B1C024AC0D1E4
:10310000BDE8F883204800000030044000D00440AF
:1031100000E0044000C00440F01E00200B28034BD8
:1031200028BF0B2040001870704700BFF01E002021
:103130000F4A104B91691B7863F31F419161D1696C
:1031400063F31F41D16102F58052916963F31F411E
:103150009161D16963F31F41D16102F58052916998
:1031600063F31F419161D16963F31F41D1617047DE
:1031700000C00440F01E00202DE9F041DFF88880F7
:103180001C4F1D4E40F2CF73C8F810303B613361C5
:1031900072B61A4C4FF0FF35E5603C2000F0C0FDE0
:1031A0000120FFF7C5FF00F004FD4B20FFF7CEFE26
:1031B000E560502000F0B4FD4B20FFF7C7FEE5604E
:1031C0005A2000F0ADFD4B20E560FFF7BFFEE56043
:1031D00000F0E6FC002000F0A3FD094B00221A805D
:1031E000084B1B88C8F810303B61336162B6BDE8FC
:1031F000F08100BF00D0044000E0044000300440F3
:10320000001C0020F202002000C004402DE9F84319
:1032100072B61F4CDFF88890DFF888801D4F40F2AF
:10322000CF734FF0FF35C9F810305020C8F8103078
:103230003B61E56000F074FD0320FFF779FF00F0CB
:10324000B8FC154B002664201E80FFF77FFEE5606A
:10325000462000F065FD6420FFF778FEE560282039
:1032600000F05EFD6420FFF771FEE56000F098FC61
:10327000304600F055FD084B1E80084B1B88C9F8EE
:103280001030C8F810303B6162B6BDE8F88300BF6B
:103290000030044000E00440001C0020F202002046
:1032A00000C0044000D004402DE9F041DFF87480F4
:1032B000174F184E184C40F2CF73C8F81030322018
:1032C0003B61336100F02CFD0220FFF731FF4FF02E
:1032D000FF3500F06EFC9620FFF738FEE5601E20FB
:1032E000E56000F01DFD9620FFF730FEE56000F080
:1032F00057FC002000F014FD084B00221A80084BF8
:103300001B88C8F810303B613361BDE8F08100BF15
:1033100000D0044000E0044000300440001C0020C5
:10332000F202002000C004402DE9F041DFF8748073
:10333000174F184E184C40F2CF73C8F810302820A1
:103340003B61336100F0ECFC0220FFF7F1FE4FF02F
:10335000FF3500F02EFC9620FFF7F8FDE5605020C9
:10336000E56000F0DDFC9620FFF7F0FDE56000F081
:1033700017FC002000F0D4FC084B00221A80084BF8
:103380001B88C8F810303B613361BDE8F08100BF95
:1033900000D0044000E0044000300440001C002045
:1033A000F202002000C004401B4A40F2CF7370B507
:1033B000136102F58052136102F58052136172B6F7
:1033C000FFF7B6FE154D77244FF0FF36EE60142060
:1033D000B4FBF0F000F0EDFB60100A3080B200F0BA
:1033E0009FFC023C0A20FFF7B1FD631CEE60EDD1AB
:1033F00000F0D6FB002000F093FC094B00221A805D
:10340000084B054A1B88136102F58052136102F5CF
:103410008052136162B670BD00C0044000300440A9
:10342000001C0020F20200202DE9F843044672B689
:10343000154F164E164D40F2CF733B61032033619A
:103440002B6100F0B6FB322000F06AFC4FF00A0955
:10345000FFF76EFEB4FBF9F84046FFF701FEB4201B
:10346000FFF7EEFD09FB1840C0B2FFF7F9FD00F0D1
:1034700097FB002000F054FC064B1B883B61336136
:103480002B6162B6BDE8F88300C0044000D0044060
:1034900000E00440F202002038B50B4CBDF810509B
:1034A0002070A170080A110A6070E1702271A37186
:1034B0001A0A09212B0A20466271E3712572FFF76F
:1034C00061FD607238BD00BFF41E0020064B074945
:1034D0009A880A800649188808805988054B1980FF
:1034E000054B1A80704700BF261F0020AA1C002031
:1034F000A81C0020A61C0020A41C0020084982094A
:1035000000F03F0051F82230013251F822209A1A7F
:10351000504348BF3F30A3EBA01000B2704700BF3C
:10352000BC030020014B1888FFF7E8BFA41C002053
:1035300010B5374BD3F8A020012161F30922C3F85D
:10354000A020D3F8A02061F31D62C3F8A020D3F817
:10355000A02042F48032C3F8A020D3F8A0200A4370
:10356000C3F8A020D3F8A02042F01002C3F8A02096
:103570004FF08043072093F800240A4383F8002487
:103580001A7E60F303021A76D86D022262F31740A6
:10359000D865B3F8500062F30100A3F85000B3F807
:1035A0005000062464F34B20A3F85000B3F85000F9
:1035B00020F48070A3F85000B3F8400020F003001E
:1035C000A3F84000B3F8400061F30510A3F84000F1
:1035D000B3F8401062F30921A3F840109A6E32212B
:1035E00061F317029A661A7842F001021A70D3F852
:1035F00000249207FBD51A8C42F001021A84054B75
:103600004FF480225A60C02283F8322310BD00BFDD
:103610000010044000E100E0104B93F900201B78FB
:10362000062B19D80120904010F0480F0FD110F050
:10363000240F07D110F012000FD0094B1868C0F307
:1036400080107047064B1868C0F300107047044B99
:103650001868C0F340107047002070470400002035
:1036600000100140124BB3F8642042F01002A3F89E
:103670006420B3F8642042F02002A3F86420B3F879
:10368000642042F04002A3F86420B3F8802042F0A6
:103690001002A3F88020B3F8802042F02002A3F8A3
:1036A0008020B3F8802042F04002A3F880207047C9
:1036B00000100140094BB3F8602042F01002A3F85B
:1036C0006020B3F8602042F02002A3F86020B3F835
:1036D000602042F04002A3F86020704700100140D3
:1036E000494B93F90020494B012A01D0042A35D1D6
:1036F000B3F8642042F01002A3F86420B3F8642009
:1037000042F02002A3F86420B3F8602042F04002A7
:10371000A3F860201A8B42F010021A831A8B42F031
:1037200020021A839A8A42F040029A82384A92F919
:103730000020002A55D0B3F8742042F01002A3F8FC
:103740007420B3F8742042F02002A3F87420B3F878
:10375000742042F04002A3F874207047022A01D07E
:10376000052A1ED1B3F8602042F01002A3F86020B1
:10377000B3F8642042F02002A3F86420B3F8642078
:1037800042F04002A3F864209A8A42F010029A8222
:103790001A8B42F020021A831A8B42F040021A83DD
:1037A000C4E7032A1AD1B3F8642042F01002A3F848
:1037B0006420B3F8602042F02002A3F86020B3F840
:1037C000642042F04002A3F864201A8B42F01002F9
:1037D0001A839A8A42F020029A82DDE7062AE2D012
:1037E000A4E7B3F8702042F01002A3F87020B3F8F9
:1037F000702042F02002A3F87020B3F8702042F04D
:103800004002A3F87020704704000020001001401F
:10381000E40200202DE9F7430C460546002110463E
:10382000904600F007FFB4F5806FA8BF4FF48064A6
:10383000082CB8BF0824264600274FF0FF39042E75
:103840003246294628BF04226846CDE9009900F097
:10385000C5FF042E07D9321F042A28BF0422291DC0
:1038600001A800F0BBFF08EB0700002269460837FB
:1038700000F0CAFEA742A6F1080605F10805DED34E
:1038800003B0BDE8F083F7B50024CDE900440F464E
:1038900016460546A64201D803B0F0BD0022E01945
:1038A000694600F09BFE009B2B70621C964284BF11
:1038B0001A0A6A70A21C964284BF1A0CAA70E21CF3
:1038C000964284BF1B0EEB70231D9E4284BF019B5A
:1038D0002B71631D9E4282BF019B1B0A6B71A31D4E
:1038E0009E4284BFBDF80630AB71E31D9E4284BF8B
:1038F0009DF80730EB7108340835CBE7024B1868A8
:10390000C0F34010704700BF000001407047000046
:10391000124B1A8F42F480521A879A8942F48052CD
:103920009A811A8F42F480621A879A8942F48062DF
:103930009A811A8F42F480721A879A8942F48072AF
:103940009A819A8E42F400529A869A8E42F40062CC
:103950009A869A8E42F400729A867047000001405F
:10396000114B1A78114BAAB91A8F42F400621A87C8
:103970009A8942F400629A819A8D42F400629A8593
:103980000A4B9A8E42F480629A861A8E42F48062C2
:103990001A8670479A8E42F400629A861A8E42F412
:1039A00000621A86ECE700BFED1C00200000014019
:1039B0000C4B1A8F42F400621A879A8942F4006213
:1039C0009A819A8D42F400629A851A8F42F480623D
:1039D0001A879A8942F480629A819A8D42F48062B1
:1039E0009A857047000001400C4B1A8F42F4006228
:1039F0001A871A8942F400621A819A8D42F4006291
:103A00009A851A8F42F480621A879A8942F48062FA
:103A10009A819A8D42F480629A8570470000014035
:103A2000114B1A78114BAAB91A8F42F400521A8717
:103A30009A8942F400529A819A8D42F400529A85F2
:103A40000A4B9A8E42F480529A861A8E42F4805221
:103A50001A8670479A8E42F400529A861A8E42F461
:103A600000521A86ECE700BFED1C00200000014068
:103A70000C4B1A8F42F400521A879A8942F4005272
:103A80009A819A8D42F400529A851A8F42F480529C
:103A90001A879A8942F480529A819A8D42F4805210
:103AA0009A857047000001400C4B1A8F42F4005277
:103AB0001A871A8942F400521A819A8D42F40052F0
:103AC0009A851A8F42F480521A879A8942F480525A
:103AD0009A819A8D42F480529A8570470000014085
:103AE000114B1A78114BAAB91A8F42F400721A8737
:103AF0009A8942F400729A819A8D42F400729A85F2
:103B00000A4B9A8E42F480729A861A8E42F4807220
:103B10001A8670479A8E42F400729A861A8E42F480
:103B200000721A86ECE700BFED1C00200000014087
:103B30000C4B1A8F42F400721A879A8942F4007271
:103B40009A819A8D42F400729A851A8F42F480729B
:103B50001A879A8942F480729A819A8D42F480720F
:103B60009A857047000001400C4B1A8F42F4007296
:103B70001A871A8942F400721A819A8D42F40072EF
:103B80009A851A8F42F480721A879A8942F4807259
:103B90009A819A8D42F480729A85704700000140A4
:103BA00008B5FFF765FFFFF703FFBDE80840FFF723
:103BB000BFBF013808B505282BD8DFE800F0030B9C
:103BC00013181D25FFF72CFFFFF70EFFBDE8084077
:103BD000FFF7AEBFFFF74CFFFFF706FFBDE8084059
:103BE000FFF77EBFFFF760FFFFF7E2FEF6E7FFF7A4
:103BF0005BFFFFF7B5FEE9E7FFF73AFFFFF7B0FE1F
:103C0000BDE80840FFF7B0BFFFF70AFFFFF7D0FE9F
:103C1000F6E708BD08B5FFF747FFFFF7E5FEBDE88B
:103C20000840FFF7A1BF08B5FFF7FAFEFFF798FEBF
:103C3000BDE80840FFF754BF084B4FF4806210B551
:103C40005A63074C074A0023D9B2884200D810BDF6
:103C500012F8011B21600133F6E700BF001001409C
:103C600000500440F41E002038B5254B2548D3F8F9
:103C7000002142F00202C3F80021D3F8042142F0EF
:103C80000202C3F80421204A4FF480615161116A95
:103C9000012464F315511162196E1C4A0A4042F462
:103CA00080721A661A6E22431A661A6E42F0100269
:103CB0001A6600F081FD134B9C72154C19464FF4A7
:103CC000E13520465D6000F04BFD94F82C3043F068
:103CD000100384F82C30238F43F400632387294694
:103CE000204600F00DFD238E43F001032386094B8F
:103CF0004FF000721A60C02283F8192338BD00BF4C
:103D000000100440301F002000100140FFFCFEC0E6
:103D10000050044000E100E07047FEE762B67047E3
:103D200030B5E0B95B495C4A0B68012464F38C232D
:103D30000B60136864F38C231360584B1D6864F3A5
:103D40008C251D600C6860F3C9140C60116860F369
:103D5000C91111601A6860F3C9121A600AE03228AA
:103D600000F088800FD8192855D004D80A282CD004
:103D700014283DD030BD1E2860D02828FAD14549EE
:103D800002200B6837E046287CD016D8372875D03B
:103D90003C28EFD13F49404A0B68032060F38C2355
:103DA0000B60136860F38C2313603C4B1C6860F35A
:103DB0008C241C600C680420C5E7502866D05A2863
:103DC000D8D1344903200B683BE0324A11680523FF
:103DD00063F3C911116002F58052116863F3C911D0
:103DE000116002F58052116863F3C9111160C1E7D7
:103DF00028490B68012060F38C23274A0B60136865
:103E000060F38C231360254B1C6860F38C241C60CA
:103E10000C68052097E71F490B68012060F38C238D
:103E20001D4A0B60136860F38C2313601B4B1C68E6
:103E300060F38C241C600C68062084E715490B682D
:103E40000120154A60F38C230B60136860F38C2308
:103E50001360124B1C6860F38C241C60086840F4EB
:103E600060700860116841F4607111601A6842F472
:103E7000607272E7074902200B68CFE7054902200C
:103E80000B68DEE7034903200B68B4E70149032010
:103E90000B68C3E700C0044000D0044000E00440C9
:103EA000074B1A8D22F480721A8500221A609A8DAF
:103EB00042F008029A851A8D42F480721A85704782
:103EC00000200540044B9A6960F31F429A61DA6949
:103ED00060F31F42DA61704700C00440044B9A69E6
:103EE00060F31F429A61DA6960F31F42DA6170473A
:103EF00000D00440044B9A6960F31F429A61DA696A
:103F000060F31F42DA61704700E00440074B1A7803
:103F100022F008021A701A7842F001021A701A7818
:103F200042F001021A70FFF703BB00BF008004409B
:103F3000704700001D4B93F8002142F0020283F805
:103F4000002193F8042142F0020283F80421A3F532
:103F500040339A8A42F010029A829A8A42F02002F2
:103F60009A829A8A42F040029A82196A012262F386
:103F700009211962196A62F38B211962196A62F3C5
:103F80000D311962B3F8682042F01002A3F86820DE
:103F9000B3F8682042F02002A3F86820B3F8682044
:103FA00042F04002A3F86820704700BF00100440B0
:103FB0000A4B5A6B42F001025A635A6B42F01002EC
:103FC0005A6303F50053064A1A601A7A42F0010256
:103FD0001A721A7A42F002021A72704700100440F4
:103FE000400D030070B5664A6649138A43F4E063E6
:103FF0001382A2F540320120536943F47C5353618C
:10400000614BB3F8E02042F01002A3F8E020B3F8CF
:10401000F02042F01002A3F8F020B3F8E02042F0C4
:104020002002A3F8E020B3F8F02042F02002A3F829
:10403000F020B3F8E02042F04002A3F8E020B3F80B
:10404000F02042F04002A3F8F02003F5304340F2A4
:10405000CF751A6860F38C221A601A6822F46072B5
:104060001A600A6860F38C220A600A6822F460729F
:104070000A60464A146860F38C241460146824F4BF
:10408000607414605C6D44F400645C655C6D60F3A6
:104090000A245C651C6860F305141C601D611E8C9D
:1040A000022464F383061E841E8C60F305161E84AE
:1040B0009E8C60F383069E849E8C64F309269E8406
:1040C0000D610E8C64F383060E840E8C60F305166E
:1040D0000E848E8C60F383068E848E8C64F30926A6
:1040E0008E841561158C64F383051584158C60F33B
:1040F00005151584958C60F383059584908C64F385
:104100000920908428205863986393F8305045F034
:10411000030583F8305093F8305064F3830583F837
:1041200030504863886391F8305045F0030581F8BA
:10413000305091F8305064F3830581F8305050636B
:10414000906392F8300040F0030082F8300092F85B
:10415000300064F3830082F8300093F8300020F0E0
:10416000300083F8300091F8303023F0300381F8CC
:10417000303092F8303023F0300382F8303070BDA8
:104180000000044000D004400010044000E004405F
:104190000C4BB3F8E02042F00202A3F8E020B3F8A1
:1041A000F02042F00202A3F8F02003F500434FF0A4
:1041B000FF325A6000229A601A7842F001021A70A7
:1041C000704700BF00100440034B58683023C043C1
:1041D000B0FBF3F080B270470090044030235843A6
:1041E000014BC0435860704700900440302358434F
:1041F000054B58601A7B42F001021A731A7842F09C
:1042000008021A70704700BF008004404FF0E0239E
:1042100041F2BE225A61054AE021002082F82310B3
:1042200098610720186182F82310704700ED00E0C4
:104230000F4BB3F8E02042F00102A3F8E020B3F8FE
:10424000F02042F00102A3F8F02003F5E0434FF024
:10425000FF3200215A6099601A7842F008021A7001
:10426000044B4FF400121A6083F81513704700BF17
:104270000010044000E100E0084BB3F8E02042F0F9
:104280000402A3F8E020B3F8F02042F00402A3F8FF
:10429000F02003F5104300229A607047001004409C
:1042A0000F4B93F8002142F0020283F8002193F8AB
:1042B000042142F0020283F8042193F8002142F025
:1042C000010283F8002193F8042142F0010283F8EF
:1042D0000421044B10221A60402283F80423704703
:1042E0000010044000E100E030B5764A7649B2F8AB
:1042F000E03043F48063A2F8E030B2F8F03043F4E9
:104300008063A2F8F03092F8003143F0010382F8A4
:10431000003192F8043143F0010382F804316B4B11
:10432000C3F89C10198F41F020011987B3F8A4102D
:1043300041F02001A3F8A410998A41F0200199824C
:10434000D96921F44061D961B3F8841041F02001AA
:10435000A3F88410B3F8681041F02001A3F86810A6
:10436000B3F8781041F02001A3F87810B2F8E030EB
:10437000574943F00803A2F8E030B2F8F03043F0B8
:104380000803A2F8F030534B4FF0FF325A609A60A6
:10439000514A524B9360888D40F400708885888D17
:1043A00040F4806088854FF4807088600020C86089
:1043B000118D41F480711185118D41F48051118569
:1043C00047490C784749153401EB8401C3F8C01004
:1043D000D3F8C840022161F31964C3F8C840D3F888
:1043E000C84061F39B64C3F8C8403F4CC3F8C44065
:1043F000D3F8C84061F31D74C3F8C840D3F8C8406F
:1044000044F04044C3F8C840D3F8C84060F3913446
:10441000C3F8C840D3F8C840152565F30D14C3F898
:10442000C840D3F8C840012565F30204C3F8C8406A
:104430002E4CC3F88040D3F8884061F31964C3F868
:104440008840D3F8884044F04064C3F88840284C42
:10445000C3F88440D3F8884061F31D74C3F88840E2
:10446000D3F8884061F39F74C3F88840D3F888106C
:1044700060F39131C3F88810D3F888101F2464F3D7
:104480000D11C3F88810D3F8881065F30201C3F842
:104490008810184B4FF400215960602183F83313C2
:1044A000154B196A29431962196A21F4803119627E
:1044B000138D60F308231385138D60F30C3313857C
:1044C00030BD00BF00100440EEDBEAAD000001404B
:1044D0000020054000B004400040044000200020BF
:1044E000C0040020E01D00200C20054004B0044062
:1044F000441A002000E100E00000044008B5FFF786
:10450000F3FEFFF7CDFEFFF76DFDFFF741FEFFF76E
:1045100011FDFFF78DFEFFF779FEFFF7ADFEBDE859
:104520000840FFF7A1BB000010B5154B5A6902F017
:104530000302012A1FD020D9032A08BFD9689A682C
:104540009C6898689B6806BFC1F305210131012171
:10455000C2F3052213F4801FC0F30140094B04F09D
:104560003F0408BF0023824063434A43B3FBF2F396
:10457000054A136010BD0023FAE7024BF8E700BFBD
:104580000010044000127A00002200200E4C0F4D53
:10459000AC4209DA21686268A368043BA2BFC8582C
:1045A000D050FAE70C34F3E7094B0A4CA34208DA7F
:1045B00019685A680020043AA4BF8850FBE7083302
:1045C000F4E7FDF7DBFE00002C480000384800004F
:1045D0003848000040480000FEE700BF084B186064
:1045E00008481043586200BF00BF00BF00BF00BFB3
:1045F0009A6AD207FCD45A680A609B684B6070477D
:10460000000003400100DEC0084B186008685860D5
:104610004968996006491143596200BF00BF00BF55
:1046200000BF00BF9A6AD207FCD470470000034065
:104630000200DEC0064A074B0A4318605A6200BFF8
:1046400000BF00BF00BF00BF9A6AD207FCD470470A
:104650000400DEC00000034010B50A4A0A4893680F
:1046600094689168926812F4801F04F03F04C1F3CB
:10467000014108BF0020C3F3052360438B40B0FB1A
:10468000F3F010BD0010044000127A0010B5054B85
:10469000DC68FFF7E1FFC4F305240134B0FBF4F05C
:1046A00010BD00BF00100440022805D0032805D02B
:1046B000012805D1FFF7D0BFFFF7E8BF01487047D9
:1046C0000020704700127A000C4A00F1180310B560
:1046D00052F8230052F82310C90342BF52F8234076
:1046E000C4F305640134C0F301204CBF640001240D
:1046F000FFF7DAFFB0FBF4F010BD00BF001004407C
:1047000038B505461448281A18BF01200C46FFF793
:10471000DBFF07EE900AB8EE677A07EE904AF8EEF4
:10472000677AF3EE006A67EEA67A2301C7EE276A7E
:10473000B0FBF3F36B6207EE903AF8EEE77A36EEF1
:10474000E77ADFED066AF6EE007AE7EE267AFCEE0F
:10475000E77AC5ED0A7A38BD005004400000804277
:1047600038B504460D464968FFF7CAFF94F82C3067
:10477000AA7862F3461384F82C3094F82C302A7807
:1047800062F3C30384F82C30E36A6A7823F086036B
:104790001343E36294F82C302A7A62F3041384F80A
:1047A0002C30AA7A238E62F3082323866A7A238E1A
:1047B00062F34923238638BD0322002382704FF41D
:1047C000165203804260038183727047024403469D
:1047D000934200D1704703F8011BF9E70A44914264
:1047E00000F1FF3300D1704710B511F8014B03F809
:1047F000014F9142F9D110BD5FF800F0A50A0020E9
:104800005FF800F0AD1400205FF800F05D0E0020AE
:10481000191B12131D1516171A090A0B1E0D0E0F60
:0A4820001F0F0703010010181C1EF3
:0E482A0000004048000000000020C8180000F8
:08483800001C00200406000032
:10484000D430000001060604280001006400B40012
:10485000B700BA00BD00C100C400C700CA00CD0047
:10486000D000D300D600D900DC00E000E300E60071
:10487000E900EC00EF00F200F500F700FA00FD009F
:1048800000010301060109010B010E0111011301D1
:10489000160119011B011E01200123012501280118
:1048A0002A012C012F0131013301350138013A0170
:1048B0003C013E01400142014401460147014901DA
:1048C0004B014D014E01500151015301540156015C
:1048D000570158015A015B015C015D015E015F01F6
:1048E00060016101620163016301640165016501A9
:1048F0006601660167016701670168016801680177
:104900006801680168016801680168016701670161
:104910006701660166016501650164016301630168
:104920006201610160015F015E015D015C015B018B
:104930005A015801570156015401530151015001C8
:104940004E014D014B01490147014601440142011D
:1049500040013E013C013A0138013501330131018A
:104960002F012C012A0128012501230120011E010C
:104970001B0119011601130111010E010B0109019F
:10498000060103010001FD00FA00F700F500F20046
:10499000EF00EC00E900E600E300E000DC00D900F5
:1049A000D600D300D000CD00CA00C700C400C100AB
:1049B000BD00BA00B700B400B100AE00AB00A70064
:1049C000A400A1009E009B009800950092008F001B
:1049D0008C008800850082007F007C0079007600D2
:1049E000730071006E006B006800650062005F007C
:1049F0005D005A005700550052004F004D004A001C
:104A000048004500430040003E003C0039003700AC
:104A10003500330030002E002C002A00280026002C
:104A20002400220021001F001D001B001A00180096
:104A30001700150014001200110010000E000D00E8
:104A40000C000B000A000900080007000600050022
:104A50000500040003000300020002000100010041
:104A60000100000000000000000000000000000045
:104A7000000000000100010001000200020003002C
:104A800003000400050005000600070008000900F7
:104A90000A000B000C000D000E00100011001200A7
:104AA00014001500170018001A001B001D001F003D
:104AB000210022002400260028002A002C002E00BD
:104AC000300033003500370039003C003E00400024
:104AD0004300450048004A004D004F005200550079
:104AE00057005A005D005F006200650068006B00BF
:104AF0006E0071007300760079007C007F008200F8
:104B0000850088008C008F009200950098009B0023
:104B10009E00A100A400A700AB00AE00B100000001
:104B20002800000001050501D0079001460014008F
:104B3000D007CF07CF072800D0072800C800020100
:104B40000A0078009F000100DC05D0074A016400DC
:104B5000DC056C074C04B40064192800D0071E1053
:104B60000602000000F0000000000000010000004C
:104B70000000000032000000000000000000000003
:104B800000000000000000001027000050C30000DB
:104B9000000000009001000000000000E803000099
:104BA0000000000000000000000000000000000005
:104BB000204E0000A0860100000000000A00000056
:104BC0000000000064000000000000000000000081
:104BD00000000000000000001027000050C300008B
:104BE0000F000000E803000010270000080000018B
:104BF00050C32000204E0000FA0000004E030000C9
:104C0000C50000009B000000850000007700000048
:104C10006C000000640000005D0000005700000010
:104C2000520000004D000000490000004500000057
:104C3000420000003F0000003C000000390000007E
:104C40003600000034000000320000002F00000099
:104C50002D0000002B0000002900000027000000AC
:104C600025000000230000002200000020000000BA
:104C70001E0000001C0000001B00000019000000C6
:104C800017000000160000001400000013000000D0
:104C9000110000000F0000000E0000000C000000DA
:104CA0000B000000090000000700000006000000E3
:104CB000040000000200000000000000FFFFFFFFF2
:104CC000FDFFFFFFFBFFFFFFF9FFFFFFF7FFFFFF08
:104CD000F5FFFFFFF2FFFFFFF0FFFFFFEDFFFFFF1C
:104CE000EAFFFFFFE7FFFFFFE4FFFFFFDFFFFFFF3C
:104CF000DAFFFFFFD4FFFFFFC9FFFFFF9BFFFFFFAE
:104D0000070000001A4A08B5137823F0080313704F
:104D100001F0EEF917491848184A09880088136805
:104D2000014403EB51035B081360154B116893F8C2
:104D30002F30D3B9134B1B7812684B439B09124990
:104D40009BB20B80C3EB5203104A1380104B93F9B4
:104D500000300BB901F084F90E4A136842F20F716A
:104D60008B429CBF0133136008BD0B4BE3E700BFD0
:104D700000800440081C0020061C002000000020C9
:104D8000101D0020FE1C00202C1C0020021C0020F6
:104D9000E70200200C1C0020FC1C002070B5114D07
:104DA000114E00242B78A34214DC72B60F4C01F094
:104DB00063F90F4B22881A8001F092F920800020BD
:104DC00001F06EF90B4B1888013080B201F08CF9BC
:104DD00062B670BD01F06CF996F900309842F8D0D7
:104DE0000134DFE7E5020020E4020020061C002079
:104DF000081C0020021C00202DE9F84F774BDFF83B
:104E00006C82774D1B882B80B8F80030754ADFF82C
:104E100060B2DFF860A2744E744F754C0133A8F88D
:104E20000030138801331380BBF800303A78013327
:104E3000ABF80030BAF800300133AAF8003033780C
:104E400013435AB2002B32D16A4803787BB36A4BC2
:104E50006A491B88002B40F0BC800A88013292B25C
:104E600044F6206C62450A8021D9654A12881E2AC0
:104E700040F2AC800122327094F82420012A40F0E4
:104E8000A280604A4FF4B9711288B2FBF1F29946E0
:104E90003A7097F900204A4500F389805A4B5B4AE3
:104EA0001B78127813435AB20BB984F82620E07F9E
:104EB00090B1574B57491B780A88013B0132034494
:104EC00092B203EB8303B2EB830F0A8004DD524BF3
:104ED00001221A7000230B80504B93F90030002BF5
:104EE00040F04F814E4B4F4F93F90030BBB13B78B0
:104EF000ABB101F0C1F801F0E3F84B4A137873B994
:104F00004A494B4B91F900101B78002963D049495D
:104F10000978994203D20123137001F099F8BAF885
:104F2000003097F80090142B40F2C980424B0122C8
:104F30001A700023AAF80030404B93F900300BB3ED
:104F4000B9F1000F1ED094F82C203D48C8235A43D5
:104F50003C4BB3F9001001F0D3F83B4A3B4942F215
:104F6000107390FBF3F0138809881B1A1BB28B4255
:104F70001380BCBF0BB21380B3F5FA6FC4BF4FF4FC
:104F8000FA631380637F002B7AD0B9F1000F77D0DA
:104F90002F4B30481968304B1A8801F0B1F82F4B6D
:104FA0001A6810442E4A904266DD1A6068E001F0EB
:104FB0006BF8642001F090F82A4B4FF0FF31D96074
:104FC00009F1010965E701F05FF867E703700B80FD
:104FD0006DE70A806BE724499AE700BFCA1C0020EE
:104FE000041C0020041D00201A1C0020DB1C0020D3
:104FF000101D0020121C00209C1C0020E41C00201E
:10500000181C0020DC1C0020101C0020111C00209B
:105010001E030020DE1C0020A11C0020251C0020F7
:10502000E70200202E1C00200B1C0020E4020020C0
:105030000A1C002006000020A21C0020EC1C0020FE
:1050400050030020CE1C00200A030020FA0200209A
:10505000000000202803002018030020E81C002086
:1050600060E316000030044005000020D81C00203A
:10507000021D0020001D0020002840F388801860D9
:105080007D4B93F90030D3B1B9F1000F17D07B4BB2
:105090007B481A887B4B196801F032F87A4A7B49C1
:1050A0001368034423EAE3738B42D4BF1360116097
:1050B000774B1B68632B9EBF714A00231361754BAE
:1050C000BBF800201B78DFF814A29A42BAF800104F
:1050D00067D90023ABF800306D4B1B68952B01D9C5
:1050E000952956D86C4B1B786C4ADBB213702A8812
:1050F000501A9842C4BF5A1892B2A1EB0200C8BF1E
:105100002A80834202DACB1A9AB22A803378DFF8F7
:10511000D0B16349002B56D0B9F1000F00F0888060
:10512000604B1B882F2B51D95F4B187800283BD040
:1051300000221A705D4B227D1A702B88AAF800306D
:105140005B480B885B4A5C4903610B6113618469AE
:10515000BBF8003063F31F448461C46963F31F44E8
:10516000C461886963F31F408861C86963F31F40A5
:10517000C861916963F31F419161D16963F31F4174
:10518000D1614E4A138801331380BDE8F88F0022A5
:105190000BE74B4B1B68B3F5FA7F8CBF494B4A4B6F
:1051A000A1E729800A46B1E740F2B273934228BFD3
:1051B00013460A8853434FF4FA62B3FBF2F3013308
:1051C000ABF80030B9E7B9F1000F31D0354B1B888F
:1051D0002E2B2DD8637B012B0BD134480024047077
:1051E000314803700B8853434FF4FA62B3FBF2F378
:1051F000E6E7022B03D12D4801230370F0E7D81E08
:105200000628EFD82848314C06783EB9023B237077
:1052100044F62063A8F800300123E2E72378002B4E
:10522000FAD10478012C02BF194C3B702360F3E7DC
:10523000274B93F9003053B1264B0A881B88264828
:10524000534393FBF0F31A44ABF8002075E7207F3B
:105250000228C7D13378002BC4D000F039FF1049A1
:10526000237B0A8853434FF4FA62B3FBF2F303EB58
:1052700083035B002833A3E7F41C0020F61C002006
:1052800078030020B01C0020F01C0020F0583801EA
:105290000C1C0020091D002021030020FE0200201C
:1052A000F4020020161C0020FB1C0020ED1C002036
:1052B00000C0044000E0044000D00440001C002076
:1052C000B81C0020200300201F030020FA1C00202F
:1052D000A01C0020061D002030F8FFFFCC1C002081
:1052E0001E1C00202DE9F84F8F4D904F2968EB6F61
:1052F0005B1A8F499BB20B808E4909885E099942DF
:105300003E8017D28C490988994213D98B480021D5
:1053100001808B484FEA931C04464FEA460ED5E9BC
:1053200000239A1A92B24EB1944505D9854A138842
:1053300001331380BDE8F88F9645F7D3964201F10B
:1053400001012CBF00220122102940F8042B05F195
:105350000805E4D1226923686169DFF8308253408F
:10536000226A5A40636883EA0106636A5E40B600B7
:1053700046EAC206E368E2695340E26A53401E43CC
:10538000A269A3685340A26A534046EA4306D4E99F
:105390000C239D00E36B45EAC2051D43A36B45EA60
:1053A0004305694B1B78F6B2EDB2FBB998F80030B3
:1053B000E3B900F059FEC8B1644A13780133DBB297
:1053C000642B137012D9012388F800303B886048A1
:1053D0006049722B8CBF4FF4807280225E4B8BBF72
:1053E000028002800820072008809A6098F8003028
:1053F00013B1C5F10F05EDB2B54240F03081D4E9EB
:1054000000A3D4E9028ED4F828904C4F5B0243EA03
:105410008A23D4E904C643EA090343EA0823D4E90A
:1054200006504FF0000B43EACE13A7F800B043EA52
:105430008C13DFF85CB1D4E9081243EA4613BBF8D9
:105440000070E46A43EA051343EAC00343480137A6
:10545000012C43EA8103ABF8007043EA420308BF22
:105460003F4F027808BF3C70D2B1012A04D13D4AB7
:105470001380022303705DE7022A03D13A4A1370B6
:105480000323F7E7032A7FF455AF252B7FF452AFB0
:10549000354A344B11781B88344AD1540023E9E74C
:1054A0002F2B334C0ADD334991F9001061B1324999
:1054B00022709BB20B80314B1A703BE7591E2E298C
:1054C00022D82D4923700A802378002B3FF432AF75
:1054D0002B4A1278002A7FF42DAF1B490978002946
:1054E0003FF428AF274D2978994224491CBF2B70DF
:1054F0000A70052B9CBF06220A700A780132D2B2CC
:10550000052A47D80A7015E7002BDDD11E4A92F90B
:105510000020012A04BF174A1370174A0023138082
:10552000164A23701370CFE7C8180020D61D00203C
:10553000DE1D0020D01E0020B0030020001C002033
:10554000901E0020DA1D00201A1C0020741E00206E
:10555000AE030020AC03002000200540D41D002035
:10556000A11C0020D21D0020D11D0020101D0020F4
:105570001B1C0020841E0020141C0020761E00200E
:105580002E1C0020751E0020851E00209F1C002060
:10559000DC1D00200022013B0A70232B19D8DFE814
:1055A00003F012151E212427292D33361839414DB9
:1055B00018181818185157181818181818181818F3
:1055C00018181818185B294B012201E0274B0222FA
:1055D0001A70274B22781A7000232370AAE6234BF7
:1055E0000322F5E7214B0422F2E7204B0522EFE7E7
:1055F000204BE9E7204B5A74204BE5E71E4B012274
:105600005A741E4B0022E3E71B4B9A74E1E71A4BD6
:105610000122FAE700F040FD174B144A5B7C01338E
:105620001370D6E7164A01231370164A1370164BEF
:1056300093F90030012BCCD1144AF1E7104B1A70CA
:10564000134BC1E70C4B0D4A5B7CC3F10103E7E749
:10565000094B5A7C094BBBE701230370B9E70D4A9C
:105660001388013313800C4B002225E7C91C00204E
:105670009E1C0020081D0020101D00200A00002094
:10568000D81D0020871E0020851E0020841E0020BB
:10569000861E0020DA1D0020D41D0020F0B55D4CD0
:1056A0005D49002323601E4641F823600133252B0A
:1056B000FAD15A4B1B7823B1594A9579002D60D005
:1056C00096710023574A92F900501DB100231370C0
:1056D0004FF46063544A92F90050002D7FD00023AC
:1056E000137040F6FF63514A13604D4B01229A71CB
:1056F0004E4A4F4E1068C0F30B1483B2C0F307201C
:1057000060404340DB43106803F00F0343EA00139B
:1057100013601568146810681368464A2D1303F067
:105720000F03C4F303245557D3561457C0F3031083
:1057300043EAC533125643EA842343EA42133360F3
:105740003D4B1D783D4B6A1C1B8841F822303C4B79
:105750001F8813204FF0010CD6F800E051F82240CA
:105760000CFA00F303EA0E03C340FC40013263402D
:10577000BB40013841F82230EED2002341F82530F9
:10578000F0BD9788568813880137BFB201360133C0
:10579000B6B29BB2272F9780568013800AD9294B27
:1057A0009580B3F90030322693FBF6F3DBB243F475
:1057B000C06387E7C72E09D9234B55801B8819265C
:1057C000B3FBF6F3DBB243F480637BE7C72B7FF6D2
:1057D00078AF1E4B15801B8843F4007372E7002BD3
:1057E00081D11B4B1A784FF6FF73002A08BF184669
:1057F0000F2340FA03F2012A07D1083B2360184126
:1058000040EA4320094B186072E7013B082BF0D1B6
:105810000023F4E7801E0020E01D0020D81D00209A
:10582000881E0020871E0020861E0020781E002073
:105830007C1E002010480000C0040020AE030020A1
:10584000AC030020CE1C0020DC1C0020AC1C00207F
:105850002E1C0020694B2DE9F74FD3E9002060246E
:10586000801A6FF44873B0FBF4F41FFA84F808EB65
:10587000030292B240F276518A42614F4FF0000229
:1058800000F2B1805F4DDFF8A4912A8099F80020E2
:10589000002A7CD0DFF898A19AF80020EAB140F203
:1058A000E1439845584E66D933784B2B32D9574A45
:1058B000138819339BB21380A3F2EE23544A03EBEF
:1058C000D3735B10002482F8203089F8004000F088
:1058D000E3FB347000F0C0FB1CE04E4ADFF854B12B
:1058E000117809B9ABF800004B4EBBF8000001314C
:1058F0001170318800F0E8FB3228464A3F4B1CD932
:10590000002389F800303388ABF800309AF8003073
:10591000002BC4D100232B80404B414819883A68A2
:10592000006889B2511A814260DD1A8810FA82F249
:1059300092B21A8003B0BDE8F08FD3E90031CB1AE0
:1059400031881278C1EBC1010B44C3F3CF03322A73
:105950003380D8D9193B9BB23380A3F2D6632C4A4B
:1059600003EBD3735B1082F8213001238AF80030F7
:1059700000F086FBC7E73378244A0133337013887D
:10598000C3EBC30313FA84F3DB1013808CE7204BC3
:10599000A0B29C7CBCB1234B198841450AD34FF47B
:1059A0007A73009313460A461849098800F060FB91
:1059B0003860AFE74FF4FA63174A0093128840F259
:1059C000E9330131F2E740F2FF73134A0F490093C4
:1059D000128809882F2300F04BFB3028CCBF0346E8
:1059E00023463B6096E7104B1A8095E7198889B2E9
:1059F000891A8842BCBF1A88121A99E7C818002071
:105A0000EC1E0020001C0020E21E002014030020D9
:105A1000101D0020E71E002012030020141C00208F
:105A2000B803002010030020181C0020E81E0020EE
:105A3000E61E0020E41E00201E481F490268F8B53B
:105A40001E4F002439602346A446012550F8046FF8
:105A5000964207D0B21A8A423CBF11464FF0010C61
:105A60001344012401351F2D3246EFD1002C08BF0D
:105A70000023BCF1000F00D03960114A11485B09C6
:105A8000136090F90030012B01D100F035FB0E4975
:105A90000B78012B01D100F0FBFA90F900303BB9F3
:105AA0000B782BB900F028FBBDE8F84000F0F0BA05
:105AB000F8BD00BFC818002080841E00B403002079
:105AC000DC1E0020111C0020101C0020F8B5544DD5
:105AD0002B787BB1534B1B7863B1534B534C1B78E2
:105AE00023B100F003F902232370F8BD00F04EF952
:105AF0000123F9E74E4B1A782AB9FFF79DFFBDE85D
:105B0000F84000F0F3B81B78012BEED1454B1B7821
:105B1000A3B1454B1B786BB1464B18684FF6FF732A
:105B20006430984228BF184680B2FFF7B7FDFFF7F0
:105B3000D9FBE4E7BDE8F84000F028B93E4C94F901
:105B40000030012B03D1FFF7CDFB00F0CFF83B4B2A
:105B50001B78012B08D100F087FA394B002834D08C
:105B600003221A7000F0C2F82B78002BBDD194F9F3
:105B70000030FBB1334B1A78032A1BD8324909880D
:105B8000052917D931490132D2B21A70CB6F096891
:105B90005B1A2F490868042A10FA83F30B6009D1B5
:105BA000C3F38F12C3F38F03D0182A499B1A2A4AD2
:105BB00008801380294F388860B9294B1B784BB96E
:105BC000214A1388013313808FE702221A70FFF7EE
:105BD00041FEC7E7234BDD79002D86D11A4B1D808E
:105BE00040F2DC53984280D91F4E204C318800F09F
:105BF0006BFA322803D925703B88338075E7237808
:105C00000133DBB2322B2370F6D9194B1D78002DEE
:105C1000F2D100F051FA124B01221A70EBE700BFEB
:105C20001A1C00209F1C00202C1F0020FF1C00209D
:105C3000121C0020B01C0020111C0020101C002091
:105C4000B2030020D81E0020181C0020C818002015
:105C5000D41E0020B0030020D01E00209C1C002079
:105C6000E81E0020101D0020E01E0020E91E00207C
:105C7000E61E002010B5184C238F43F02003238725
:105C800000F03EF9154B16491A7C22F001021A74F5
:105C90000A7F22F004020A771A7822F001021A70B1
:105CA0004FF0FF325A609A600E4A918D21F0100138
:105CB000918500211160B4F884200B4942F0200244
:105CC000A4F884200A7942F001020A711A7842F09D
:105CD00001021A7010BD00BF0000014000B0044076
:105CE000000004400020054000400440034B1B78A6
:105CF000034B00221A70FFF7BDBF00BF101C00202D
:105D00002C1F002008B500F03BF91A4B1A7822F03E
:105D100001021A70184A1288510859609A601A7C58
:105D200042F001021A74154A00211160D160918D70
:105D300041F001019185918D41F01001918510494B
:105D40000A7F42F004020A770E4A918E41F0200148
:105D50009186B2F8881041F02001A2F888100A4913
:105D60000A7942F001020A711A7842F001021A70AF
:105D700008BD00BF00B00440AE0300200020054075
:105D8000000004400000014000400440024B01229A
:105D90001A70FFF7B7BF00BF2C1F00200A4BDA6B49
:105DA00012050FD5B3F8442042F40062A3F8442052
:105DB000A3F5503301211A6A61F315521A624FF4A8
:105DC00080629A63704700BF00500440FFF714B828
:105DD0004FF08043012282B09A620E4A0020D96EB1
:105DE000890601D102B070470190019909290CD9A7
:105DF000196FC1F30B011180196FC1F30B015180B1
:105E0000196FC1F30B019180E9E700BF01990131DE
:105E10000191EAE7261F00201D4B93F900201B7813
:105E2000062B33D80123934013F0480F21D113F0F0
:105E3000240F11D113F0120F28D0164BD3F8802065
:105E4000500623D54FF0FF32C3F880201B6E13F0AD
:105E5000400F1BD0FEF7A2BF0E4BD3F88020D10617
:105E600014D54FF0FF32C3F880201B6E13F0100FD3
:105E7000EFE7084BD3F88020920607D54FF0FF32AA
:105E8000C3F880201B6E13F0200FE2E7704700BFBD
:105E90000400002000100140034A137B43F001037B
:105EA0001373FEF72FBF00BF0080044008B5074BF7
:105EB0004FF0FF325A6000F0B9F8FFF707FE044BCD
:105EC0004FF40022C3F8042108BD00BF00B0044015
:105ED00000E100E008B5054B00225A61FFF7F6FD2E
:105EE000034B4FF40022C3F8042108BD00200540F5
:105EF00000E100E04FF0804302229A6200F0D4B843
:105F00001A4B4FF4003210B5C3F88020BFF34F8F07
:105F1000BFF36F8F4FF400521A600021144A83F8C8
:105F20000D13138D61F30C331385124BD3F88800D6
:105F300061F391301049C3F888000978D3F88800DC
:105F4000013961F30D10C3F88800D3F888000124EB
:105F500064F30200C3F88800084800EB8101C3F82D
:105F60008410138D43F48073138510BD00E100E0AD
:105F70000040044000200020B2030020C819002087
:105F80001A4B4FF40052C3F88020BFF34F8FBFF37A
:105F90006F8F4FF400321A600021154A83F81113F5
:105FA000138D61F308231385124BD3F8C80061F3F6
:105FB0009130C3F8C800D3F8C810152060F30D1154
:105FC000C3F8C810D3F8C810012060F30201C3F869
:105FD000C810094908780949153001EB8001C3F858
:105FE000C010138D43F480531385704700E100E027
:105FF0000040044000200020C0040020E01D0020DC
:10600000074B08491B78084A013B01EB8301C2F8A2
:106010008410D2F8881063F30D11C2F8881070470D
:10602000B2030020C81900200020002006480749BC
:10603000202350F8042B013BD24313F0FF0341F817
:10604000042BF6D1704700BFC8190020C8180020E3
:106050005FF800F0B52200005FF800F0293300007F
:106060005FF800F0B53600005FF800F0FD38000082
:106070005FF800F0DD2E00005FF800F065360000EC
:106080005FF800F0A93200005FF800F00D32000068
:106090005FF800F0093000005FF800F05D160000C6
:1060A0005FF800F0DD4100005FF800F041210000E2
:1060B0005FF800F0193600005FF800F0A933000027
:1060C0005FF800F0BD1600005FF800F0192F000027
:1060D0005FF800F0B33B00005FF800F04D2F0000C8
:1060E0005FF800F0C94100005FF800F0ED410000EA
:1060F0005FF800F0051700005FF800F0A12F000026
:086100005FF800F07D110000C2
:106108000000000000000000000000000000000087
:106118000000000000000000000000000000000077
:106128000000000000000000000000000000000067
:106138000000000000000000000000000000000057
:106148000000000000000000000000000000000047
:106158000000000000000000000000000000000037
:106168000000000000000000000000000000000027
:106178000000000000000000000000000000000017
:106188000000000000000000000000000000000007
:1061980000000000000000000000000000000000F7
:1061A80000000000000000000000000000000000E7
:1061B80000000000000000000000000000000000D7
:1061C80000000000000000000000000000000000C7
:1061D80000000000000000000000000000000000B7
:1061E80000000000000000000000000000000000A7
:1061F8000000000000000000000000000000000097
:106208000000000000000000000000000000000086
:106218000000000000000000000000000000000076
:106228000000000000000000000000000000000066
:106238000000000000000000000000000000000056
:106248000000000000000000000000000000000046
:106258000000000000000000000000000000000036
:106268000000000000000000000000000000000026
:106278000000000000000000000000000000000016
:106288000000000000000000000000000000000006
:1062980000000000000000000000000000000000F6
:1062A80000000000000000000000000000000000E6
:1062B80000000000000000000000000000000000D6
:1062C80000000000000000000000000000000000C6
:1062D80000000000000000000000000000000000B6
:1062E80000000000000000000000000000000000A6
:1062F8000000000000000000000000000000000096
:040000030000458D27
:00000001FF
